{
  "_format": "hh-sol-artifact-1",
  "contractName": "AIOracle",
  "sourceName": "contracts/AIOracle.sol",
  "abi": [
    {
      "inputs": [
        {
          "internalType": "uint256",
          "name": "_minimumConfidence",
          "type": "uint256"
        },
        {
          "internalType": "uint256",
          "name": "_minimumAgents",
          "type": "uint256"
        },
        {
          "internalType": "uint256",
          "name": "_consensusThreshold",
          "type": "uint256"
        }
      ],
      "stateMutability": "nonpayable",
      "type": "constructor"
    },
    {
      "inputs": [
        {
          "internalType": "address",
          "name": "owner",
          "type": "address"
        }
      ],
      "name": "OwnableInvalidOwner",
      "type": "error"
    },
    {
      "inputs": [
        {
          "internalType": "address",
          "name": "account",
          "type": "address"
        }
      ],
      "name": "OwnableUnauthorizedAccount",
      "type": "error"
    },
    {
      "inputs": [],
      "name": "ReentrancyGuardReentrantCall",
      "type": "error"
    },
    {
      "anonymous": false,
      "inputs": [
        {
          "indexed": true,
          "internalType": "address",
          "name": "market",
          "type": "address"
        },
        {
          "indexed": false,
          "internalType": "uint256",
          "name": "outcome",
          "type": "uint256"
        },
        {
          "indexed": false,
          "internalType": "uint256",
          "name": "confidence",
          "type": "uint256"
        },
        {
          "indexed": false,
          "internalType": "address",
          "name": "submitter",
          "type": "address"
        }
      ],
      "name": "AIResultSubmitted",
      "type": "event"
    },
    {
      "anonymous": false,
      "inputs": [
        {
          "indexed": true,
          "internalType": "address",
          "name": "agent",
          "type": "address"
        },
        {
          "indexed": false,
          "internalType": "uint256",
          "name": "reputation",
          "type": "uint256"
        }
      ],
      "name": "AgentAuthorized",
      "type": "event"
    },
    {
      "anonymous": false,
      "inputs": [
        {
          "indexed": true,
          "internalType": "address",
          "name": "agent",
          "type": "address"
        }
      ],
      "name": "AgentDeauthorized",
      "type": "event"
    },
    {
      "anonymous": false,
      "inputs": [
        {
          "indexed": true,
          "internalType": "address",
          "name": "market",
          "type": "address"
        },
        {
          "indexed": true,
          "internalType": "address",
          "name": "agent",
          "type": "address"
        },
        {
          "indexed": false,
          "internalType": "uint256",
          "name": "outcome",
          "type": "uint256"
        },
        {
          "indexed": false,
          "internalType": "uint256",
          "name": "confidence",
          "type": "uint256"
        }
      ],
      "name": "AgentReportSubmitted",
      "type": "event"
    },
    {
      "anonymous": false,
      "inputs": [
        {
          "indexed": true,
          "internalType": "address",
          "name": "market",
          "type": "address"
        },
        {
          "indexed": false,
          "internalType": "uint256",
          "name": "outcome",
          "type": "uint256"
        },
        {
          "indexed": false,
          "internalType": "uint256",
          "name": "confidence",
          "type": "uint256"
        }
      ],
      "name": "ConsensusReached",
      "type": "event"
    },
    {
      "anonymous": false,
      "inputs": [
        {
          "indexed": true,
          "internalType": "address",
          "name": "previousOwner",
          "type": "address"
        },
        {
          "indexed": true,
          "internalType": "address",
          "name": "newOwner",
          "type": "address"
        }
      ],
      "name": "OwnershipTransferred",
      "type": "event"
    },
    {
      "inputs": [
        {
          "internalType": "address",
          "name": "",
          "type": "address"
        },
        {
          "internalType": "address",
          "name": "",
          "type": "address"
        }
      ],
      "name": "agentReports",
      "outputs": [
        {
          "internalType": "address",
          "name": "agent",
          "type": "address"
        },
        {
          "internalType": "uint256",
          "name": "outcome",
          "type": "uint256"
        },
        {
          "internalType": "uint256",
          "name": "confidence",
          "type": "uint256"
        },
        {
          "internalType": "string",
          "name": "data",
          "type": "string"
        },
        {
          "internalType": "uint256",
          "name": "timestamp",
          "type": "uint256"
        }
      ],
      "stateMutability": "view",
      "type": "function"
    },
    {
      "inputs": [
        {
          "internalType": "address",
          "name": "",
          "type": "address"
        }
      ],
      "name": "agentReputation",
      "outputs": [
        {
          "internalType": "uint256",
          "name": "",
          "type": "uint256"
        }
      ],
      "stateMutability": "view",
      "type": "function"
    },
    {
      "inputs": [
        {
          "internalType": "address",
          "name": "",
          "type": "address"
        }
      ],
      "name": "aiResults",
      "outputs": [
        {
          "internalType": "uint256",
          "name": "predictedOutcome",
          "type": "uint256"
        },
        {
          "internalType": "uint256",
          "name": "confidence",
          "type": "uint256"
        },
        {
          "internalType": "uint256",
          "name": "timestamp",
          "type": "uint256"
        },
        {
          "internalType": "bool",
          "name": "isSubmitted",
          "type": "bool"
        },
        {
          "internalType": "string",
          "name": "evidence",
          "type": "string"
        },
        {
          "internalType": "address",
          "name": "submitter",
          "type": "address"
        }
      ],
      "stateMutability": "view",
      "type": "function"
    },
    {
      "inputs": [
        {
          "internalType": "address",
          "name": "_agent",
          "type": "address"
        },
        {
          "internalType": "uint256",
          "name": "_reputation",
          "type": "uint256"
        }
      ],
      "name": "authorizeAgent",
      "outputs": [],
      "stateMutability": "nonpayable",
      "type": "function"
    },
    {
      "inputs": [
        {
          "internalType": "address",
          "name": "",
          "type": "address"
        }
      ],
      "name": "authorizedAgents",
      "outputs": [
        {
          "internalType": "bool",
          "name": "",
          "type": "bool"
        }
      ],
      "stateMutability": "view",
      "type": "function"
    },
    {
      "inputs": [],
      "name": "consensusThreshold",
      "outputs": [
        {
          "internalType": "uint256",
          "name": "",
          "type": "uint256"
        }
      ],
      "stateMutability": "view",
      "type": "function"
    },
    {
      "inputs": [
        {
          "internalType": "address",
          "name": "_agent",
          "type": "address"
        }
      ],
      "name": "deauthorizeAgent",
      "outputs": [],
      "stateMutability": "nonpayable",
      "type": "function"
    },
    {
      "inputs": [
        {
          "internalType": "address",
          "name": "_market",
          "type": "address"
        }
      ],
      "name": "forceConsensusCheck",
      "outputs": [],
      "stateMutability": "nonpayable",
      "type": "function"
    },
    {
      "inputs": [
        {
          "internalType": "address",
          "name": "_market",
          "type": "address"
        }
      ],
      "name": "getAIResult",
      "outputs": [
        {
          "internalType": "uint256",
          "name": "outcome",
          "type": "uint256"
        },
        {
          "internalType": "uint256",
          "name": "confidence",
          "type": "uint256"
        },
        {
          "internalType": "bool",
          "name": "isSubmitted",
          "type": "bool"
        }
      ],
      "stateMutability": "view",
      "type": "function"
    },
    {
      "inputs": [
        {
          "internalType": "address",
          "name": "_market",
          "type": "address"
        },
        {
          "internalType": "address",
          "name": "_agent",
          "type": "address"
        }
      ],
      "name": "getAgentReport",
      "outputs": [
        {
          "components": [
            {
              "internalType": "address",
              "name": "agent",
              "type": "address"
            },
            {
              "internalType": "uint256",
              "name": "outcome",
              "type": "uint256"
            },
            {
              "internalType": "uint256",
              "name": "confidence",
              "type": "uint256"
            },
            {
              "internalType": "string",
              "name": "data",
              "type": "string"
            },
            {
              "internalType": "uint256",
              "name": "timestamp",
              "type": "uint256"
            }
          ],
          "internalType": "struct AIOracle.AgentReport",
          "name": "",
          "type": "tuple"
        }
      ],
      "stateMutability": "view",
      "type": "function"
    },
    {
      "inputs": [
        {
          "internalType": "address",
          "name": "_market",
          "type": "address"
        }
      ],
      "name": "getMarketAgents",
      "outputs": [
        {
          "internalType": "address[]",
          "name": "",
          "type": "address[]"
        }
      ],
      "stateMutability": "view",
      "type": "function"
    },
    {
      "inputs": [
        {
          "internalType": "address",
          "name": "",
          "type": "address"
        },
        {
          "internalType": "uint256",
          "name": "",
          "type": "uint256"
        }
      ],
      "name": "marketAgents",
      "outputs": [
        {
          "internalType": "address",
          "name": "",
          "type": "address"
        }
      ],
      "stateMutability": "view",
      "type": "function"
    },
    {
      "inputs": [],
      "name": "minimumAgents",
      "outputs": [
        {
          "internalType": "uint256",
          "name": "",
          "type": "uint256"
        }
      ],
      "stateMutability": "view",
      "type": "function"
    },
    {
      "inputs": [],
      "name": "minimumConfidence",
      "outputs": [
        {
          "internalType": "uint256",
          "name": "",
          "type": "uint256"
        }
      ],
      "stateMutability": "view",
      "type": "function"
    },
    {
      "inputs": [],
      "name": "owner",
      "outputs": [
        {
          "internalType": "address",
          "name": "",
          "type": "address"
        }
      ],
      "stateMutability": "view",
      "type": "function"
    },
    {
      "inputs": [],
      "name": "renounceOwnership",
      "outputs": [],
      "stateMutability": "nonpayable",
      "type": "function"
    },
    {
      "inputs": [
        {
          "internalType": "address",
          "name": "_market",
          "type": "address"
        },
        {
          "internalType": "uint256",
          "name": "_predictedOutcome",
          "type": "uint256"
        },
        {
          "internalType": "uint256",
          "name": "_confidence",
          "type": "uint256"
        },
        {
          "internalType": "string",
          "name": "_evidence",
          "type": "string"
        }
      ],
      "name": "submitAIResult",
      "outputs": [],
      "stateMutability": "nonpayable",
      "type": "function"
    },
    {
      "inputs": [
        {
          "internalType": "address",
          "name": "_market",
          "type": "address"
        },
        {
          "internalType": "uint256",
          "name": "_outcome",
          "type": "uint256"
        },
        {
          "internalType": "uint256",
          "name": "_confidence",
          "type": "uint256"
        },
        {
          "internalType": "string",
          "name": "_evidence",
          "type": "string"
        }
      ],
      "name": "submitManualResult",
      "outputs": [],
      "stateMutability": "nonpayable",
      "type": "function"
    },
    {
      "inputs": [
        {
          "internalType": "address",
          "name": "newOwner",
          "type": "address"
        }
      ],
      "name": "transferOwnership",
      "outputs": [],
      "stateMutability": "nonpayable",
      "type": "function"
    },
    {
      "inputs": [
        {
          "internalType": "address",
          "name": "_agent",
          "type": "address"
        },
        {
          "internalType": "uint256",
          "name": "_newReputation",
          "type": "uint256"
        }
      ],
      "name": "updateAgentReputation",
      "outputs": [],
      "stateMutability": "nonpayable",
      "type": "function"
    },
    {
      "inputs": [
        {
          "internalType": "uint256",
          "name": "_minimumConfidence",
          "type": "uint256"
        },
        {
          "internalType": "uint256",
          "name": "_minimumAgents",
          "type": "uint256"
        },
        {
          "internalType": "uint256",
          "name": "_consensusThreshold",
          "type": "uint256"
        }
      ],
      "name": "updateParameters",
      "outputs": [],
      "stateMutability": "nonpayable",
      "type": "function"
    }
  ],
  "bytecode": "0x6080346100cd57601f611ba638819003918201601f19168301916001600160401b038311848410176100d2578084926060946040528339810103126100cd57805190604060208201519101519033156100b45760008054336001600160a01b0319821681178355604051959290916001600160a01b0316907f8be0079c531659141344cd1fd0a4f28419497f9722a3daafe3b4186f6b6457e09080a360018055600755600855600955611abd90816100e98239f35b604051631e4fbdf760e01b815260006004820152602490fd5b600080fd5b634e487b7160e01b600052604160045260246000fdfe6080604052600436101561001257600080fd5b60003560e01c806321ebd74814610f125780633811f90514610e7f57806354de6e3214610e455780636d6b49e014610e1c578063715018a614610dc3578063770c0fb214610d515780637d415b0d14610c8157806383ee761a14610bce57806384b5f692146109285780638a4221d4146108895780638da5cb5b146108605780639259b274146107be5780639f5b45df146107a0578063c983a11e14610747578063db61c57d14610729578063dec2899514610399578063efd760651461035a578063f2fde38b146102cc578063f76d50ad1461021c578063f9b0b5b9146101fe5763fd5ef5a91461010357600080fd5b346101f95760403660031901126101f95761011c610faa565b610124610fc0565b604051906101318261102c565b60008252600060806020938285820152826040820152606080820152015260018060a01b0380931660005260038252826040600020911660005281526040600020906101ee604051926101838461102c565b84815416845260018101548385019081526002820154906040860191825260046101af6003850161106a565b9360608801948552015494608087019586526040519788978289525116908701525160408601525160608501525160a0608085015260c0840190611110565b905160a08301520390f35b600080fd5b346101f95760003660031901126101f9576020600954604051908152f35b346101f95760603660031901126101f95760443560043561023b61120c565b60648111610292576064821161025957600755602435600855600955005b60405162461bcd60e51b8152602060048201526011602482015270125b9d985b1a59081d1a1c995cda1bdb19607a1b6044820152606490fd5b60405162461bcd60e51b8152602060048201526012602482015271496e76616c696420636f6e666964656e636560701b6044820152606490fd5b346101f95760203660031901126101f9576102e5610faa565b6102ed61120c565b6001600160a01b0390811690811561034157600054826bffffffffffffffffffffffff60a01b821617600055167f8be0079c531659141344cd1fd0a4f28419497f9722a3daafe3b4186f6b6457e0600080a3005b604051631e4fbdf760e01b815260006004820152602490fd5b346101f95760203660031901126101f9576001600160a01b0361037b610faa565b166000526005602052602060ff604060002054166040519015158152f35b346101f9576103a736611150565b9291909233600052600560205260ff60406000205416156106ed576002600154146106db57600260015560075484106106a1576064841161065c576040516103ee8161102c565b3381526020810191838352604082018681526060830191825242608084015260018060a01b038616600052600360205260406000203360005260205260406000209360018060a01b038451166bffffffffffffffffffffffff60a01b8654161785555160018501555160028401555180519067ffffffffffffffff821161057f5761047c6003850154610fd6565b601f8111610615575b50602090601f83116001146105a057918060049492608094600092610595575b50508160011b916000199060031b1c19161760038501555b01519101556104cc3383611997565b1561051c575b61051692604051918252602082015233907f4db4def2ebd720221e7b88003545a82c45be3928bb5f508a3a15a1a53670282f604060018060a01b03851692a3611238565b60018055005b6001600160a01b0382166000908152600460205260409020805493906801000000000000000085101561057f578461055c916001610516970181556111de565b81546001600160a01b0360039290921b91821b19163390911b17905592506104d2565b634e487b7160e01b600052604160045260246000fd5b0151905089806104a5565b906003850160005260206000209160005b601f19851681106105fd5750926004949260019260809583601f198116106105e4575b505050811b0160038501556104bd565b015160001960f88460031b161c191690558980806105d4565b919260206001819286850151815501940192016105b1565b600385016000526020600020601f840160051c810160208510610655575b601f830160051c82018110610649575050610485565b60008155600101610633565b5080610633565b60405162461bcd60e51b815260206004820152601860248201527f496e76616c696420636f6e666964656e6365206c6576656c00000000000000006044820152606490fd5b60405162461bcd60e51b8152602060048201526012602482015271436f6e666964656e636520746f6f206c6f7760701b6044820152606490fd5b604051633ee5aeb560e01b8152600490fd5b60405162461bcd60e51b8152602060048201526014602482015273139bdd08185d5d1a1bdc9a5e9959081859d95b9d60621b6044820152606490fd5b346101f95760003660031901126101f9576020600854604051908152f35b346101f95760403660031901126101f957610760610faa565b6024359060018060a01b038091166000526004602052604060002080548310156101f957602092610790916111de565b9190546040519260031b1c168152f35b346101f95760003660031901126101f9576020600754604051908152f35b346101f95760403660031901126101f9576107d7610faa565b602435906107e361120c565b6001600160a01b031660008181526005602052604090205460ff1615610824576108116103e8831115611a3b565b6000526006602052604060002055600080f35b60405162461bcd60e51b81526020600482015260146024820152731059d95b9d081b9bdd08185d5d1a1bdc9a5e995960621b6044820152606490fd5b346101f95760003660031901126101f9576000546040516001600160a01b039091168152602090f35b346101f95760203660031901126101f95760606001600160a01b03806108ad610faa565b16600052600260205260406000206040516108c781611010565b815481526001820154926020820193845260028301546040830152600560ff6003850154169386840194151585526109016004820161106a565b608085015201541660a0820152519151905115159060405192835260208301526040820152f35b346101f95761093636611150565b61094193919361120c565b60018060a01b039081831691826000526020916002835260ff60036040600020015416610b89576040519061097582611010565b86825283820193888552604083014281526109d6606085016001928382526080870195865260a0870198338a528a600052600286526040600020975188555184880155516002870155511515600386019060ff801983541691151516179055565b6004840192519182519267ffffffffffffffff841161057f576109f98554610fd6565b601f8111610b40575b5081601f8511600114610aa85750938380610a939895600595610a9b9f99957fc29d3b4477f7f991fa65706c95ab0f02a84f1e98d0661c5abdef1c092a72026b9c99600094610a9d575b50501b916000199060031b1c19161790555b9251920180546001600160a01b0319169190921617905560408051878152602081019290925233908201529081906060820190565b0390a2611920565b005b015192503880610a4c565b9190601f9493941984168660005283600020936000905b828210610b2957505093610a9b9d97937fc29d3b4477f7f991fa65706c95ab0f02a84f1e98d0661c5abdef1c092a72026b9a9793610a939a97938360059810610b10575b505050811b019055610a5e565b015160001960f88460031b161c191690558e8080610b03565b808886978294978701518155019601940190610abf565b8560005282600020601f860160051c810191848710610b7f575b601f0160051c019084905b828110610b73575050610a02565b60008155018490610b65565b9091508190610b5a565b60405162461bcd60e51b815260048101849052601860248201527f526573756c7420616c7265616479207375626d697474656400000000000000006044820152606490fd5b346101f9576020806003193601126101f9576001600160a01b039081610bf2610faa565b1660005260048152604060002060405191828183549182815201908193600052826000209060005b818110610c6b5750505083610c30910384611048565b60405192818401908285525180915260408401929160005b828110610c555785850386f35b8351871685529381019392810192600101610c48565b8254881684529284019260019283019201610c1a565b346101f95760403660031901126101f957610c9a610faa565b60243590610ca661120c565b6001600160a01b0316908115610d1457602081610ce86103e87fb96c0d1669568ce35ff427b65ce0c24076c0ddde00997047dd705a87f1bab02e941115611a3b565b83600052600582526040600020600160ff198254161790556006825280604060002055604051908152a2005b60405162461bcd60e51b8152602060048201526015602482015274496e76616c6964206167656e74206164647265737360581b6044820152606490fd5b346101f95760203660031901126101f957610d6a610faa565b610d7261120c565b60018060a01b0316806000526005602052604060002060ff1981541690556006602052600060408120557f69258123e9dbc03da1ee0667259dcd60f4a7c1202406374c0a10d8fca0111178600080a2005b346101f95760003660031901126101f957610ddc61120c565b600080546001600160a01b0319811682556001600160a01b03167f8be0079c531659141344cd1fd0a4f28419497f9722a3daafe3b4186f6b6457e08280a3005b346101f95760203660031901126101f957610a9b610e38610faa565b610e4061120c565b611238565b346101f95760203660031901126101f9576001600160a01b03610e66610faa565b1660005260066020526020604060002054604051908152f35b346101f95760203660031901126101f9576001600160a01b0380610ea1610faa565b166000526002602052604060002090815490610f0860018401549360028101549260ff600383015416906005610ed96004850161106a565b93015416936040519687968752602087015260408601521515606085015260c0608085015260c0840190611110565b9060a08301520390f35b346101f95760403660031901126101f957610f2b610faa565b610f33610fc0565b60018060a01b0380921660005260036020528160406000209116600052602052604060002090815416600182015491610fa06002820154916004610f796003830161106a565b9101549260405195869586526020860152604085015260a0606085015260a0840190611110565b9060808301520390f35b600435906001600160a01b03821682036101f957565b602435906001600160a01b03821682036101f957565b90600182811c92168015611006575b6020831014610ff057565b634e487b7160e01b600052602260045260246000fd5b91607f1691610fe5565b60c0810190811067ffffffffffffffff82111761057f57604052565b60a0810190811067ffffffffffffffff82111761057f57604052565b90601f8019910116810190811067ffffffffffffffff82111761057f57604052565b906040519182600082549261107e84610fd6565b9081845260019485811690816000146110ed57506001146110aa575b50506110a892500383611048565b565b9093915060005260209081600020936000915b8183106110d55750506110a89350820101388061109a565b855488840185015294850194879450918301916110bd565b9150506110a894506020925060ff191682840152151560051b820101388061109a565b919082519283825260005b84811061113c575050826000602080949584010152601f8019910116010190565b60208183018101518483018201520161111b565b9060806003198301126101f9576004356001600160a01b03811681036101f95791602435916044359167ffffffffffffffff6064358181116101f957826023820112156101f957806004013591821161057f57604051926111bb601f8401601f191660200185611048565b828452602483830101116101f95781600092602460209301838601378301015290565b80548210156111f65760005260206000200190600090565b634e487b7160e01b600052603260045260246000fd5b6000546001600160a01b0316330361122057565b60405163118cdaa760e01b8152336004820152602490fd5b60018060a01b039081811660008181526020600481526040918281208351808285829454938481520190855285852092855b8782821061157c5750505061128192500382611048565b805160085411611573576112959086611612565b9197909290918061155b575b6112b0575b5050505050505050565b8451906112bc82611010565b8882528482018481528683019142835260608401906001918281528951948a86019467ffffffffffffffff958781108782111761154757918d9998979695949391611362938e52601488527310524818dbdb9cd95b9cdd5cc81c995858da195960621b8d8901526080890197885260a089019a308c52855260028d528d8520985189555185890155516002880155511515600387019060ff801983541691151516179055565b60048501935180519384116115335761137b8554610fd6565b601f81116114ed575b508991601f851160011461145a5793806114429f9e9d9c9a989693947f12b7578569c894199e8ad6dc7a90233e4bcecfeb787403388481ae1efd149f3b9c9a989582946005989461144f575b50501b916000199060031b1c19161790555b9251920180546001600160a01b0319169190921617905582518781526020810182905230604082015285907fc29d3b4477f7f991fa65706c95ab0f02a84f1e98d0661c5abdef1c092a72026b90606090a2825191878352820152a2611920565b38808080808080806112a6565b0151925038806113d0565b9190601f9493941984168684528b8420935b8181106114d85750926114429f9e9d9c9a9896939285927f12b7578569c894199e8ad6dc7a90233e4bcecfeb787403388481ae1efd149f3b9d9b999660059895106114bf575b505050811b0190556113e2565b015160001960f88460031b161c191690553880806114b2565b82840151855593860193928c01928c0161146c565b8583528a8320601f860160051c8101918c8710611529575b601f0160051c019084905b82811061151e575050611384565b848155018490611510565b9091508190611505565b634e487b7160e01b82526041600452602482fd5b634e487b7160e01b85526041600452602485fd5b508581526002845260ff6003868320015416156112a1565b50505050505050565b85548d1684526001958601958795509301920161126a565b60001981146115a35760010190565b634e487b7160e01b600052601160045260246000fd5b80518210156111f65760209160051b010190565b919082018092116115a357565b67ffffffffffffffff811161057f5760051b60200190565b81156115fc570490565b634e487b7160e01b600052601260045260246000fd5b9190805115611915576000928384918591865b85518110156116dd5760018060a01b038084168952608060039160048b6116936020958087528c60409384918761165f8c858520936115b9565b51168252895220928051956116738761102c565b84541686526001840154978601978852600284015490860152820161106a565b6060840152015491829101526116b3575b506116ae90611594565b611625565b949094518481116116d3575b506116cc6116ae91611594565b94906116a4565b93506116cc6116bf565b50949395929190821561190857600190818301978884116118f457611701896115da565b9860409061171182519b8c611048565b808b52611720601f19916115da565b0160209036828d013787855b6117ae575b5050505050506000908196825b82811115611778575050506064810290808204606414901517156115a35761177492611769916115f2565b6009541115936115f2565b9190565b8361178382846115b9565b5111611798575b61179390611594565b61173e565b975091506117a687836115b9565b51918761178a565b83518110156118ef5760018060a01b0380861660005260039081845284600020816117d985896115b9565b51166000528452846000208551916117f08361102c565b80825416835260808a830154938781019485526118196002850154968a8301978852850161106a565b60608201526004809401549182910152611848575b505050509061183f86949392611594565b9091929361172c565b611858859f95899e94959e6115b9565b51166000526006855285600020549081156118e6575b8c51918281029281840414901517156118d15750926118bd8f936118c59361183f956118b760648e9c9b9a990493516118b1856118ab83866115b9565b516115cd565b926115b9565b526115cd565b9b51906115cd565b9b91929394388061182e565b601190634e487b7160e01b6000525260246000fd5b6064915061186e565b611731565b634e487b7160e01b86526011600452602486fd5b5050509150915080918190565b506000915081908190565b6001600160a01b031690813b156101f9576000916084839260405194859384926331d6edc960e21b8452600484015260406024840152601460448401527320a49027b930b1b632902932b9b7b63aba34b7b760611b60648401525af16119835750565b67ffffffffffffffff811161057f57604052565b9060018060a01b038060009316835260206004815260408420906040518092839183825491828152019188528388209388905b828210611a1f575050506119e092500382611048565b835b8151811015611a1857826119f682846115b9565b511683851614611a0e57611a0990611594565b6119e2565b5050505050600190565b5050505090565b85548816845260019586019587955093810193909101906119ca565b15611a4257565b60405162461bcd60e51b815260206004820152601860248201527f496e76616c69642072657075746174696f6e2073636f726500000000000000006044820152606490fdfea2646970667358221220c7e9ef1e550c5da8c66258fb588917db360d090b715f16cc04ed24defc7e737764736f6c63430008140033",
  "linkReferences": {},
  "deployedLinkReferences": {}
}