{
  "_format": "hh-sol-artifact-1",
  "contractName": "DisputeResolution",
  "sourceName": "contracts/DisputeResolution.sol",
  "abi": [
    {
      "inputs": [
        {
          "internalType": "address",
          "name": "_orxToken",
          "type": "address"
        },
        {
          "internalType": "address",
          "name": "_stakingContract",
          "type": "address"
        },
        {
          "internalType": "uint256",
          "name": "_minimumDisputeBond",
          "type": "uint256"
        },
        {
          "internalType": "uint256",
          "name": "_votingPeriod",
          "type": "uint256"
        },
        {
          "internalType": "uint256",
          "name": "_quorumThreshold",
          "type": "uint256"
        }
      ],
      "stateMutability": "nonpayable",
      "type": "constructor"
    },
    {
      "inputs": [
        {
          "internalType": "address",
          "name": "owner",
          "type": "address"
        }
      ],
      "name": "OwnableInvalidOwner",
      "type": "error"
    },
    {
      "inputs": [
        {
          "internalType": "address",
          "name": "account",
          "type": "address"
        }
      ],
      "name": "OwnableUnauthorizedAccount",
      "type": "error"
    },
    {
      "inputs": [],
      "name": "ReentrancyGuardReentrantCall",
      "type": "error"
    },
    {
      "anonymous": false,
      "inputs": [
        {
          "indexed": true,
          "internalType": "uint256",
          "name": "disputeId",
          "type": "uint256"
        },
        {
          "indexed": true,
          "internalType": "address",
          "name": "market",
          "type": "address"
        },
        {
          "indexed": true,
          "internalType": "address",
          "name": "disputer",
          "type": "address"
        },
        {
          "indexed": false,
          "internalType": "uint256",
          "name": "disputedOutcome",
          "type": "uint256"
        },
        {
          "indexed": false,
          "internalType": "uint256",
          "name": "proposedOutcome",
          "type": "uint256"
        }
      ],
      "name": "DisputeOpened",
      "type": "event"
    },
    {
      "anonymous": false,
      "inputs": [
        {
          "indexed": true,
          "internalType": "uint256",
          "name": "disputeId",
          "type": "uint256"
        },
        {
          "indexed": false,
          "internalType": "bool",
          "name": "upheld",
          "type": "bool"
        },
        {
          "indexed": false,
          "internalType": "uint256",
          "name": "finalOutcome",
          "type": "uint256"
        }
      ],
      "name": "DisputeResolved",
      "type": "event"
    },
    {
      "anonymous": false,
      "inputs": [
        {
          "indexed": true,
          "internalType": "address",
          "name": "previousOwner",
          "type": "address"
        },
        {
          "indexed": true,
          "internalType": "address",
          "name": "newOwner",
          "type": "address"
        }
      ],
      "name": "OwnershipTransferred",
      "type": "event"
    },
    {
      "anonymous": false,
      "inputs": [
        {
          "indexed": true,
          "internalType": "uint256",
          "name": "disputeId",
          "type": "uint256"
        },
        {
          "indexed": false,
          "internalType": "uint256",
          "name": "totalRewards",
          "type": "uint256"
        }
      ],
      "name": "RewardsDistributed",
      "type": "event"
    },
    {
      "anonymous": false,
      "inputs": [
        {
          "indexed": true,
          "internalType": "uint256",
          "name": "disputeId",
          "type": "uint256"
        },
        {
          "indexed": true,
          "internalType": "address",
          "name": "voter",
          "type": "address"
        },
        {
          "indexed": false,
          "internalType": "enum DisputeResolution.VoteChoice",
          "name": "choice",
          "type": "uint8"
        },
        {
          "indexed": false,
          "internalType": "uint256",
          "name": "votingPower",
          "type": "uint256"
        }
      ],
      "name": "VoteCast",
      "type": "event"
    },
    {
      "inputs": [
        {
          "internalType": "uint256",
          "name": "_disputeId",
          "type": "uint256"
        },
        {
          "internalType": "address",
          "name": "_voter",
          "type": "address"
        }
      ],
      "name": "canVote",
      "outputs": [
        {
          "internalType": "bool",
          "name": "",
          "type": "bool"
        }
      ],
      "stateMutability": "view",
      "type": "function"
    },
    {
      "inputs": [
        {
          "internalType": "uint256",
          "name": "_disputeId",
          "type": "uint256"
        }
      ],
      "name": "claimVotingReward",
      "outputs": [],
      "stateMutability": "nonpayable",
      "type": "function"
    },
    {
      "inputs": [],
      "name": "disputeCounter",
      "outputs": [
        {
          "internalType": "uint256",
          "name": "",
          "type": "uint256"
        }
      ],
      "stateMutability": "view",
      "type": "function"
    },
    {
      "inputs": [
        {
          "internalType": "uint256",
          "name": "",
          "type": "uint256"
        },
        {
          "internalType": "uint256",
          "name": "",
          "type": "uint256"
        }
      ],
      "name": "disputeVoters",
      "outputs": [
        {
          "internalType": "address",
          "name": "",
          "type": "address"
        }
      ],
      "stateMutability": "view",
      "type": "function"
    },
    {
      "inputs": [
        {
          "internalType": "uint256",
          "name": "",
          "type": "uint256"
        }
      ],
      "name": "disputes",
      "outputs": [
        {
          "internalType": "address",
          "name": "market",
          "type": "address"
        },
        {
          "internalType": "address",
          "name": "disputer",
          "type": "address"
        },
        {
          "internalType": "uint256",
          "name": "disputedOutcome",
          "type": "uint256"
        },
        {
          "internalType": "uint256",
          "name": "proposedOutcome",
          "type": "uint256"
        },
        {
          "internalType": "string",
          "name": "reason",
          "type": "string"
        },
        {
          "internalType": "uint256",
          "name": "disputeBond",
          "type": "uint256"
        },
        {
          "internalType": "uint256",
          "name": "createdAt",
          "type": "uint256"
        },
        {
          "internalType": "uint256",
          "name": "votingEndsAt",
          "type": "uint256"
        },
        {
          "internalType": "enum DisputeResolution.DisputeStatus",
          "name": "status",
          "type": "uint8"
        },
        {
          "internalType": "uint256",
          "name": "upholdVotes",
          "type": "uint256"
        },
        {
          "internalType": "uint256",
          "name": "overturnVotes",
          "type": "uint256"
        },
        {
          "internalType": "uint256",
          "name": "totalVotingPower",
          "type": "uint256"
        },
        {
          "internalType": "bool",
          "name": "resolved",
          "type": "bool"
        },
        {
          "internalType": "uint256",
          "name": "finalOutcome",
          "type": "uint256"
        }
      ],
      "stateMutability": "view",
      "type": "function"
    },
    {
      "inputs": [],
      "name": "emergencyWithdraw",
      "outputs": [],
      "stateMutability": "nonpayable",
      "type": "function"
    },
    {
      "inputs": [
        {
          "internalType": "uint256",
          "name": "_disputeId",
          "type": "uint256"
        }
      ],
      "name": "finalizeDispute",
      "outputs": [],
      "stateMutability": "nonpayable",
      "type": "function"
    },
    {
      "inputs": [],
      "name": "getActiveDisputes",
      "outputs": [
        {
          "internalType": "uint256[]",
          "name": "",
          "type": "uint256[]"
        }
      ],
      "stateMutability": "view",
      "type": "function"
    },
    {
      "inputs": [
        {
          "internalType": "uint256",
          "name": "_disputeId",
          "type": "uint256"
        }
      ],
      "name": "getDispute",
      "outputs": [
        {
          "components": [
            {
              "internalType": "address",
              "name": "market",
              "type": "address"
            },
            {
              "internalType": "address",
              "name": "disputer",
              "type": "address"
            },
            {
              "internalType": "uint256",
              "name": "disputedOutcome",
              "type": "uint256"
            },
            {
              "internalType": "uint256",
              "name": "proposedOutcome",
              "type": "uint256"
            },
            {
              "internalType": "string",
              "name": "reason",
              "type": "string"
            },
            {
              "internalType": "uint256",
              "name": "disputeBond",
              "type": "uint256"
            },
            {
              "internalType": "uint256",
              "name": "createdAt",
              "type": "uint256"
            },
            {
              "internalType": "uint256",
              "name": "votingEndsAt",
              "type": "uint256"
            },
            {
              "internalType": "enum DisputeResolution.DisputeStatus",
              "name": "status",
              "type": "uint8"
            },
            {
              "internalType": "uint256",
              "name": "upholdVotes",
              "type": "uint256"
            },
            {
              "internalType": "uint256",
              "name": "overturnVotes",
              "type": "uint256"
            },
            {
              "internalType": "uint256",
              "name": "totalVotingPower",
              "type": "uint256"
            },
            {
              "internalType": "bool",
              "name": "resolved",
              "type": "bool"
            },
            {
              "internalType": "uint256",
              "name": "finalOutcome",
              "type": "uint256"
            }
          ],
          "internalType": "struct DisputeResolution.Dispute",
          "name": "",
          "type": "tuple"
        }
      ],
      "stateMutability": "view",
      "type": "function"
    },
    {
      "inputs": [
        {
          "internalType": "uint256",
          "name": "_disputeId",
          "type": "uint256"
        }
      ],
      "name": "getDisputeVoters",
      "outputs": [
        {
          "internalType": "address[]",
          "name": "",
          "type": "address[]"
        }
      ],
      "stateMutability": "view",
      "type": "function"
    },
    {
      "inputs": [],
      "name": "getTotalDisputes",
      "outputs": [
        {
          "internalType": "uint256",
          "name": "",
          "type": "uint256"
        }
      ],
      "stateMutability": "view",
      "type": "function"
    },
    {
      "inputs": [
        {
          "internalType": "uint256",
          "name": "_disputeId",
          "type": "uint256"
        },
        {
          "internalType": "address",
          "name": "_voter",
          "type": "address"
        }
      ],
      "name": "getVote",
      "outputs": [
        {
          "components": [
            {
              "internalType": "enum DisputeResolution.VoteChoice",
              "name": "choice",
              "type": "uint8"
            },
            {
              "internalType": "uint256",
              "name": "votingPower",
              "type": "uint256"
            },
            {
              "internalType": "uint256",
              "name": "timestamp",
              "type": "uint256"
            },
            {
              "internalType": "bool",
              "name": "claimed",
              "type": "bool"
            }
          ],
          "internalType": "struct DisputeResolution.Vote",
          "name": "",
          "type": "tuple"
        }
      ],
      "stateMutability": "view",
      "type": "function"
    },
    {
      "inputs": [],
      "name": "minimumDisputeBond",
      "outputs": [
        {
          "internalType": "uint256",
          "name": "",
          "type": "uint256"
        }
      ],
      "stateMutability": "view",
      "type": "function"
    },
    {
      "inputs": [],
      "name": "minimumVotingPower",
      "outputs": [
        {
          "internalType": "uint256",
          "name": "",
          "type": "uint256"
        }
      ],
      "stateMutability": "view",
      "type": "function"
    },
    {
      "inputs": [
        {
          "internalType": "address",
          "name": "_market",
          "type": "address"
        },
        {
          "internalType": "uint256",
          "name": "_disputedOutcome",
          "type": "uint256"
        },
        {
          "internalType": "uint256",
          "name": "_proposedOutcome",
          "type": "uint256"
        },
        {
          "internalType": "string",
          "name": "_reason",
          "type": "string"
        }
      ],
      "name": "openDispute",
      "outputs": [
        {
          "internalType": "uint256",
          "name": "",
          "type": "uint256"
        }
      ],
      "stateMutability": "payable",
      "type": "function"
    },
    {
      "inputs": [],
      "name": "orxToken",
      "outputs": [
        {
          "internalType": "contract IERC20",
          "name": "",
          "type": "address"
        }
      ],
      "stateMutability": "view",
      "type": "function"
    },
    {
      "inputs": [],
      "name": "owner",
      "outputs": [
        {
          "internalType": "address",
          "name": "",
          "type": "address"
        }
      ],
      "stateMutability": "view",
      "type": "function"
    },
    {
      "inputs": [],
      "name": "quorumThreshold",
      "outputs": [
        {
          "internalType": "uint256",
          "name": "",
          "type": "uint256"
        }
      ],
      "stateMutability": "view",
      "type": "function"
    },
    {
      "inputs": [],
      "name": "renounceOwnership",
      "outputs": [],
      "stateMutability": "nonpayable",
      "type": "function"
    },
    {
      "inputs": [],
      "name": "stakingContract",
      "outputs": [
        {
          "internalType": "contract StakingContract",
          "name": "",
          "type": "address"
        }
      ],
      "stateMutability": "view",
      "type": "function"
    },
    {
      "inputs": [
        {
          "internalType": "address",
          "name": "newOwner",
          "type": "address"
        }
      ],
      "name": "transferOwnership",
      "outputs": [],
      "stateMutability": "nonpayable",
      "type": "function"
    },
    {
      "inputs": [
        {
          "internalType": "uint256",
          "name": "_minimumDisputeBond",
          "type": "uint256"
        },
        {
          "internalType": "uint256",
          "name": "_votingPeriod",
          "type": "uint256"
        },
        {
          "internalType": "uint256",
          "name": "_quorumThreshold",
          "type": "uint256"
        },
        {
          "internalType": "uint256",
          "name": "_minimumVotingPower",
          "type": "uint256"
        }
      ],
      "name": "updateParameters",
      "outputs": [],
      "stateMutability": "nonpayable",
      "type": "function"
    },
    {
      "inputs": [
        {
          "internalType": "uint256",
          "name": "_disputeId",
          "type": "uint256"
        },
        {
          "internalType": "enum DisputeResolution.VoteChoice",
          "name": "_choice",
          "type": "uint8"
        }
      ],
      "name": "voteOnDispute",
      "outputs": [],
      "stateMutability": "nonpayable",
      "type": "function"
    },
    {
      "inputs": [
        {
          "internalType": "uint256",
          "name": "",
          "type": "uint256"
        },
        {
          "internalType": "address",
          "name": "",
          "type": "address"
        }
      ],
      "name": "votes",
      "outputs": [
        {
          "internalType": "enum DisputeResolution.VoteChoice",
          "name": "choice",
          "type": "uint8"
        },
        {
          "internalType": "uint256",
          "name": "votingPower",
          "type": "uint256"
        },
        {
          "internalType": "uint256",
          "name": "timestamp",
          "type": "uint256"
        },
        {
          "internalType": "bool",
          "name": "claimed",
          "type": "bool"
        }
      ],
      "stateMutability": "view",
      "type": "function"
    },
    {
      "inputs": [],
      "name": "votingPeriod",
      "outputs": [
        {
          "internalType": "uint256",
          "name": "",
          "type": "uint256"
        }
      ],
      "stateMutability": "view",
      "type": "function"
    }
  ],
  "bytecode": "0x6080346200011a57601f6200261238819003918201601f19168301916001600160401b038311848410176200011f5780849260a0946040528339810103126200011a576200004d8162000135565b906200005c6020820162000135565b906040810151608060608301519201519260016000553315620001015760018054336001600160a01b031980831682179093556040519792936001600160a01b0393909284929083167f8be0079c531659141344cd1fd0a4f28419497f9722a3daafe3b4186f6b6457e0600080a31683600a541617600a551690600b541617600b55600655600755600955683635c9adc5dea000006008556124c790816200014b8239f35b604051631e4fbdf760e01b815260006004820152602490fd5b600080fd5b634e487b7160e01b600052604160045260246000fd5b51906001600160a01b03821682036200011a5756fe60a080604052600436101561001357600080fd5b60003560e01c90816302a251a314611b3f57508063032db33914611b1657806303a09d18146119d9578063120ea202146119bb5780631732d65214611903578063564a565d1461180d57806356989a8314611483578063715018a6146114265780637b7a91dd146114085780637d36f4d3146113c15780638da5cb5b146113df57806397fbc2fb146113c15780639a181e401461114c578063ada6b0d414610be0578063bc3f931f14610b16578063c057f4ce146105bd578063cdb2867b1461058d578063d23254b414610514578063db2e21bc1461049f578063e36c33b21461044d578063e3a96cbd1461023f578063ee1eab4f1461020c578063ee99205c146101e3578063f2fde38b146101555763f3d015321461013257600080fd5b34610150576000366003190112610150576020600654604051908152f35b600080fd5b346101505760203660031901126101505761016e611cfd565b610176611d6a565b6001600160a01b039081169081156101ca57600154826bffffffffffffffffffffffff60a01b821617600155167f8be0079c531659141344cd1fd0a4f28419497f9722a3daafe3b4186f6b6457e0600080a3005b604051631e4fbdf760e01b815260006004820152602490fd5b3461015057600036600319011261015057600b546040516001600160a01b039091168152602090f35b3461015057608036600319011261015057610225611d6a565b600435600655602435600755604435600955606435600855005b346101505760203660031901126101505760006101a060405161026181611bb0565b828152826020820152826040820152826060820152606060808201528260a08201528260c08201528260e08201528261010082015282610120820152826101408201528261016082015282610180820152015260043560005260026020526040600020600d604051916102d383611bb0565b80546001600160a01b0390811684526001820154166020840152600281015460408401526003810154606084015261030d60048201611bef565b6080840152600581015460a0840152600681015460c0840152600781015460e084015260ff60088201541661034181611cdd565b6101008401526009810154610120840152600a810154610140840152600b81015461016084015260ff600c82015416151561018084015201546101a082015260405180916020825260018060a01b03815116602083015260018060a01b03602082015116604083015260408101516060830152606081015160808301526101a06103dc60808301516101c060a08601526101e0850190611cb8565b9160a081015160c085015260c081015160e085015260e081015161010085015261010081015161040b81611cdd565b61012085015261012081015161014085015261014081015161016085015261016081015161018085015261018081015115158285015201516101c08301520390f35b34610150576040366003190112610150576024356004356000526004602052604060002080548210156101505760209161048691611d3c565b905460405160039290921b1c6001600160a01b03168152f35b34610150576000366003190112610150576104b8611d6a565b60008080804760018060a01b03600154165af16104d3611f21565b50156104db57005b60405162461bcd60e51b815260206004820152601160248201527015da5d1a191c985dd85b0819985a5b1959607a1b6044820152606490fd5b346101505760403660031901126101505761052d611ce7565b600435600052600360205260406000209060018060a01b03166000526020526080604060002060ff8154169060018101549060ff60036002830154920154169161057a6040518095611d13565b6020840152604083015215156060820152f35b346101505760403660031901126101505760206105b36105ab611ce7565b600435612245565b6040519015158152f35b6080366003190112610150576105d1611cfd565b6064359067ffffffffffffffff821161015057366023830112156101505781600401356105fd81611d20565b9261060b6040519485611bcd565b818452366024838301011161015057816000926024602093018387013784010152610634611e0d565b6006543410610ad15760443560243514610a8c57815115610a55576040516323341a0560e01b81526000816004816001600160a01b0386165afa8015610a49576000906109d7575b6001915061068981611cdd565b0361099c576005549061069b82611ddb565b6005556106aa60075442611e00565b604051936106b785611bb0565b60018060a01b03831685523360208601526024356040860152604435606086015260808501523460a08501524260c085015260e0840152600161010084015260006101208401526000610140840152600061016084015260006101808401526024356101a0840152816000526002602052604060002060018060a01b038451166bffffffffffffffffffffffff60a01b9081835416178255600182019060018060a01b03602087015116908254161790556040840151600282015560608401516003820155608084015193845167ffffffffffffffff8111610986576107a06004840154611b5a565b95601f871161093f575b602096508690601f83116001146108cb579180600d94926101a0946000926108c0575b50508160011b916000199060031b1c19161760048501555b60a0810151600585015560c0810151600685015560e081015160078501556008840161010082015161081681611cdd565b61081f81611cdd565b60ff801983541691161790556101208101516009850155610140810151600a850155610160810151600b85015561086c6101808201511515600c86019060ff801983541691151516179055565b01519101556040805160243581526044358582015233926001600160a01b03169184917f0f192e69661023236eea1ddf6a33a7b77ffadea48ea9250e4b49e4a4c68c4b039190a46001600055604051908152f35b0151905089806107cd565b9060048501600052876000209160005b601f1985168110610928575092600d94926001926101a09583601f1981161061090f575b505050811b0160048501556107e5565b015160001960f88460031b161c191690558980806108ff565b9192896001819286850151815501940192016108db565b600484016000526020600020601f830160051c81016020841061097f575b601f890160051c820181106109735750506107aa565b6000815560010161095d565b508061095d565b634e487b7160e01b600052604160045260246000fd5b60405162461bcd60e51b815260206004820152601360248201527213585c9ad95d081b9bdd081c995cdbdb1d9959606a1b6044820152606490fd5b503d806000833e6109e88183611bcd565b81019060e08183031261015057805167ffffffffffffffff81116101505782610a12918301611d96565b50602081015167ffffffffffffffff811161015057608092610a35918301611d96565b50015160048110156101505760019061067c565b6040513d6000823e3d90fd5b60405162461bcd60e51b815260206004820152600f60248201526e1499585cdbdb881c995c5d5a5c9959608a1b6044820152606490fd5b60405162461bcd60e51b815260206004820152601b60248201527f4f7574636f6d65732063616e6e6f74206265207468652073616d6500000000006044820152606490fd5b60405162461bcd60e51b815260206004820152601960248201527f496e73756666696369656e74206469737075746520626f6e64000000000000006044820152606490fd5b3461015057604036600319011261015057610b2f611ce7565b60006060604051610b3f81611b94565b8281528260208201528260408201520152600435600052600360205260406000209060018060a01b03166000526020526080604060002060405190610b8382611b94565b610b9160ff82541683611f15565b6001810154906020830191825260ff60036002830154926040860193845201541691606084019215158352610bca604051809551611d13565b5160208401525160408301525115156060820152f35b346101505760403660031901126101505760043560249081359160038084101561015057610c0c611e0d565b610c196005548410611e30565b600b54604051631015428760e21b81523360048201526020926001600160a01b0392831692909184818781875afa908115610a4957600091611117575b50156110d3578615611099578560005260028452604060002092600160ff600886015416610c8381611cdd565b0361105f57600784015442116110235786600052828552604060002033600052855260ff604060002054168381101561100e57610fda5760405163c345315360e01b81523360048201529060a0828881845afa908115610a49578792600092610fa7575b5060e09060405193848092638a11d7c9851b82523360048301525afa918215610a4957600092610ef2575b50805160085411610eae576103e8916040610d31925191015190611ee2565b0494604051610d3f81611b94565b610d498982611f15565b858101878152604082014281526060830191600083528a60005286895260406000203360005289526040600020935187811015610e995791610db7949391889360ff8019875416911617855551600185015551600284015551151591019060ff801983541691151516179055565b8660005260048552604060002080549168010000000000000000831015610e85575081610dee916001600b97969594018155611d3c565b81939154911b9133831b921b191617905560018614600014610e675760098101610e19858254611e00565b90555b01610e28838254611e00565b9055610e376040518095611d13565b8301527fb83d25c6a5d258561330739951487acb4bd09ba5190b5d32c4f261817d90679260403393a36001600055005b60028603610e1c57600a8101610e7e858254611e00565b9055610e1c565b634e487b7160e01b60009081526041600452fd5b85634e487b7160e01b60005260216004526000fd5b60405162461bcd60e51b8152600481018790526019818901527f496e73756666696369656e7420766f74696e6720706f776572000000000000006044820152606490fd5b90915060e0813d60e011610f9f575b81610f0e60e09383611bcd565b81010312610150576040519060e0820182811067ffffffffffffffff821117610f8a5760405280519084821682036101505760c09183528781015188840152604081015160408401526060810151606084015260808101516080840152610f7760a08201611e75565b60a0840152015160c08201529089610d12565b88634e487b7160e01b60005260416004526000fd5b3d9150610f01565b60e0919250610fcc9060a03d8111610fd3575b610fc48183611bcd565b810190611e82565b9190610ce7565b503d610fba565b60405162461bcd60e51b815260048101869052600d818801526c105b1c9958591e481d9bdd1959609a1b6044820152606490fd5b86634e487b7160e01b60005260216004526000fd5b60405162461bcd60e51b81526004810186905260158188015274159bdd1a5b99c81c195c9a5bd908195e1c1a5c9959605a1b6044820152606490fd5b60405162461bcd60e51b81526004810186905260138188015272159bdd1a5b99c81c195c9a5bd908195b991959606a1b6044820152606490fd5b60405162461bcd60e51b81526004810185905260138187015272496e76616c696420766f74652063686f69636560681b6044820152606490fd5b60405162461bcd60e51b8152600481018590526017818701527f4e6f7420616e206163746976652076616c696461746f720000000000000000006044820152606490fd5b90508481813d8311611145575b61112e8183611bcd565b810103126101505761113f90611e75565b88610c56565b503d611124565b3461015057602080600319360112610150576004359061116a611e0d565b6111776005548310611e30565b816000526002815260ff600c6040600020015416156113865781600052600391828252604060002033600052825260ff836040600020015416611348576000526002815260406000209180825260406000203360005282526040600020926009810154600a820154808211808091611332575b80156112fd575b156112c15761126f93611222600560009995899895611227958c146112b95750925b015460021c6001860154611ee2565b611ef5565b9101805460ff19166001179055600a5460405163a9059cbb60e01b81523360048201526024810192909252909485926001600160a01b03929092169183919082906044820190565b03925af18015610a4957611285575b6001600055005b81813d83116112b2575b6112998183611bcd565b81010312610150576112aa90611e75565b50808061127e565b503d61128f565b905092611213565b60405162461bcd60e51b8152600481018790526014602482015273446964206e6f742077696e2074686520766f746560601b6044820152606490fd5b50801580156111f1575060ff8754168581101561131c576002146111f1565b634e487b7160e01b600052602160045260246000fd5b5060ff8754168581101561131c576001146111ea565b60405162461bcd60e51b815260048101839052601660248201527514995dd85c9908185b1c9958591e4818db185a5b595960521b6044820152606490fd5b6064906040519062461bcd60e51b825260048201526014602482015273111a5cdc1d5d19481b9bdd081c995cdbdb1d995960621b6044820152fd5b34610150576000366003190112610150576020600554604051908152f35b34610150576000366003190112610150576001546040516001600160a01b039091168152602090f35b34610150576000366003190112610150576020600954604051908152f35b346101505760003660031901126101505761143f611d6a565b600180546001600160a01b031981169091556000906001600160a01b03167f8be0079c531659141344cd1fd0a4f28419497f9722a3daafe3b4186f6b6457e08280a3005b3461015057602080600319360112610150576004356114a0611e0d565b6114ad6005548210611e30565b8060005260028252604060002091600883019081549360ff8516946114d186611cdd565b60018096036117c857600782015442111561178357600c82019060ff82541661173e57600a54600b546040516370a0823160e01b81526001600160a01b03918216600482015290939186908290602490829088165afa8015610a4957899160009161170b575b5061154760649160095490611ee2565b04600b860154106000146115c157505050604092916115af6000808080600d967f5add0b1fc2a3dfd95be33d1d5feb6709087e50213b7a73c3c3b2c387001221e79a600360ff198254161790558c870154166005870154905af16115a9611f21565b50611f51565b015482519160008352820152a2600055005b909291956009850154600a86015410968760001461165b5750926116366000808080600d977f5add0b1fc2a3dfd95be33d1d5feb6709087e50213b7a73c3c3b2c387001221e79c9a9760409c9a600260ff1982541617905560028901548a8a0155880154166005880154905af16115a9611f21565b805460ff19168917905561164a8488611fa6565b0154908351928352820152a2600055005b60009384935083926002849360ff19161790556003870154600d8801556116896005880154808d1c90611e00565b908b880154165af1611699611f21565b50156116cd5791600d7f5add0b1fc2a3dfd95be33d1d5feb6709087e50213b7a73c3c3b2c387001221e79492604094611636565b60405162461bcd60e51b815260048101849052601660248201527514995dd85c99081d1c985b9cd9995c8819985a5b195960521b6044820152606490fd5b809250878092503d8311611737575b6117248183611bcd565b8101031261015057518890611547611537565b503d61171a565b60405162461bcd60e51b815260048101859052601860248201527f4469737075746520616c7265616479207265736f6c76656400000000000000006044820152606490fd5b60405162461bcd60e51b815260048101849052601760248201527f566f74696e6720706572696f64206e6f7420656e6465640000000000000000006044820152606490fd5b60405162461bcd60e51b815260048101849052601b60248201527f44697370757465206e6f7420696e20766f74696e6720706861736500000000006044820152606490fd5b346101505760203660031901126101505760043560005260026020526040600020600160a01b6001900380825416906001830154169160028101546003820154916004810161185b90611bef565b9260058201549360068301546007840154600885015460ff1690600986015492600a87015494600b88015496600c89015460ff1698600d0154996040519d8e809e81526020015260408d015260608c01526101c08060808d01528b016118c091611cb8565b9860a08b015260c08a015260e08901526118d981611cdd565b61010088015261012087015261014086015261016085015215156101808401526101a08301520390f35b34610150576020806003193601126101505760043560005260048152604060002060405190818382549182815201908192600052846000209060005b8682821061199e57868661195582880383611bcd565b604051928392818401908285525180915260408401929160005b82811061197e57505050500390f35b83516001600160a01b03168552869550938101939281019260010161196f565b83546001600160a01b03168552909301926001928301920161193f565b34610150576000366003190112610150576020600854604051908152f35b34610150576000366003190112610150576005546000805b828110611acd5750611a1b611a0582612479565b91611a136040519384611bcd565b808352612479565b6020928383019291601f19013684376000805b828110611a795750505090604051928392818401908285525180915260408401929160005b828110611a6257505050500390f35b835185528695509381019392810192600101611a53565b8060005260028652600160ff60086040600020015416611a9881611cdd565b14611aac575b611aa790611ddb565b611a2e565b90611ac58183611abf611aa79488611f92565b52611ddb565b919050611a9e565b806000526002602052600160ff60086040600020015416611aed81611cdd565b14611b01575b611afc90611ddb565b6119f1565b90611b0e611afc91611ddb565b919050611af3565b3461015057600036600319011261015057600a546040516001600160a01b039091168152602090f35b34610150576000366003190112610150576020906007548152f35b90600182811c92168015611b8a575b6020831014611b7457565b634e487b7160e01b600052602260045260246000fd5b91607f1691611b69565b6080810190811067ffffffffffffffff82111761098657604052565b6101c0810190811067ffffffffffffffff82111761098657604052565b90601f8019910116810190811067ffffffffffffffff82111761098657604052565b9060405191826000825492611c0384611b5a565b908184526001948581169081600014611c725750600114611c2f575b5050611c2d92500383611bcd565b565b9093915060005260209081600020936000915b818310611c5a575050611c2d93508201013880611c1f565b85548884018501529485019487945091830191611c42565b915050611c2d94506020925060ff191682840152151560051b8201013880611c1f565b60005b838110611ca85750506000910152565b8181015183820152602001611c98565b90602091611cd181518092818552858086019101611c95565b601f01601f1916010190565b6004111561131c57565b602435906001600160a01b038216820361015057565b600435906001600160a01b038216820361015057565b90600382101561131c5752565b67ffffffffffffffff811161098657601f01601f191660200190565b8054821015611d545760005260206000200190600090565b634e487b7160e01b600052603260045260246000fd5b6001546001600160a01b03163303611d7e57565b60405163118cdaa760e01b8152336004820152602490fd5b81601f82011215610150578051611dac81611d20565b92611dba6040519485611bcd565b8184526020828401011161015057611dd89160208085019101611c95565b90565b6000198114611dea5760010190565b634e487b7160e01b600052601160045260246000fd5b91908201809211611dea57565b600260005414611e1e576002600055565b604051633ee5aeb560e01b8152600490fd5b15611e3757565b60405162461bcd60e51b8152602060048201526016602482015275111a5cdc1d5d1948191bd95cc81b9bdd08195e1a5cdd60521b6044820152606490fd5b5190811515820361015057565b908160a0910312610150576040519060a0820182811067ffffffffffffffff82111761098657611eda916080916040528051845260208101516020850152604081015160408501526060810151606085015201611e75565b608082015290565b81810292918115918404141715611dea57565b8115611eff570490565b634e487b7160e01b600052601260045260246000fd5b600382101561131c5752565b3d15611f4c573d90611f3282611d20565b91611f406040519384611bcd565b82523d6000602084013e565b606090565b15611f5857565b60405162461bcd60e51b8152602060048201526012602482015271109bdb99081c995d1d5c9b8819985a5b195960721b6044820152606490fd5b8051821015611d545760209160051b010190565b91909160809283526000908082526002906020918083526040918285206004928386528487209185518084898296549384815201908b52898b20928b5b8b82821061222657505050611ffa92500384611bcd565b8951156122195760056009820154915b0154821c92811561220c57885b81518110156121d8576001600160a01b0390898d8a8d856120388689611f92565b5116908b81528c60039788875284832084845287528c85842096518080612196575b811561214c575b508061213e575b612084575b505050505050505061207f9150611ddb565b612017565b6120db989961209c8d611222600194858c0154611ee2565b97019060ff19825416179055600a541693519687958694859363a9059cbb60e01b8552840160209093929193604081019460018060a01b031681520152565b03925af18015612134576120f8575b89818a818e8c87968c61206d565b8981813d831161212d575b61210d8183611bcd565b81010312612129579061212261207f92611e75565b50906120ea565b8a80fd5b503d612103565b89513d8d823e3d90fd5b5060ff8a8801541615612068565b9050158061215b575b38612061565b50509350505091925060ff8354168581101561218357918e8c8f9594938f948c8e9114612155565b634e487b7160e01b8f5260218c5260248ffd5b9597985050509350505060ff845416868110156121c4578f908f959492938f948f929060018f92149061205a565b50634e487b7160e01b8f5260218c5260248ffd5b505050509291509495507f29e98ba00d07f171959c4ddcd2f3020debc7c52cf537a034d7e664340d098c6c935051908152a2565b5050505050505050509050565b6005600a8201549161200a565b85546001600160a01b0316845260019586019589955093019201611fe3565b906005548210156124725760008281526020916002835260409384832090855161226e81611bb0565b82546001600160a01b0390811682526001848101548216888401526002850154898401526003850154606084015290936122aa60048201611bef565b6080840152600581015460a0840152600681015460c084015260078101549260e081019384526101a0600d60ff600885015416936122e785611cdd565b846101008501526009810154610120850152600a810154610140850152600b81015461016085015260ff600c820154161515610180850152015491015261232d81611cdd565b61233681611cdd565b036124685751421161245f5783526003845280858420921691828452845260ff8584205416600381101561244b5761244357600b5416928451631015428760e21b81528260048201528181602481885afa9182156124395784926123ff575b5050156123f85760a090602485518095819363c345315360e01b835260048301525afa9283156123ee5750916123d0575b5051600854111590565b6123e8915060a03d8111610fd357610fc48183611bcd565b386123c6565b51903d90823e3d90fd5b5091505090565b90809250813d8311612432575b6124168183611bcd565b8101031261242e5761242790611e75565b3880612395565b8280fd5b503d61240c565b86513d86823e3d90fd5b505091505090565b634e487b7160e01b84526021600452602484fd5b50505091505090565b5050505091505090565b5050600090565b67ffffffffffffffff81116109865760051b6020019056fea26469706673582212204a60be0e66badd4d8ff002871cca9f85d509b32f73f903da82223aacd2785a1164736f6c63430008140033",
  "linkReferences": {},
  "deployedLinkReferences": {}
}