{
  "address": "0x5fd54e5e037939C93fAC248E39459b168d741502",
  "abi": [
    {
      "inputs": [
        {
          "internalType": "address",
          "name": "_orxToken",
          "type": "address"
        },
        {
          "internalType": "address",
          "name": "_stakingContract",
          "type": "address"
        },
        {
          "internalType": "uint256",
          "name": "_minimumDisputeBond",
          "type": "uint256"
        },
        {
          "internalType": "uint256",
          "name": "_votingPeriod",
          "type": "uint256"
        },
        {
          "internalType": "uint256",
          "name": "_quorumThreshold",
          "type": "uint256"
        }
      ],
      "stateMutability": "nonpayable",
      "type": "constructor"
    },
    {
      "inputs": [
        {
          "internalType": "address",
          "name": "owner",
          "type": "address"
        }
      ],
      "name": "OwnableInvalidOwner",
      "type": "error"
    },
    {
      "inputs": [
        {
          "internalType": "address",
          "name": "account",
          "type": "address"
        }
      ],
      "name": "OwnableUnauthorizedAccount",
      "type": "error"
    },
    {
      "inputs": [],
      "name": "ReentrancyGuardReentrantCall",
      "type": "error"
    },
    {
      "anonymous": false,
      "inputs": [
        {
          "indexed": true,
          "internalType": "uint256",
          "name": "disputeId",
          "type": "uint256"
        },
        {
          "indexed": true,
          "internalType": "address",
          "name": "market",
          "type": "address"
        },
        {
          "indexed": true,
          "internalType": "address",
          "name": "disputer",
          "type": "address"
        },
        {
          "indexed": false,
          "internalType": "uint256",
          "name": "disputedOutcome",
          "type": "uint256"
        },
        {
          "indexed": false,
          "internalType": "uint256",
          "name": "proposedOutcome",
          "type": "uint256"
        }
      ],
      "name": "DisputeOpened",
      "type": "event"
    },
    {
      "anonymous": false,
      "inputs": [
        {
          "indexed": true,
          "internalType": "uint256",
          "name": "disputeId",
          "type": "uint256"
        },
        {
          "indexed": false,
          "internalType": "bool",
          "name": "upheld",
          "type": "bool"
        },
        {
          "indexed": false,
          "internalType": "uint256",
          "name": "finalOutcome",
          "type": "uint256"
        }
      ],
      "name": "DisputeResolved",
      "type": "event"
    },
    {
      "anonymous": false,
      "inputs": [
        {
          "indexed": true,
          "internalType": "address",
          "name": "previousOwner",
          "type": "address"
        },
        {
          "indexed": true,
          "internalType": "address",
          "name": "newOwner",
          "type": "address"
        }
      ],
      "name": "OwnershipTransferred",
      "type": "event"
    },
    {
      "anonymous": false,
      "inputs": [
        {
          "indexed": true,
          "internalType": "uint256",
          "name": "disputeId",
          "type": "uint256"
        },
        {
          "indexed": false,
          "internalType": "uint256",
          "name": "totalRewards",
          "type": "uint256"
        }
      ],
      "name": "RewardsDistributed",
      "type": "event"
    },
    {
      "anonymous": false,
      "inputs": [
        {
          "indexed": true,
          "internalType": "uint256",
          "name": "disputeId",
          "type": "uint256"
        },
        {
          "indexed": true,
          "internalType": "address",
          "name": "voter",
          "type": "address"
        },
        {
          "indexed": false,
          "internalType": "enum DisputeResolution.VoteChoice",
          "name": "choice",
          "type": "uint8"
        },
        {
          "indexed": false,
          "internalType": "uint256",
          "name": "votingPower",
          "type": "uint256"
        }
      ],
      "name": "VoteCast",
      "type": "event"
    },
    {
      "inputs": [
        {
          "internalType": "uint256",
          "name": "_disputeId",
          "type": "uint256"
        },
        {
          "internalType": "address",
          "name": "_voter",
          "type": "address"
        }
      ],
      "name": "canVote",
      "outputs": [
        {
          "internalType": "bool",
          "name": "",
          "type": "bool"
        }
      ],
      "stateMutability": "view",
      "type": "function"
    },
    {
      "inputs": [
        {
          "internalType": "uint256",
          "name": "_disputeId",
          "type": "uint256"
        }
      ],
      "name": "claimVotingReward",
      "outputs": [],
      "stateMutability": "nonpayable",
      "type": "function"
    },
    {
      "inputs": [],
      "name": "disputeCounter",
      "outputs": [
        {
          "internalType": "uint256",
          "name": "",
          "type": "uint256"
        }
      ],
      "stateMutability": "view",
      "type": "function"
    },
    {
      "inputs": [
        {
          "internalType": "uint256",
          "name": "",
          "type": "uint256"
        },
        {
          "internalType": "uint256",
          "name": "",
          "type": "uint256"
        }
      ],
      "name": "disputeVoters",
      "outputs": [
        {
          "internalType": "address",
          "name": "",
          "type": "address"
        }
      ],
      "stateMutability": "view",
      "type": "function"
    },
    {
      "inputs": [
        {
          "internalType": "uint256",
          "name": "",
          "type": "uint256"
        }
      ],
      "name": "disputes",
      "outputs": [
        {
          "internalType": "address",
          "name": "market",
          "type": "address"
        },
        {
          "internalType": "address",
          "name": "disputer",
          "type": "address"
        },
        {
          "internalType": "uint256",
          "name": "disputedOutcome",
          "type": "uint256"
        },
        {
          "internalType": "uint256",
          "name": "proposedOutcome",
          "type": "uint256"
        },
        {
          "internalType": "string",
          "name": "reason",
          "type": "string"
        },
        {
          "internalType": "uint256",
          "name": "disputeBond",
          "type": "uint256"
        },
        {
          "internalType": "uint256",
          "name": "createdAt",
          "type": "uint256"
        },
        {
          "internalType": "uint256",
          "name": "votingEndsAt",
          "type": "uint256"
        },
        {
          "internalType": "enum DisputeResolution.DisputeStatus",
          "name": "status",
          "type": "uint8"
        },
        {
          "internalType": "uint256",
          "name": "upholdVotes",
          "type": "uint256"
        },
        {
          "internalType": "uint256",
          "name": "overturnVotes",
          "type": "uint256"
        },
        {
          "internalType": "uint256",
          "name": "totalVotingPower",
          "type": "uint256"
        },
        {
          "internalType": "bool",
          "name": "resolved",
          "type": "bool"
        },
        {
          "internalType": "uint256",
          "name": "finalOutcome",
          "type": "uint256"
        }
      ],
      "stateMutability": "view",
      "type": "function"
    },
    {
      "inputs": [],
      "name": "emergencyWithdraw",
      "outputs": [],
      "stateMutability": "nonpayable",
      "type": "function"
    },
    {
      "inputs": [
        {
          "internalType": "uint256",
          "name": "_disputeId",
          "type": "uint256"
        }
      ],
      "name": "finalizeDispute",
      "outputs": [],
      "stateMutability": "nonpayable",
      "type": "function"
    },
    {
      "inputs": [],
      "name": "getActiveDisputes",
      "outputs": [
        {
          "internalType": "uint256[]",
          "name": "",
          "type": "uint256[]"
        }
      ],
      "stateMutability": "view",
      "type": "function"
    },
    {
      "inputs": [
        {
          "internalType": "uint256",
          "name": "_disputeId",
          "type": "uint256"
        }
      ],
      "name": "getDispute",
      "outputs": [
        {
          "components": [
            {
              "internalType": "address",
              "name": "market",
              "type": "address"
            },
            {
              "internalType": "address",
              "name": "disputer",
              "type": "address"
            },
            {
              "internalType": "uint256",
              "name": "disputedOutcome",
              "type": "uint256"
            },
            {
              "internalType": "uint256",
              "name": "proposedOutcome",
              "type": "uint256"
            },
            {
              "internalType": "string",
              "name": "reason",
              "type": "string"
            },
            {
              "internalType": "uint256",
              "name": "disputeBond",
              "type": "uint256"
            },
            {
              "internalType": "uint256",
              "name": "createdAt",
              "type": "uint256"
            },
            {
              "internalType": "uint256",
              "name": "votingEndsAt",
              "type": "uint256"
            },
            {
              "internalType": "enum DisputeResolution.DisputeStatus",
              "name": "status",
              "type": "uint8"
            },
            {
              "internalType": "uint256",
              "name": "upholdVotes",
              "type": "uint256"
            },
            {
              "internalType": "uint256",
              "name": "overturnVotes",
              "type": "uint256"
            },
            {
              "internalType": "uint256",
              "name": "totalVotingPower",
              "type": "uint256"
            },
            {
              "internalType": "bool",
              "name": "resolved",
              "type": "bool"
            },
            {
              "internalType": "uint256",
              "name": "finalOutcome",
              "type": "uint256"
            }
          ],
          "internalType": "struct DisputeResolution.Dispute",
          "name": "",
          "type": "tuple"
        }
      ],
      "stateMutability": "view",
      "type": "function"
    },
    {
      "inputs": [
        {
          "internalType": "uint256",
          "name": "_disputeId",
          "type": "uint256"
        }
      ],
      "name": "getDisputeVoters",
      "outputs": [
        {
          "internalType": "address[]",
          "name": "",
          "type": "address[]"
        }
      ],
      "stateMutability": "view",
      "type": "function"
    },
    {
      "inputs": [],
      "name": "getTotalDisputes",
      "outputs": [
        {
          "internalType": "uint256",
          "name": "",
          "type": "uint256"
        }
      ],
      "stateMutability": "view",
      "type": "function"
    },
    {
      "inputs": [
        {
          "internalType": "uint256",
          "name": "_disputeId",
          "type": "uint256"
        },
        {
          "internalType": "address",
          "name": "_voter",
          "type": "address"
        }
      ],
      "name": "getVote",
      "outputs": [
        {
          "components": [
            {
              "internalType": "enum DisputeResolution.VoteChoice",
              "name": "choice",
              "type": "uint8"
            },
            {
              "internalType": "uint256",
              "name": "votingPower",
              "type": "uint256"
            },
            {
              "internalType": "uint256",
              "name": "timestamp",
              "type": "uint256"
            },
            {
              "internalType": "bool",
              "name": "claimed",
              "type": "bool"
            }
          ],
          "internalType": "struct DisputeResolution.Vote",
          "name": "",
          "type": "tuple"
        }
      ],
      "stateMutability": "view",
      "type": "function"
    },
    {
      "inputs": [],
      "name": "minimumDisputeBond",
      "outputs": [
        {
          "internalType": "uint256",
          "name": "",
          "type": "uint256"
        }
      ],
      "stateMutability": "view",
      "type": "function"
    },
    {
      "inputs": [],
      "name": "minimumVotingPower",
      "outputs": [
        {
          "internalType": "uint256",
          "name": "",
          "type": "uint256"
        }
      ],
      "stateMutability": "view",
      "type": "function"
    },
    {
      "inputs": [
        {
          "internalType": "address",
          "name": "_market",
          "type": "address"
        },
        {
          "internalType": "uint256",
          "name": "_disputedOutcome",
          "type": "uint256"
        },
        {
          "internalType": "uint256",
          "name": "_proposedOutcome",
          "type": "uint256"
        },
        {
          "internalType": "string",
          "name": "_reason",
          "type": "string"
        }
      ],
      "name": "openDispute",
      "outputs": [
        {
          "internalType": "uint256",
          "name": "",
          "type": "uint256"
        }
      ],
      "stateMutability": "payable",
      "type": "function"
    },
    {
      "inputs": [],
      "name": "orxToken",
      "outputs": [
        {
          "internalType": "contract IERC20",
          "name": "",
          "type": "address"
        }
      ],
      "stateMutability": "view",
      "type": "function"
    },
    {
      "inputs": [],
      "name": "owner",
      "outputs": [
        {
          "internalType": "address",
          "name": "",
          "type": "address"
        }
      ],
      "stateMutability": "view",
      "type": "function"
    },
    {
      "inputs": [],
      "name": "quorumThreshold",
      "outputs": [
        {
          "internalType": "uint256",
          "name": "",
          "type": "uint256"
        }
      ],
      "stateMutability": "view",
      "type": "function"
    },
    {
      "inputs": [],
      "name": "renounceOwnership",
      "outputs": [],
      "stateMutability": "nonpayable",
      "type": "function"
    },
    {
      "inputs": [],
      "name": "stakingContract",
      "outputs": [
        {
          "internalType": "contract StakingContract",
          "name": "",
          "type": "address"
        }
      ],
      "stateMutability": "view",
      "type": "function"
    },
    {
      "inputs": [
        {
          "internalType": "address",
          "name": "newOwner",
          "type": "address"
        }
      ],
      "name": "transferOwnership",
      "outputs": [],
      "stateMutability": "nonpayable",
      "type": "function"
    },
    {
      "inputs": [
        {
          "internalType": "uint256",
          "name": "_minimumDisputeBond",
          "type": "uint256"
        },
        {
          "internalType": "uint256",
          "name": "_votingPeriod",
          "type": "uint256"
        },
        {
          "internalType": "uint256",
          "name": "_quorumThreshold",
          "type": "uint256"
        },
        {
          "internalType": "uint256",
          "name": "_minimumVotingPower",
          "type": "uint256"
        }
      ],
      "name": "updateParameters",
      "outputs": [],
      "stateMutability": "nonpayable",
      "type": "function"
    },
    {
      "inputs": [
        {
          "internalType": "uint256",
          "name": "_disputeId",
          "type": "uint256"
        },
        {
          "internalType": "enum DisputeResolution.VoteChoice",
          "name": "_choice",
          "type": "uint8"
        }
      ],
      "name": "voteOnDispute",
      "outputs": [],
      "stateMutability": "nonpayable",
      "type": "function"
    },
    {
      "inputs": [
        {
          "internalType": "uint256",
          "name": "",
          "type": "uint256"
        },
        {
          "internalType": "address",
          "name": "",
          "type": "address"
        }
      ],
      "name": "votes",
      "outputs": [
        {
          "internalType": "enum DisputeResolution.VoteChoice",
          "name": "choice",
          "type": "uint8"
        },
        {
          "internalType": "uint256",
          "name": "votingPower",
          "type": "uint256"
        },
        {
          "internalType": "uint256",
          "name": "timestamp",
          "type": "uint256"
        },
        {
          "internalType": "bool",
          "name": "claimed",
          "type": "bool"
        }
      ],
      "stateMutability": "view",
      "type": "function"
    },
    {
      "inputs": [],
      "name": "votingPeriod",
      "outputs": [
        {
          "internalType": "uint256",
          "name": "",
          "type": "uint256"
        }
      ],
      "stateMutability": "view",
      "type": "function"
    }
  ],
  "transactionHash": "0x709c70ed0f2c0037f1b22359d575e80b6fd337d381532bfcd8168a1f41131d62",
  "args": [
    "0x7eE4f73bab260C11c68e5560c46E3975E824ed79",
    "0x007Aaa957829ea04e130809e9cebbBd4d06dABa2",
    "100000000000000000",
    259200,
    30
  ],
  "numDeployments": 1,
  "solcInputHash": "7e24ddcb10469489694c0196111974d8",
  "bytecode": "0x60806040523480156200001157600080fd5b5060405162002d6938038062002d6983398101604081905262000034916200012a565b600160005533806200006057604051631e4fbdf760e01b81526000600482015260240160405180910390fd5b6200006b81620000bb565b50600a80546001600160a01b039687166001600160a01b031991821617909155600b805495909616941693909317909355600655600791909155600955683635c9adc5dea000006008556200017d565b600180546001600160a01b038381166001600160a01b0319831681179093556040519116919082907f8be0079c531659141344cd1fd0a4f28419497f9722a3daafe3b4186f6b6457e090600090a35050565b80516001600160a01b03811681146200012557600080fd5b919050565b600080600080600060a086880312156200014357600080fd5b6200014e866200010d565b94506200015e602087016200010d565b6040870151606088015160809098015196999198509695945092505050565b612bdc806200018d6000396000f3fe6080604052600436106101665760003560e01c80639a181e40116100d1578063db2e21bc1161008a578063ee1eab4f11610064578063ee1eab4f14610474578063ee99205c14610494578063f2fde38b146104b4578063f3d01532146104d457600080fd5b8063db2e21bc14610412578063e36c33b214610427578063e3a96cbd1461044757600080fd5b80639a181e4014610301578063ada6b0d414610321578063bc3f931f14610341578063c057f4ce1461036e578063cdb2867b14610381578063d23254b4146103b157600080fd5b806356989a831161012357806356989a831461026b578063715018a61461028d5780637b7a91dd146102a25780637d36f4d3146102b85780638da5cb5b146102ce57806397fbc2fb146102ec57600080fd5b806302a251a31461016b578063032db3391461019457806303a09d18146101cc578063120ea202146101ee5780631732d65214610204578063564a565d14610231575b600080fd5b34801561017757600080fd5b5061018160075481565b6040519081526020015b60405180910390f35b3480156101a057600080fd5b50600a546101b4906001600160a01b031681565b6040516001600160a01b03909116815260200161018b565b3480156101d857600080fd5b506101e16104ea565b60405161018b9190612239565b3480156101fa57600080fd5b5061018160085481565b34801561021057600080fd5b5061022461021f36600461227d565b610611565b60405161018b9190612296565b34801561023d57600080fd5b5061025161024c36600461227d565b61067d565b60405161018b9e9d9c9b9a99989796959493929190612351565b34801561027757600080fd5b5061028b61028636600461227d565b610788565b005b34801561029957600080fd5b5061028b610c95565b3480156102ae57600080fd5b5061018160095481565b3480156102c457600080fd5b5061018160055481565b3480156102da57600080fd5b506001546001600160a01b03166101b4565b3480156102f857600080fd5b50600554610181565b34801561030d57600080fd5b5061028b61031c36600461227d565b610ca9565b34801561032d57600080fd5b5061028b61033c3660046123ec565b610f34565b34801561034d57600080fd5b5061036161035c366004612435565b611491565b60405161018b919061246a565b61018161037c366004612512565b611536565b34801561038d57600080fd5b506103a161039c366004612435565b6118e3565b604051901515815260200161018b565b3480156103bd57600080fd5b506104026103cc366004612435565b60036020818152600093845260408085209091529183529120805460018201546002830154929093015460ff9182169392911684565b60405161018b94939291906125b8565b34801561041e57600080fd5b5061028b611be1565b34801561043357600080fd5b506101b46104423660046125e3565b611c92565b34801561045357600080fd5b5061046761046236600461227d565b611cca565b60405161018b9190612605565b34801561048057600080fd5b5061028b61048f3660046126f2565b611e43565b3480156104a057600080fd5b50600b546101b4906001600160a01b031681565b3480156104c057600080fd5b5061028b6104cf366004612724565b611e5f565b3480156104e057600080fd5b5061018160065481565b60606000805b60055481101561054757600160008281526002602052604090206008015460ff16600381111561052257610522612327565b0361053557816105318161275e565b9250505b8061053f8161275e565b9150506104f0565b5060008167ffffffffffffffff811115610563576105636124a3565b60405190808252806020026020018201604052801561058c578160200160208202803683370190505b5090506000805b60055481101561060857600160008281526002602052604090206008015460ff1660038111156105c5576105c5612327565b036105f657808383815181106105dd576105dd612777565b6020908102919091010152816105f28161275e565b9250505b806106008161275e565b915050610593565b50909392505050565b60008181526004602090815260409182902080548351818402810184019094528084526060939283018282801561067157602002820191906000526020600020905b81546001600160a01b03168152600190910190602001808311610653575b50505050509050919050565b6002602081905260009182526040909120805460018201549282015460038301546004840180546001600160a01b03948516969094169492939192916106c29061278d565b80601f01602080910402602001604051908101604052809291908181526020018280546106ee9061278d565b801561073b5780601f106107105761010080835404028352916020019161073b565b820191906000526020600020905b81548152906001019060200180831161071e57829003601f168201915b5050505060058301546006840154600785015460088601546009870154600a880154600b890154600c8a0154600d909a015498999698959750939560ff938416959294919391929116908e565b610790611e9a565b8060055481106107bb5760405162461bcd60e51b81526004016107b2906127c7565b60405180910390fd5b60008281526002602052604090206001600882015460ff1660038111156107e4576107e4612327565b146108315760405162461bcd60e51b815260206004820152601b60248201527f44697370757465206e6f7420696e20766f74696e67207068617365000000000060448201526064016107b2565b806007015442116108845760405162461bcd60e51b815260206004820152601760248201527f566f74696e6720706572696f64206e6f7420656e64656400000000000000000060448201526064016107b2565b600c81015460ff16156108d95760405162461bcd60e51b815260206004820152601860248201527f4469737075746520616c7265616479207265736f6c766564000000000000000060448201526064016107b2565b600a54600b546040516370a0823160e01b81526001600160a01b03918216600482015260009291909116906370a0823190602401602060405180830381865afa15801561092a573d6000803e3d6000fd5b505050506040513d601f19601f8201168201806040525081019061094e91906127f7565b905060006064600954836109629190612810565b61096c9190612827565b90508083600b01541015610a6f5760088301805460ff19166003179055600183015460058401546040516000926001600160a01b031691908381818185875af1925050503d80600081146109dc576040519150601f19603f3d011682016040523d82523d6000602084013e6109e1565b606091505b5050905080610a275760405162461bcd60e51b8152602060048201526012602482015271109bdb99081c995d1d5c9b8819985a5b195960721b60448201526064016107b2565b600d8401546040805160008152602081019290925287917f5add0b1fc2a3dfd95be33d1d5feb6709087e50213b7a73c3c3b2c387001221e7910160405180910390a250610c84565b600a8301546009840154118015610b3e5760088401805460ff19166002908117909155840154600d850155600184015460058501546040516000926001600160a01b031691908381818185875af1925050503d8060008114610aed576040519150601f19603f3d011682016040523d82523d6000602084013e610af2565b606091505b5050905080610b385760405162461bcd60e51b8152602060048201526012602482015271109bdb99081c995d1d5c9b8819985a5b195960721b60448201526064016107b2565b50610c20565b60088401805460ff191660029081179091556003850154600d8601556005850154600091610b6b91612827565b8560050154610b7a9190612849565b60018601546040519192506000916001600160a01b039091169083908381818185875af1925050503d8060008114610bce576040519150601f19603f3d011682016040523d82523d6000602084013e610bd3565b606091505b5050905080610c1d5760405162461bcd60e51b815260206004820152601660248201527514995dd85c99081d1c985b9cd9995c8819985a5b195960521b60448201526064016107b2565b50505b600c8401805460ff19166001179055610c398682611ec4565b857f5add0b1fc2a3dfd95be33d1d5feb6709087e50213b7a73c3c3b2c387001221e78286600d0154604051610c7a9291909115158252602082015260400190565b60405180910390a2505b50505050610c926001600055565b50565b610c9d612126565b610ca76000612153565b565b610cb1611e9a565b806005548110610cd35760405162461bcd60e51b81526004016107b2906127c7565b6000828152600260205260409020600c015460ff16610d2b5760405162461bcd60e51b8152602060048201526014602482015273111a5cdc1d5d19481b9bdd081c995cdbdb1d995960621b60448201526064016107b2565b6000828152600360208181526040808420338552909152909120015460ff1615610d905760405162461bcd60e51b815260206004820152601660248201527514995dd85c9908185b1c9958591e4818db185a5b595960521b60448201526064016107b2565b6000828152600260209081526040808320600383528184203385529092528220600a8201546009830154929391921190818015610de257506001835460ff166002811115610de057610de0612327565b145b80610e0b575081158015610e0b57506002835460ff166002811115610e0957610e09612327565b145b905080610e515760405162461bcd60e51b8152602060048201526014602482015273446964206e6f742077696e2074686520766f746560601b60448201526064016107b2565b600082610e625784600a0154610e68565b84600901545b9050600060048660050154610e7d9190612827565b9050600082828760010154610e929190612810565b610e9c9190612827565b60038701805460ff19166001179055600a5460405163a9059cbb60e01b8152336004820152602481018390529192506001600160a01b03169063a9059cbb906044016020604051808303816000875af1158015610efd573d6000803e3d6000fd5b505050506040513d601f19601f82011682018060405250810190610f219190612871565b505050505050505050610c926001600055565b610f3c611e9a565b816005548110610f5e5760405162461bcd60e51b81526004016107b2906127c7565b600b54604051631015428760e21b81523360048201526001600160a01b03909116906340550a1c90602401602060405180830381865afa158015610fa6573d6000803e3d6000fd5b505050506040513d601f19601f82011682018060405250810190610fca9190612871565b6110165760405162461bcd60e51b815260206004820152601760248201527f4e6f7420616e206163746976652076616c696461746f7200000000000000000060448201526064016107b2565b600082600281111561102a5761102a612327565b0361106d5760405162461bcd60e51b8152602060048201526013602482015272496e76616c696420766f74652063686f69636560681b60448201526064016107b2565b60008381526002602052604090206001600882015460ff16600381111561109657611096612327565b146110d95760405162461bcd60e51b8152602060048201526013602482015272159bdd1a5b99c81c195c9a5bd908195b991959606a1b60448201526064016107b2565b80600701544211156111255760405162461bcd60e51b8152602060048201526015602482015274159bdd1a5b99c81c195c9a5bd908195e1c1a5c9959605a1b60448201526064016107b2565b600084815260036020908152604080832033845290915281205460ff16600281111561115357611153612327565b146111905760405162461bcd60e51b815260206004820152600d60248201526c105b1c9958591e481d9bdd1959609a1b60448201526064016107b2565b600b5460405163c345315360e01b81523360048201526000916001600160a01b03169063c34531539060240160a060405180830381865afa1580156111d9573d6000803e3d6000fd5b505050506040513d601f19601f820116820180604052508101906111fd919061288c565b600b54604051638a11d7c960e01b81523360048201529192506000916001600160a01b0390911690638a11d7c99060240160e060405180830381865afa15801561124b573d6000803e3d6000fd5b505050506040513d601f19601f8201168201806040525081019061126f9190612900565b9050600854826000015110156112c75760405162461bcd60e51b815260206004820152601960248201527f496e73756666696369656e7420766f74696e6720706f7765720000000000000060448201526064016107b2565b60006103e8826040015184600001516112e09190612810565b6112ea9190612827565b9050604051806080016040528087600281111561130957611309612327565b8152602080820184905242604080840191909152600060609093018390528a835260038252808320338452909152902081518154829060ff1916600183600281111561135757611357612327565b021790555060208281015160018084019190915560408085015160028501556060909401516003909301805493151560ff199094169390931790925560008a81526004825292832080548084018255908452922090910180546001600160a01b031916331790558660028111156113d0576113d0612327565b036113f457808460090160008282546113e99190612849565b909155506114279050565b600286600281111561140857611408612327565b03611427578084600a0160008282546114219190612849565b90915550505b8084600b01600082825461143b9190612849565b9091555050604051339088907fb83d25c6a5d258561330739951487acb4bd09ba5190b5d32c4f261817d90679290611476908a908690612994565b60405180910390a3505050505061148d6001600055565b5050565b60408051608080820183526000808352602080840182905283850182905260608401829052868252600381528482206001600160a01b038716835290528390208351918201909352825491929091829060ff1660028111156114f5576114f5612327565b600281111561150657611506612327565b8152600182015460208201526002820154604082015260039091015460ff16151560609091015290505b92915050565b6000611540611e9a565b6006543410156115925760405162461bcd60e51b815260206004820152601960248201527f496e73756666696369656e74206469737075746520626f6e640000000000000060448201526064016107b2565b8284036115e15760405162461bcd60e51b815260206004820152601b60248201527f4f7574636f6d65732063616e6e6f74206265207468652073616d65000000000060448201526064016107b2565b60008251116116245760405162461bcd60e51b815260206004820152600f60248201526e1499585cdbdb881c995c5d5a5c9959608a1b60448201526064016107b2565b6000856001600160a01b03166323341a056040518163ffffffff1660e01b8152600401600060405180830381865afa158015611664573d6000803e3d6000fd5b505050506040513d6000823e601f3d908101601f1916820160405261168c91908101906129f4565b509095506001945061169e9350505050565b8160038111156116b0576116b0612327565b146116f35760405162461bcd60e51b815260206004820152601360248201527213585c9ad95d081b9bdd081c995cdbdb1d9959606a1b60448201526064016107b2565b60058054600091826117048361275e565b919050559050604051806101c00160405280886001600160a01b03168152602001336001600160a01b03168152602001878152602001868152602001858152602001348152602001428152602001600754426117609190612849565b8152602001600181526000602080830182905260408084018390526060808501849052608080860185905260a09095018c9052868452600280845293829020865181546001600160a01b03199081166001600160a01b039283161783559488015160018301805490961691161790935590850151928201929092559083015160038201559082015160048201906117f79082612ae6565b5060a0820151600582015560c0820151600682015560e0820151600782015561010082015160088201805460ff1916600183600381111561183a5761183a612327565b02179055506101208201516009820155610140820151600a820155610160820151600b820155610180820151600c8201805460ff19169115159190911790556101a090910151600d90910155604080518781526020810187905233916001600160a01b038a169184917f0f192e69661023236eea1ddf6a33a7b77ffadea48ea9250e4b49e4a4c68c4b03910160405180910390a49150506118db6001600055565b949350505050565b600060055483106118f657506000611530565b600083815260026020818152604080842081516101c08101835281546001600160a01b039081168252600183015416938101939093529283015490820152600382015460608201526004820180549192916080840191906119569061278d565b80601f01602080910402602001604051908101604052809291908181526020018280546119829061278d565b80156119cf5780601f106119a4576101008083540402835291602001916119cf565b820191906000526020600020905b8154815290600101906020018083116119b257829003601f168201915b5050509183525050600582015460208201526006820154604082015260078201546060820152600882015460809091019060ff166003811115611a1457611a14612327565b6003811115611a2557611a25612327565b815260098201546020820152600a8201546040820152600b8201546060820152600c82015460ff1615156080820152600d9091015460a090910152905060018161010001516003811115611a7b57611a7b612327565b14611a8a576000915050611530565b8060e00151421115611aa0576000915050611530565b60008481526003602090815260408083206001600160a01b038716845290915281205460ff166002811115611ad757611ad7612327565b14611ae6576000915050611530565b600b54604051631015428760e21b81526001600160a01b038581166004830152909116906340550a1c90602401602060405180830381865afa158015611b30573d6000803e3d6000fd5b505050506040513d601f19601f82011682018060405250810190611b549190612871565b611b62576000915050611530565b600b5460405163c345315360e01b81526001600160a01b038581166004830152600092169063c34531539060240160a060405180830381865afa158015611bad573d6000803e3d6000fd5b505050506040513d601f19601f82011682018060405250810190611bd1919061288c565b6008549051101595945050505050565b611be9612126565b476000611bfe6001546001600160a01b031690565b6001600160a01b03168260405160006040518083038185875af1925050503d8060008114611c48576040519150601f19603f3d011682016040523d82523d6000602084013e611c4d565b606091505b505090508061148d5760405162461bcd60e51b815260206004820152601160248201527015da5d1a191c985dd85b0819985a5b1959607a1b60448201526064016107b2565b60046020528160005260406000208181548110611cae57600080fd5b6000918252602090912001546001600160a01b03169150829050565b611cd26121a5565b60008281526002602081815260409283902083516101c08101855281546001600160a01b03908116825260018301541692810192909252918201549281019290925260038101546060830152600481018054608084019190611d339061278d565b80601f0160208091040260200160405190810160405280929190818152602001828054611d5f9061278d565b8015611dac5780601f10611d8157610100808354040283529160200191611dac565b820191906000526020600020905b815481529060010190602001808311611d8f57829003601f168201915b5050509183525050600582015460208201526006820154604082015260078201546060820152600882015460809091019060ff166003811115611df157611df1612327565b6003811115611e0257611e02612327565b815260098201546020820152600a8201546040820152600b8201546060820152600c82015460ff1615156080820152600d9091015460a09091015292915050565b611e4b612126565b600693909355600791909155600955600855565b611e67612126565b6001600160a01b038116611e9157604051631e4fbdf760e01b8152600060048201526024016107b2565b610c9281612153565b600260005403611ebd57604051633ee5aeb560e01b815260040160405180910390fd5b6002600055565b6000828152600260209081526040808320600483528184208054835181860281018601909452808452919493909190830182828015611f2c57602002820191906000526020600020905b81546001600160a01b03168152600190910190602001808311611f0e575b50505050509050600083611f445782600a0154611f4a565b82600901545b9050600060048460050154611f5f9190612827565b905081600003611f7157505050505050565b60005b83518110156120e3576000848281518110611f9157611f91612777565b60209081029190910181015160008a81526003835260408082206001600160a01b038416835290935291822090925090888015611fe357506001825460ff166002811115611fe157611fe1612327565b145b8061200c57508815801561200c57506002825460ff16600281111561200a5761200a612327565b145b90508080156120205750600382015460ff16155b156120cd576000868684600101546120389190612810565b6120429190612827565b60038401805460ff19166001179055600a5460405163a9059cbb60e01b81526001600160a01b0387811660048301526024820184905292935091169063a9059cbb906044016020604051808303816000875af11580156120a6573d6000803e3d6000fd5b505050506040513d601f19601f820116820180604052508101906120ca9190612871565b50505b50505080806120db9061275e565b915050611f74565b50857f29e98ba00d07f171959c4ddcd2f3020debc7c52cf537a034d7e664340d098c6c8260405161211691815260200190565b60405180910390a2505050505050565b6001546001600160a01b03163314610ca75760405163118cdaa760e01b81523360048201526024016107b2565b600180546001600160a01b038381166001600160a01b0319831681179093556040519116919082907f8be0079c531659141344cd1fd0a4f28419497f9722a3daafe3b4186f6b6457e090600090a35050565b604051806101c0016040528060006001600160a01b0316815260200160006001600160a01b031681526020016000815260200160008152602001606081526020016000815260200160008152602001600081526020016000600381111561220e5761220e612327565b8152602001600081526020016000815260200160008152602001600015158152602001600081525090565b6020808252825182820181905260009190848201906040850190845b8181101561227157835183529284019291840191600101612255565b50909695505050505050565b60006020828403121561228f57600080fd5b5035919050565b6020808252825182820181905260009190848201906040850190845b818110156122715783516001600160a01b0316835292840192918401916001016122b2565b60005b838110156122f25781810151838201526020016122da565b50506000910152565b600081518084526123138160208601602086016122d7565b601f01601f19169290920160200192915050565b634e487b7160e01b600052602160045260246000fd5b6004811061234d5761234d612327565b9052565b6001600160a01b038f811682528e166020820152604081018d9052606081018c90526101c06080820181905260009061238c9083018d6122fb565b90508a60a08301528960c08301528860e08301526123ae61010083018961233d565b8661012083015285610140830152846101608301526123d261018083018515159052565b826101a08301529f9e505050505050505050505050505050565b600080604083850312156123ff57600080fd5b8235915060208301356003811061241557600080fd5b809150509250929050565b6001600160a01b0381168114610c9257600080fd5b6000806040838503121561244857600080fd5b82359150602083013561241581612420565b6003811061234d5761234d612327565b600060808201905061247d82845161245a565b602083015160208301526040830151604083015260608301511515606083015292915050565b634e487b7160e01b600052604160045260246000fd5b604051601f8201601f1916810167ffffffffffffffff811182821017156124e2576124e26124a3565b604052919050565b600067ffffffffffffffff821115612504576125046124a3565b50601f01601f191660200190565b6000806000806080858703121561252857600080fd5b843561253381612420565b93506020850135925060408501359150606085013567ffffffffffffffff81111561255d57600080fd5b8501601f8101871361256e57600080fd5b803561258161257c826124ea565b6124b9565b81815288602083850101111561259657600080fd5b8160208401602083013760006020838301015280935050505092959194509250565b608081016125c6828761245a565b846020830152836040830152821515606083015295945050505050565b600080604083850312156125f657600080fd5b50508035926020909101359150565b6020815261261f6020820183516001600160a01b03169052565b6000602083015161263b60408401826001600160a01b03169052565b50604083015160608301526060830151608083015260808301516101c08060a085015261266c6101e08501836122fb565b915060a085015160c085015260c085015160e085015260e08501516101008181870152808701519150506101206126a58187018361233d565b86015161014086810191909152860151610160808701919091528601516101808087019190915286015190506101a06126e18187018315159052565b959095015193019290925250919050565b6000806000806080858703121561270857600080fd5b5050823594602084013594506040840135936060013592509050565b60006020828403121561273657600080fd5b813561274181612420565b9392505050565b634e487b7160e01b600052601160045260246000fd5b60006001820161277057612770612748565b5060010190565b634e487b7160e01b600052603260045260246000fd5b600181811c908216806127a157607f821691505b6020821081036127c157634e487b7160e01b600052602260045260246000fd5b50919050565b602080825260169082015275111a5cdc1d5d1948191bd95cc81b9bdd08195e1a5cdd60521b604082015260600190565b60006020828403121561280957600080fd5b5051919050565b808202811582820484141761153057611530612748565b60008261284457634e487b7160e01b600052601260045260246000fd5b500490565b8082018082111561153057611530612748565b8051801515811461286c57600080fd5b919050565b60006020828403121561288357600080fd5b6127418261285c565b600060a0828403121561289e57600080fd5b60405160a0810181811067ffffffffffffffff821117156128c1576128c16124a3565b8060405250825181526020830151602082015260408301516040820152606083015160608201526128f46080840161285c565b60808201529392505050565b600060e0828403121561291257600080fd5b60405160e0810181811067ffffffffffffffff82111715612935576129356124a3565b604052825161294381612420565b808252506020830151602082015260408301516040820152606083015160608201526080830151608082015261297b60a0840161285c565b60a082015260c083015160c08201528091505092915050565b604081016129a2828561245a565b8260208301529392505050565b600082601f8301126129c057600080fd5b81516129ce61257c826124ea565b8181528460208386010111156129e357600080fd5b6118db8260208301602087016122d7565b600080600080600080600060e0888a031215612a0f57600080fd5b875167ffffffffffffffff80821115612a2757600080fd5b612a338b838c016129af565b985060208a0151915080821115612a4957600080fd5b50612a568a828b016129af565b9650506040880151945060608801519350608088015160048110612a7957600080fd5b8093505060a0880151915060c0880151905092959891949750929550565b601f821115612ae157600081815260208120601f850160051c81016020861015612abe5750805b601f850160051c820191505b81811015612add57828155600101612aca565b5050505b505050565b815167ffffffffffffffff811115612b0057612b006124a3565b612b1481612b0e845461278d565b84612a97565b602080601f831160018114612b495760008415612b315750858301515b600019600386901b1c1916600185901b178555612add565b600085815260208120601f198616915b82811015612b7857888601518255948401946001909101908401612b59565b5085821015612b965787850151600019600388901b60f8161c191681555b5050505050600190811b0190555056fea2646970667358221220830cb5e2b92c1b48252aee7cd6552e5f397f8abbc2b9e2abc62691b22b446c1764736f6c63430008140033",
  "devdoc": {
    "errors": {
      "OwnableInvalidOwner(address)": [
        {
          "details": "The owner is not a valid owner account. (eg. `address(0)`)"
        }
      ],
      "OwnableUnauthorizedAccount(address)": [
        {
          "details": "The caller account is not authorized to perform an operation."
        }
      ],
      "ReentrancyGuardReentrantCall()": [
        {
          "details": "Unauthorized reentrant call."
        }
      ]
    },
    "kind": "dev",
    "methods": {
      "canVote(uint256,address)": {
        "details": "Check if user can vote on dispute"
      },
      "claimVotingReward(uint256)": {
        "details": "Claim voting rewards manually"
      },
      "emergencyWithdraw()": {
        "details": "Emergency withdrawal of contract funds"
      },
      "finalizeDispute(uint256)": {
        "details": "Finalize a dispute after voting period",
        "params": {
          "_disputeId": "ID of the dispute to finalize"
        }
      },
      "getActiveDisputes()": {
        "details": "Get active disputes"
      },
      "getDispute(uint256)": {
        "details": "Get dispute information"
      },
      "getDisputeVoters(uint256)": {
        "details": "Get all voters for a dispute"
      },
      "getTotalDisputes()": {
        "details": "Get total disputes count"
      },
      "getVote(uint256,address)": {
        "details": "Get vote information"
      },
      "openDispute(address,uint256,uint256,string)": {
        "details": "Open a dispute for a market resolution",
        "params": {
          "_disputedOutcome": "Current outcome being disputed",
          "_market": "Address of the prediction market",
          "_proposedOutcome": "Proposed correct outcome",
          "_reason": "Reason for the dispute"
        }
      },
      "owner()": {
        "details": "Returns the address of the current owner."
      },
      "renounceOwnership()": {
        "details": "Leaves the contract without owner. It will not be possible to call `onlyOwner` functions. Can only be called by the current owner. NOTE: Renouncing ownership will leave the contract without an owner, thereby disabling any functionality that is only available to the owner."
      },
      "transferOwnership(address)": {
        "details": "Transfers ownership of the contract to a new account (`newOwner`). Can only be called by the current owner."
      },
      "updateParameters(uint256,uint256,uint256,uint256)": {
        "details": "Update contract parameters"
      },
      "voteOnDispute(uint256,uint8)": {
        "details": "Vote on a dispute",
        "params": {
          "_choice": "Vote choice (Uphold or Overturn)",
          "_disputeId": "ID of the dispute"
        }
      }
    },
    "version": 1
  },
  "userdoc": {
    "kind": "user",
    "methods": {},
    "version": 1
  },
  "storageLayout": {
    "storage": [
      {
        "astId": 928,
        "contract": "contracts/DisputeResolution.sol:DisputeResolution",
        "label": "_status",
        "offset": 0,
        "slot": "0",
        "type": "t_uint256"
      },
      {
        "astId": 8,
        "contract": "contracts/DisputeResolution.sol:DisputeResolution",
        "label": "_owner",
        "offset": 0,
        "slot": "1",
        "type": "t_address"
      },
      {
        "astId": 1939,
        "contract": "contracts/DisputeResolution.sol:DisputeResolution",
        "label": "disputes",
        "offset": 0,
        "slot": "2",
        "type": "t_mapping(t_uint256,t_struct(Dispute)1924_storage)"
      },
      {
        "astId": 1946,
        "contract": "contracts/DisputeResolution.sol:DisputeResolution",
        "label": "votes",
        "offset": 0,
        "slot": "3",
        "type": "t_mapping(t_uint256,t_mapping(t_address,t_struct(Vote)1934_storage))"
      },
      {
        "astId": 1951,
        "contract": "contracts/DisputeResolution.sol:DisputeResolution",
        "label": "disputeVoters",
        "offset": 0,
        "slot": "4",
        "type": "t_mapping(t_uint256,t_array(t_address)dyn_storage)"
      },
      {
        "astId": 1953,
        "contract": "contracts/DisputeResolution.sol:DisputeResolution",
        "label": "disputeCounter",
        "offset": 0,
        "slot": "5",
        "type": "t_uint256"
      },
      {
        "astId": 1955,
        "contract": "contracts/DisputeResolution.sol:DisputeResolution",
        "label": "minimumDisputeBond",
        "offset": 0,
        "slot": "6",
        "type": "t_uint256"
      },
      {
        "astId": 1957,
        "contract": "contracts/DisputeResolution.sol:DisputeResolution",
        "label": "votingPeriod",
        "offset": 0,
        "slot": "7",
        "type": "t_uint256"
      },
      {
        "astId": 1959,
        "contract": "contracts/DisputeResolution.sol:DisputeResolution",
        "label": "minimumVotingPower",
        "offset": 0,
        "slot": "8",
        "type": "t_uint256"
      },
      {
        "astId": 1961,
        "contract": "contracts/DisputeResolution.sol:DisputeResolution",
        "label": "quorumThreshold",
        "offset": 0,
        "slot": "9",
        "type": "t_uint256"
      },
      {
        "astId": 1964,
        "contract": "contracts/DisputeResolution.sol:DisputeResolution",
        "label": "orxToken",
        "offset": 0,
        "slot": "10",
        "type": "t_contract(IERC20)315"
      },
      {
        "astId": 1967,
        "contract": "contracts/DisputeResolution.sol:DisputeResolution",
        "label": "stakingContract",
        "offset": 0,
        "slot": "11",
        "type": "t_contract(StakingContract)5757"
      }
    ],
    "types": {
      "t_address": {
        "encoding": "inplace",
        "label": "address",
        "numberOfBytes": "20"
      },
      "t_array(t_address)dyn_storage": {
        "base": "t_address",
        "encoding": "dynamic_array",
        "label": "address[]",
        "numberOfBytes": "32"
      },
      "t_bool": {
        "encoding": "inplace",
        "label": "bool",
        "numberOfBytes": "1"
      },
      "t_contract(IERC20)315": {
        "encoding": "inplace",
        "label": "contract IERC20",
        "numberOfBytes": "20"
      },
      "t_contract(StakingContract)5757": {
        "encoding": "inplace",
        "label": "contract StakingContract",
        "numberOfBytes": "20"
      },
      "t_enum(DisputeStatus)1890": {
        "encoding": "inplace",
        "label": "enum DisputeResolution.DisputeStatus",
        "numberOfBytes": "1"
      },
      "t_enum(VoteChoice)1894": {
        "encoding": "inplace",
        "label": "enum DisputeResolution.VoteChoice",
        "numberOfBytes": "1"
      },
      "t_mapping(t_address,t_struct(Vote)1934_storage)": {
        "encoding": "mapping",
        "key": "t_address",
        "label": "mapping(address => struct DisputeResolution.Vote)",
        "numberOfBytes": "32",
        "value": "t_struct(Vote)1934_storage"
      },
      "t_mapping(t_uint256,t_array(t_address)dyn_storage)": {
        "encoding": "mapping",
        "key": "t_uint256",
        "label": "mapping(uint256 => address[])",
        "numberOfBytes": "32",
        "value": "t_array(t_address)dyn_storage"
      },
      "t_mapping(t_uint256,t_mapping(t_address,t_struct(Vote)1934_storage))": {
        "encoding": "mapping",
        "key": "t_uint256",
        "label": "mapping(uint256 => mapping(address => struct DisputeResolution.Vote))",
        "numberOfBytes": "32",
        "value": "t_mapping(t_address,t_struct(Vote)1934_storage)"
      },
      "t_mapping(t_uint256,t_struct(Dispute)1924_storage)": {
        "encoding": "mapping",
        "key": "t_uint256",
        "label": "mapping(uint256 => struct DisputeResolution.Dispute)",
        "numberOfBytes": "32",
        "value": "t_struct(Dispute)1924_storage"
      },
      "t_string_storage": {
        "encoding": "bytes",
        "label": "string",
        "numberOfBytes": "32"
      },
      "t_struct(Dispute)1924_storage": {
        "encoding": "inplace",
        "label": "struct DisputeResolution.Dispute",
        "members": [
          {
            "astId": 1896,
            "contract": "contracts/DisputeResolution.sol:DisputeResolution",
            "label": "market",
            "offset": 0,
            "slot": "0",
            "type": "t_address"
          },
          {
            "astId": 1898,
            "contract": "contracts/DisputeResolution.sol:DisputeResolution",
            "label": "disputer",
            "offset": 0,
            "slot": "1",
            "type": "t_address"
          },
          {
            "astId": 1900,
            "contract": "contracts/DisputeResolution.sol:DisputeResolution",
            "label": "disputedOutcome",
            "offset": 0,
            "slot": "2",
            "type": "t_uint256"
          },
          {
            "astId": 1902,
            "contract": "contracts/DisputeResolution.sol:DisputeResolution",
            "label": "proposedOutcome",
            "offset": 0,
            "slot": "3",
            "type": "t_uint256"
          },
          {
            "astId": 1904,
            "contract": "contracts/DisputeResolution.sol:DisputeResolution",
            "label": "reason",
            "offset": 0,
            "slot": "4",
            "type": "t_string_storage"
          },
          {
            "astId": 1906,
            "contract": "contracts/DisputeResolution.sol:DisputeResolution",
            "label": "disputeBond",
            "offset": 0,
            "slot": "5",
            "type": "t_uint256"
          },
          {
            "astId": 1908,
            "contract": "contracts/DisputeResolution.sol:DisputeResolution",
            "label": "createdAt",
            "offset": 0,
            "slot": "6",
            "type": "t_uint256"
          },
          {
            "astId": 1910,
            "contract": "contracts/DisputeResolution.sol:DisputeResolution",
            "label": "votingEndsAt",
            "offset": 0,
            "slot": "7",
            "type": "t_uint256"
          },
          {
            "astId": 1913,
            "contract": "contracts/DisputeResolution.sol:DisputeResolution",
            "label": "status",
            "offset": 0,
            "slot": "8",
            "type": "t_enum(DisputeStatus)1890"
          },
          {
            "astId": 1915,
            "contract": "contracts/DisputeResolution.sol:DisputeResolution",
            "label": "upholdVotes",
            "offset": 0,
            "slot": "9",
            "type": "t_uint256"
          },
          {
            "astId": 1917,
            "contract": "contracts/DisputeResolution.sol:DisputeResolution",
            "label": "overturnVotes",
            "offset": 0,
            "slot": "10",
            "type": "t_uint256"
          },
          {
            "astId": 1919,
            "contract": "contracts/DisputeResolution.sol:DisputeResolution",
            "label": "totalVotingPower",
            "offset": 0,
            "slot": "11",
            "type": "t_uint256"
          },
          {
            "astId": 1921,
            "contract": "contracts/DisputeResolution.sol:DisputeResolution",
            "label": "resolved",
            "offset": 0,
            "slot": "12",
            "type": "t_bool"
          },
          {
            "astId": 1923,
            "contract": "contracts/DisputeResolution.sol:DisputeResolution",
            "label": "finalOutcome",
            "offset": 0,
            "slot": "13",
            "type": "t_uint256"
          }
        ],
        "numberOfBytes": "448"
      },
      "t_struct(Vote)1934_storage": {
        "encoding": "inplace",
        "label": "struct DisputeResolution.Vote",
        "members": [
          {
            "astId": 1927,
            "contract": "contracts/DisputeResolution.sol:DisputeResolution",
            "label": "choice",
            "offset": 0,
            "slot": "0",
            "type": "t_enum(VoteChoice)1894"
          },
          {
            "astId": 1929,
            "contract": "contracts/DisputeResolution.sol:DisputeResolution",
            "label": "votingPower",
            "offset": 0,
            "slot": "1",
            "type": "t_uint256"
          },
          {
            "astId": 1931,
            "contract": "contracts/DisputeResolution.sol:DisputeResolution",
            "label": "timestamp",
            "offset": 0,
            "slot": "2",
            "type": "t_uint256"
          },
          {
            "astId": 1933,
            "contract": "contracts/DisputeResolution.sol:DisputeResolution",
            "label": "claimed",
            "offset": 0,
            "slot": "3",
            "type": "t_bool"
          }
        ],
        "numberOfBytes": "128"
      },
      "t_uint256": {
        "encoding": "inplace",
        "label": "uint256",
        "numberOfBytes": "32"
      }
    }
  }
}