{
  "address": "0x7CeE510d9080379738B3D9870C4C046d9a891E7F",
  "abi": [
    {
      "inputs": [
        {
          "internalType": "address",
          "name": "_orxToken",
          "type": "address"
        }
      ],
      "stateMutability": "nonpayable",
      "type": "constructor"
    },
    {
      "inputs": [
        {
          "internalType": "address",
          "name": "owner",
          "type": "address"
        }
      ],
      "name": "OwnableInvalidOwner",
      "type": "error"
    },
    {
      "inputs": [
        {
          "internalType": "address",
          "name": "account",
          "type": "address"
        }
      ],
      "name": "OwnableUnauthorizedAccount",
      "type": "error"
    },
    {
      "inputs": [],
      "name": "ReentrancyGuardReentrantCall",
      "type": "error"
    },
    {
      "anonymous": false,
      "inputs": [
        {
          "indexed": true,
          "internalType": "uint256",
          "name": "marketId",
          "type": "uint256"
        },
        {
          "indexed": true,
          "internalType": "address",
          "name": "disputer",
          "type": "address"
        }
      ],
      "name": "DisputeRaised",
      "type": "event"
    },
    {
      "anonymous": false,
      "inputs": [
        {
          "indexed": true,
          "internalType": "address",
          "name": "oracle",
          "type": "address"
        }
      ],
      "name": "OracleDeactivated",
      "type": "event"
    },
    {
      "anonymous": false,
      "inputs": [
        {
          "indexed": true,
          "internalType": "address",
          "name": "oracle",
          "type": "address"
        },
        {
          "indexed": false,
          "internalType": "uint256",
          "name": "stake",
          "type": "uint256"
        }
      ],
      "name": "OracleRegistered",
      "type": "event"
    },
    {
      "anonymous": false,
      "inputs": [
        {
          "indexed": true,
          "internalType": "address",
          "name": "previousOwner",
          "type": "address"
        },
        {
          "indexed": true,
          "internalType": "address",
          "name": "newOwner",
          "type": "address"
        }
      ],
      "name": "OwnershipTransferred",
      "type": "event"
    },
    {
      "anonymous": false,
      "inputs": [
        {
          "indexed": true,
          "internalType": "uint256",
          "name": "marketId",
          "type": "uint256"
        },
        {
          "indexed": false,
          "internalType": "bytes32",
          "name": "outcome",
          "type": "bytes32"
        }
      ],
      "name": "ResolutionFinalized",
      "type": "event"
    },
    {
      "anonymous": false,
      "inputs": [
        {
          "indexed": true,
          "internalType": "uint256",
          "name": "marketId",
          "type": "uint256"
        },
        {
          "indexed": true,
          "internalType": "address",
          "name": "oracle",
          "type": "address"
        },
        {
          "indexed": false,
          "internalType": "bytes32",
          "name": "outcome",
          "type": "bytes32"
        }
      ],
      "name": "ResolutionSubmitted",
      "type": "event"
    },
    {
      "inputs": [],
      "name": "CONSENSUS_THRESHOLD",
      "outputs": [
        {
          "internalType": "uint256",
          "name": "",
          "type": "uint256"
        }
      ],
      "stateMutability": "view",
      "type": "function"
    },
    {
      "inputs": [],
      "name": "MIN_ORACLES",
      "outputs": [
        {
          "internalType": "uint256",
          "name": "",
          "type": "uint256"
        }
      ],
      "stateMutability": "view",
      "type": "function"
    },
    {
      "inputs": [],
      "name": "MIN_STAKE",
      "outputs": [
        {
          "internalType": "uint256",
          "name": "",
          "type": "uint256"
        }
      ],
      "stateMutability": "view",
      "type": "function"
    },
    {
      "inputs": [
        {
          "internalType": "address",
          "name": "oracle",
          "type": "address"
        }
      ],
      "name": "deactivateOracle",
      "outputs": [],
      "stateMutability": "nonpayable",
      "type": "function"
    },
    {
      "inputs": [],
      "name": "getActiveOraclesCount",
      "outputs": [
        {
          "internalType": "uint256",
          "name": "",
          "type": "uint256"
        }
      ],
      "stateMutability": "view",
      "type": "function"
    },
    {
      "inputs": [
        {
          "internalType": "address",
          "name": "oracle",
          "type": "address"
        }
      ],
      "name": "getOracle",
      "outputs": [
        {
          "components": [
            {
              "internalType": "address",
              "name": "oracle",
              "type": "address"
            },
            {
              "internalType": "bool",
              "name": "isActive",
              "type": "bool"
            },
            {
              "internalType": "uint256",
              "name": "stake",
              "type": "uint256"
            },
            {
              "internalType": "uint256",
              "name": "reputation",
              "type": "uint256"
            },
            {
              "internalType": "uint256",
              "name": "totalResolutions",
              "type": "uint256"
            },
            {
              "internalType": "uint256",
              "name": "correctResolutions",
              "type": "uint256"
            }
          ],
          "internalType": "struct OracleBridge.Oracle",
          "name": "",
          "type": "tuple"
        }
      ],
      "stateMutability": "view",
      "type": "function"
    },
    {
      "inputs": [
        {
          "internalType": "uint256",
          "name": "marketId",
          "type": "uint256"
        }
      ],
      "name": "getResolution",
      "outputs": [
        {
          "components": [
            {
              "internalType": "uint256",
              "name": "marketId",
              "type": "uint256"
            },
            {
              "internalType": "bytes32",
              "name": "outcome",
              "type": "bytes32"
            },
            {
              "internalType": "uint256",
              "name": "confidence",
              "type": "uint256"
            },
            {
              "internalType": "uint256",
              "name": "timestamp",
              "type": "uint256"
            },
            {
              "internalType": "bool",
              "name": "disputed",
              "type": "bool"
            },
            {
              "internalType": "bool",
              "name": "finalized",
              "type": "bool"
            }
          ],
          "internalType": "struct OracleBridge.Resolution",
          "name": "",
          "type": "tuple"
        }
      ],
      "stateMutability": "view",
      "type": "function"
    },
    {
      "inputs": [
        {
          "internalType": "uint256",
          "name": "",
          "type": "uint256"
        },
        {
          "internalType": "uint256",
          "name": "",
          "type": "uint256"
        }
      ],
      "name": "marketOracles",
      "outputs": [
        {
          "internalType": "address",
          "name": "",
          "type": "address"
        }
      ],
      "stateMutability": "view",
      "type": "function"
    },
    {
      "inputs": [
        {
          "internalType": "uint256",
          "name": "",
          "type": "uint256"
        },
        {
          "internalType": "address",
          "name": "",
          "type": "address"
        }
      ],
      "name": "oracleVotes",
      "outputs": [
        {
          "internalType": "bytes32",
          "name": "",
          "type": "bytes32"
        }
      ],
      "stateMutability": "view",
      "type": "function"
    },
    {
      "inputs": [
        {
          "internalType": "address",
          "name": "",
          "type": "address"
        }
      ],
      "name": "oracles",
      "outputs": [
        {
          "internalType": "address",
          "name": "oracle",
          "type": "address"
        },
        {
          "internalType": "bool",
          "name": "isActive",
          "type": "bool"
        },
        {
          "internalType": "uint256",
          "name": "stake",
          "type": "uint256"
        },
        {
          "internalType": "uint256",
          "name": "reputation",
          "type": "uint256"
        },
        {
          "internalType": "uint256",
          "name": "totalResolutions",
          "type": "uint256"
        },
        {
          "internalType": "uint256",
          "name": "correctResolutions",
          "type": "uint256"
        }
      ],
      "stateMutability": "view",
      "type": "function"
    },
    {
      "inputs": [],
      "name": "orxToken",
      "outputs": [
        {
          "internalType": "contract ORXToken",
          "name": "",
          "type": "address"
        }
      ],
      "stateMutability": "view",
      "type": "function"
    },
    {
      "inputs": [],
      "name": "owner",
      "outputs": [
        {
          "internalType": "address",
          "name": "",
          "type": "address"
        }
      ],
      "stateMutability": "view",
      "type": "function"
    },
    {
      "inputs": [
        {
          "internalType": "uint256",
          "name": "marketId",
          "type": "uint256"
        }
      ],
      "name": "raiseDispute",
      "outputs": [],
      "stateMutability": "nonpayable",
      "type": "function"
    },
    {
      "inputs": [
        {
          "internalType": "uint256",
          "name": "stakeAmount",
          "type": "uint256"
        }
      ],
      "name": "registerOracle",
      "outputs": [],
      "stateMutability": "nonpayable",
      "type": "function"
    },
    {
      "inputs": [
        {
          "internalType": "uint256",
          "name": "",
          "type": "uint256"
        }
      ],
      "name": "registeredOracles",
      "outputs": [
        {
          "internalType": "address",
          "name": "",
          "type": "address"
        }
      ],
      "stateMutability": "view",
      "type": "function"
    },
    {
      "inputs": [],
      "name": "renounceOwnership",
      "outputs": [],
      "stateMutability": "nonpayable",
      "type": "function"
    },
    {
      "inputs": [
        {
          "internalType": "uint256",
          "name": "",
          "type": "uint256"
        }
      ],
      "name": "resolutions",
      "outputs": [
        {
          "internalType": "uint256",
          "name": "marketId",
          "type": "uint256"
        },
        {
          "internalType": "bytes32",
          "name": "outcome",
          "type": "bytes32"
        },
        {
          "internalType": "uint256",
          "name": "confidence",
          "type": "uint256"
        },
        {
          "internalType": "uint256",
          "name": "timestamp",
          "type": "uint256"
        },
        {
          "internalType": "bool",
          "name": "disputed",
          "type": "bool"
        },
        {
          "internalType": "bool",
          "name": "finalized",
          "type": "bool"
        }
      ],
      "stateMutability": "view",
      "type": "function"
    },
    {
      "inputs": [
        {
          "internalType": "uint256",
          "name": "marketId",
          "type": "uint256"
        },
        {
          "internalType": "bytes32",
          "name": "outcome",
          "type": "bytes32"
        },
        {
          "internalType": "uint256",
          "name": "confidence",
          "type": "uint256"
        }
      ],
      "name": "submitResolution",
      "outputs": [],
      "stateMutability": "nonpayable",
      "type": "function"
    },
    {
      "inputs": [
        {
          "internalType": "address",
          "name": "newOwner",
          "type": "address"
        }
      ],
      "name": "transferOwnership",
      "outputs": [],
      "stateMutability": "nonpayable",
      "type": "function"
    }
  ],
  "transactionHash": "0x78dfc4c010c221f79e028b1396cc955cd9b3265988f3e2bdb154583660a6ee4f",
  "args": [
    "0x7eE4f73bab260C11c68e5560c46E3975E824ed79"
  ],
  "numDeployments": 1,
  "solcInputHash": "8837a6da3d6e2d52e0189848850c20f9",
  "bytecode": "0x60a060405234801561001057600080fd5b506040516116fb3803806116fb83398101604081905261002f916100c4565b338061005557604051631e4fbdf760e01b81526000600482015260240160405180910390fd5b61005e81610074565b50600180556001600160a01b03166080526100f4565b600080546001600160a01b038381166001600160a01b0319831681178455604051919092169283917f8be0079c531659141344cd1fd0a4f28419497f9722a3daafe3b4186f6b6457e09190a35050565b6000602082840312156100d657600080fd5b81516001600160a01b03811681146100ed57600080fd5b9392505050565b6080516115de61011d6000396000818161012b015281816106bd015261091a01526115de6000f3fe608060405234801561001057600080fd5b50600436106101215760003560e01c8063a5c1674e116100ad578063cb1c2b5c11610071578063cb1c2b5c14610394578063d565a533146103a5578063ed69c60414610498578063f2fde38b146104ab578063f52a3603146104be57600080fd5b8063a5c1674e146102d7578063addd5099146102ea578063b6df034814610371578063bb4b981614610379578063bca125f01461038c57600080fd5b806377cd91bf116100f457806377cd91bf146101ec5780637bde43ec146101ff5780638da5cb5b14610212578063968ff72e14610223578063a4b7f5ce1461025c57600080fd5b8063032db3391461012657806310d3d22e1461016a5780633d10c2e0146101cf578063715018a6146101e2575b600080fd5b61014d7f000000000000000000000000000000000000000000000000000000000000000081565b6040516001600160a01b0390911681526020015b60405180910390f35b61017d6101783660046113f8565b6104c6565b604051610161919081516001600160a01b0316815260208083015115159082015260408083015190820152606080830151908201526080808301519082015260a0918201519181019190915260c00190565b61014d6101dd36600461141a565b610575565b6101ea61059f565b005b61014d6101fa366004611433565b6105b3565b6101ea61020d36600461141a565b6105eb565b6000546001600160a01b031661014d565b61024e610231366004611455565b600460209081526000928352604080842090915290825290205481565b604051908152602001610161565b6102a661026a36600461141a565b60036020819052600091825260409091208054600182015460028301549383015460049093015491939092909160ff8082169161010090041686565b60408051968752602087019590955293850192909252606084015215156080830152151560a082015260c001610161565b6101ea6102e536600461141a565b61083e565b61033a6102f83660046113f8565b6002602081905260009182526040909120805460018201549282015460038301546004909301546001600160a01b03831694600160a01b90930460ff16939086565b604080516001600160a01b0390971687529415156020870152938501929092526060840152608083015260a082015260c001610161565b61024e610a24565b6101ea610387366004611481565b610aa5565b61024e603c81565b61024e69021e19e0c9bab240000081565b6104486103b336600461141a565b6040805160c081018252600080825260208201819052918101829052606081018290526080810182905260a081019190915250600090815260036020818152604092839020835160c0810185528154815260018201549281019290925260028101549382019390935290820154606082015260049091015460ff8082161515608084015261010090910416151560a082015290565b6040516101619190600060c0820190508251825260208301516020830152604083015160408301526060830151606083015260808301511515608083015260a0830151151560a083015292915050565b6101ea6104a63660046113f8565b610c3e565b6101ea6104b93660046113f8565b610cf5565b61024e600381565b61050a6040518060c0016040528060006001600160a01b03168152602001600015158152602001600081526020016000815260200160008152602001600081525090565b506001600160a01b03908116600090815260026020818152604092839020835160c08101855281549586168152600160a01b90950460ff161515918501919091526001810154928401929092528101546060830152600381015460808301526004015460a082015290565b6006818154811061058557600080fd5b6000918252602090912001546001600160a01b0316905081565b6105a7610d33565b6105b16000610d60565b565b600560205281600052604060002081815481106105cf57600080fd5b6000918252602090912001546001600160a01b03169150829050565b69021e19e0c9bab240000081101561063f5760405162461bcd60e51b8152602060048201526012602482015271496e73756666696369656e74207374616b6560701b60448201526064015b60405180910390fd5b33600090815260026020526040902054600160a01b900460ff161561069b5760405162461bcd60e51b8152602060048201526012602482015271105b1c9958591e481c9959da5cdd195c995960721b6044820152606401610636565b6040516323b872dd60e01b8152336004820152306024820152604481018290527f00000000000000000000000000000000000000000000000000000000000000006001600160a01b0316906323b872dd906064016020604051808303816000875af115801561070e573d6000803e3d6000fd5b505050506040513d601f19601f8201168201806040525081019061073291906114ad565b506040805160c081018252338082526001602080840182815284860187815260646060870190815260006080880181815260a089018281528883526002968790528a832099518a5496511515600160a01b026001600160a81b03199097166001600160a01b039190911617959095178955925188870155905193870193909355516003860155516004909401939093556006805491820181559092527ff652222313e28459528d920b65115c16c04f3efc82aaedc97be59f3f377c0d3f90910180546001600160a01b0319168217905590517fceecb5e89db45f65c8ea20cf56b8cd3f5ef551f4b31e6059c029252f2b941b5d906108339084815260200190565b60405180910390a250565b600081815260036020526040902060040154610100900460ff166108a45760405162461bcd60e51b815260206004820152601860248201527f5265736f6c7574696f6e206e6f742066696e616c697a656400000000000000006044820152606401610636565b60008181526003602052604090206004015460ff16156108f95760405162461bcd60e51b815260206004820152601060248201526f105b1c9958591e48191a5cdc1d5d195960821b6044820152606401610636565b6040516370a0823160e01b815233600482015269021e19e0c9bab2400000907f00000000000000000000000000000000000000000000000000000000000000006001600160a01b0316906370a0823190602401602060405180830381865afa158015610969573d6000803e3d6000fd5b505050506040513d601f19601f8201168201806040525081019061098d91906114cf565b10156109db5760405162461bcd60e51b815260206004820152601d60248201527f496e73756666696369656e74207374616b6520746f20646973707574650000006044820152606401610636565b600081815260036020526040808220600401805460ff1916600117905551339183917f84a477df8a28a4276ca6dee4458a06c3015f30c477d9c949ede4e13ff8a552b49190a350565b600080805b600654811015610a9f576002600060068381548110610a4a57610a4a6114e8565b60009182526020808320909101546001600160a01b0316835282019290925260400190205460ff600160a01b9091041615610a8d5781610a8981611514565b9250505b80610a9781611514565b915050610a29565b50919050565b33600090815260026020526040902054600160a01b900460ff16610b025760405162461bcd60e51b81526020600482015260146024820152734e6f7420616e20616374697665206f7261636c6560601b6044820152606401610636565b6064811115610b485760405162461bcd60e51b8152602060048201526012602482015271496e76616c696420636f6e666964656e636560701b6044820152606401610636565b600083815260046020908152604080832033845290915290205415610b9f5760405162461bcd60e51b815260206004820152600d60248201526c105b1c9958591e481d9bdd1959609a1b6044820152606401610636565b6000838152600460209081526040808320338085529083528184208690558684526005835281842080546001810182559085529383902090930180546001600160a01b031916841790555184815285917f0b903373da00a4376a6421fc4a16309dfe54dd8b4eb1faaed136bb6e4e5cb967910160405180910390a3600083815260056020526040902054600311610c3957610c3983610db0565b505050565b610c46610d33565b6001600160a01b038116600090815260026020526040902054600160a01b900460ff16610ca95760405162461bcd60e51b81526020600482015260116024820152704f7261636c65206e6f742061637469766560781b6044820152606401610636565b6001600160a01b038116600081815260026020526040808220805460ff60a01b19169055517fa25de647dc39ef1d7eb7c3431bf1ab4da4040436d641e3c1ce57f20575b33a569190a250565b610cfd610d33565b6001600160a01b038116610d2757604051631e4fbdf760e01b815260006004820152602401610636565b610d3081610d60565b50565b6000546001600160a01b031633146105b15760405163118cdaa760e01b8152336004820152602401610636565b600080546001600160a01b038381166001600160a01b0319831681178455604051919092169283917f8be0079c531659141344cd1fd0a4f28419497f9722a3daafe3b4186f6b6457e09190a35050565b600081815260056020908152604080832080548251818502810185019093528083529192909190830182828015610e1057602002820191906000526020600020905b81546001600160a01b03168152600190910190602001808311610df2575b505050505090506000815167ffffffffffffffff811115610e3357610e3361152d565b604051908082528060200260200182016040528015610e5c578160200160208202803683370190505b5090506000825167ffffffffffffffff811115610e7b57610e7b61152d565b604051908082528060200260200182016040528015610ea4578160200160208202803683370190505b5090506000805b845181101561106857600086815260046020526040812086518290889085908110610ed857610ed86114e8565b60200260200101516001600160a01b03166001600160a01b0316815260200190815260200160002054905060008060005b85811015610f4f5783888281518110610f2457610f246114e8565b602002602001015103610f3d5760019250809150610f4f565b80610f4781611514565b915050610f09565b508115610fc65760026000898681518110610f6c57610f6c6114e8565b60200260200101516001600160a01b03166001600160a01b0316815260200190815260200160002060020154868281518110610faa57610faa6114e8565b60200260200101818151610fbe9190611543565b905250611052565b82878681518110610fd957610fd96114e8565b60200260200101818152505060026000898681518110610ffb57610ffb6114e8565b60200260200101516001600160a01b03166001600160a01b0316815260200190815260200160002060020154868681518110611039576110396114e8565b60209081029190910101528461104e81611514565b9550505b505050808061106090611514565b915050610eab565b5060008080805b848110156110de57600086828151811061108b5761108b6114e8565b6020026020010151905080836110a19190611543565b9250838111156110cb578093508782815181106110c0576110c06114e8565b602002602001015194505b50806110d681611514565b91505061106f565b50603c816110ed84606461155c565b6110f79190611573565b106111ec576040518060c0016040528089815260200184815260200182846064611121919061155c565b61112b9190611573565b81524260208083019190915260006040808401829052600160609485018190528d83526003808552928290208651815593860151908401558401516002830155918301519181019190915560808201516004909101805460a09093015115156101000261ff00199215159290921661ffff19909316929092171790556111b188846111f6565b877f60102048631ed85d68dd31acf799ff287ff0bb3b1e543db408d051b3494f9eb3846040516111e391815260200190565b60405180910390a25b5050505050505050565b60008281526005602090815260408083208054825181850281018501909352808352919290919083018282801561125657602002820191906000526020600020905b81546001600160a01b03168152600190910190602001808311611238575b5050505050905060005b81518110156113d657600082828151811061127d5761127d6114e8565b6020908102919091018101516001600160a01b0381166000908152600290925260408220600301805491935090916112b483611514565b909155505060008581526004602090815260408083206001600160a01b038516845290915290205484900361136b576001600160a01b038116600090815260026020526040812060040180549161130a83611514565b90915550506001600160a01b0381166000908152600260208190526040909120015460c81115611366576001600160a01b0381166000908152600260208190526040822001805460019290611360908490611543565b90915550505b6113c3565b6001600160a01b03811660009081526002602081905260409091200154603210156113c3576001600160a01b0381166000908152600260208190526040822081018054919290916113bd908490611595565b90915550505b50806113ce81611514565b915050611260565b50505050565b80356001600160a01b03811681146113f357600080fd5b919050565b60006020828403121561140a57600080fd5b611413826113dc565b9392505050565b60006020828403121561142c57600080fd5b5035919050565b6000806040838503121561144657600080fd5b50508035926020909101359150565b6000806040838503121561146857600080fd5b82359150611478602084016113dc565b90509250929050565b60008060006060848603121561149657600080fd5b505081359360208301359350604090920135919050565b6000602082840312156114bf57600080fd5b8151801515811461141357600080fd5b6000602082840312156114e157600080fd5b5051919050565b634e487b7160e01b600052603260045260246000fd5b634e487b7160e01b600052601160045260246000fd5b600060018201611526576115266114fe565b5060010190565b634e487b7160e01b600052604160045260246000fd5b80820180821115611556576115566114fe565b92915050565b8082028115828204841417611556576115566114fe565b60008261159057634e487b7160e01b600052601260045260246000fd5b500490565b81810381811115611556576115566114fe56fea2646970667358221220b7a5276049a1476df7f447dcc93403a7ea07c84c9933dd71c97a160fbb41b47264736f6c63430008140033",
  "devdoc": {
    "details": "Bridge between AI oracles and smart contracts",
    "errors": {
      "OwnableInvalidOwner(address)": [
        {
          "details": "The owner is not a valid owner account. (eg. `address(0)`)"
        }
      ],
      "OwnableUnauthorizedAccount(address)": [
        {
          "details": "The caller account is not authorized to perform an operation."
        }
      ],
      "ReentrancyGuardReentrantCall()": [
        {
          "details": "Unauthorized reentrant call."
        }
      ]
    },
    "kind": "dev",
    "methods": {
      "deactivateOracle(address)": {
        "details": "Deactivate oracle (emergency)"
      },
      "getActiveOraclesCount()": {
        "details": "Get active oracles count"
      },
      "getOracle(address)": {
        "details": "Get oracle info"
      },
      "getResolution(uint256)": {
        "details": "Get resolution for a market"
      },
      "owner()": {
        "details": "Returns the address of the current owner."
      },
      "raiseDispute(uint256)": {
        "details": "Raise dispute for a resolution"
      },
      "registerOracle(uint256)": {
        "details": "Register as an oracle"
      },
      "renounceOwnership()": {
        "details": "Leaves the contract without owner. It will not be possible to call `onlyOwner` functions. Can only be called by the current owner. NOTE: Renouncing ownership will leave the contract without an owner, thereby disabling any functionality that is only available to the owner."
      },
      "submitResolution(uint256,bytes32,uint256)": {
        "details": "Submit resolution for a market"
      },
      "transferOwnership(address)": {
        "details": "Transfers ownership of the contract to a new account (`newOwner`). Can only be called by the current owner."
      }
    },
    "title": "OracleBridge",
    "version": 1
  },
  "userdoc": {
    "kind": "user",
    "methods": {},
    "version": 1
  },
  "storageLayout": {
    "storage": [
      {
        "astId": 8,
        "contract": "contracts/OracleBridge.sol:OracleBridge",
        "label": "_owner",
        "offset": 0,
        "slot": "0",
        "type": "t_address"
      },
      {
        "astId": 2063,
        "contract": "contracts/OracleBridge.sol:OracleBridge",
        "label": "_status",
        "offset": 0,
        "slot": "1",
        "type": "t_uint256"
      },
      {
        "astId": 10215,
        "contract": "contracts/OracleBridge.sol:OracleBridge",
        "label": "oracles",
        "offset": 0,
        "slot": "2",
        "type": "t_mapping(t_address,t_struct(Oracle)10197_storage)"
      },
      {
        "astId": 10220,
        "contract": "contracts/OracleBridge.sol:OracleBridge",
        "label": "resolutions",
        "offset": 0,
        "slot": "3",
        "type": "t_mapping(t_uint256,t_struct(Resolution)10210_storage)"
      },
      {
        "astId": 10226,
        "contract": "contracts/OracleBridge.sol:OracleBridge",
        "label": "oracleVotes",
        "offset": 0,
        "slot": "4",
        "type": "t_mapping(t_uint256,t_mapping(t_address,t_bytes32))"
      },
      {
        "astId": 10231,
        "contract": "contracts/OracleBridge.sol:OracleBridge",
        "label": "marketOracles",
        "offset": 0,
        "slot": "5",
        "type": "t_mapping(t_uint256,t_array(t_address)dyn_storage)"
      },
      {
        "astId": 10234,
        "contract": "contracts/OracleBridge.sol:OracleBridge",
        "label": "registeredOracles",
        "offset": 0,
        "slot": "6",
        "type": "t_array(t_address)dyn_storage"
      }
    ],
    "types": {
      "t_address": {
        "encoding": "inplace",
        "label": "address",
        "numberOfBytes": "20"
      },
      "t_array(t_address)dyn_storage": {
        "base": "t_address",
        "encoding": "dynamic_array",
        "label": "address[]",
        "numberOfBytes": "32"
      },
      "t_bool": {
        "encoding": "inplace",
        "label": "bool",
        "numberOfBytes": "1"
      },
      "t_bytes32": {
        "encoding": "inplace",
        "label": "bytes32",
        "numberOfBytes": "32"
      },
      "t_mapping(t_address,t_bytes32)": {
        "encoding": "mapping",
        "key": "t_address",
        "label": "mapping(address => bytes32)",
        "numberOfBytes": "32",
        "value": "t_bytes32"
      },
      "t_mapping(t_address,t_struct(Oracle)10197_storage)": {
        "encoding": "mapping",
        "key": "t_address",
        "label": "mapping(address => struct OracleBridge.Oracle)",
        "numberOfBytes": "32",
        "value": "t_struct(Oracle)10197_storage"
      },
      "t_mapping(t_uint256,t_array(t_address)dyn_storage)": {
        "encoding": "mapping",
        "key": "t_uint256",
        "label": "mapping(uint256 => address[])",
        "numberOfBytes": "32",
        "value": "t_array(t_address)dyn_storage"
      },
      "t_mapping(t_uint256,t_mapping(t_address,t_bytes32))": {
        "encoding": "mapping",
        "key": "t_uint256",
        "label": "mapping(uint256 => mapping(address => bytes32))",
        "numberOfBytes": "32",
        "value": "t_mapping(t_address,t_bytes32)"
      },
      "t_mapping(t_uint256,t_struct(Resolution)10210_storage)": {
        "encoding": "mapping",
        "key": "t_uint256",
        "label": "mapping(uint256 => struct OracleBridge.Resolution)",
        "numberOfBytes": "32",
        "value": "t_struct(Resolution)10210_storage"
      },
      "t_struct(Oracle)10197_storage": {
        "encoding": "inplace",
        "label": "struct OracleBridge.Oracle",
        "members": [
          {
            "astId": 10186,
            "contract": "contracts/OracleBridge.sol:OracleBridge",
            "label": "oracle",
            "offset": 0,
            "slot": "0",
            "type": "t_address"
          },
          {
            "astId": 10188,
            "contract": "contracts/OracleBridge.sol:OracleBridge",
            "label": "isActive",
            "offset": 20,
            "slot": "0",
            "type": "t_bool"
          },
          {
            "astId": 10190,
            "contract": "contracts/OracleBridge.sol:OracleBridge",
            "label": "stake",
            "offset": 0,
            "slot": "1",
            "type": "t_uint256"
          },
          {
            "astId": 10192,
            "contract": "contracts/OracleBridge.sol:OracleBridge",
            "label": "reputation",
            "offset": 0,
            "slot": "2",
            "type": "t_uint256"
          },
          {
            "astId": 10194,
            "contract": "contracts/OracleBridge.sol:OracleBridge",
            "label": "totalResolutions",
            "offset": 0,
            "slot": "3",
            "type": "t_uint256"
          },
          {
            "astId": 10196,
            "contract": "contracts/OracleBridge.sol:OracleBridge",
            "label": "correctResolutions",
            "offset": 0,
            "slot": "4",
            "type": "t_uint256"
          }
        ],
        "numberOfBytes": "160"
      },
      "t_struct(Resolution)10210_storage": {
        "encoding": "inplace",
        "label": "struct OracleBridge.Resolution",
        "members": [
          {
            "astId": 10199,
            "contract": "contracts/OracleBridge.sol:OracleBridge",
            "label": "marketId",
            "offset": 0,
            "slot": "0",
            "type": "t_uint256"
          },
          {
            "astId": 10201,
            "contract": "contracts/OracleBridge.sol:OracleBridge",
            "label": "outcome",
            "offset": 0,
            "slot": "1",
            "type": "t_bytes32"
          },
          {
            "astId": 10203,
            "contract": "contracts/OracleBridge.sol:OracleBridge",
            "label": "confidence",
            "offset": 0,
            "slot": "2",
            "type": "t_uint256"
          },
          {
            "astId": 10205,
            "contract": "contracts/OracleBridge.sol:OracleBridge",
            "label": "timestamp",
            "offset": 0,
            "slot": "3",
            "type": "t_uint256"
          },
          {
            "astId": 10207,
            "contract": "contracts/OracleBridge.sol:OracleBridge",
            "label": "disputed",
            "offset": 0,
            "slot": "4",
            "type": "t_bool"
          },
          {
            "astId": 10209,
            "contract": "contracts/OracleBridge.sol:OracleBridge",
            "label": "finalized",
            "offset": 1,
            "slot": "4",
            "type": "t_bool"
          }
        ],
        "numberOfBytes": "160"
      },
      "t_uint256": {
        "encoding": "inplace",
        "label": "uint256",
        "numberOfBytes": "32"
      }
    }
  }
}