{
  "address": "0x007Aaa957829ea04e130809e9cebbBd4d06dABa2",
  "abi": [
    {
      "inputs": [
        {
          "internalType": "address",
          "name": "_orxToken",
          "type": "address"
        },
        {
          "internalType": "uint256",
          "name": "_rewardRate",
          "type": "uint256"
        },
        {
          "internalType": "uint256",
          "name": "_minimumValidatorStake",
          "type": "uint256"
        },
        {
          "internalType": "uint256",
          "name": "_minimumStakingPeriod",
          "type": "uint256"
        },
        {
          "internalType": "uint256",
          "name": "_slashingRate",
          "type": "uint256"
        }
      ],
      "stateMutability": "nonpayable",
      "type": "constructor"
    },
    {
      "inputs": [
        {
          "internalType": "address",
          "name": "owner",
          "type": "address"
        }
      ],
      "name": "OwnableInvalidOwner",
      "type": "error"
    },
    {
      "inputs": [
        {
          "internalType": "address",
          "name": "account",
          "type": "address"
        }
      ],
      "name": "OwnableUnauthorizedAccount",
      "type": "error"
    },
    {
      "inputs": [],
      "name": "ReentrancyGuardReentrantCall",
      "type": "error"
    },
    {
      "inputs": [
        {
          "internalType": "address",
          "name": "token",
          "type": "address"
        }
      ],
      "name": "SafeERC20FailedOperation",
      "type": "error"
    },
    {
      "anonymous": false,
      "inputs": [
        {
          "indexed": true,
          "internalType": "address",
          "name": "previousOwner",
          "type": "address"
        },
        {
          "indexed": true,
          "internalType": "address",
          "name": "newOwner",
          "type": "address"
        }
      ],
      "name": "OwnershipTransferred",
      "type": "event"
    },
    {
      "anonymous": false,
      "inputs": [
        {
          "indexed": true,
          "internalType": "address",
          "name": "user",
          "type": "address"
        },
        {
          "indexed": false,
          "internalType": "uint256",
          "name": "reward",
          "type": "uint256"
        }
      ],
      "name": "RewardClaimed",
      "type": "event"
    },
    {
      "anonymous": false,
      "inputs": [
        {
          "indexed": false,
          "internalType": "uint256",
          "name": "totalRewards",
          "type": "uint256"
        },
        {
          "indexed": false,
          "internalType": "uint256",
          "name": "rewardRate",
          "type": "uint256"
        }
      ],
      "name": "RewardsDistributed",
      "type": "event"
    },
    {
      "anonymous": false,
      "inputs": [
        {
          "indexed": true,
          "internalType": "address",
          "name": "user",
          "type": "address"
        },
        {
          "indexed": false,
          "internalType": "uint256",
          "name": "amount",
          "type": "uint256"
        },
        {
          "indexed": false,
          "internalType": "uint256",
          "name": "lockPeriod",
          "type": "uint256"
        },
        {
          "indexed": false,
          "internalType": "bool",
          "name": "isValidator",
          "type": "bool"
        }
      ],
      "name": "TokensStaked",
      "type": "event"
    },
    {
      "anonymous": false,
      "inputs": [
        {
          "indexed": true,
          "internalType": "address",
          "name": "user",
          "type": "address"
        },
        {
          "indexed": false,
          "internalType": "uint256",
          "name": "amount",
          "type": "uint256"
        }
      ],
      "name": "TokensUnstaked",
      "type": "event"
    },
    {
      "anonymous": false,
      "inputs": [
        {
          "indexed": true,
          "internalType": "address",
          "name": "validator",
          "type": "address"
        },
        {
          "indexed": false,
          "internalType": "uint256",
          "name": "stakedAmount",
          "type": "uint256"
        }
      ],
      "name": "ValidatorRegistered",
      "type": "event"
    },
    {
      "anonymous": false,
      "inputs": [
        {
          "indexed": true,
          "internalType": "address",
          "name": "validator",
          "type": "address"
        },
        {
          "indexed": false,
          "internalType": "uint256",
          "name": "slashedAmount",
          "type": "uint256"
        },
        {
          "indexed": false,
          "internalType": "string",
          "name": "reason",
          "type": "string"
        }
      ],
      "name": "ValidatorSlashed",
      "type": "event"
    },
    {
      "inputs": [],
      "name": "claimRewards",
      "outputs": [],
      "stateMutability": "nonpayable",
      "type": "function"
    },
    {
      "inputs": [
        {
          "internalType": "uint256",
          "name": "_rewardAmount",
          "type": "uint256"
        }
      ],
      "name": "distributeRewards",
      "outputs": [],
      "stateMutability": "nonpayable",
      "type": "function"
    },
    {
      "inputs": [
        {
          "internalType": "address",
          "name": "account",
          "type": "address"
        }
      ],
      "name": "earned",
      "outputs": [
        {
          "internalType": "uint256",
          "name": "",
          "type": "uint256"
        }
      ],
      "stateMutability": "view",
      "type": "function"
    },
    {
      "inputs": [],
      "name": "getActiveValidators",
      "outputs": [
        {
          "internalType": "address[]",
          "name": "",
          "type": "address[]"
        }
      ],
      "stateMutability": "view",
      "type": "function"
    },
    {
      "inputs": [
        {
          "internalType": "address",
          "name": "_user",
          "type": "address"
        }
      ],
      "name": "getStakeInfo",
      "outputs": [
        {
          "components": [
            {
              "internalType": "uint256",
              "name": "amount",
              "type": "uint256"
            },
            {
              "internalType": "uint256",
              "name": "timestamp",
              "type": "uint256"
            },
            {
              "internalType": "uint256",
              "name": "lockPeriod",
              "type": "uint256"
            },
            {
              "internalType": "uint256",
              "name": "rewardDebt",
              "type": "uint256"
            },
            {
              "internalType": "bool",
              "name": "isValidator",
              "type": "bool"
            }
          ],
          "internalType": "struct StakingContract.StakeInfo",
          "name": "",
          "type": "tuple"
        }
      ],
      "stateMutability": "view",
      "type": "function"
    },
    {
      "inputs": [
        {
          "internalType": "address",
          "name": "_validator",
          "type": "address"
        }
      ],
      "name": "getValidatorInfo",
      "outputs": [
        {
          "components": [
            {
              "internalType": "address",
              "name": "validatorAddress",
              "type": "address"
            },
            {
              "internalType": "uint256",
              "name": "totalStaked",
              "type": "uint256"
            },
            {
              "internalType": "uint256",
              "name": "reputation",
              "type": "uint256"
            },
            {
              "internalType": "uint256",
              "name": "successfulResolutions",
              "type": "uint256"
            },
            {
              "internalType": "uint256",
              "name": "totalResolutions",
              "type": "uint256"
            },
            {
              "internalType": "bool",
              "name": "isActive",
              "type": "bool"
            },
            {
              "internalType": "uint256",
              "name": "slashCount",
              "type": "uint256"
            }
          ],
          "internalType": "struct StakingContract.Validator",
          "name": "",
          "type": "tuple"
        }
      ],
      "stateMutability": "view",
      "type": "function"
    },
    {
      "inputs": [],
      "name": "getValidators",
      "outputs": [
        {
          "internalType": "address[]",
          "name": "",
          "type": "address[]"
        }
      ],
      "stateMutability": "view",
      "type": "function"
    },
    {
      "inputs": [
        {
          "internalType": "address",
          "name": "_validator",
          "type": "address"
        }
      ],
      "name": "isActiveValidator",
      "outputs": [
        {
          "internalType": "bool",
          "name": "",
          "type": "bool"
        }
      ],
      "stateMutability": "view",
      "type": "function"
    },
    {
      "inputs": [],
      "name": "lastUpdateTime",
      "outputs": [
        {
          "internalType": "uint256",
          "name": "",
          "type": "uint256"
        }
      ],
      "stateMutability": "view",
      "type": "function"
    },
    {
      "inputs": [],
      "name": "minimumStakingPeriod",
      "outputs": [
        {
          "internalType": "uint256",
          "name": "",
          "type": "uint256"
        }
      ],
      "stateMutability": "view",
      "type": "function"
    },
    {
      "inputs": [],
      "name": "minimumValidatorStake",
      "outputs": [
        {
          "internalType": "uint256",
          "name": "",
          "type": "uint256"
        }
      ],
      "stateMutability": "view",
      "type": "function"
    },
    {
      "inputs": [],
      "name": "orxToken",
      "outputs": [
        {
          "internalType": "contract IERC20",
          "name": "",
          "type": "address"
        }
      ],
      "stateMutability": "view",
      "type": "function"
    },
    {
      "inputs": [],
      "name": "owner",
      "outputs": [
        {
          "internalType": "address",
          "name": "",
          "type": "address"
        }
      ],
      "stateMutability": "view",
      "type": "function"
    },
    {
      "inputs": [],
      "name": "renounceOwnership",
      "outputs": [],
      "stateMutability": "nonpayable",
      "type": "function"
    },
    {
      "inputs": [],
      "name": "rewardPerToken",
      "outputs": [
        {
          "internalType": "uint256",
          "name": "",
          "type": "uint256"
        }
      ],
      "stateMutability": "view",
      "type": "function"
    },
    {
      "inputs": [],
      "name": "rewardPerTokenStored",
      "outputs": [
        {
          "internalType": "uint256",
          "name": "",
          "type": "uint256"
        }
      ],
      "stateMutability": "view",
      "type": "function"
    },
    {
      "inputs": [],
      "name": "rewardRate",
      "outputs": [
        {
          "internalType": "uint256",
          "name": "",
          "type": "uint256"
        }
      ],
      "stateMutability": "view",
      "type": "function"
    },
    {
      "inputs": [
        {
          "internalType": "address",
          "name": "",
          "type": "address"
        }
      ],
      "name": "rewards",
      "outputs": [
        {
          "internalType": "uint256",
          "name": "",
          "type": "uint256"
        }
      ],
      "stateMutability": "view",
      "type": "function"
    },
    {
      "inputs": [
        {
          "internalType": "address",
          "name": "_validator",
          "type": "address"
        },
        {
          "internalType": "string",
          "name": "_reason",
          "type": "string"
        }
      ],
      "name": "slashStake",
      "outputs": [],
      "stateMutability": "nonpayable",
      "type": "function"
    },
    {
      "inputs": [],
      "name": "slashingRate",
      "outputs": [
        {
          "internalType": "uint256",
          "name": "",
          "type": "uint256"
        }
      ],
      "stateMutability": "view",
      "type": "function"
    },
    {
      "inputs": [
        {
          "internalType": "uint256",
          "name": "_amount",
          "type": "uint256"
        },
        {
          "internalType": "uint256",
          "name": "_lockPeriod",
          "type": "uint256"
        },
        {
          "internalType": "bool",
          "name": "_asValidator",
          "type": "bool"
        }
      ],
      "name": "stakeTokens",
      "outputs": [],
      "stateMutability": "nonpayable",
      "type": "function"
    },
    {
      "inputs": [
        {
          "internalType": "address",
          "name": "",
          "type": "address"
        }
      ],
      "name": "stakes",
      "outputs": [
        {
          "internalType": "uint256",
          "name": "amount",
          "type": "uint256"
        },
        {
          "internalType": "uint256",
          "name": "timestamp",
          "type": "uint256"
        },
        {
          "internalType": "uint256",
          "name": "lockPeriod",
          "type": "uint256"
        },
        {
          "internalType": "uint256",
          "name": "rewardDebt",
          "type": "uint256"
        },
        {
          "internalType": "bool",
          "name": "isValidator",
          "type": "bool"
        }
      ],
      "stateMutability": "view",
      "type": "function"
    },
    {
      "inputs": [],
      "name": "totalStaked",
      "outputs": [
        {
          "internalType": "uint256",
          "name": "",
          "type": "uint256"
        }
      ],
      "stateMutability": "view",
      "type": "function"
    },
    {
      "inputs": [
        {
          "internalType": "address",
          "name": "newOwner",
          "type": "address"
        }
      ],
      "name": "transferOwnership",
      "outputs": [],
      "stateMutability": "nonpayable",
      "type": "function"
    },
    {
      "inputs": [
        {
          "internalType": "uint256",
          "name": "_amount",
          "type": "uint256"
        }
      ],
      "name": "unstakeTokens",
      "outputs": [],
      "stateMutability": "nonpayable",
      "type": "function"
    },
    {
      "inputs": [
        {
          "internalType": "uint256",
          "name": "_rewardRate",
          "type": "uint256"
        },
        {
          "internalType": "uint256",
          "name": "_minimumValidatorStake",
          "type": "uint256"
        },
        {
          "internalType": "uint256",
          "name": "_minimumStakingPeriod",
          "type": "uint256"
        },
        {
          "internalType": "uint256",
          "name": "_slashingRate",
          "type": "uint256"
        }
      ],
      "name": "updateParameters",
      "outputs": [],
      "stateMutability": "nonpayable",
      "type": "function"
    },
    {
      "inputs": [
        {
          "internalType": "address",
          "name": "_validator",
          "type": "address"
        },
        {
          "internalType": "bool",
          "name": "_successful",
          "type": "bool"
        }
      ],
      "name": "updateValidatorPerformance",
      "outputs": [],
      "stateMutability": "nonpayable",
      "type": "function"
    },
    {
      "inputs": [
        {
          "internalType": "address",
          "name": "",
          "type": "address"
        }
      ],
      "name": "userRewardPerTokenPaid",
      "outputs": [
        {
          "internalType": "uint256",
          "name": "",
          "type": "uint256"
        }
      ],
      "stateMutability": "view",
      "type": "function"
    },
    {
      "inputs": [
        {
          "internalType": "uint256",
          "name": "",
          "type": "uint256"
        }
      ],
      "name": "validatorList",
      "outputs": [
        {
          "internalType": "address",
          "name": "",
          "type": "address"
        }
      ],
      "stateMutability": "view",
      "type": "function"
    },
    {
      "inputs": [
        {
          "internalType": "address",
          "name": "",
          "type": "address"
        }
      ],
      "name": "validators",
      "outputs": [
        {
          "internalType": "address",
          "name": "validatorAddress",
          "type": "address"
        },
        {
          "internalType": "uint256",
          "name": "totalStaked",
          "type": "uint256"
        },
        {
          "internalType": "uint256",
          "name": "reputation",
          "type": "uint256"
        },
        {
          "internalType": "uint256",
          "name": "successfulResolutions",
          "type": "uint256"
        },
        {
          "internalType": "uint256",
          "name": "totalResolutions",
          "type": "uint256"
        },
        {
          "internalType": "bool",
          "name": "isActive",
          "type": "bool"
        },
        {
          "internalType": "uint256",
          "name": "slashCount",
          "type": "uint256"
        }
      ],
      "stateMutability": "view",
      "type": "function"
    }
  ],
  "transactionHash": "0x641083da0a39b8225b31abfca83157f8e86a890764d4a876b219f6aa8e4e0a35",
  "args": [
    "0x7eE4f73bab260C11c68e5560c46E3975E824ed79",
    "100000000000000",
    "10000000000000000000000",
    604800,
    1000
  ],
  "numDeployments": 1,
  "solcInputHash": "7e24ddcb10469489694c0196111974d8",
  "bytecode": "0x60806040523480156200001157600080fd5b5060405162001dac38038062001dac8339810160408190526200003491620000f8565b600160005533806200006057604051631e4fbdf760e01b81526000600482015260240160405180910390fd5b6200006b81620000a6565b50600280546001600160a01b0319166001600160a01b039690961695909517909455600792909255600a55600b55600c55426008556200014f565b600180546001600160a01b038381166001600160a01b0319831681179093556040519116919082907f8be0079c531659141344cd1fd0a4f28419497f9722a3daafe3b4186f6b6457e090600090a35050565b600080600080600060a086880312156200011157600080fd5b85516001600160a01b03811681146200012957600080fd5b602087015160408801516060890151608090990151929a91995097965090945092505050565b611c4d806200015f6000396000f3fe608060405234801561001057600080fd5b50600436106101d95760003560e01c80638ccdadc211610104578063c3453153116100a2578063ea39436211610071578063ea394362146104cf578063ee1eab4f146104d8578063f2fde38b146104eb578063fa52c7d8146104fe57600080fd5b8063c34531531461045e578063c8f33c91146104b5578063cd3daf9d146104be578063df136d65146104c657600080fd5b8063a2b61e27116100de578063a2b61e271461041d578063b048e05614610430578063b7ab4db514610443578063b9e2c1e01461044b57600080fd5b80638ccdadc2146103e45780638da5cb5b146103f75780639de702581461040857600080fd5b806359974e381161017c5780637ebed54c1161014b5780637ebed54c14610343578063817b1cd21461034c5780638a11d7c9146103555780638b876347146103c457600080fd5b806359974e381461030c578063608e4dd01461031f578063715018a6146103325780637b0a47ee1461033a57600080fd5b806313baa069116101b857806313baa0691461024f57806316934fc414610258578063372500ab146102c357806340550a1c146102cd57600080fd5b80628cc262146101de578063032db339146102045780630700037d1461022f575b600080fd5b6101f16101ec3660046118fd565b610597565b6040519081526020015b60405180910390f35b600254610217906001600160a01b031681565b6040516001600160a01b0390911681526020016101fb565b6101f161023d3660046118fd565b600e6020526000908152604090205481565b6101f1600c5481565b6102996102663660046118fd565b60036020819052600091825260409091208054600182015460028301549383015460049093015491939092909160ff1685565b6040805195865260208601949094529284019190915260608301521515608082015260a0016101fb565b6102cb610614565b005b6102fc6102db3660046118fd565b6001600160a01b031660009081526004602052604090206005015460ff1690565b60405190151581526020016101fb565b6102cb61031a36600461191f565b610734565b6102cb61032d36600461191f565b61083a565b6102cb610aea565b6101f160075481565b6101f1600b5481565b6101f160065481565b6103686103633660046118fd565b610afc565b6040516101fb919081516001600160a01b031681526020808301519082015260408083015190820152606080830151908201526080808301519082015260a08281015115159082015260c0918201519181019190915260e00190565b6101f16103d23660046118fd565b600d6020526000908152604090205481565b6102cb6103f2366004611948565b610bb9565b6001546001600160a01b0316610217565b610410610cbf565b6040516101fb919061197b565b6102cb61042b3660046119de565b610e57565b61021761043e36600461191f565b6110c2565b6104106110ec565b6102cb610459366004611aa0565b61114e565b61047161046c3660046118fd565b6113c4565b6040516101fb9190600060a0820190508251825260208301516020830152604083015160408301526060830151606083015260808301511515608083015292915050565b6101f160085481565b6101f1611454565b6101f160095481565b6101f1600a5481565b6102cb6104e6366004611ad5565b6114b2565b6102cb6104f93660046118fd565b6114ce565b61055661050c3660046118fd565b600460208190526000918252604090912080546001820154600283015460038401549484015460058501546006909501546001600160a01b039094169592949193909160ff169087565b604080516001600160a01b03909816885260208801969096529486019390935260608501919091526080840152151560a083015260c082015260e0016101fb565b6001600160a01b0381166000908152600e6020908152604080832054600d909252822054670de0b6b3a7640000906105cd611454565b6105d79190611b1d565b6001600160a01b0385166000908152600360205260409020546105fa9190611b30565b6106049190611b47565b61060e9190611b69565b92915050565b61061c611509565b33610625611454565b600955426008556001600160a01b038116156106705761064481610597565b6001600160a01b0382166000908152600e6020908152604080832093909355600954600d909152919020555b336000908152600e6020526040902054806106c85760405162461bcd60e51b81526020600482015260136024820152724e6f207265776172647320746f20636c61696d60681b60448201526064015b60405180910390fd5b336000818152600e60205260408120556002546106f1916001600160a01b039091169083611533565b60405181815233907f106f923f993c2149d49b4255ff723acafa1f2d94393f561d3eda32ae348f72419060200160405180910390a250506107326001600055565b565b61073c611592565b6000610746611454565b600955426008556001600160a01b038116156107915761076581610597565b6001600160a01b0382166000908152600e6020908152604080832093909355600954600d909152919020555b600082116107e15760405162461bcd60e51b815260206004820152601860248201527f4e6f207265776172647320746f2064697374726962757465000000000000000060448201526064016106bf565b6002546107f9906001600160a01b03163330856115bf565b6007546040805184815260208101929092527f29e98ba00d07f171959c4ddcd2f3020debc7c52cf537a034d7e664340d098c6c910160405180910390a15050565b610842611509565b3361084b611454565b600955426008556001600160a01b038116156108965761086a81610597565b6001600160a01b0382166000908152600e6020908152604080832093909355600954600d909152919020555b33600090815260036020526040902080548311156108f65760405162461bcd60e51b815260206004820152601a60248201527f496e73756666696369656e74207374616b656420616d6f756e7400000000000060448201526064016106bf565b8060020154816001015461090a9190611b69565b42101561094f5760405162461bcd60e51b8152602060048201526013602482015272151bdad95b9cc81cdd1a5b1b081b1bd8dad959606a1b60448201526064016106bf565b600481015460ff16801561097557503360009081526004602052604090206005015460ff165b15610a1f57600a54815461098a908590611b1d565b1015806109975750805483145b6109f45760405162461bcd60e51b815260206004820152602860248201527f576f756c642066616c6c2062656c6f77206d696e696d756d2076616c696461746044820152676f72207374616b6560c01b60648201526084016106bf565b80548303610a1f57336000818152600460205260409020600501805460ff19169055610a1f906115fe565b82816000016000828254610a339190611b1d565b925050819055508260066000828254610a4c9190611b1d565b90915550508054600003610a8f573360009081526003602081905260408220828155600181018390556002810183905590810191909155600401805460ff191690555b600254610aa6906001600160a01b03163385611533565b60405183815233907f9845e367b683334e5c0b12d7b81721ac518e649376fa65e3d68324e8f34f26799060200160405180910390a25050610ae76001600055565b50565b610af2611592565b6107326000611709565b610b476040518060e0016040528060006001600160a01b0316815260200160008152602001600081526020016000815260200160008152602001600015158152602001600081525090565b506001600160a01b03908116600090815260046020818152604092839020835160e08101855281549095168552600181015491850191909152600281015492840192909252600382015460608401528101546080830152600581015460ff16151560a08301526006015460c082015290565b610bc1611592565b6001600160a01b03821660009081526004602052604090206005015460ff16610c235760405162461bcd60e51b815260206004820152601460248201527356616c696461746f72206e6f742061637469766560601b60448201526064016106bf565b6001600160a01b0382166000908152600460208190526040822090810180549192610c4d83611b7c565b91905055508115610c9d57600381018054906000610c6a83611b7c565b91905055506103e881600201541015610c9857600a816002016000828254610c929190611b69565b90915550505b505050565b600a81600201541115610c9857600a816002016000828254610c929190611b1d565b60606000805b600554811015610d36576004600060058381548110610ce657610ce6611b95565b60009182526020808320909101546001600160a01b0316835282019290925260400190206005015460ff1615610d245781610d2081611b7c565b9250505b80610d2e81611b7c565b915050610cc5565b5060008167ffffffffffffffff811115610d5257610d526119c8565b604051908082528060200260200182016040528015610d7b578160200160208202803683370190505b5090506000805b600554811015610e4e576004600060058381548110610da357610da3611b95565b60009182526020808320909101546001600160a01b0316835282019290925260400190206005015460ff1615610e3c5760058181548110610de657610de6611b95565b9060005260206000200160009054906101000a90046001600160a01b0316838381518110610e1657610e16611b95565b6001600160a01b039092166020928302919091019091015281610e3881611b7c565b9250505b80610e4681611b7c565b915050610d82565b50909392505050565b610e5f611592565b81610e68611454565b600955426008556001600160a01b03811615610eb357610e8781610597565b6001600160a01b0382166000908152600e6020908152604080832093909355600954600d909152919020555b6001600160a01b03831660009081526004602052604090206005015460ff16610f155760405162461bcd60e51b815260206004820152601460248201527356616c696461746f72206e6f742061637469766560601b60448201526064016106bf565b6001600160a01b0383166000908152600360205260408120600c54815491929161271091610f4291611b30565b610f4c9190611b47565b8254909150811115610f5c575080545b80826000016000828254610f709190611b1d565b925050819055508060066000828254610f899190611b1d565b90915550506001600160a01b0385166000908152600460205260408120600601805491610fb583611b7c565b90915550506001600160a01b038516600090815260046020526040902060020154606410610fe457600061100c565b6001600160a01b03851660009081526004602052604090206002015461100c90606490611b1d565b6001600160a01b038616600090815260046020526040902060020155600a548254101561105f576001600160a01b0385166000908152600460205260409020600501805460ff1916905561105f856115fe565b600254611078906001600160a01b031661dead83611533565b846001600160a01b03167f074c8604eab659bccd1619a91a9588244a2442723fdcb05af0aa39da9fc6865782866040516110b3929190611bab565b60405180910390a25050505050565b600581815481106110d257600080fd5b6000918252602090912001546001600160a01b0316905081565b6060600580548060200260200160405190810160405280929190818152602001828054801561114457602002820191906000526020600020905b81546001600160a01b03168152600190910190602001808311611126575b5050505050905090565b611156611509565b3361115f611454565b600955426008556001600160a01b038116156111aa5761117e81610597565b6001600160a01b0382166000908152600e6020908152604080832093909355600954600d909152919020555b600084116111f25760405162461bcd60e51b815260206004820152601560248201527443616e6e6f74207374616b65203020746f6b656e7360581b60448201526064016106bf565b600b5483101561123c5760405162461bcd60e51b8152602060048201526015602482015274131bd8dac81c195c9a5bd9081d1bdbc81cda1bdc9d605a1b60448201526064016106bf565b81156112ed57600a548410156112945760405162461bcd60e51b815260206004820181905260248201527f496e73756666696369656e74207374616b6520666f722076616c696461746f7260448201526064016106bf565b3360009081526004602052604090206005015460ff16156112ed5760405162461bcd60e51b815260206004820152601360248201527220b63932b0b23c9030903b30b634b230ba37b960691b60448201526064016106bf565b600254611305906001600160a01b03163330876115bf565b336000908152600360205260408120805490918691839190611328908490611b69565b90915550504260018201556002810184905560048101805460ff19168415151790556006805486919060009061135f908490611b69565b9091555050821561137457611374338661175b565b604080518681526020810186905284151581830152905133917f6363655a3c7ace10eb7a32098436bd120788e6c01329bb863799624f11b575f3919081900360600190a25050610c986001600055565b6113f86040518060a00160405280600081526020016000815260200160008152602001600081526020016000151581525090565b506001600160a01b0316600090815260036020818152604092839020835160a0810185528154815260018201549281019290925260028101549382019390935290820154606082015260049091015460ff161515608082015290565b6000600654600003611467575060095490565b60065460075460085461147a9042611b1d565b6114849190611b30565b61149690670de0b6b3a7640000611b30565b6114a09190611b47565b6009546114ad9190611b69565b905090565b6114ba611592565b600793909355600a91909155600b55600c55565b6114d6611592565b6001600160a01b03811661150057604051631e4fbdf760e01b8152600060048201526024016106bf565b610ae781611709565b60026000540361152c57604051633ee5aeb560e01b815260040160405180910390fd5b6002600055565b6040516001600160a01b03838116602483015260448201839052610c9891859182169063a9059cbb906064015b604051602081830303815290604052915060e01b6020820180516001600160e01b038381831617835250505050611870565b6001546001600160a01b031633146107325760405163118cdaa760e01b81523360048201526024016106bf565b6040516001600160a01b0384811660248301528381166044830152606482018390526115f89186918216906323b872dd90608401611560565b50505050565b60005b60055481101561170557816001600160a01b03166005828154811061162857611628611b95565b6000918252602090912001546001600160a01b0316036116f3576005805461165290600190611b1d565b8154811061166257611662611b95565b600091825260209091200154600580546001600160a01b03909216918390811061168e5761168e611b95565b9060005260206000200160006101000a8154816001600160a01b0302191690836001600160a01b0316021790555060058054806116cd576116cd611c01565b600082815260209020810160001990810180546001600160a01b03191690550190555050565b806116fd81611b7c565b915050611601565b5050565b600180546001600160a01b038381166001600160a01b0319831681179093556040519116919082907f8be0079c531659141344cd1fd0a4f28419497f9722a3daafe3b4186f6b6457e090600090a35050565b6040805160e0810182526001600160a01b0384811680835260208084018681526101f485870190815260006060870181815260808801828152600160a08a0181815260c08b018581528986526004808a528d87209c518d546001600160a01b031990811691909d16178d5597518c840155955160028c0155925160038b0155905194890194909455516005808901805460ff1916921515929092179091559151600690970196909655805491820181559094527f036b6384b5eca791c62761152d0c79bb0604c104a5fb6f4eb0703f3154bb3db09093018054909216811790915591518381527fb4a7f5c563a0e35593d156394ed681bdc9c39467d7d722749d23862c2e4b712c910160405180910390a25050565b600080602060008451602086016000885af180611893576040513d6000823e3d81fd5b50506000513d915081156118ab5780600114156118b8565b6001600160a01b0384163b155b156115f857604051635274afe760e01b81526001600160a01b03851660048201526024016106bf565b80356001600160a01b03811681146118f857600080fd5b919050565b60006020828403121561190f57600080fd5b611918826118e1565b9392505050565b60006020828403121561193157600080fd5b5035919050565b803580151581146118f857600080fd5b6000806040838503121561195b57600080fd5b611964836118e1565b915061197260208401611938565b90509250929050565b6020808252825182820181905260009190848201906040850190845b818110156119bc5783516001600160a01b031683529284019291840191600101611997565b50909695505050505050565b634e487b7160e01b600052604160045260246000fd5b600080604083850312156119f157600080fd5b6119fa836118e1565b9150602083013567ffffffffffffffff80821115611a1757600080fd5b818501915085601f830112611a2b57600080fd5b813581811115611a3d57611a3d6119c8565b604051601f8201601f19908116603f01168101908382118183101715611a6557611a656119c8565b81604052828152886020848701011115611a7e57600080fd5b8260208601602083013760006020848301015280955050505050509250929050565b600080600060608486031215611ab557600080fd5b8335925060208401359150611acc60408501611938565b90509250925092565b60008060008060808587031215611aeb57600080fd5b5050823594602084013594506040840135936060013592509050565b634e487b7160e01b600052601160045260246000fd5b8181038181111561060e5761060e611b07565b808202811582820484141761060e5761060e611b07565b600082611b6457634e487b7160e01b600052601260045260246000fd5b500490565b8082018082111561060e5761060e611b07565b600060018201611b8e57611b8e611b07565b5060010190565b634e487b7160e01b600052603260045260246000fd5b82815260006020604081840152835180604085015260005b81811015611bdf57858101830151858201606001528201611bc3565b506000606082860101526060601f19601f830116850101925050509392505050565b634e487b7160e01b600052603160045260246000fdfea26469706673582212205d5b35ebf0fc55c8544c10e88f48aac05d8bb25a62595e3254708011bde7945064736f6c63430008140033",
  "devdoc": {
    "errors": {
      "OwnableInvalidOwner(address)": [
        {
          "details": "The owner is not a valid owner account. (eg. `address(0)`)"
        }
      ],
      "OwnableUnauthorizedAccount(address)": [
        {
          "details": "The caller account is not authorized to perform an operation."
        }
      ],
      "ReentrancyGuardReentrantCall()": [
        {
          "details": "Unauthorized reentrant call."
        }
      ],
      "SafeERC20FailedOperation(address)": [
        {
          "details": "An operation with an ERC-20 token failed."
        }
      ]
    },
    "kind": "dev",
    "methods": {
      "claimRewards()": {
        "details": "Claim staking rewards"
      },
      "distributeRewards(uint256)": {
        "details": "Distribute rewards to stakers"
      },
      "earned(address)": {
        "details": "Calculate earned rewards for an account"
      },
      "getActiveValidators()": {
        "details": "Get active validators only"
      },
      "getStakeInfo(address)": {
        "details": "Get stake info for user"
      },
      "getValidatorInfo(address)": {
        "details": "Get validator info"
      },
      "getValidators()": {
        "details": "Get validator list"
      },
      "isActiveValidator(address)": {
        "details": "Check if address is active validator"
      },
      "owner()": {
        "details": "Returns the address of the current owner."
      },
      "renounceOwnership()": {
        "details": "Leaves the contract without owner. It will not be possible to call `onlyOwner` functions. Can only be called by the current owner. NOTE: Renouncing ownership will leave the contract without an owner, thereby disabling any functionality that is only available to the owner."
      },
      "rewardPerToken()": {
        "details": "Calculate current reward per token"
      },
      "slashStake(address,string)": {
        "details": "Slash validator stake for malicious behavior"
      },
      "stakeTokens(uint256,uint256,bool)": {
        "details": "Stake ORX tokens",
        "params": {
          "_amount": "Amount of tokens to stake",
          "_asValidator": "Whether to register as validator",
          "_lockPeriod": "Lock period in seconds"
        }
      },
      "transferOwnership(address)": {
        "details": "Transfers ownership of the contract to a new account (`newOwner`). Can only be called by the current owner."
      },
      "unstakeTokens(uint256)": {
        "details": "Unstake tokens",
        "params": {
          "_amount": "Amount to unstake"
        }
      },
      "updateParameters(uint256,uint256,uint256,uint256)": {
        "details": "Update contract parameters"
      },
      "updateValidatorPerformance(address,bool)": {
        "details": "Update validator performance"
      }
    },
    "version": 1
  },
  "userdoc": {
    "kind": "user",
    "methods": {},
    "version": 1
  },
  "storageLayout": {
    "storage": [
      {
        "astId": 928,
        "contract": "contracts/StakingContract.sol:StakingContract",
        "label": "_status",
        "offset": 0,
        "slot": "0",
        "type": "t_uint256"
      },
      {
        "astId": 8,
        "contract": "contracts/StakingContract.sol:StakingContract",
        "label": "_owner",
        "offset": 0,
        "slot": "1",
        "type": "t_address"
      },
      {
        "astId": 4771,
        "contract": "contracts/StakingContract.sol:StakingContract",
        "label": "orxToken",
        "offset": 0,
        "slot": "2",
        "type": "t_contract(IERC20)315"
      },
      {
        "astId": 4776,
        "contract": "contracts/StakingContract.sol:StakingContract",
        "label": "stakes",
        "offset": 0,
        "slot": "3",
        "type": "t_mapping(t_address,t_struct(StakeInfo)4753_storage)"
      },
      {
        "astId": 4781,
        "contract": "contracts/StakingContract.sol:StakingContract",
        "label": "validators",
        "offset": 0,
        "slot": "4",
        "type": "t_mapping(t_address,t_struct(Validator)4768_storage)"
      },
      {
        "astId": 4784,
        "contract": "contracts/StakingContract.sol:StakingContract",
        "label": "validatorList",
        "offset": 0,
        "slot": "5",
        "type": "t_array(t_address)dyn_storage"
      },
      {
        "astId": 4786,
        "contract": "contracts/StakingContract.sol:StakingContract",
        "label": "totalStaked",
        "offset": 0,
        "slot": "6",
        "type": "t_uint256"
      },
      {
        "astId": 4788,
        "contract": "contracts/StakingContract.sol:StakingContract",
        "label": "rewardRate",
        "offset": 0,
        "slot": "7",
        "type": "t_uint256"
      },
      {
        "astId": 4790,
        "contract": "contracts/StakingContract.sol:StakingContract",
        "label": "lastUpdateTime",
        "offset": 0,
        "slot": "8",
        "type": "t_uint256"
      },
      {
        "astId": 4792,
        "contract": "contracts/StakingContract.sol:StakingContract",
        "label": "rewardPerTokenStored",
        "offset": 0,
        "slot": "9",
        "type": "t_uint256"
      },
      {
        "astId": 4794,
        "contract": "contracts/StakingContract.sol:StakingContract",
        "label": "minimumValidatorStake",
        "offset": 0,
        "slot": "10",
        "type": "t_uint256"
      },
      {
        "astId": 4796,
        "contract": "contracts/StakingContract.sol:StakingContract",
        "label": "minimumStakingPeriod",
        "offset": 0,
        "slot": "11",
        "type": "t_uint256"
      },
      {
        "astId": 4798,
        "contract": "contracts/StakingContract.sol:StakingContract",
        "label": "slashingRate",
        "offset": 0,
        "slot": "12",
        "type": "t_uint256"
      },
      {
        "astId": 4802,
        "contract": "contracts/StakingContract.sol:StakingContract",
        "label": "userRewardPerTokenPaid",
        "offset": 0,
        "slot": "13",
        "type": "t_mapping(t_address,t_uint256)"
      },
      {
        "astId": 4806,
        "contract": "contracts/StakingContract.sol:StakingContract",
        "label": "rewards",
        "offset": 0,
        "slot": "14",
        "type": "t_mapping(t_address,t_uint256)"
      }
    ],
    "types": {
      "t_address": {
        "encoding": "inplace",
        "label": "address",
        "numberOfBytes": "20"
      },
      "t_array(t_address)dyn_storage": {
        "base": "t_address",
        "encoding": "dynamic_array",
        "label": "address[]",
        "numberOfBytes": "32"
      },
      "t_bool": {
        "encoding": "inplace",
        "label": "bool",
        "numberOfBytes": "1"
      },
      "t_contract(IERC20)315": {
        "encoding": "inplace",
        "label": "contract IERC20",
        "numberOfBytes": "20"
      },
      "t_mapping(t_address,t_struct(StakeInfo)4753_storage)": {
        "encoding": "mapping",
        "key": "t_address",
        "label": "mapping(address => struct StakingContract.StakeInfo)",
        "numberOfBytes": "32",
        "value": "t_struct(StakeInfo)4753_storage"
      },
      "t_mapping(t_address,t_struct(Validator)4768_storage)": {
        "encoding": "mapping",
        "key": "t_address",
        "label": "mapping(address => struct StakingContract.Validator)",
        "numberOfBytes": "32",
        "value": "t_struct(Validator)4768_storage"
      },
      "t_mapping(t_address,t_uint256)": {
        "encoding": "mapping",
        "key": "t_address",
        "label": "mapping(address => uint256)",
        "numberOfBytes": "32",
        "value": "t_uint256"
      },
      "t_struct(StakeInfo)4753_storage": {
        "encoding": "inplace",
        "label": "struct StakingContract.StakeInfo",
        "members": [
          {
            "astId": 4744,
            "contract": "contracts/StakingContract.sol:StakingContract",
            "label": "amount",
            "offset": 0,
            "slot": "0",
            "type": "t_uint256"
          },
          {
            "astId": 4746,
            "contract": "contracts/StakingContract.sol:StakingContract",
            "label": "timestamp",
            "offset": 0,
            "slot": "1",
            "type": "t_uint256"
          },
          {
            "astId": 4748,
            "contract": "contracts/StakingContract.sol:StakingContract",
            "label": "lockPeriod",
            "offset": 0,
            "slot": "2",
            "type": "t_uint256"
          },
          {
            "astId": 4750,
            "contract": "contracts/StakingContract.sol:StakingContract",
            "label": "rewardDebt",
            "offset": 0,
            "slot": "3",
            "type": "t_uint256"
          },
          {
            "astId": 4752,
            "contract": "contracts/StakingContract.sol:StakingContract",
            "label": "isValidator",
            "offset": 0,
            "slot": "4",
            "type": "t_bool"
          }
        ],
        "numberOfBytes": "160"
      },
      "t_struct(Validator)4768_storage": {
        "encoding": "inplace",
        "label": "struct StakingContract.Validator",
        "members": [
          {
            "astId": 4755,
            "contract": "contracts/StakingContract.sol:StakingContract",
            "label": "validatorAddress",
            "offset": 0,
            "slot": "0",
            "type": "t_address"
          },
          {
            "astId": 4757,
            "contract": "contracts/StakingContract.sol:StakingContract",
            "label": "totalStaked",
            "offset": 0,
            "slot": "1",
            "type": "t_uint256"
          },
          {
            "astId": 4759,
            "contract": "contracts/StakingContract.sol:StakingContract",
            "label": "reputation",
            "offset": 0,
            "slot": "2",
            "type": "t_uint256"
          },
          {
            "astId": 4761,
            "contract": "contracts/StakingContract.sol:StakingContract",
            "label": "successfulResolutions",
            "offset": 0,
            "slot": "3",
            "type": "t_uint256"
          },
          {
            "astId": 4763,
            "contract": "contracts/StakingContract.sol:StakingContract",
            "label": "totalResolutions",
            "offset": 0,
            "slot": "4",
            "type": "t_uint256"
          },
          {
            "astId": 4765,
            "contract": "contracts/StakingContract.sol:StakingContract",
            "label": "isActive",
            "offset": 0,
            "slot": "5",
            "type": "t_bool"
          },
          {
            "astId": 4767,
            "contract": "contracts/StakingContract.sol:StakingContract",
            "label": "slashCount",
            "offset": 0,
            "slot": "6",
            "type": "t_uint256"
          }
        ],
        "numberOfBytes": "224"
      },
      "t_uint256": {
        "encoding": "inplace",
        "label": "uint256",
        "numberOfBytes": "32"
      }
    }
  }
}