{
    "_format": "hh-sol-artifact-1",
    "contractName": "GovernanceDAO",
    "sourceName": "contracts/GovernanceDAO.sol",
    "abi": [
        {
            "inputs": [
                {
                    "internalType": "address",
                    "name": "_orxToken",
                    "type": "address"
                },
                {
                    "internalType": "address",
                    "name": "_stakingContract",
                    "type": "address"
                },
                {
                    "internalType": "uint256",
                    "name": "_proposalThreshold",
                    "type": "uint256"
                },
                {
                    "internalType": "uint256",
                    "name": "_votingDelay",
                    "type": "uint256"
                },
                {
                    "internalType": "uint256",
                    "name": "_votingPeriod",
                    "type": "uint256"
                },
                {
                    "internalType": "uint256",
                    "name": "_quorumPercentage",
                    "type": "uint256"
                },
                {
                    "internalType": "uint256",
                    "name": "_approvalPercentage",
                    "type": "uint256"
                }
            ],
            "stateMutability": "nonpayable",
            "type": "constructor"
        },
        {
            "inputs": [
                {
                    "internalType": "address",
                    "name": "owner",
                    "type": "address"
                }
            ],
            "name": "OwnableInvalidOwner",
            "type": "error"
        },
        {
            "inputs": [
                {
                    "internalType": "address",
                    "name": "account",
                    "type": "address"
                }
            ],
            "name": "OwnableUnauthorizedAccount",
            "type": "error"
        },
        {
            "inputs": [],
            "name": "ReentrancyGuardReentrantCall",
            "type": "error"
        },
        {
            "anonymous": false,
            "inputs": [
                {
                    "indexed": true,
                    "internalType": "address",
                    "name": "previousOwner",
                    "type": "address"
                },
                {
                    "indexed": true,
                    "internalType": "address",
                    "name": "newOwner",
                    "type": "address"
                }
            ],
            "name": "OwnershipTransferred",
            "type": "event"
        },
        {
            "anonymous": false,
            "inputs": [
                {
                    "indexed": true,
                    "internalType": "uint256",
                    "name": "proposalId",
                    "type": "uint256"
                }
            ],
            "name": "ProposalCancelled",
            "type": "event"
        },
        {
            "anonymous": false,
            "inputs": [
                {
                    "indexed": true,
                    "internalType": "uint256",
                    "name": "proposalId",
                    "type": "uint256"
                },
                {
                    "indexed": true,
                    "internalType": "address",
                    "name": "proposer",
                    "type": "address"
                },
                {
                    "indexed": false,
                    "internalType": "string",
                    "name": "title",
                    "type": "string"
                },
                {
                    "indexed": false,
                    "internalType": "uint256",
                    "name": "votingStartsAt",
                    "type": "uint256"
                },
                {
                    "indexed": false,
                    "internalType": "uint256",
                    "name": "votingEndsAt",
                    "type": "uint256"
                }
            ],
            "name": "ProposalCreated",
            "type": "event"
        },
        {
            "anonymous": false,
            "inputs": [
                {
                    "indexed": true,
                    "internalType": "uint256",
                    "name": "proposalId",
                    "type": "uint256"
                },
                {
                    "indexed": false,
                    "internalType": "bool",
                    "name": "success",
                    "type": "bool"
                }
            ],
            "name": "ProposalExecuted",
            "type": "event"
        },
        {
            "anonymous": false,
            "inputs": [
                {
                    "indexed": true,
                    "internalType": "uint256",
                    "name": "proposalId",
                    "type": "uint256"
                },
                {
                    "indexed": false,
                    "internalType": "enum GovernanceDAO.ProposalStatus",
                    "name": "newStatus",
                    "type": "uint8"
                }
            ],
            "name": "ProposalStatusChanged",
            "type": "event"
        },
        {
            "anonymous": false,
            "inputs": [
                {
                    "indexed": true,
                    "internalType": "uint256",
                    "name": "proposalId",
                    "type": "uint256"
                },
                {
                    "indexed": true,
                    "internalType": "address",
                    "name": "voter",
                    "type": "address"
                },
                {
                    "indexed": false,
                    "internalType": "enum GovernanceDAO.VoteChoice",
                    "name": "choice",
                    "type": "uint8"
                },
                {
                    "indexed": false,
                    "internalType": "uint256",
                    "name": "votingPower",
                    "type": "uint256"
                }
            ],
            "name": "VoteCast",
            "type": "event"
        },
        {
            "inputs": [],
            "name": "approvalPercentage",
            "outputs": [
                {
                    "internalType": "uint256",
                    "name": "",
                    "type": "uint256"
                }
            ],
            "stateMutability": "view",
            "type": "function"
        },
        {
            "inputs": [
                {
                    "internalType": "address",
                    "name": "_proposer",
                    "type": "address"
                }
            ],
            "name": "canPropose",
            "outputs": [
                {
                    "internalType": "bool",
                    "name": "",
                    "type": "bool"
                }
            ],
            "stateMutability": "view",
            "type": "function"
        },
        {
            "inputs": [
                {
                    "internalType": "uint256",
                    "name": "_proposalId",
                    "type": "uint256"
                },
                {
                    "internalType": "address",
                    "name": "_voter",
                    "type": "address"
                }
            ],
            "name": "canVote",
            "outputs": [
                {
                    "internalType": "bool",
                    "name": "",
                    "type": "bool"
                }
            ],
            "stateMutability": "view",
            "type": "function"
        },
        {
            "inputs": [
                {
                    "internalType": "uint256",
                    "name": "_proposalId",
                    "type": "uint256"
                }
            ],
            "name": "cancelProposal",
            "outputs": [],
            "stateMutability": "nonpayable",
            "type": "function"
        },
        {
            "inputs": [
                {
                    "internalType": "uint256",
                    "name": "_proposalId",
                    "type": "uint256"
                },
                {
                    "internalType": "enum GovernanceDAO.VoteChoice",
                    "name": "_choice",
                    "type": "uint8"
                }
            ],
            "name": "castVote",
            "outputs": [],
            "stateMutability": "nonpayable",
            "type": "function"
        },
        {
            "inputs": [
                {
                    "internalType": "string",
                    "name": "_title",
                    "type": "string"
                },
                {
                    "internalType": "string",
                    "name": "_description",
                    "type": "string"
                },
                {
                    "internalType": "address",
                    "name": "_targetContract",
                    "type": "address"
                },
                {
                    "internalType": "bytes",
                    "name": "_executionData",
                    "type": "bytes"
                }
            ],
            "name": "createProposal",
            "outputs": [
                {
                    "internalType": "uint256",
                    "name": "",
                    "type": "uint256"
                }
            ],
            "stateMutability": "nonpayable",
            "type": "function"
        },
        {
            "inputs": [
                {
                    "internalType": "uint256",
                    "name": "_proposalId",
                    "type": "uint256"
                }
            ],
            "name": "executeProposal",
            "outputs": [],
            "stateMutability": "nonpayable",
            "type": "function"
        },
        {
            "inputs": [
                {
                    "internalType": "uint256",
                    "name": "_proposalId",
                    "type": "uint256"
                }
            ],
            "name": "finalizeProposal",
            "outputs": [],
            "stateMutability": "nonpayable",
            "type": "function"
        },
        {
            "inputs": [],
            "name": "getActiveProposals",
            "outputs": [
                {
                    "internalType": "uint256[]",
                    "name": "",
                    "type": "uint256[]"
                }
            ],
            "stateMutability": "view",
            "type": "function"
        },
        {
            "inputs": [
                {
                    "internalType": "uint256",
                    "name": "_proposalId",
                    "type": "uint256"
                }
            ],
            "name": "getProposal",
            "outputs": [
                {
                    "components": [
                        {
                            "internalType": "uint256",
                            "name": "id",
                            "type": "uint256"
                        },
                        {
                            "internalType": "address",
                            "name": "proposer",
                            "type": "address"
                        },
                        {
                            "internalType": "string",
                            "name": "title",
                            "type": "string"
                        },
                        {
                            "internalType": "string",
                            "name": "description",
                            "type": "string"
                        },
                        {
                            "internalType": "uint256",
                            "name": "votesFor",
                            "type": "uint256"
                        },
                        {
                            "internalType": "uint256",
                            "name": "votesAgainst",
                            "type": "uint256"
                        },
                        {
                            "internalType": "uint256",
                            "name": "votesAbstain",
                            "type": "uint256"
                        },
                        {
                            "internalType": "uint256",
                            "name": "totalVotingPower",
                            "type": "uint256"
                        },
                        {
                            "internalType": "uint256",
                            "name": "createdAt",
                            "type": "uint256"
                        },
                        {
                            "internalType": "uint256",
                            "name": "votingStartsAt",
                            "type": "uint256"
                        },
                        {
                            "internalType": "uint256",
                            "name": "votingEndsAt",
                            "type": "uint256"
                        },
                        {
                            "internalType": "enum GovernanceDAO.ProposalStatus",
                            "name": "status",
                            "type": "uint8"
                        },
                        {
                            "internalType": "uint256",
                            "name": "quorumRequired",
                            "type": "uint256"
                        },
                        {
                            "internalType": "uint256",
                            "name": "approvalThreshold",
                            "type": "uint256"
                        },
                        {
                            "internalType": "bool",
                            "name": "executed",
                            "type": "bool"
                        },
                        {
                            "internalType": "bytes",
                            "name": "executionData",
                            "type": "bytes"
                        },
                        {
                            "internalType": "address",
                            "name": "targetContract",
                            "type": "address"
                        }
                    ],
                    "internalType": "struct GovernanceDAO.Proposal",
                    "name": "",
                    "type": "tuple"
                }
            ],
            "stateMutability": "view",
            "type": "function"
        },
        {
            "inputs": [
                {
                    "internalType": "uint256",
                    "name": "_proposalId",
                    "type": "uint256"
                }
            ],
            "name": "getProposalVoters",
            "outputs": [
                {
                    "internalType": "address[]",
                    "name": "",
                    "type": "address[]"
                }
            ],
            "stateMutability": "view",
            "type": "function"
        },
        {
            "inputs": [
                {
                    "internalType": "enum GovernanceDAO.ProposalStatus",
                    "name": "_status",
                    "type": "uint8"
                }
            ],
            "name": "getProposalsByStatus",
            "outputs": [
                {
                    "internalType": "uint256[]",
                    "name": "",
                    "type": "uint256[]"
                }
            ],
            "stateMutability": "view",
            "type": "function"
        },
        {
            "inputs": [],
            "name": "getTotalProposals",
            "outputs": [
                {
                    "internalType": "uint256",
                    "name": "",
                    "type": "uint256"
                }
            ],
            "stateMutability": "view",
            "type": "function"
        },
        {
            "inputs": [
                {
                    "internalType": "uint256",
                    "name": "_proposalId",
                    "type": "uint256"
                },
                {
                    "internalType": "address",
                    "name": "_voter",
                    "type": "address"
                }
            ],
            "name": "getVote",
            "outputs": [
                {
                    "components": [
                        {
                            "internalType": "enum GovernanceDAO.VoteChoice",
                            "name": "choice",
                            "type": "uint8"
                        },
                        {
                            "internalType": "uint256",
                            "name": "votingPower",
                            "type": "uint256"
                        },
                        {
                            "internalType": "uint256",
                            "name": "timestamp",
                            "type": "uint256"
                        }
                    ],
                    "internalType": "struct GovernanceDAO.Vote",
                    "name": "",
                    "type": "tuple"
                }
            ],
            "stateMutability": "view",
            "type": "function"
        },
        {
            "inputs": [
                {
                    "internalType": "address",
                    "name": "_voter",
                    "type": "address"
                }
            ],
            "name": "getVotingPower",
            "outputs": [
                {
                    "internalType": "uint256",
                    "name": "",
                    "type": "uint256"
                }
            ],
            "stateMutability": "view",
            "type": "function"
        },
        {
            "inputs": [],
            "name": "orxToken",
            "outputs": [
                {
                    "internalType": "contract IERC20",
                    "name": "",
                    "type": "address"
                }
            ],
            "stateMutability": "view",
            "type": "function"
        },
        {
            "inputs": [],
            "name": "owner",
            "outputs": [
                {
                    "internalType": "address",
                    "name": "",
                    "type": "address"
                }
            ],
            "stateMutability": "view",
            "type": "function"
        },
        {
            "inputs": [],
            "name": "proposalCounter",
            "outputs": [
                {
                    "internalType": "uint256",
                    "name": "",
                    "type": "uint256"
                }
            ],
            "stateMutability": "view",
            "type": "function"
        },
        {
            "inputs": [],
            "name": "proposalThreshold",
            "outputs": [
                {
                    "internalType": "uint256",
                    "name": "",
                    "type": "uint256"
                }
            ],
            "stateMutability": "view",
            "type": "function"
        },
        {
            "inputs": [
                {
                    "internalType": "uint256",
                    "name": "",
                    "type": "uint256"
                },
                {
                    "internalType": "uint256",
                    "name": "",
                    "type": "uint256"
                }
            ],
            "name": "proposalVoters",
            "outputs": [
                {
                    "internalType": "address",
                    "name": "",
                    "type": "address"
                }
            ],
            "stateMutability": "view",
            "type": "function"
        },
        {
            "inputs": [
                {
                    "internalType": "uint256",
                    "name": "",
                    "type": "uint256"
                }
            ],
            "name": "proposals",
            "outputs": [
                {
                    "internalType": "uint256",
                    "name": "id",
                    "type": "uint256"
                },
                {
                    "internalType": "address",
                    "name": "proposer",
                    "type": "address"
                },
                {
                    "internalType": "string",
                    "name": "title",
                    "type": "string"
                },
                {
                    "internalType": "string",
                    "name": "description",
                    "type": "string"
                },
                {
                    "internalType": "uint256",
                    "name": "votesFor",
                    "type": "uint256"
                },
                {
                    "internalType": "uint256",
                    "name": "votesAgainst",
                    "type": "uint256"
                },
                {
                    "internalType": "uint256",
                    "name": "votesAbstain",
                    "type": "uint256"
                },
                {
                    "internalType": "uint256",
                    "name": "totalVotingPower",
                    "type": "uint256"
                },
                {
                    "internalType": "uint256",
                    "name": "createdAt",
                    "type": "uint256"
                },
                {
                    "internalType": "uint256",
                    "name": "votingStartsAt",
                    "type": "uint256"
                },
                {
                    "internalType": "uint256",
                    "name": "votingEndsAt",
                    "type": "uint256"
                },
                {
                    "internalType": "enum GovernanceDAO.ProposalStatus",
                    "name": "status",
                    "type": "uint8"
                },
                {
                    "internalType": "uint256",
                    "name": "quorumRequired",
                    "type": "uint256"
                },
                {
                    "internalType": "uint256",
                    "name": "approvalThreshold",
                    "type": "uint256"
                },
                {
                    "internalType": "bool",
                    "name": "executed",
                    "type": "bool"
                },
                {
                    "internalType": "bytes",
                    "name": "executionData",
                    "type": "bytes"
                },
                {
                    "internalType": "address",
                    "name": "targetContract",
                    "type": "address"
                }
            ],
            "stateMutability": "view",
            "type": "function"
        },
        {
            "inputs": [],
            "name": "quorumPercentage",
            "outputs": [
                {
                    "internalType": "uint256",
                    "name": "",
                    "type": "uint256"
                }
            ],
            "stateMutability": "view",
            "type": "function"
        },
        {
            "inputs": [],
            "name": "renounceOwnership",
            "outputs": [],
            "stateMutability": "nonpayable",
            "type": "function"
        },
        {
            "inputs": [],
            "name": "stakingContract",
            "outputs": [
                {
                    "internalType": "contract StakingContract",
                    "name": "",
                    "type": "address"
                }
            ],
            "stateMutability": "view",
            "type": "function"
        },
        {
            "inputs": [
                {
                    "internalType": "address",
                    "name": "newOwner",
                    "type": "address"
                }
            ],
            "name": "transferOwnership",
            "outputs": [],
            "stateMutability": "nonpayable",
            "type": "function"
        },
        {
            "inputs": [
                {
                    "internalType": "uint256",
                    "name": "_proposalThreshold",
                    "type": "uint256"
                },
                {
                    "internalType": "uint256",
                    "name": "_votingDelay",
                    "type": "uint256"
                },
                {
                    "internalType": "uint256",
                    "name": "_votingPeriod",
                    "type": "uint256"
                },
                {
                    "internalType": "uint256",
                    "name": "_quorumPercentage",
                    "type": "uint256"
                },
                {
                    "internalType": "uint256",
                    "name": "_approvalPercentage",
                    "type": "uint256"
                }
            ],
            "name": "updateParameters",
            "outputs": [],
            "stateMutability": "nonpayable",
            "type": "function"
        },
        {
            "inputs": [
                {
                    "internalType": "uint256",
                    "name": "",
                    "type": "uint256"
                },
                {
                    "internalType": "address",
                    "name": "",
                    "type": "address"
                }
            ],
            "name": "votes",
            "outputs": [
                {
                    "internalType": "enum GovernanceDAO.VoteChoice",
                    "name": "choice",
                    "type": "uint8"
                },
                {
                    "internalType": "uint256",
                    "name": "votingPower",
                    "type": "uint256"
                },
                {
                    "internalType": "uint256",
                    "name": "timestamp",
                    "type": "uint256"
                }
            ],
            "stateMutability": "view",
            "type": "function"
        },
        {
            "inputs": [],
            "name": "votingDelay",
            "outputs": [
                {
                    "internalType": "uint256",
                    "name": "",
                    "type": "uint256"
                }
            ],
            "stateMutability": "view",
            "type": "function"
        },
        {
            "inputs": [],
            "name": "votingPeriod",
            "outputs": [
                {
                    "internalType": "uint256",
                    "name": "",
                    "type": "uint256"
                }
            ],
            "stateMutability": "view",
            "type": "function"
        }
    ],
    "bytecode": "0x6080346200011e57601f6200273138819003918201601f19168301916001600160401b03831184841017620001235780849260e0946040528339810103126200011e576200004d8162000139565b906200005c6020820162000139565b906040810151606082015160808301519160c060a08501519401519460016000553315620001055760018054336001600160a01b031980831682179093556040519992936001600160a01b0393909284929083167f8be0079c531659141344cd1fd0a4f28419497f9722a3daafe3b4186f6b6457e0600080a31683600b541617600b551690600c541617600c55600655600755600855600955600a556125e290816200014f8239f35b604051631e4fbdf760e01b815260006004820152602490fd5b600080fd5b634e487b7160e01b600052604160045260246000fd5b51906001600160a01b03821682036200011e5756fe60a0604052600436101561001257600080fd5b60003560e01c8063013cf08b1461199457806302a251a314611976578063032db3391461194d5780630c0512e9146116e25780630d61b519146117005780631a5007dd146116e25780633008d437146116c45780633932abb1146116a657806342b4632e146116215780634fa76ec9146116035780635584c4f9146115275780635652077c146114ef5780635678138814611198578063715018a61461113b5780638da5cb5b14611112578063a51388c814611012578063a68f34f714610f5a578063ab89437c14610f08578063b58131b014610eea578063b7622dd414610eb1578063bb4d443614610e86578063bc3f931f14610ddd578063c26493f7146106c0578063c7f758a814610407578063cdb2867b146103d7578063d23254b41461036e578063e0a8f6f514610212578063ee99205c146101e95763f2fde38b1461015b57600080fd5b346101e45760203660031901126101e457610174611cae565b61017c611dc0565b6001600160a01b039081169081156101cb57600154826001600160601b0360a01b821617600155167f8be0079c531659141344cd1fd0a4f28419497f9722a3daafe3b4186f6b6457e0600080a3005b604051631e4fbdf760e01b815260006004820152602490fd5b600080fd5b346101e45760003660031901126101e457600c546040516001600160a01b039091168152602090f35b346101e45760203660031901126101e4576004356102336005548210611f20565b60008181526002602052604090206001810154336001600160a01b0391821614908115610360575b501561032a5760098101544210156102ec57600b01805460ff81169060068210156102d65761028e600160059314611f6c565b60ff191617905560008051602061258d8339815191526020604051837f416e669c63d9a3a5e36ee7cc7e2104b8db28ccd286aa18966e98fa230c73b08c600080a260058152a2005b634e487b7160e01b600052602160045260246000fd5b60405162461bcd60e51b8152602060048201526016602482015275159bdd1a5b99c8185b1c9958591e481cdd185c9d195960521b6044820152606490fd5b60405162461bcd60e51b815260206004820152600e60248201526d139bdd08185d5d1a1bdc9a5e995960921b6044820152606490fd5b90506001541633148361025b565b346101e45760403660031901126101e457610387611cc4565b600435600052600360205260406000209060018060a01b03166000526020526060604060002060ff8154169060026001820154910154906103cb6040518094611d43565b60208301526040820152f35b346101e45760403660031901126101e45760206103fd6103f5611cc4565b600435612329565b6040519015158152f35b346101e45760203660031901126101e457600061020060405161042981611c24565b828152826020820152606060408201526060808201528260808201528260a08201528260c08201528260e08201528261010082015282610120820152826101408201528261016082015282610180820152826101a0820152826101c082015260606101e0820152015260043560005260026020526040600020604051906104af82611c24565b8054825260018101546001600160a01b031660208301526040516104e1816104da8160028601611b73565b0382611c40565b60408301526040516104fa816104da8160038601611b73565b606083015260048101546080830152600581015460a0830152600681015460c0830152600781015460e083015260088101546101008301526009810154610120830152600a81015461014083015261055d60ff600b830154166101608401611e9d565b600c810154610180830152600d8101546101a083015260ff600e8201541615156101c0830152604051610597816104da81600f8601611b73565b6101e0830152601001546001600160a01b03908116610200830152604080516020808252845181830152840151909216828201528201516102206060830152909182916106a690610607906105f190610240860190611c61565b6060840151858203601f19016080870152611c61565b608083015160a085015260a083015160c085015260c083015160e085015260e0830151610100850152610100830151610120850152610120830151610140850152610140830151610160850152610668610160840151610180860190611ca1565b6101808301516101a08501526101a08301516101c08501526101c083015115156101e08501526101e0830151601f1985830301610200860152611c61565b610200909101516001600160a01b03166102208301520390f35b346101e45760803660031901126101e4576004356001600160401b0381116101e4576106f0903690600401611da2565b6024356001600160401b0381116101e45761070f903690600401611da2565b90604435906001600160a01b03821682036101e4576064356001600160401b0381116101e457366023820112156101e457610754903690602481600401359101611d6b565b9161075d611efd565b600c5460405163c345315360e01b81523360048201529060a090829060249082906001600160a01b03165afa908115610cec57600091610daf575b505160065411610d6a57815115610d3457835115610cf857600554926107bd84611e58565b6005556007546107e36107da6107d38342611e7d565b9242611e7d565b60085490611e7d565b600b546040516318160ddd60e01b815290602090829060049082906001600160a01b03165afa908115610cec57600091610cb8575b5061082860649160095490611e8a565b0490600a54926040519861083b8a611c24565b888a523360208b01528760408b015260608a0152600060808a0152600060a08a0152600060c08a0152600060e08a0152426101008a015261012089015261014088015260016101608801526101808701526101a086015260006101c08601526101e085015260018060a01b03166102008401528160005260026020526040600020928051845560018060a01b036020820151166001600160601b0360a01b60018601541617600185015560408101518051906001600160401b038211610ba85781906109178261090e60028a0154611b39565b60028a01611ea9565b602090601f8311600114610c4657600092610c3b575b50508160011b916000199060031b1c19161760028501555b60608101518051906001600160401b038211610ba85781906109778261096e60038a0154611b39565b60038a01611ea9565b602090601f8311600114610bc957600092610bbe575b50508160011b916000199060031b1c19161760038501555b6080810151600485015560a0810151600585015560c0810151600685015560e0810151600785015561010081015160088501556101208101516009850155610140810151600a850155600b84016101608201519060068210156102d65760ff199160ff838354169116179055610180820151600c8601556101a0820151600d860155600e85019060ff6101c08401511515918354169116179055600f8401936101e08201519485516001600160401b038111610ba857602096610a7282610a6c8554611b39565b85611ea9565b8790601f8311600114610b3e5760109493929160009183610b33575b50508160011b916000199060031b1c19161790555b019061020060018060a01b03910151166001600160601b0360a01b825416179055817f6c98a8c940418b35614f0cd02412d5c9606faff474cbb6cdd6640ba5d1a9f06b60075492610b016107da610afa8642611e7d565b9542611e7d565b610b1660405192606084526060840190611c61565b948783015260408201528033940390a36001600055604051908152f35b015190508980610a8e565b90601f1983169184600052896000209260005b818110610b91575091600193918560109897969410610b78575b505050811b019055610aa3565b015160001960f88460031b161c19169055898080610b6b565b92938b600181928786015181550195019301610b51565b634e487b7160e01b600052604160045260246000fd5b01519050868061098d565b9250600387016000526020600020906000935b601f1984168510610c20576001945083601f19811610610c07575b505050811b0160038501556109a5565b015160001960f88460031b161c19169055868080610bf7565b81810151835560209485019460019093019290910190610bdc565b01519050868061092d565b9250600287016000526020600020906000935b601f1984168510610c9d576001945083601f19811610610c84575b505050811b016002850155610945565b015160001960f88460031b161c19169055868080610c74565b81810151835560209485019460019093019290910190610c59565b90506020813d602011610ce4575b81610cd360209383611c40565b810103126101e45751610828610818565b3d9150610cc6565b6040513d6000823e3d90fd5b60405162461bcd60e51b815260206004820152601460248201527311195cd8dc9a5c1d1a5bdb881c995c5d5a5c995960621b6044820152606490fd5b60405162461bcd60e51b815260206004820152600e60248201526d151a5d1b19481c995c5d5a5c995960921b6044820152606490fd5b60405162461bcd60e51b815260206004820152601e60248201527f496e73756666696369656e7420746f6b656e7320746f2070726f706f736500006044820152606490fd5b610dd0915060a03d8111610dd6575b610dc88183611c40565b810190611df9565b85610798565b503d610dbe565b346101e45760403660031901126101e457610df6611cc4565b600060408051610e0581611c09565b8281528260208201520152600435600052600360205260406000209060018060a01b03166000526020526060604060002060405190610e4382611c09565b610e5160ff82541683611fae565b60026001820154916020840192835201549060408301918252610e78604051809451611d43565b516020830152516040820152f35b346101e45760203660031901126101e4576020610ea9610ea4611cae565b611fba565b604051908152f35b346101e45760a03660031901126101e457610eca611dc0565b600435600655602435600755604435600855606435600955608435600a55005b346101e45760003660031901126101e4576020600654604051908152f35b346101e45760403660031901126101e4576024356004356000526004602052604060002080548210156101e457602091610f4191611d15565b905460405160039290921b1c6001600160a01b03168152f35b346101e4576020806003193601126101e45760043560005260048152604060002060405190818382549182815201908192600052846000209060005b86828210610ff5578686610fac82880383611c40565b604051928392818401908285525180915260408401929160005b828110610fd557505050500390f35b83516001600160a01b031685528695509381019392810192600101610fc6565b83546001600160a01b031685529093019260019283019201610f96565b346101e4576020806003193601126101e457600435906006908183101590816101e457600554916000805b8481106110c6575061104e90612546565b9360009260005b85811061106e576040518061106a8982611cda565b0390f35b80600052600282528360ff600b6040600020015416906102d657838110156102d65788146110a5575b6110a090611e58565b611055565b936110be81866110b86110a0948b612578565b52611e58565b949050611097565b80600052600284528260ff600b6040600020015416906102d657868110156102d65787146110fd575b6110f890611e58565b61103d565b9061110a6110f891611e58565b9190506110ef565b346101e45760003660031901126101e4576001546040516001600160a01b039091168152602090f35b346101e45760003660031901126101e457611154611dc0565b600180546001600160a01b031981169091556000906001600160a01b03167f8be0079c531659141344cd1fd0a4f28419497f9722a3daafe3b4186f6b6457e08280a3005b346101e45760403660031901126101e45760043560249081359160048310156101e4576111c3611efd565b6111d06005548310611f20565b82156114b55781600052602060028152604060002060ff600b82015416600681101561142f5760016112029114611f6c565b6009810154421061147d57600a8101544211611444578360005260038252604060002033600052825260ff60406000205416600481101561142f576113fc5761124a33611fba565b9283156113c75760405161125d81611c09565b6112678782611fae565b8381018581526040820190428252876000526003865260406000203360005286526040600020925160048110156113b257906002929160ff8019865416911617845551600184015551910155846000526004835260406000208054916801000000000000000083101561139e5750816112e891600160079594018155611d15565b81546001600160a01b0360039290921b91821b19163390911b17905560018603611369576004810161131b858254611e7d565b90555b0161132a838254611e7d565b90556113396040518095611d43565b8301527fb83d25c6a5d258561330739951487acb4bd09ba5190b5d32c4f261817d90679260403393a36001600055005b600286036113875760058101611380858254611e7d565b905561131e565b6003860361131e5760068101611380858254611e7d565b634e487b7160e01b60009081526041600452fd5b84634e487b7160e01b60005260216004526000fd5b82600f6064926040519262461bcd60e51b845260048401528201526e2737903b37ba34b733903837bbb2b960891b6044820152fd5b50600d6064926040519262461bcd60e51b845260048401528201526c105b1c9958591e481d9bdd1959609a1b6044820152fd5b83634e487b7160e01b60005260216004526000fd5b5060136064926040519262461bcd60e51b8452600484015282015272159bdd1a5b99c81c195c9a5bd908195b991959606a1b6044820152fd5b5060126064926040519262461bcd60e51b8452600484015282015271159bdd1a5b99c81b9bdd081cdd185c9d195960721b6044820152fd5b60649060136040519162461bcd60e51b83526020600484015282015272496e76616c696420766f74652063686f69636560681b6044820152fd5b346101e45760203660031901126101e45761152060043561150e611efd565b61151b6005548210611f20565b6121a9565b6001600055005b346101e45760003660031901126101e4576005546000805b8281106115ba575061155090612546565b60009160005b81811061156b576040518061106a8582611cda565b80600052600260205260ff600b604060002001541660068110156102d65760011461159f575b61159a90611e58565b611556565b926115b281856110b861159a9487612578565b939050611591565b80600052600260205260ff600b604060002001541660068110156102d6576001146115ee575b6115e990611e58565b61153f565b906115fb6115e991611e58565b9190506115e0565b346101e45760003660031901126101e4576020600954604051908152f35b346101e45760203660031901126101e45761163a611cae565b600c5460405163c345315360e01b81526001600160a01b0392831660048201529160a09183916024918391165afa8015610cec57602091600091611688575b50516006541115604051908152f35b6116a0915060a03d8111610dd657610dc88183611c40565b82611679565b346101e45760003660031901126101e4576020600754604051908152f35b346101e45760003660031901126101e4576020600a54604051908152f35b346101e45760003660031901126101e4576020600554604051908152f35b346101e4576020806003193601126101e45760043561171d611efd565b61172a6005548210611f20565b80600052600282526040600020600b81019283549360ff851660068110156102d65760020361191257600e83019283549160ff83166118cd5760108201546001600160a01b03169283156118925791600f91600488959460019a8b9960ff199a8b80941617905516179055016040519460009180546117a881611b39565b92818b1691821561187d57505060011461183f575b50506000807f948f4a9cd986f1118c3fbd459f7a22b23c0693e1ca3ef06a6a8be5aa7d39cc0393878260008051602061258d83398151915299899603925af13d1561183a573d61180c81611d50565b9061181a6040519283611c40565b81526000833d92013e5b6040519015158152a260405160048152a2600055005b611824565b90915060009592955283600020876000915b8383106118685750929592505084016000806117bd565b80548584015288955091860191899101611851565b168852505080151502850190506000806117bd565b60405162461bcd60e51b8152600481018690526013602482015272139bc8195e1958dd5d1a5bdb881d185c99d95d606a1b6044820152606490fd5b60405162461bcd60e51b815260048101859052601960248201527f50726f706f73616c20616c7265616479206578656375746564000000000000006044820152606490fd5b60405162461bcd60e51b8152600481018390526013602482015272141c9bdc1bdcd85b081b9bdd081c185cdcd959606a1b6044820152606490fd5b346101e45760003660031901126101e457600b546040516001600160a01b039091168152602090f35b346101e45760003660031901126101e4576020600854604051908152f35b346101e45760203660031901126101e45760043560005260026020526040600020805490600160a01b6001900360018201541660a08060028401906119d891611b73565b0360a0906119e591611c40565b60405190816119f78160038601611b73565b03611a029083611c40565b6004830154916005840154600685015460078601546008870154600988015490600a89015492600b8a015460ff1694600c8b015496600d8c015498600e8d015460ff169a6040519d8e8080600f840190611a5b91611b73565b03611a6591611c40565b600160a01b600190039060100154169e60405180608052526080516020015261022080608051604001526080510160a090611a9f91611c61565b6080518082039060600152611ab391611c61565b9a6080516080015260805160a0015260805160c0015260805160e0015260805161010001526080516101200152608051610140015260805161016001611af891611ca1565b60805161018001526080516101a0015215156080516101c00152608051808203906101e00152611b2791611c61565b90608051610200015260805180910390f35b90600182811c92168015611b69575b6020831014611b5357565b634e487b7160e01b600052602260045260246000fd5b91607f1691611b48565b9060009291805491611b8483611b39565b918282526001938481169081600014611be65750600114611ba6575b50505050565b90919394506000526020928360002092846000945b838610611bd2575050505001019038808080611ba0565b805485870183015294019385908201611bbb565b9294505050602093945060ff191683830152151560051b01019038808080611ba0565b606081019081106001600160401b03821117610ba857604052565b61022081019081106001600160401b03821117610ba857604052565b90601f801991011681019081106001600160401b03821117610ba857604052565b919082519283825260005b848110611c8d575050826000602080949584010152601f8019910116010190565b602081830181015184830182015201611c6c565b9060068210156102d65752565b600435906001600160a01b03821682036101e457565b602435906001600160a01b03821682036101e457565b6020908160408183019282815285518094520193019160005b828110611d01575050505090565b835185529381019392810192600101611cf3565b8054821015611d2d5760005260206000200190600090565b634e487b7160e01b600052603260045260246000fd5b9060048210156102d65752565b6001600160401b038111610ba857601f01601f191660200190565b929192611d7782611d50565b91611d856040519384611c40565b8294818452818301116101e4578281602093846000960137010152565b9080601f830112156101e457816020611dbd93359101611d6b565b90565b6001546001600160a01b03163303611dd457565b60405163118cdaa760e01b8152336004820152602490fd5b519081151582036101e457565b908160a09103126101e4576040519060a082018281106001600160401b03821117610ba857611e50916080916040528051845260208101516020850152604081015160408501526060810151606085015201611dec565b608082015290565b6000198114611e675760010190565b634e487b7160e01b600052601160045260246000fd5b91908201809211611e6757565b81810292918115918404141715611e6757565b60068210156102d65752565b90601f8111611eb757505050565b600091825260208220906020601f850160051c83019410611ef3575b601f0160051c01915b828110611ee857505050565b818155600101611edc565b9092508290611ed3565b600260005414611f0e576002600055565b604051633ee5aeb560e01b8152600490fd5b15611f2757565b60405162461bcd60e51b815260206004820152601760248201527f50726f706f73616c20646f6573206e6f742065786973740000000000000000006044820152606490fd5b15611f7357565b60405162461bcd60e51b815260206004820152601360248201527250726f706f73616c206e6f742061637469766560681b6044820152606490fd5b60048210156102d65752565b600c546040805163c345315360e01b81526001600160a01b039384166004820181905293919282169060a081602481855afa9081156121405760009161218b575b50518351631015428760e21b81526004810186905290946020918281602481875afa9081156121805760009161214b575b5061203a575b505050505090565b60e0906024865180958193638a11d7c9861b835260048301525afa9283156121405760009361208b575b5050500151906103e8918201808311611e675761208091611e8a565b043880808080612032565b60e0833d8211612138575b816120a360e09383611c40565b810103126121345784519360e085018581106001600160401b038211176121205786528351918216820361211d57509060c09291845280820151908401528381015184840152606081015160608401526080810151608084015261210960a08201611dec565b60a0840152015160c0820152388080612064565b80fd5b634e487b7160e01b82526041600452602482fd5b8380fd5b3d9150612096565b84513d6000823e3d90fd5b908382813d8311612179575b6121618183611c40565b8101031261211d575061217390611dec565b3861202c565b503d612157565b86513d6000823e3d90fd5b6121a3915060a03d8111610dd657610dc88183611c40565b38611ffb565b90600091808352602060028152604080852094600b860190815460ff811660068110156123155760016121dc9114611f6c565b600a8801544211156122d1576007880154600c890154116122ab575060048701549061220c600589015483611e7d565b9081156122825760648302928084046064149015171561226e5750600d60008051602061258d83398151915296979801549104101560001461225b57600260ff198254161790555160028152a2565b600360ff198254161790555160038152a2565b634e487b7160e01b81526011600452602490fd5b50505060008051602061258d83398151915293949550600360ff198254161790555160038152a2565b60008051602061258d833981519152959697506003915060ff19161790555160038152a2565b835162461bcd60e51b815260048101869052601760248201527f566f74696e6720706572696f64206e6f7420656e6465640000000000000000006044820152606490fd5b634e487b7160e01b83526021600452602483fd5b90600554821015612528576000828152600260205260409283822090845161235081611c24565b8254815260018301546001600160a01b039081166020830152865190939061237f816104da8160028601611b73565b878301528651612396816104da8160038601611b73565b606083015260048101546080830152600581015460a0830152600681015460c0830152600781015460e083015260088101546101008301526009810154906101208301918252600a81015492610140810193845261020086601060ff600b860154169461240861016086019687611e9d565b600c810154610180860152600d8101546101a086015260ff600e8201541615156101c08601528c51612441816104da81600f8601611b73565b6101e08601520154169101525160068110156125145760010361250a57514210612501575142116124f957825260036020528084832093169283835260205260ff84832054166004811015612315576124f25760a090600c541692602485518095819363c345315360e01b835260048301525afa9283156124e85750916124ca575b5051151590565b6124e2915060a03d8111610dd657610dc88183611c40565b386124c3565b51903d90823e3d90fd5b5091505090565b505091505090565b50505091505090565b5050505091505090565b634e487b7160e01b86526021600452602486fd5b5050600090565b6001600160401b038111610ba85760051b60200190565b906125508261252f565b61255d6040519182611c40565b828152809261256e601f199161252f565b0190602036910137565b8051821015611d2d5760209160051b01019056fe3346abf262ac5179e9052765fb72484e0baab1f356f08442bb7a3054147631dea2646970667358221220ed7fcec3691e232e9284a6ad9fda57ad7758f7ba45732023c23b4573bf8bbfa664736f6c63430008140033",
    "linkReferences": {},
    "deployedLinkReferences": {}
}