{"contracts/StakingContract.sol":{"StakingContract":{"abi":[{"inputs":[{"internalType":"address","name":"_orxToken","type":"address"},{"internalType":"uint256","name":"_rewardRate","type":"uint256"},{"internalType":"uint256","name":"_minimumValidatorStake","type":"uint256"},{"internalType":"uint256","name":"_minimumStakingPeriod","type":"uint256"},{"internalType":"uint256","name":"_slashingRate","type":"uint256"}],"stateMutability":"nonpayable","type":"constructor"},{"inputs":[{"internalType":"address","name":"owner","type":"address"}],"name":"OwnableInvalidOwner","type":"error"},{"inputs":[{"internalType":"address","name":"account","type":"address"}],"name":"OwnableUnauthorizedAccount","type":"error"},{"inputs":[],"name":"ReentrancyGuardReentrantCall","type":"error"},{"inputs":[{"internalType":"address","name":"token","type":"address"}],"name":"SafeERC20FailedOperation","type":"error"},{"anonymous":false,"inputs":[{"indexed":true,"internalType":"address","name":"previousOwner","type":"address"},{"indexed":true,"internalType":"address","name":"newOwner","type":"address"}],"name":"OwnershipTransferred","type":"event"},{"anonymous":false,"inputs":[{"indexed":true,"internalType":"address","name":"user","type":"address"},{"indexed":false,"internalType":"uint256","name":"reward","type":"uint256"}],"name":"RewardClaimed","type":"event"},{"anonymous":false,"inputs":[{"indexed":false,"internalType":"uint256","name":"totalRewards","type":"uint256"},{"indexed":false,"internalType":"uint256","name":"rewardRate","type":"uint256"}],"name":"RewardsDistributed","type":"event"},{"anonymous":false,"inputs":[{"indexed":true,"internalType":"address","name":"user","type":"address"},{"indexed":false,"internalType":"uint256","name":"amount","type":"uint256"},{"indexed":false,"internalType":"uint256","name":"lockPeriod","type":"uint256"},{"indexed":false,"internalType":"bool","name":"isValidator","type":"bool"}],"name":"TokensStaked","type":"event"},{"anonymous":false,"inputs":[{"indexed":true,"internalType":"address","name":"user","type":"address"},{"indexed":false,"internalType":"uint256","name":"amount","type":"uint256"}],"name":"TokensUnstaked","type":"event"},{"anonymous":false,"inputs":[{"indexed":true,"internalType":"address","name":"validator","type":"address"},{"indexed":false,"internalType":"uint256","name":"stakedAmount","type":"uint256"}],"name":"ValidatorRegistered","type":"event"},{"anonymous":false,"inputs":[{"indexed":true,"internalType":"address","name":"validator","type":"address"},{"indexed":false,"internalType":"uint256","name":"slashedAmount","type":"uint256"},{"indexed":false,"internalType":"string","name":"reason","type":"string"}],"name":"ValidatorSlashed","type":"event"},{"inputs":[],"name":"claimRewards","outputs":[],"stateMutability":"nonpayable","type":"function"},{"inputs":[{"internalType":"uint256","name":"_rewardAmount","type":"uint256"}],"name":"distributeRewards","outputs":[],"stateMutability":"nonpayable","type":"function"},{"inputs":[{"internalType":"address","name":"account","type":"address"}],"name":"earned","outputs":[{"internalType":"uint256","name":"","type":"uint256"}],"stateMutability":"view","type":"function"},{"inputs":[],"name":"getActiveValidators","outputs":[{"internalType":"address[]","name":"","type":"address[]"}],"stateMutability":"view","type":"function"},{"inputs":[{"internalType":"address","name":"_user","type":"address"}],"name":"getStakeInfo","outputs":[{"components":[{"internalType":"uint256","name":"amount","type":"uint256"},{"internalType":"uint256","name":"timestamp","type":"uint256"},{"internalType":"uint256","name":"lockPeriod","type":"uint256"},{"internalType":"uint256","name":"rewardDebt","type":"uint256"},{"internalType":"bool","name":"isValidator","type":"bool"}],"internalType":"struct StakingContract.StakeInfo","name":"","type":"tuple"}],"stateMutability":"view","type":"function"},{"inputs":[{"internalType":"address","name":"_validator","type":"address"}],"name":"getValidatorInfo","outputs":[{"components":[{"internalType":"address","name":"validatorAddress","type":"address"},{"internalType":"uint256","name":"totalStaked","type":"uint256"},{"internalType":"uint256","name":"reputation","type":"uint256"},{"internalType":"uint256","name":"successfulResolutions","type":"uint256"},{"internalType":"uint256","name":"totalResolutions","type":"uint256"},{"internalType":"bool","name":"isActive","type":"bool"},{"internalType":"uint256","name":"slashCount","type":"uint256"}],"internalType":"struct StakingContract.Validator","name":"","type":"tuple"}],"stateMutability":"view","type":"function"},{"inputs":[],"name":"getValidators","outputs":[{"internalType":"address[]","name":"","type":"address[]"}],"stateMutability":"view","type":"function"},{"inputs":[{"internalType":"address","name":"_validator","type":"address"}],"name":"isActiveValidator","outputs":[{"internalType":"bool","name":"","type":"bool"}],"stateMutability":"view","type":"function"},{"inputs":[],"name":"lastUpdateTime","outputs":[{"internalType":"uint256","name":"","type":"uint256"}],"stateMutability":"view","type":"function"},{"inputs":[],"name":"minimumStakingPeriod","outputs":[{"internalType":"uint256","name":"","type":"uint256"}],"stateMutability":"view","type":"function"},{"inputs":[],"name":"minimumValidatorStake","outputs":[{"internalType":"uint256","name":"","type":"uint256"}],"stateMutability":"view","type":"function"},{"inputs":[],"name":"orxToken","outputs":[{"internalType":"contract IERC20","name":"","type":"address"}],"stateMutability":"view","type":"function"},{"inputs":[],"name":"owner","outputs":[{"internalType":"address","name":"","type":"address"}],"stateMutability":"view","type":"function"},{"inputs":[],"name":"renounceOwnership","outputs":[],"stateMutability":"nonpayable","type":"function"},{"inputs":[],"name":"rewardPerToken","outputs":[{"internalType":"uint256","name":"","type":"uint256"}],"stateMutability":"view","type":"function"},{"inputs":[],"name":"rewardPerTokenStored","outputs":[{"internalType":"uint256","name":"","type":"uint256"}],"stateMutability":"view","type":"function"},{"inputs":[],"name":"rewardRate","outputs":[{"internalType":"uint256","name":"","type":"uint256"}],"stateMutability":"view","type":"function"},{"inputs":[{"internalType":"address","name":"","type":"address"}],"name":"rewards","outputs":[{"internalType":"uint256","name":"","type":"uint256"}],"stateMutability":"view","type":"function"},{"inputs":[{"internalType":"address","name":"_validator","type":"address"},{"internalType":"string","name":"_reason","type":"string"}],"name":"slashStake","outputs":[],"stateMutability":"nonpayable","type":"function"},{"inputs":[],"name":"slashingRate","outputs":[{"internalType":"uint256","name":"","type":"uint256"}],"stateMutability":"view","type":"function"},{"inputs":[{"internalType":"uint256","name":"_amount","type":"uint256"},{"internalType":"uint256","name":"_lockPeriod","type":"uint256"},{"internalType":"bool","name":"_asValidator","type":"bool"}],"name":"stakeTokens","outputs":[],"stateMutability":"nonpayable","type":"function"},{"inputs":[{"internalType":"address","name":"","type":"address"}],"name":"stakes","outputs":[{"internalType":"uint256","name":"amount","type":"uint256"},{"internalType":"uint256","name":"timestamp","type":"uint256"},{"internalType":"uint256","name":"lockPeriod","type":"uint256"},{"internalType":"uint256","name":"rewardDebt","type":"uint256"},{"internalType":"bool","name":"isValidator","type":"bool"}],"stateMutability":"view","type":"function"},{"inputs":[],"name":"totalStaked","outputs":[{"internalType":"uint256","name":"","type":"uint256"}],"stateMutability":"view","type":"function"},{"inputs":[{"internalType":"address","name":"newOwner","type":"address"}],"name":"transferOwnership","outputs":[],"stateMutability":"nonpayable","type":"function"},{"inputs":[{"internalType":"uint256","name":"_amount","type":"uint256"}],"name":"unstakeTokens","outputs":[],"stateMutability":"nonpayable","type":"function"},{"inputs":[{"internalType":"uint256","name":"_rewardRate","type":"uint256"},{"internalType":"uint256","name":"_minimumValidatorStake","type":"uint256"},{"internalType":"uint256","name":"_minimumStakingPeriod","type":"uint256"},{"internalType":"uint256","name":"_slashingRate","type":"uint256"}],"name":"updateParameters","outputs":[],"stateMutability":"nonpayable","type":"function"},{"inputs":[{"internalType":"address","name":"_validator","type":"address"},{"internalType":"bool","name":"_successful","type":"bool"}],"name":"updateValidatorPerformance","outputs":[],"stateMutability":"nonpayable","type":"function"},{"inputs":[{"internalType":"address","name":"","type":"address"}],"name":"userRewardPerTokenPaid","outputs":[{"internalType":"uint256","name":"","type":"uint256"}],"stateMutability":"view","type":"function"},{"inputs":[{"internalType":"uint256","name":"","type":"uint256"}],"name":"validatorList","outputs":[{"internalType":"address","name":"","type":"address"}],"stateMutability":"view","type":"function"},{"inputs":[{"internalType":"address","name":"","type":"address"}],"name":"validators","outputs":[{"internalType":"address","name":"validatorAddress","type":"address"},{"internalType":"uint256","name":"totalStaked","type":"uint256"},{"internalType":"uint256","name":"reputation","type":"uint256"},{"internalType":"uint256","name":"successfulResolutions","type":"uint256"},{"internalType":"uint256","name":"totalResolutions","type":"uint256"},{"internalType":"bool","name":"isActive","type":"bool"},{"internalType":"uint256","name":"slashCount","type":"uint256"}],"stateMutability":"view","type":"function"}],"devdoc":{"errors":{"OwnableInvalidOwner(address)":[{"details":"The owner is not a valid owner account. (eg. `address(0)`)"}],"OwnableUnauthorizedAccount(address)":[{"details":"The caller account is not authorized to perform an operation."}],"ReentrancyGuardReentrantCall()":[{"details":"Unauthorized reentrant call."}],"SafeERC20FailedOperation(address)":[{"details":"An operation with an ERC-20 token failed."}]},"kind":"dev","methods":{"claimRewards()":{"details":"Claim staking rewards"},"distributeRewards(uint256)":{"details":"Distribute rewards to stakers"},"earned(address)":{"details":"Calculate earned rewards for an account"},"getActiveValidators()":{"details":"Get active validators only"},"getStakeInfo(address)":{"details":"Get stake info for user"},"getValidatorInfo(address)":{"details":"Get validator info"},"getValidators()":{"details":"Get validator list"},"isActiveValidator(address)":{"details":"Check if address is active validator"},"owner()":{"details":"Returns the address of the current owner."},"renounceOwnership()":{"details":"Leaves the contract without owner. It will not be possible to call `onlyOwner` functions. Can only be called by the current owner. NOTE: Renouncing ownership will leave the contract without an owner, thereby disabling any functionality that is only available to the owner."},"rewardPerToken()":{"details":"Calculate current reward per token"},"slashStake(address,string)":{"details":"Slash validator stake for malicious behavior"},"stakeTokens(uint256,uint256,bool)":{"details":"Stake ORX tokens","params":{"_amount":"Amount of tokens to stake","_asValidator":"Whether to register as validator","_lockPeriod":"Lock period in seconds"}},"transferOwnership(address)":{"details":"Transfers ownership of the contract to a new account (`newOwner`). Can only be called by the current owner."},"unstakeTokens(uint256)":{"details":"Unstake tokens","params":{"_amount":"Amount to unstake"}},"updateParameters(uint256,uint256,uint256,uint256)":{"details":"Update contract parameters"},"updateValidatorPerformance(address,bool)":{"details":"Update validator performance"}},"version":1},"evm":{"bytecode":{"linkReferences":{},"object":"60806040523480156200001157600080fd5b5060405162001dac38038062001dac8339810160408190526200003491620000f8565b600160005533806200006057604051631e4fbdf760e01b81526000600482015260240160405180910390fd5b6200006b81620000a6565b50600280546001600160a01b0319166001600160a01b039690961695909517909455600792909255600a55600b55600c55426008556200014f565b600180546001600160a01b038381166001600160a01b0319831681179093556040519116919082907f8be0079c531659141344cd1fd0a4f28419497f9722a3daafe3b4186f6b6457e090600090a35050565b600080600080600060a086880312156200011157600080fd5b85516001600160a01b03811681146200012957600080fd5b602087015160408801516060890151608090990151929a91995097965090945092505050565b611c4d806200015f6000396000f3fe608060405234801561001057600080fd5b50600436106101d95760003560e01c80638ccdadc211610104578063c3453153116100a2578063ea39436211610071578063ea394362146104cf578063ee1eab4f146104d8578063f2fde38b146104eb578063fa52c7d8146104fe57600080fd5b8063c34531531461045e578063c8f33c91146104b5578063cd3daf9d146104be578063df136d65146104c657600080fd5b8063a2b61e27116100de578063a2b61e271461041d578063b048e05614610430578063b7ab4db514610443578063b9e2c1e01461044b57600080fd5b80638ccdadc2146103e45780638da5cb5b146103f75780639de702581461040857600080fd5b806359974e381161017c5780637ebed54c1161014b5780637ebed54c14610343578063817b1cd21461034c5780638a11d7c9146103555780638b876347146103c457600080fd5b806359974e381461030c578063608e4dd01461031f578063715018a6146103325780637b0a47ee1461033a57600080fd5b806313baa069116101b857806313baa0691461024f57806316934fc414610258578063372500ab146102c357806340550a1c146102cd57600080fd5b80628cc262146101de578063032db339146102045780630700037d1461022f575b600080fd5b6101f16101ec3660046118fd565b610597565b6040519081526020015b60405180910390f35b600254610217906001600160a01b031681565b6040516001600160a01b0390911681526020016101fb565b6101f161023d3660046118fd565b600e6020526000908152604090205481565b6101f1600c5481565b6102996102663660046118fd565b60036020819052600091825260409091208054600182015460028301549383015460049093015491939092909160ff1685565b6040805195865260208601949094529284019190915260608301521515608082015260a0016101fb565b6102cb610614565b005b6102fc6102db3660046118fd565b6001600160a01b031660009081526004602052604090206005015460ff1690565b60405190151581526020016101fb565b6102cb61031a36600461191f565b610734565b6102cb61032d36600461191f565b61083a565b6102cb610aea565b6101f160075481565b6101f1600b5481565b6101f160065481565b6103686103633660046118fd565b610afc565b6040516101fb919081516001600160a01b031681526020808301519082015260408083015190820152606080830151908201526080808301519082015260a08281015115159082015260c0918201519181019190915260e00190565b6101f16103d23660046118fd565b600d6020526000908152604090205481565b6102cb6103f2366004611948565b610bb9565b6001546001600160a01b0316610217565b610410610cbf565b6040516101fb919061197b565b6102cb61042b3660046119de565b610e57565b61021761043e36600461191f565b6110c2565b6104106110ec565b6102cb610459366004611aa0565b61114e565b61047161046c3660046118fd565b6113c4565b6040516101fb9190600060a0820190508251825260208301516020830152604083015160408301526060830151606083015260808301511515608083015292915050565b6101f160085481565b6101f1611454565b6101f160095481565b6101f1600a5481565b6102cb6104e6366004611ad5565b6114b2565b6102cb6104f93660046118fd565b6114ce565b61055661050c3660046118fd565b600460208190526000918252604090912080546001820154600283015460038401549484015460058501546006909501546001600160a01b039094169592949193909160ff169087565b604080516001600160a01b03909816885260208801969096529486019390935260608501919091526080840152151560a083015260c082015260e0016101fb565b6001600160a01b0381166000908152600e6020908152604080832054600d909252822054670de0b6b3a7640000906105cd611454565b6105d79190611b1d565b6001600160a01b0385166000908152600360205260409020546105fa9190611b30565b6106049190611b47565b61060e9190611b69565b92915050565b61061c611509565b33610625611454565b600955426008556001600160a01b038116156106705761064481610597565b6001600160a01b0382166000908152600e6020908152604080832093909355600954600d909152919020555b336000908152600e6020526040902054806106c85760405162461bcd60e51b81526020600482015260136024820152724e6f207265776172647320746f20636c61696d60681b60448201526064015b60405180910390fd5b336000818152600e60205260408120556002546106f1916001600160a01b039091169083611533565b60405181815233907f106f923f993c2149d49b4255ff723acafa1f2d94393f561d3eda32ae348f72419060200160405180910390a250506107326001600055565b565b61073c611592565b6000610746611454565b600955426008556001600160a01b038116156107915761076581610597565b6001600160a01b0382166000908152600e6020908152604080832093909355600954600d909152919020555b600082116107e15760405162461bcd60e51b815260206004820152601860248201527f4e6f207265776172647320746f2064697374726962757465000000000000000060448201526064016106bf565b6002546107f9906001600160a01b03163330856115bf565b6007546040805184815260208101929092527f29e98ba00d07f171959c4ddcd2f3020debc7c52cf537a034d7e664340d098c6c910160405180910390a15050565b610842611509565b3361084b611454565b600955426008556001600160a01b038116156108965761086a81610597565b6001600160a01b0382166000908152600e6020908152604080832093909355600954600d909152919020555b33600090815260036020526040902080548311156108f65760405162461bcd60e51b815260206004820152601a60248201527f496e73756666696369656e74207374616b656420616d6f756e7400000000000060448201526064016106bf565b8060020154816001015461090a9190611b69565b42101561094f5760405162461bcd60e51b8152602060048201526013602482015272151bdad95b9cc81cdd1a5b1b081b1bd8dad959606a1b60448201526064016106bf565b600481015460ff16801561097557503360009081526004602052604090206005015460ff165b15610a1f57600a54815461098a908590611b1d565b1015806109975750805483145b6109f45760405162461bcd60e51b815260206004820152602860248201527f576f756c642066616c6c2062656c6f77206d696e696d756d2076616c696461746044820152676f72207374616b6560c01b60648201526084016106bf565b80548303610a1f57336000818152600460205260409020600501805460ff19169055610a1f906115fe565b82816000016000828254610a339190611b1d565b925050819055508260066000828254610a4c9190611b1d565b90915550508054600003610a8f573360009081526003602081905260408220828155600181018390556002810183905590810191909155600401805460ff191690555b600254610aa6906001600160a01b03163385611533565b60405183815233907f9845e367b683334e5c0b12d7b81721ac518e649376fa65e3d68324e8f34f26799060200160405180910390a25050610ae76001600055565b50565b610af2611592565b6107326000611709565b610b476040518060e0016040528060006001600160a01b0316815260200160008152602001600081526020016000815260200160008152602001600015158152602001600081525090565b506001600160a01b03908116600090815260046020818152604092839020835160e08101855281549095168552600181015491850191909152600281015492840192909252600382015460608401528101546080830152600581015460ff16151560a08301526006015460c082015290565b610bc1611592565b6001600160a01b03821660009081526004602052604090206005015460ff16610c235760405162461bcd60e51b815260206004820152601460248201527356616c696461746f72206e6f742061637469766560601b60448201526064016106bf565b6001600160a01b0382166000908152600460208190526040822090810180549192610c4d83611b7c565b91905055508115610c9d57600381018054906000610c6a83611b7c565b91905055506103e881600201541015610c9857600a816002016000828254610c929190611b69565b90915550505b505050565b600a81600201541115610c9857600a816002016000828254610c929190611b1d565b60606000805b600554811015610d36576004600060058381548110610ce657610ce6611b95565b60009182526020808320909101546001600160a01b0316835282019290925260400190206005015460ff1615610d245781610d2081611b7c565b9250505b80610d2e81611b7c565b915050610cc5565b5060008167ffffffffffffffff811115610d5257610d526119c8565b604051908082528060200260200182016040528015610d7b578160200160208202803683370190505b5090506000805b600554811015610e4e576004600060058381548110610da357610da3611b95565b60009182526020808320909101546001600160a01b0316835282019290925260400190206005015460ff1615610e3c5760058181548110610de657610de6611b95565b9060005260206000200160009054906101000a90046001600160a01b0316838381518110610e1657610e16611b95565b6001600160a01b039092166020928302919091019091015281610e3881611b7c565b9250505b80610e4681611b7c565b915050610d82565b50909392505050565b610e5f611592565b81610e68611454565b600955426008556001600160a01b03811615610eb357610e8781610597565b6001600160a01b0382166000908152600e6020908152604080832093909355600954600d909152919020555b6001600160a01b03831660009081526004602052604090206005015460ff16610f155760405162461bcd60e51b815260206004820152601460248201527356616c696461746f72206e6f742061637469766560601b60448201526064016106bf565b6001600160a01b0383166000908152600360205260408120600c54815491929161271091610f4291611b30565b610f4c9190611b47565b8254909150811115610f5c575080545b80826000016000828254610f709190611b1d565b925050819055508060066000828254610f899190611b1d565b90915550506001600160a01b0385166000908152600460205260408120600601805491610fb583611b7c565b90915550506001600160a01b038516600090815260046020526040902060020154606410610fe457600061100c565b6001600160a01b03851660009081526004602052604090206002015461100c90606490611b1d565b6001600160a01b038616600090815260046020526040902060020155600a548254101561105f576001600160a01b0385166000908152600460205260409020600501805460ff1916905561105f856115fe565b600254611078906001600160a01b031661dead83611533565b846001600160a01b03167f074c8604eab659bccd1619a91a9588244a2442723fdcb05af0aa39da9fc6865782866040516110b3929190611bab565b60405180910390a25050505050565b600581815481106110d257600080fd5b6000918252602090912001546001600160a01b0316905081565b6060600580548060200260200160405190810160405280929190818152602001828054801561114457602002820191906000526020600020905b81546001600160a01b03168152600190910190602001808311611126575b5050505050905090565b611156611509565b3361115f611454565b600955426008556001600160a01b038116156111aa5761117e81610597565b6001600160a01b0382166000908152600e6020908152604080832093909355600954600d909152919020555b600084116111f25760405162461bcd60e51b815260206004820152601560248201527443616e6e6f74207374616b65203020746f6b656e7360581b60448201526064016106bf565b600b5483101561123c5760405162461bcd60e51b8152602060048201526015602482015274131bd8dac81c195c9a5bd9081d1bdbc81cda1bdc9d605a1b60448201526064016106bf565b81156112ed57600a548410156112945760405162461bcd60e51b815260206004820181905260248201527f496e73756666696369656e74207374616b6520666f722076616c696461746f7260448201526064016106bf565b3360009081526004602052604090206005015460ff16156112ed5760405162461bcd60e51b815260206004820152601360248201527220b63932b0b23c9030903b30b634b230ba37b960691b60448201526064016106bf565b600254611305906001600160a01b03163330876115bf565b336000908152600360205260408120805490918691839190611328908490611b69565b90915550504260018201556002810184905560048101805460ff19168415151790556006805486919060009061135f908490611b69565b9091555050821561137457611374338661175b565b604080518681526020810186905284151581830152905133917f6363655a3c7ace10eb7a32098436bd120788e6c01329bb863799624f11b575f3919081900360600190a25050610c986001600055565b6113f86040518060a00160405280600081526020016000815260200160008152602001600081526020016000151581525090565b506001600160a01b0316600090815260036020818152604092839020835160a0810185528154815260018201549281019290925260028101549382019390935290820154606082015260049091015460ff161515608082015290565b6000600654600003611467575060095490565b60065460075460085461147a9042611b1d565b6114849190611b30565b61149690670de0b6b3a7640000611b30565b6114a09190611b47565b6009546114ad9190611b69565b905090565b6114ba611592565b600793909355600a91909155600b55600c55565b6114d6611592565b6001600160a01b03811661150057604051631e4fbdf760e01b8152600060048201526024016106bf565b610ae781611709565b60026000540361152c57604051633ee5aeb560e01b815260040160405180910390fd5b6002600055565b6040516001600160a01b03838116602483015260448201839052610c9891859182169063a9059cbb906064015b604051602081830303815290604052915060e01b6020820180516001600160e01b038381831617835250505050611870565b6001546001600160a01b031633146107325760405163118cdaa760e01b81523360048201526024016106bf565b6040516001600160a01b0384811660248301528381166044830152606482018390526115f89186918216906323b872dd90608401611560565b50505050565b60005b60055481101561170557816001600160a01b03166005828154811061162857611628611b95565b6000918252602090912001546001600160a01b0316036116f3576005805461165290600190611b1d565b8154811061166257611662611b95565b600091825260209091200154600580546001600160a01b03909216918390811061168e5761168e611b95565b9060005260206000200160006101000a8154816001600160a01b0302191690836001600160a01b0316021790555060058054806116cd576116cd611c01565b600082815260209020810160001990810180546001600160a01b03191690550190555050565b806116fd81611b7c565b915050611601565b5050565b600180546001600160a01b038381166001600160a01b0319831681179093556040519116919082907f8be0079c531659141344cd1fd0a4f28419497f9722a3daafe3b4186f6b6457e090600090a35050565b6040805160e0810182526001600160a01b0384811680835260208084018681526101f485870190815260006060870181815260808801828152600160a08a0181815260c08b018581528986526004808a528d87209c518d546001600160a01b031990811691909d16178d5597518c840155955160028c0155925160038b0155905194890194909455516005808901805460ff1916921515929092179091559151600690970196909655805491820181559094527f036b6384b5eca791c62761152d0c79bb0604c104a5fb6f4eb0703f3154bb3db09093018054909216811790915591518381527fb4a7f5c563a0e35593d156394ed681bdc9c39467d7d722749d23862c2e4b712c910160405180910390a25050565b600080602060008451602086016000885af180611893576040513d6000823e3d81fd5b50506000513d915081156118ab5780600114156118b8565b6001600160a01b0384163b155b156115f857604051635274afe760e01b81526001600160a01b03851660048201526024016106bf565b80356001600160a01b03811681146118f857600080fd5b919050565b60006020828403121561190f57600080fd5b611918826118e1565b9392505050565b60006020828403121561193157600080fd5b5035919050565b803580151581146118f857600080fd5b6000806040838503121561195b57600080fd5b611964836118e1565b915061197260208401611938565b90509250929050565b6020808252825182820181905260009190848201906040850190845b818110156119bc5783516001600160a01b031683529284019291840191600101611997565b50909695505050505050565b634e487b7160e01b600052604160045260246000fd5b600080604083850312156119f157600080fd5b6119fa836118e1565b9150602083013567ffffffffffffffff80821115611a1757600080fd5b818501915085601f830112611a2b57600080fd5b813581811115611a3d57611a3d6119c8565b604051601f8201601f19908116603f01168101908382118183101715611a6557611a656119c8565b81604052828152886020848701011115611a7e57600080fd5b8260208601602083013760006020848301015280955050505050509250929050565b600080600060608486031215611ab557600080fd5b8335925060208401359150611acc60408501611938565b90509250925092565b60008060008060808587031215611aeb57600080fd5b5050823594602084013594506040840135936060013592509050565b634e487b7160e01b600052601160045260246000fd5b8181038181111561060e5761060e611b07565b808202811582820484141761060e5761060e611b07565b600082611b6457634e487b7160e01b600052601260045260246000fd5b500490565b8082018082111561060e5761060e611b07565b600060018201611b8e57611b8e611b07565b5060010190565b634e487b7160e01b600052603260045260246000fd5b82815260006020604081840152835180604085015260005b81811015611bdf57858101830151858201606001528201611bc3565b506000606082860101526060601f19601f830116850101925050509392505050565b634e487b7160e01b600052603160045260246000fdfea26469706673582212205d5b35ebf0fc55c8544c10e88f48aac05d8bb25a62595e3254708011bde7945064736f6c63430008140033","opcodes":"PUSH1 0x80 PUSH1 0x40 MSTORE CALLVALUE DUP1 ISZERO PUSH3 0x11 JUMPI PUSH1 0x0 DUP1 REVERT JUMPDEST POP PUSH1 0x40 MLOAD PUSH3 0x1DAC CODESIZE SUB DUP1 PUSH3 0x1DAC DUP4 CODECOPY DUP2 ADD PUSH1 0x40 DUP2 SWAP1 MSTORE PUSH3 0x34 SWAP2 PUSH3 0xF8 JUMP JUMPDEST PUSH1 0x1 PUSH1 0x0 SSTORE CALLER DUP1 PUSH3 0x60 JUMPI PUSH1 0x40 MLOAD PUSH4 0x1E4FBDF7 PUSH1 0xE0 SHL DUP2 MSTORE PUSH1 0x0 PUSH1 0x4 DUP3 ADD MSTORE PUSH1 0x24 ADD PUSH1 0x40 MLOAD DUP1 SWAP2 SUB SWAP1 REVERT JUMPDEST PUSH3 0x6B DUP2 PUSH3 0xA6 JUMP JUMPDEST POP PUSH1 0x2 DUP1 SLOAD PUSH1 0x1 PUSH1 0x1 PUSH1 0xA0 SHL SUB NOT AND PUSH1 0x1 PUSH1 0x1 PUSH1 0xA0 SHL SUB SWAP7 SWAP1 SWAP7 AND SWAP6 SWAP1 SWAP6 OR SWAP1 SWAP5 SSTORE PUSH1 0x7 SWAP3 SWAP1 SWAP3 SSTORE PUSH1 0xA SSTORE PUSH1 0xB SSTORE PUSH1 0xC SSTORE TIMESTAMP PUSH1 0x8 SSTORE PUSH3 0x14F JUMP JUMPDEST PUSH1 0x1 DUP1 SLOAD PUSH1 0x1 PUSH1 0x1 PUSH1 0xA0 SHL SUB DUP4 DUP2 AND PUSH1 0x1 PUSH1 0x1 PUSH1 0xA0 SHL SUB NOT DUP4 AND DUP2 OR SWAP1 SWAP4 SSTORE PUSH1 0x40 MLOAD SWAP2 AND SWAP2 SWAP1 DUP3 SWAP1 PUSH32 0x8BE0079C531659141344CD1FD0A4F28419497F9722A3DAAFE3B4186F6B6457E0 SWAP1 PUSH1 0x0 SWAP1 LOG3 POP POP JUMP JUMPDEST PUSH1 0x0 DUP1 PUSH1 0x0 DUP1 PUSH1 0x0 PUSH1 0xA0 DUP7 DUP9 SUB SLT ISZERO PUSH3 0x111 JUMPI PUSH1 0x0 DUP1 REVERT JUMPDEST DUP6 MLOAD PUSH1 0x1 PUSH1 0x1 PUSH1 0xA0 SHL SUB DUP2 AND DUP2 EQ PUSH3 0x129 JUMPI PUSH1 0x0 DUP1 REVERT JUMPDEST PUSH1 0x20 DUP8 ADD MLOAD PUSH1 0x40 DUP9 ADD MLOAD PUSH1 0x60 DUP10 ADD MLOAD PUSH1 0x80 SWAP1 SWAP10 ADD MLOAD SWAP3 SWAP11 SWAP2 SWAP10 POP SWAP8 SWAP7 POP SWAP1 SWAP5 POP SWAP3 POP POP POP JUMP JUMPDEST PUSH2 0x1C4D DUP1 PUSH3 0x15F PUSH1 0x0 CODECOPY PUSH1 0x0 RETURN INVALID PUSH1 0x80 PUSH1 0x40 MSTORE CALLVALUE DUP1 ISZERO PUSH2 0x10 JUMPI PUSH1 0x0 DUP1 REVERT JUMPDEST POP PUSH1 0x4 CALLDATASIZE LT PUSH2 0x1D9 JUMPI PUSH1 0x0 CALLDATALOAD PUSH1 0xE0 SHR DUP1 PUSH4 0x8CCDADC2 GT PUSH2 0x104 JUMPI DUP1 PUSH4 0xC3453153 GT PUSH2 0xA2 JUMPI DUP1 PUSH4 0xEA394362 GT PUSH2 0x71 JUMPI DUP1 PUSH4 0xEA394362 EQ PUSH2 0x4CF JUMPI DUP1 PUSH4 0xEE1EAB4F EQ PUSH2 0x4D8 JUMPI DUP1 PUSH4 0xF2FDE38B EQ PUSH2 0x4EB JUMPI DUP1 PUSH4 0xFA52C7D8 EQ PUSH2 0x4FE JUMPI PUSH1 0x0 DUP1 REVERT JUMPDEST DUP1 PUSH4 0xC3453153 EQ PUSH2 0x45E JUMPI DUP1 PUSH4 0xC8F33C91 EQ PUSH2 0x4B5 JUMPI DUP1 PUSH4 0xCD3DAF9D EQ PUSH2 0x4BE JUMPI DUP1 PUSH4 0xDF136D65 EQ PUSH2 0x4C6 JUMPI PUSH1 0x0 DUP1 REVERT JUMPDEST DUP1 PUSH4 0xA2B61E27 GT PUSH2 0xDE JUMPI DUP1 PUSH4 0xA2B61E27 EQ PUSH2 0x41D JUMPI DUP1 PUSH4 0xB048E056 EQ PUSH2 0x430 JUMPI DUP1 PUSH4 0xB7AB4DB5 EQ PUSH2 0x443 JUMPI DUP1 PUSH4 0xB9E2C1E0 EQ PUSH2 0x44B JUMPI PUSH1 0x0 DUP1 REVERT JUMPDEST DUP1 PUSH4 0x8CCDADC2 EQ PUSH2 0x3E4 JUMPI DUP1 PUSH4 0x8DA5CB5B EQ PUSH2 0x3F7 JUMPI DUP1 PUSH4 0x9DE70258 EQ PUSH2 0x408 JUMPI PUSH1 0x0 DUP1 REVERT JUMPDEST DUP1 PUSH4 0x59974E38 GT PUSH2 0x17C JUMPI DUP1 PUSH4 0x7EBED54C GT PUSH2 0x14B JUMPI DUP1 PUSH4 0x7EBED54C EQ PUSH2 0x343 JUMPI DUP1 PUSH4 0x817B1CD2 EQ PUSH2 0x34C JUMPI DUP1 PUSH4 0x8A11D7C9 EQ PUSH2 0x355 JUMPI DUP1 PUSH4 0x8B876347 EQ PUSH2 0x3C4 JUMPI PUSH1 0x0 DUP1 REVERT JUMPDEST DUP1 PUSH4 0x59974E38 EQ PUSH2 0x30C JUMPI DUP1 PUSH4 0x608E4DD0 EQ PUSH2 0x31F JUMPI DUP1 PUSH4 0x715018A6 EQ PUSH2 0x332 JUMPI DUP1 PUSH4 0x7B0A47EE EQ PUSH2 0x33A JUMPI PUSH1 0x0 DUP1 REVERT JUMPDEST DUP1 PUSH4 0x13BAA069 GT PUSH2 0x1B8 JUMPI DUP1 PUSH4 0x13BAA069 EQ PUSH2 0x24F JUMPI DUP1 PUSH4 0x16934FC4 EQ PUSH2 0x258 JUMPI DUP1 PUSH4 0x372500AB EQ PUSH2 0x2C3 JUMPI DUP1 PUSH4 0x40550A1C EQ PUSH2 0x2CD JUMPI PUSH1 0x0 DUP1 REVERT JUMPDEST DUP1 PUSH3 0x8CC262 EQ PUSH2 0x1DE JUMPI DUP1 PUSH4 0x32DB339 EQ PUSH2 0x204 JUMPI DUP1 PUSH4 0x700037D EQ PUSH2 0x22F JUMPI JUMPDEST PUSH1 0x0 DUP1 REVERT JUMPDEST PUSH2 0x1F1 PUSH2 0x1EC CALLDATASIZE PUSH1 0x4 PUSH2 0x18FD JUMP JUMPDEST PUSH2 0x597 JUMP JUMPDEST PUSH1 0x40 MLOAD SWAP1 DUP2 MSTORE PUSH1 0x20 ADD JUMPDEST PUSH1 0x40 MLOAD DUP1 SWAP2 SUB SWAP1 RETURN JUMPDEST PUSH1 0x2 SLOAD PUSH2 0x217 SWAP1 PUSH1 0x1 PUSH1 0x1 PUSH1 0xA0 SHL SUB AND DUP2 JUMP JUMPDEST PUSH1 0x40 MLOAD PUSH1 0x1 PUSH1 0x1 PUSH1 0xA0 SHL SUB SWAP1 SWAP2 AND DUP2 MSTORE PUSH1 0x20 ADD PUSH2 0x1FB JUMP JUMPDEST PUSH2 0x1F1 PUSH2 0x23D CALLDATASIZE PUSH1 0x4 PUSH2 0x18FD JUMP JUMPDEST PUSH1 0xE PUSH1 0x20 MSTORE PUSH1 0x0 SWAP1 DUP2 MSTORE PUSH1 0x40 SWAP1 KECCAK256 SLOAD DUP2 JUMP JUMPDEST PUSH2 0x1F1 PUSH1 0xC SLOAD DUP2 JUMP JUMPDEST PUSH2 0x299 PUSH2 0x266 CALLDATASIZE PUSH1 0x4 PUSH2 0x18FD JUMP JUMPDEST PUSH1 0x3 PUSH1 0x20 DUP2 SWAP1 MSTORE PUSH1 0x0 SWAP2 DUP3 MSTORE PUSH1 0x40 SWAP1 SWAP2 KECCAK256 DUP1 SLOAD PUSH1 0x1 DUP3 ADD SLOAD PUSH1 0x2 DUP4 ADD SLOAD SWAP4 DUP4 ADD SLOAD PUSH1 0x4 SWAP1 SWAP4 ADD SLOAD SWAP2 SWAP4 SWAP1 SWAP3 SWAP1 SWAP2 PUSH1 0xFF AND DUP6 JUMP JUMPDEST PUSH1 0x40 DUP1 MLOAD SWAP6 DUP7 MSTORE PUSH1 0x20 DUP7 ADD SWAP5 SWAP1 SWAP5 MSTORE SWAP3 DUP5 ADD SWAP2 SWAP1 SWAP2 MSTORE PUSH1 0x60 DUP4 ADD MSTORE ISZERO ISZERO PUSH1 0x80 DUP3 ADD MSTORE PUSH1 0xA0 ADD PUSH2 0x1FB JUMP JUMPDEST PUSH2 0x2CB PUSH2 0x614 JUMP JUMPDEST STOP JUMPDEST PUSH2 0x2FC PUSH2 0x2DB CALLDATASIZE PUSH1 0x4 PUSH2 0x18FD JUMP JUMPDEST PUSH1 0x1 PUSH1 0x1 PUSH1 0xA0 SHL SUB AND PUSH1 0x0 SWAP1 DUP2 MSTORE PUSH1 0x4 PUSH1 0x20 MSTORE PUSH1 0x40 SWAP1 KECCAK256 PUSH1 0x5 ADD SLOAD PUSH1 0xFF AND SWAP1 JUMP JUMPDEST PUSH1 0x40 MLOAD SWAP1 ISZERO ISZERO DUP2 MSTORE PUSH1 0x20 ADD PUSH2 0x1FB JUMP JUMPDEST PUSH2 0x2CB PUSH2 0x31A CALLDATASIZE PUSH1 0x4 PUSH2 0x191F JUMP JUMPDEST PUSH2 0x734 JUMP JUMPDEST PUSH2 0x2CB PUSH2 0x32D CALLDATASIZE PUSH1 0x4 PUSH2 0x191F JUMP JUMPDEST PUSH2 0x83A JUMP JUMPDEST PUSH2 0x2CB PUSH2 0xAEA JUMP JUMPDEST PUSH2 0x1F1 PUSH1 0x7 SLOAD DUP2 JUMP JUMPDEST PUSH2 0x1F1 PUSH1 0xB SLOAD DUP2 JUMP JUMPDEST PUSH2 0x1F1 PUSH1 0x6 SLOAD DUP2 JUMP JUMPDEST PUSH2 0x368 PUSH2 0x363 CALLDATASIZE PUSH1 0x4 PUSH2 0x18FD JUMP JUMPDEST PUSH2 0xAFC JUMP JUMPDEST PUSH1 0x40 MLOAD PUSH2 0x1FB SWAP2 SWAP1 DUP2 MLOAD PUSH1 0x1 PUSH1 0x1 PUSH1 0xA0 SHL SUB AND DUP2 MSTORE PUSH1 0x20 DUP1 DUP4 ADD MLOAD SWAP1 DUP3 ADD MSTORE PUSH1 0x40 DUP1 DUP4 ADD MLOAD SWAP1 DUP3 ADD MSTORE PUSH1 0x60 DUP1 DUP4 ADD MLOAD SWAP1 DUP3 ADD MSTORE PUSH1 0x80 DUP1 DUP4 ADD MLOAD SWAP1 DUP3 ADD MSTORE PUSH1 0xA0 DUP3 DUP2 ADD MLOAD ISZERO ISZERO SWAP1 DUP3 ADD MSTORE PUSH1 0xC0 SWAP2 DUP3 ADD MLOAD SWAP2 DUP2 ADD SWAP2 SWAP1 SWAP2 MSTORE PUSH1 0xE0 ADD SWAP1 JUMP JUMPDEST PUSH2 0x1F1 PUSH2 0x3D2 CALLDATASIZE PUSH1 0x4 PUSH2 0x18FD JUMP JUMPDEST PUSH1 0xD PUSH1 0x20 MSTORE PUSH1 0x0 SWAP1 DUP2 MSTORE PUSH1 0x40 SWAP1 KECCAK256 SLOAD DUP2 JUMP JUMPDEST PUSH2 0x2CB PUSH2 0x3F2 CALLDATASIZE PUSH1 0x4 PUSH2 0x1948 JUMP JUMPDEST PUSH2 0xBB9 JUMP JUMPDEST PUSH1 0x1 SLOAD PUSH1 0x1 PUSH1 0x1 PUSH1 0xA0 SHL SUB AND PUSH2 0x217 JUMP JUMPDEST PUSH2 0x410 PUSH2 0xCBF JUMP JUMPDEST PUSH1 0x40 MLOAD PUSH2 0x1FB SWAP2 SWAP1 PUSH2 0x197B JUMP JUMPDEST PUSH2 0x2CB PUSH2 0x42B CALLDATASIZE PUSH1 0x4 PUSH2 0x19DE JUMP JUMPDEST PUSH2 0xE57 JUMP JUMPDEST PUSH2 0x217 PUSH2 0x43E CALLDATASIZE PUSH1 0x4 PUSH2 0x191F JUMP JUMPDEST PUSH2 0x10C2 JUMP JUMPDEST PUSH2 0x410 PUSH2 0x10EC JUMP JUMPDEST PUSH2 0x2CB PUSH2 0x459 CALLDATASIZE PUSH1 0x4 PUSH2 0x1AA0 JUMP JUMPDEST PUSH2 0x114E JUMP JUMPDEST PUSH2 0x471 PUSH2 0x46C CALLDATASIZE PUSH1 0x4 PUSH2 0x18FD JUMP JUMPDEST PUSH2 0x13C4 JUMP JUMPDEST PUSH1 0x40 MLOAD PUSH2 0x1FB SWAP2 SWAP1 PUSH1 0x0 PUSH1 0xA0 DUP3 ADD SWAP1 POP DUP3 MLOAD DUP3 MSTORE PUSH1 0x20 DUP4 ADD MLOAD PUSH1 0x20 DUP4 ADD MSTORE PUSH1 0x40 DUP4 ADD MLOAD PUSH1 0x40 DUP4 ADD MSTORE PUSH1 0x60 DUP4 ADD MLOAD PUSH1 0x60 DUP4 ADD MSTORE PUSH1 0x80 DUP4 ADD MLOAD ISZERO ISZERO PUSH1 0x80 DUP4 ADD MSTORE SWAP3 SWAP2 POP POP JUMP JUMPDEST PUSH2 0x1F1 PUSH1 0x8 SLOAD DUP2 JUMP JUMPDEST PUSH2 0x1F1 PUSH2 0x1454 JUMP JUMPDEST PUSH2 0x1F1 PUSH1 0x9 SLOAD DUP2 JUMP JUMPDEST PUSH2 0x1F1 PUSH1 0xA SLOAD DUP2 JUMP JUMPDEST PUSH2 0x2CB PUSH2 0x4E6 CALLDATASIZE PUSH1 0x4 PUSH2 0x1AD5 JUMP JUMPDEST PUSH2 0x14B2 JUMP JUMPDEST PUSH2 0x2CB PUSH2 0x4F9 CALLDATASIZE PUSH1 0x4 PUSH2 0x18FD JUMP JUMPDEST PUSH2 0x14CE JUMP JUMPDEST PUSH2 0x556 PUSH2 0x50C CALLDATASIZE PUSH1 0x4 PUSH2 0x18FD JUMP JUMPDEST PUSH1 0x4 PUSH1 0x20 DUP2 SWAP1 MSTORE PUSH1 0x0 SWAP2 DUP3 MSTORE PUSH1 0x40 SWAP1 SWAP2 KECCAK256 DUP1 SLOAD PUSH1 0x1 DUP3 ADD SLOAD PUSH1 0x2 DUP4 ADD SLOAD PUSH1 0x3 DUP5 ADD SLOAD SWAP5 DUP5 ADD SLOAD PUSH1 0x5 DUP6 ADD SLOAD PUSH1 0x6 SWAP1 SWAP6 ADD SLOAD PUSH1 0x1 PUSH1 0x1 PUSH1 0xA0 SHL SUB SWAP1 SWAP5 AND SWAP6 SWAP3 SWAP5 SWAP2 SWAP4 SWAP1 SWAP2 PUSH1 0xFF AND SWAP1 DUP8 JUMP JUMPDEST PUSH1 0x40 DUP1 MLOAD PUSH1 0x1 PUSH1 0x1 PUSH1 0xA0 SHL SUB SWAP1 SWAP9 AND DUP9 MSTORE PUSH1 0x20 DUP9 ADD SWAP7 SWAP1 SWAP7 MSTORE SWAP5 DUP7 ADD SWAP4 SWAP1 SWAP4 MSTORE PUSH1 0x60 DUP6 ADD SWAP2 SWAP1 SWAP2 MSTORE PUSH1 0x80 DUP5 ADD MSTORE ISZERO ISZERO PUSH1 0xA0 DUP4 ADD MSTORE PUSH1 0xC0 DUP3 ADD MSTORE PUSH1 0xE0 ADD PUSH2 0x1FB JUMP JUMPDEST PUSH1 0x1 PUSH1 0x1 PUSH1 0xA0 SHL SUB DUP2 AND PUSH1 0x0 SWAP1 DUP2 MSTORE PUSH1 0xE PUSH1 0x20 SWAP1 DUP2 MSTORE PUSH1 0x40 DUP1 DUP4 KECCAK256 SLOAD PUSH1 0xD SWAP1 SWAP3 MSTORE DUP3 KECCAK256 SLOAD PUSH8 0xDE0B6B3A7640000 SWAP1 PUSH2 0x5CD PUSH2 0x1454 JUMP JUMPDEST PUSH2 0x5D7 SWAP2 SWAP1 PUSH2 0x1B1D JUMP JUMPDEST PUSH1 0x1 PUSH1 0x1 PUSH1 0xA0 SHL SUB DUP6 AND PUSH1 0x0 SWAP1 DUP2 MSTORE PUSH1 0x3 PUSH1 0x20 MSTORE PUSH1 0x40 SWAP1 KECCAK256 SLOAD PUSH2 0x5FA SWAP2 SWAP1 PUSH2 0x1B30 JUMP JUMPDEST PUSH2 0x604 SWAP2 SWAP1 PUSH2 0x1B47 JUMP JUMPDEST PUSH2 0x60E SWAP2 SWAP1 PUSH2 0x1B69 JUMP JUMPDEST SWAP3 SWAP2 POP POP JUMP JUMPDEST PUSH2 0x61C PUSH2 0x1509 JUMP JUMPDEST CALLER PUSH2 0x625 PUSH2 0x1454 JUMP JUMPDEST PUSH1 0x9 SSTORE TIMESTAMP PUSH1 0x8 SSTORE PUSH1 0x1 PUSH1 0x1 PUSH1 0xA0 SHL SUB DUP2 AND ISZERO PUSH2 0x670 JUMPI PUSH2 0x644 DUP2 PUSH2 0x597 JUMP JUMPDEST PUSH1 0x1 PUSH1 0x1 PUSH1 0xA0 SHL SUB DUP3 AND PUSH1 0x0 SWAP1 DUP2 MSTORE PUSH1 0xE PUSH1 0x20 SWAP1 DUP2 MSTORE PUSH1 0x40 DUP1 DUP4 KECCAK256 SWAP4 SWAP1 SWAP4 SSTORE PUSH1 0x9 SLOAD PUSH1 0xD SWAP1 SWAP2 MSTORE SWAP2 SWAP1 KECCAK256 SSTORE JUMPDEST CALLER PUSH1 0x0 SWAP1 DUP2 MSTORE PUSH1 0xE PUSH1 0x20 MSTORE PUSH1 0x40 SWAP1 KECCAK256 SLOAD DUP1 PUSH2 0x6C8 JUMPI PUSH1 0x40 MLOAD PUSH3 0x461BCD PUSH1 0xE5 SHL DUP2 MSTORE PUSH1 0x20 PUSH1 0x4 DUP3 ADD MSTORE PUSH1 0x13 PUSH1 0x24 DUP3 ADD MSTORE PUSH19 0x4E6F207265776172647320746F20636C61696D PUSH1 0x68 SHL PUSH1 0x44 DUP3 ADD MSTORE PUSH1 0x64 ADD JUMPDEST PUSH1 0x40 MLOAD DUP1 SWAP2 SUB SWAP1 REVERT JUMPDEST CALLER PUSH1 0x0 DUP2 DUP2 MSTORE PUSH1 0xE PUSH1 0x20 MSTORE PUSH1 0x40 DUP2 KECCAK256 SSTORE PUSH1 0x2 SLOAD PUSH2 0x6F1 SWAP2 PUSH1 0x1 PUSH1 0x1 PUSH1 0xA0 SHL SUB SWAP1 SWAP2 AND SWAP1 DUP4 PUSH2 0x1533 JUMP JUMPDEST PUSH1 0x40 MLOAD DUP2 DUP2 MSTORE CALLER SWAP1 PUSH32 0x106F923F993C2149D49B4255FF723ACAFA1F2D94393F561D3EDA32AE348F7241 SWAP1 PUSH1 0x20 ADD PUSH1 0x40 MLOAD DUP1 SWAP2 SUB SWAP1 LOG2 POP POP PUSH2 0x732 PUSH1 0x1 PUSH1 0x0 SSTORE JUMP JUMPDEST JUMP JUMPDEST PUSH2 0x73C PUSH2 0x1592 JUMP JUMPDEST PUSH1 0x0 PUSH2 0x746 PUSH2 0x1454 JUMP JUMPDEST PUSH1 0x9 SSTORE TIMESTAMP PUSH1 0x8 SSTORE PUSH1 0x1 PUSH1 0x1 PUSH1 0xA0 SHL SUB DUP2 AND ISZERO PUSH2 0x791 JUMPI PUSH2 0x765 DUP2 PUSH2 0x597 JUMP JUMPDEST PUSH1 0x1 PUSH1 0x1 PUSH1 0xA0 SHL SUB DUP3 AND PUSH1 0x0 SWAP1 DUP2 MSTORE PUSH1 0xE PUSH1 0x20 SWAP1 DUP2 MSTORE PUSH1 0x40 DUP1 DUP4 KECCAK256 SWAP4 SWAP1 SWAP4 SSTORE PUSH1 0x9 SLOAD PUSH1 0xD SWAP1 SWAP2 MSTORE SWAP2 SWAP1 KECCAK256 SSTORE JUMPDEST PUSH1 0x0 DUP3 GT PUSH2 0x7E1 JUMPI PUSH1 0x40 MLOAD PUSH3 0x461BCD PUSH1 0xE5 SHL DUP2 MSTORE PUSH1 0x20 PUSH1 0x4 DUP3 ADD MSTORE PUSH1 0x18 PUSH1 0x24 DUP3 ADD MSTORE PUSH32 0x4E6F207265776172647320746F20646973747269627574650000000000000000 PUSH1 0x44 DUP3 ADD MSTORE PUSH1 0x64 ADD PUSH2 0x6BF JUMP JUMPDEST PUSH1 0x2 SLOAD PUSH2 0x7F9 SWAP1 PUSH1 0x1 PUSH1 0x1 PUSH1 0xA0 SHL SUB AND CALLER ADDRESS DUP6 PUSH2 0x15BF JUMP JUMPDEST PUSH1 0x7 SLOAD PUSH1 0x40 DUP1 MLOAD DUP5 DUP2 MSTORE PUSH1 0x20 DUP2 ADD SWAP3 SWAP1 SWAP3 MSTORE PUSH32 0x29E98BA00D07F171959C4DDCD2F3020DEBC7C52CF537A034D7E664340D098C6C SWAP2 ADD PUSH1 0x40 MLOAD DUP1 SWAP2 SUB SWAP1 LOG1 POP POP JUMP JUMPDEST PUSH2 0x842 PUSH2 0x1509 JUMP JUMPDEST CALLER PUSH2 0x84B PUSH2 0x1454 JUMP JUMPDEST PUSH1 0x9 SSTORE TIMESTAMP PUSH1 0x8 SSTORE PUSH1 0x1 PUSH1 0x1 PUSH1 0xA0 SHL SUB DUP2 AND ISZERO PUSH2 0x896 JUMPI PUSH2 0x86A DUP2 PUSH2 0x597 JUMP JUMPDEST PUSH1 0x1 PUSH1 0x1 PUSH1 0xA0 SHL SUB DUP3 AND PUSH1 0x0 SWAP1 DUP2 MSTORE PUSH1 0xE PUSH1 0x20 SWAP1 DUP2 MSTORE PUSH1 0x40 DUP1 DUP4 KECCAK256 SWAP4 SWAP1 SWAP4 SSTORE PUSH1 0x9 SLOAD PUSH1 0xD SWAP1 SWAP2 MSTORE SWAP2 SWAP1 KECCAK256 SSTORE JUMPDEST CALLER PUSH1 0x0 SWAP1 DUP2 MSTORE PUSH1 0x3 PUSH1 0x20 MSTORE PUSH1 0x40 SWAP1 KECCAK256 DUP1 SLOAD DUP4 GT ISZERO PUSH2 0x8F6 JUMPI PUSH1 0x40 MLOAD PUSH3 0x461BCD PUSH1 0xE5 SHL DUP2 MSTORE PUSH1 0x20 PUSH1 0x4 DUP3 ADD MSTORE PUSH1 0x1A PUSH1 0x24 DUP3 ADD MSTORE PUSH32 0x496E73756666696369656E74207374616B656420616D6F756E74000000000000 PUSH1 0x44 DUP3 ADD MSTORE PUSH1 0x64 ADD PUSH2 0x6BF JUMP JUMPDEST DUP1 PUSH1 0x2 ADD SLOAD DUP2 PUSH1 0x1 ADD SLOAD PUSH2 0x90A SWAP2 SWAP1 PUSH2 0x1B69 JUMP JUMPDEST TIMESTAMP LT ISZERO PUSH2 0x94F JUMPI PUSH1 0x40 MLOAD PUSH3 0x461BCD PUSH1 0xE5 SHL DUP2 MSTORE PUSH1 0x20 PUSH1 0x4 DUP3 ADD MSTORE PUSH1 0x13 PUSH1 0x24 DUP3 ADD MSTORE PUSH19 0x151BDAD95B9CC81CDD1A5B1B081B1BD8DAD959 PUSH1 0x6A SHL PUSH1 0x44 DUP3 ADD MSTORE PUSH1 0x64 ADD PUSH2 0x6BF JUMP JUMPDEST PUSH1 0x4 DUP2 ADD SLOAD PUSH1 0xFF AND DUP1 ISZERO PUSH2 0x975 JUMPI POP CALLER PUSH1 0x0 SWAP1 DUP2 MSTORE PUSH1 0x4 PUSH1 0x20 MSTORE PUSH1 0x40 SWAP1 KECCAK256 PUSH1 0x5 ADD SLOAD PUSH1 0xFF AND JUMPDEST ISZERO PUSH2 0xA1F JUMPI PUSH1 0xA SLOAD DUP2 SLOAD PUSH2 0x98A SWAP1 DUP6 SWAP1 PUSH2 0x1B1D JUMP JUMPDEST LT ISZERO DUP1 PUSH2 0x997 JUMPI POP DUP1 SLOAD DUP4 EQ JUMPDEST PUSH2 0x9F4 JUMPI PUSH1 0x40 MLOAD PUSH3 0x461BCD PUSH1 0xE5 SHL DUP2 MSTORE PUSH1 0x20 PUSH1 0x4 DUP3 ADD MSTORE PUSH1 0x28 PUSH1 0x24 DUP3 ADD MSTORE PUSH32 0x576F756C642066616C6C2062656C6F77206D696E696D756D2076616C69646174 PUSH1 0x44 DUP3 ADD MSTORE PUSH8 0x6F72207374616B65 PUSH1 0xC0 SHL PUSH1 0x64 DUP3 ADD MSTORE PUSH1 0x84 ADD PUSH2 0x6BF JUMP JUMPDEST DUP1 SLOAD DUP4 SUB PUSH2 0xA1F JUMPI CALLER PUSH1 0x0 DUP2 DUP2 MSTORE PUSH1 0x4 PUSH1 0x20 MSTORE PUSH1 0x40 SWAP1 KECCAK256 PUSH1 0x5 ADD DUP1 SLOAD PUSH1 0xFF NOT AND SWAP1 SSTORE PUSH2 0xA1F SWAP1 PUSH2 0x15FE JUMP JUMPDEST DUP3 DUP2 PUSH1 0x0 ADD PUSH1 0x0 DUP3 DUP3 SLOAD PUSH2 0xA33 SWAP2 SWAP1 PUSH2 0x1B1D JUMP JUMPDEST SWAP3 POP POP DUP2 SWAP1 SSTORE POP DUP3 PUSH1 0x6 PUSH1 0x0 DUP3 DUP3 SLOAD PUSH2 0xA4C SWAP2 SWAP1 PUSH2 0x1B1D JUMP JUMPDEST SWAP1 SWAP2 SSTORE POP POP DUP1 SLOAD PUSH1 0x0 SUB PUSH2 0xA8F JUMPI CALLER PUSH1 0x0 SWAP1 DUP2 MSTORE PUSH1 0x3 PUSH1 0x20 DUP2 SWAP1 MSTORE PUSH1 0x40 DUP3 KECCAK256 DUP3 DUP2 SSTORE PUSH1 0x1 DUP2 ADD DUP4 SWAP1 SSTORE PUSH1 0x2 DUP2 ADD DUP4 SWAP1 SSTORE SWAP1 DUP2 ADD SWAP2 SWAP1 SWAP2 SSTORE PUSH1 0x4 ADD DUP1 SLOAD PUSH1 0xFF NOT AND SWAP1 SSTORE JUMPDEST PUSH1 0x2 SLOAD PUSH2 0xAA6 SWAP1 PUSH1 0x1 PUSH1 0x1 PUSH1 0xA0 SHL SUB AND CALLER DUP6 PUSH2 0x1533 JUMP JUMPDEST PUSH1 0x40 MLOAD DUP4 DUP2 MSTORE CALLER SWAP1 PUSH32 0x9845E367B683334E5C0B12D7B81721AC518E649376FA65E3D68324E8F34F2679 SWAP1 PUSH1 0x20 ADD PUSH1 0x40 MLOAD DUP1 SWAP2 SUB SWAP1 LOG2 POP POP PUSH2 0xAE7 PUSH1 0x1 PUSH1 0x0 SSTORE JUMP JUMPDEST POP JUMP JUMPDEST PUSH2 0xAF2 PUSH2 0x1592 JUMP JUMPDEST PUSH2 0x732 PUSH1 0x0 PUSH2 0x1709 JUMP JUMPDEST PUSH2 0xB47 PUSH1 0x40 MLOAD DUP1 PUSH1 0xE0 ADD PUSH1 0x40 MSTORE DUP1 PUSH1 0x0 PUSH1 0x1 PUSH1 0x1 PUSH1 0xA0 SHL SUB AND DUP2 MSTORE PUSH1 0x20 ADD PUSH1 0x0 DUP2 MSTORE PUSH1 0x20 ADD PUSH1 0x0 DUP2 MSTORE PUSH1 0x20 ADD PUSH1 0x0 DUP2 MSTORE PUSH1 0x20 ADD PUSH1 0x0 DUP2 MSTORE PUSH1 0x20 ADD PUSH1 0x0 ISZERO ISZERO DUP2 MSTORE PUSH1 0x20 ADD PUSH1 0x0 DUP2 MSTORE POP SWAP1 JUMP JUMPDEST POP PUSH1 0x1 PUSH1 0x1 PUSH1 0xA0 SHL SUB SWAP1 DUP2 AND PUSH1 0x0 SWAP1 DUP2 MSTORE PUSH1 0x4 PUSH1 0x20 DUP2 DUP2 MSTORE PUSH1 0x40 SWAP3 DUP4 SWAP1 KECCAK256 DUP4 MLOAD PUSH1 0xE0 DUP2 ADD DUP6 MSTORE DUP2 SLOAD SWAP1 SWAP6 AND DUP6 MSTORE PUSH1 0x1 DUP2 ADD SLOAD SWAP2 DUP6 ADD SWAP2 SWAP1 SWAP2 MSTORE PUSH1 0x2 DUP2 ADD SLOAD SWAP3 DUP5 ADD SWAP3 SWAP1 SWAP3 MSTORE PUSH1 0x3 DUP3 ADD SLOAD PUSH1 0x60 DUP5 ADD MSTORE DUP2 ADD SLOAD PUSH1 0x80 DUP4 ADD MSTORE PUSH1 0x5 DUP2 ADD SLOAD PUSH1 0xFF AND ISZERO ISZERO PUSH1 0xA0 DUP4 ADD MSTORE PUSH1 0x6 ADD SLOAD PUSH1 0xC0 DUP3 ADD MSTORE SWAP1 JUMP JUMPDEST PUSH2 0xBC1 PUSH2 0x1592 JUMP JUMPDEST PUSH1 0x1 PUSH1 0x1 PUSH1 0xA0 SHL SUB DUP3 AND PUSH1 0x0 SWAP1 DUP2 MSTORE PUSH1 0x4 PUSH1 0x20 MSTORE PUSH1 0x40 SWAP1 KECCAK256 PUSH1 0x5 ADD SLOAD PUSH1 0xFF AND PUSH2 0xC23 JUMPI PUSH1 0x40 MLOAD PUSH3 0x461BCD PUSH1 0xE5 SHL DUP2 MSTORE PUSH1 0x20 PUSH1 0x4 DUP3 ADD MSTORE PUSH1 0x14 PUSH1 0x24 DUP3 ADD MSTORE PUSH20 0x56616C696461746F72206E6F7420616374697665 PUSH1 0x60 SHL PUSH1 0x44 DUP3 ADD MSTORE PUSH1 0x64 ADD PUSH2 0x6BF JUMP JUMPDEST PUSH1 0x1 PUSH1 0x1 PUSH1 0xA0 SHL SUB DUP3 AND PUSH1 0x0 SWAP1 DUP2 MSTORE PUSH1 0x4 PUSH1 0x20 DUP2 SWAP1 MSTORE PUSH1 0x40 DUP3 KECCAK256 SWAP1 DUP2 ADD DUP1 SLOAD SWAP2 SWAP3 PUSH2 0xC4D DUP4 PUSH2 0x1B7C JUMP JUMPDEST SWAP2 SWAP1 POP SSTORE POP DUP2 ISZERO PUSH2 0xC9D JUMPI PUSH1 0x3 DUP2 ADD DUP1 SLOAD SWAP1 PUSH1 0x0 PUSH2 0xC6A DUP4 PUSH2 0x1B7C JUMP JUMPDEST SWAP2 SWAP1 POP SSTORE POP PUSH2 0x3E8 DUP2 PUSH1 0x2 ADD SLOAD LT ISZERO PUSH2 0xC98 JUMPI PUSH1 0xA DUP2 PUSH1 0x2 ADD PUSH1 0x0 DUP3 DUP3 SLOAD PUSH2 0xC92 SWAP2 SWAP1 PUSH2 0x1B69 JUMP JUMPDEST SWAP1 SWAP2 SSTORE POP POP JUMPDEST POP POP POP JUMP JUMPDEST PUSH1 0xA DUP2 PUSH1 0x2 ADD SLOAD GT ISZERO PUSH2 0xC98 JUMPI PUSH1 0xA DUP2 PUSH1 0x2 ADD PUSH1 0x0 DUP3 DUP3 SLOAD PUSH2 0xC92 SWAP2 SWAP1 PUSH2 0x1B1D JUMP JUMPDEST PUSH1 0x60 PUSH1 0x0 DUP1 JUMPDEST PUSH1 0x5 SLOAD DUP2 LT ISZERO PUSH2 0xD36 JUMPI PUSH1 0x4 PUSH1 0x0 PUSH1 0x5 DUP4 DUP2 SLOAD DUP2 LT PUSH2 0xCE6 JUMPI PUSH2 0xCE6 PUSH2 0x1B95 JUMP JUMPDEST PUSH1 0x0 SWAP2 DUP3 MSTORE PUSH1 0x20 DUP1 DUP4 KECCAK256 SWAP1 SWAP2 ADD SLOAD PUSH1 0x1 PUSH1 0x1 PUSH1 0xA0 SHL SUB AND DUP4 MSTORE DUP3 ADD SWAP3 SWAP1 SWAP3 MSTORE PUSH1 0x40 ADD SWAP1 KECCAK256 PUSH1 0x5 ADD SLOAD PUSH1 0xFF AND ISZERO PUSH2 0xD24 JUMPI DUP2 PUSH2 0xD20 DUP2 PUSH2 0x1B7C JUMP JUMPDEST SWAP3 POP POP JUMPDEST DUP1 PUSH2 0xD2E DUP2 PUSH2 0x1B7C JUMP JUMPDEST SWAP2 POP POP PUSH2 0xCC5 JUMP JUMPDEST POP PUSH1 0x0 DUP2 PUSH8 0xFFFFFFFFFFFFFFFF DUP2 GT ISZERO PUSH2 0xD52 JUMPI PUSH2 0xD52 PUSH2 0x19C8 JUMP JUMPDEST PUSH1 0x40 MLOAD SWAP1 DUP1 DUP3 MSTORE DUP1 PUSH1 0x20 MUL PUSH1 0x20 ADD DUP3 ADD PUSH1 0x40 MSTORE DUP1 ISZERO PUSH2 0xD7B JUMPI DUP2 PUSH1 0x20 ADD PUSH1 0x20 DUP3 MUL DUP1 CALLDATASIZE DUP4 CALLDATACOPY ADD SWAP1 POP JUMPDEST POP SWAP1 POP PUSH1 0x0 DUP1 JUMPDEST PUSH1 0x5 SLOAD DUP2 LT ISZERO PUSH2 0xE4E JUMPI PUSH1 0x4 PUSH1 0x0 PUSH1 0x5 DUP4 DUP2 SLOAD DUP2 LT PUSH2 0xDA3 JUMPI PUSH2 0xDA3 PUSH2 0x1B95 JUMP JUMPDEST PUSH1 0x0 SWAP2 DUP3 MSTORE PUSH1 0x20 DUP1 DUP4 KECCAK256 SWAP1 SWAP2 ADD SLOAD PUSH1 0x1 PUSH1 0x1 PUSH1 0xA0 SHL SUB AND DUP4 MSTORE DUP3 ADD SWAP3 SWAP1 SWAP3 MSTORE PUSH1 0x40 ADD SWAP1 KECCAK256 PUSH1 0x5 ADD SLOAD PUSH1 0xFF AND ISZERO PUSH2 0xE3C JUMPI PUSH1 0x5 DUP2 DUP2 SLOAD DUP2 LT PUSH2 0xDE6 JUMPI PUSH2 0xDE6 PUSH2 0x1B95 JUMP JUMPDEST SWAP1 PUSH1 0x0 MSTORE PUSH1 0x20 PUSH1 0x0 KECCAK256 ADD PUSH1 0x0 SWAP1 SLOAD SWAP1 PUSH2 0x100 EXP SWAP1 DIV PUSH1 0x1 PUSH1 0x1 PUSH1 0xA0 SHL SUB AND DUP4 DUP4 DUP2 MLOAD DUP2 LT PUSH2 0xE16 JUMPI PUSH2 0xE16 PUSH2 0x1B95 JUMP JUMPDEST PUSH1 0x1 PUSH1 0x1 PUSH1 0xA0 SHL SUB SWAP1 SWAP3 AND PUSH1 0x20 SWAP3 DUP4 MUL SWAP2 SWAP1 SWAP2 ADD SWAP1 SWAP2 ADD MSTORE DUP2 PUSH2 0xE38 DUP2 PUSH2 0x1B7C JUMP JUMPDEST SWAP3 POP POP JUMPDEST DUP1 PUSH2 0xE46 DUP2 PUSH2 0x1B7C JUMP JUMPDEST SWAP2 POP POP PUSH2 0xD82 JUMP JUMPDEST POP SWAP1 SWAP4 SWAP3 POP POP POP JUMP JUMPDEST PUSH2 0xE5F PUSH2 0x1592 JUMP JUMPDEST DUP2 PUSH2 0xE68 PUSH2 0x1454 JUMP JUMPDEST PUSH1 0x9 SSTORE TIMESTAMP PUSH1 0x8 SSTORE PUSH1 0x1 PUSH1 0x1 PUSH1 0xA0 SHL SUB DUP2 AND ISZERO PUSH2 0xEB3 JUMPI PUSH2 0xE87 DUP2 PUSH2 0x597 JUMP JUMPDEST PUSH1 0x1 PUSH1 0x1 PUSH1 0xA0 SHL SUB DUP3 AND PUSH1 0x0 SWAP1 DUP2 MSTORE PUSH1 0xE PUSH1 0x20 SWAP1 DUP2 MSTORE PUSH1 0x40 DUP1 DUP4 KECCAK256 SWAP4 SWAP1 SWAP4 SSTORE PUSH1 0x9 SLOAD PUSH1 0xD SWAP1 SWAP2 MSTORE SWAP2 SWAP1 KECCAK256 SSTORE JUMPDEST PUSH1 0x1 PUSH1 0x1 PUSH1 0xA0 SHL SUB DUP4 AND PUSH1 0x0 SWAP1 DUP2 MSTORE PUSH1 0x4 PUSH1 0x20 MSTORE PUSH1 0x40 SWAP1 KECCAK256 PUSH1 0x5 ADD SLOAD PUSH1 0xFF AND PUSH2 0xF15 JUMPI PUSH1 0x40 MLOAD PUSH3 0x461BCD PUSH1 0xE5 SHL DUP2 MSTORE PUSH1 0x20 PUSH1 0x4 DUP3 ADD MSTORE PUSH1 0x14 PUSH1 0x24 DUP3 ADD MSTORE PUSH20 0x56616C696461746F72206E6F7420616374697665 PUSH1 0x60 SHL PUSH1 0x44 DUP3 ADD MSTORE PUSH1 0x64 ADD PUSH2 0x6BF JUMP JUMPDEST PUSH1 0x1 PUSH1 0x1 PUSH1 0xA0 SHL SUB DUP4 AND PUSH1 0x0 SWAP1 DUP2 MSTORE PUSH1 0x3 PUSH1 0x20 MSTORE PUSH1 0x40 DUP2 KECCAK256 PUSH1 0xC SLOAD DUP2 SLOAD SWAP2 SWAP3 SWAP2 PUSH2 0x2710 SWAP2 PUSH2 0xF42 SWAP2 PUSH2 0x1B30 JUMP JUMPDEST PUSH2 0xF4C SWAP2 SWAP1 PUSH2 0x1B47 JUMP JUMPDEST DUP3 SLOAD SWAP1 SWAP2 POP DUP2 GT ISZERO PUSH2 0xF5C JUMPI POP DUP1 SLOAD JUMPDEST DUP1 DUP3 PUSH1 0x0 ADD PUSH1 0x0 DUP3 DUP3 SLOAD PUSH2 0xF70 SWAP2 SWAP1 PUSH2 0x1B1D JUMP JUMPDEST SWAP3 POP POP DUP2 SWAP1 SSTORE POP DUP1 PUSH1 0x6 PUSH1 0x0 DUP3 DUP3 SLOAD PUSH2 0xF89 SWAP2 SWAP1 PUSH2 0x1B1D JUMP JUMPDEST SWAP1 SWAP2 SSTORE POP POP PUSH1 0x1 PUSH1 0x1 PUSH1 0xA0 SHL SUB DUP6 AND PUSH1 0x0 SWAP1 DUP2 MSTORE PUSH1 0x4 PUSH1 0x20 MSTORE PUSH1 0x40 DUP2 KECCAK256 PUSH1 0x6 ADD DUP1 SLOAD SWAP2 PUSH2 0xFB5 DUP4 PUSH2 0x1B7C JUMP JUMPDEST SWAP1 SWAP2 SSTORE POP POP PUSH1 0x1 PUSH1 0x1 PUSH1 0xA0 SHL SUB DUP6 AND PUSH1 0x0 SWAP1 DUP2 MSTORE PUSH1 0x4 PUSH1 0x20 MSTORE PUSH1 0x40 SWAP1 KECCAK256 PUSH1 0x2 ADD SLOAD PUSH1 0x64 LT PUSH2 0xFE4 JUMPI PUSH1 0x0 PUSH2 0x100C JUMP JUMPDEST PUSH1 0x1 PUSH1 0x1 PUSH1 0xA0 SHL SUB DUP6 AND PUSH1 0x0 SWAP1 DUP2 MSTORE PUSH1 0x4 PUSH1 0x20 MSTORE PUSH1 0x40 SWAP1 KECCAK256 PUSH1 0x2 ADD SLOAD PUSH2 0x100C SWAP1 PUSH1 0x64 SWAP1 PUSH2 0x1B1D JUMP JUMPDEST PUSH1 0x1 PUSH1 0x1 PUSH1 0xA0 SHL SUB DUP7 AND PUSH1 0x0 SWAP1 DUP2 MSTORE PUSH1 0x4 PUSH1 0x20 MSTORE PUSH1 0x40 SWAP1 KECCAK256 PUSH1 0x2 ADD SSTORE PUSH1 0xA SLOAD DUP3 SLOAD LT ISZERO PUSH2 0x105F JUMPI PUSH1 0x1 PUSH1 0x1 PUSH1 0xA0 SHL SUB DUP6 AND PUSH1 0x0 SWAP1 DUP2 MSTORE PUSH1 0x4 PUSH1 0x20 MSTORE PUSH1 0x40 SWAP1 KECCAK256 PUSH1 0x5 ADD DUP1 SLOAD PUSH1 0xFF NOT AND SWAP1 SSTORE PUSH2 0x105F DUP6 PUSH2 0x15FE JUMP JUMPDEST PUSH1 0x2 SLOAD PUSH2 0x1078 SWAP1 PUSH1 0x1 PUSH1 0x1 PUSH1 0xA0 SHL SUB AND PUSH2 0xDEAD DUP4 PUSH2 0x1533 JUMP JUMPDEST DUP5 PUSH1 0x1 PUSH1 0x1 PUSH1 0xA0 SHL SUB AND PUSH32 0x74C8604EAB659BCCD1619A91A9588244A2442723FDCB05AF0AA39DA9FC68657 DUP3 DUP7 PUSH1 0x40 MLOAD PUSH2 0x10B3 SWAP3 SWAP2 SWAP1 PUSH2 0x1BAB JUMP JUMPDEST PUSH1 0x40 MLOAD DUP1 SWAP2 SUB SWAP1 LOG2 POP POP POP POP POP JUMP JUMPDEST PUSH1 0x5 DUP2 DUP2 SLOAD DUP2 LT PUSH2 0x10D2 JUMPI PUSH1 0x0 DUP1 REVERT JUMPDEST PUSH1 0x0 SWAP2 DUP3 MSTORE PUSH1 0x20 SWAP1 SWAP2 KECCAK256 ADD SLOAD PUSH1 0x1 PUSH1 0x1 PUSH1 0xA0 SHL SUB AND SWAP1 POP DUP2 JUMP JUMPDEST PUSH1 0x60 PUSH1 0x5 DUP1 SLOAD DUP1 PUSH1 0x20 MUL PUSH1 0x20 ADD PUSH1 0x40 MLOAD SWAP1 DUP2 ADD PUSH1 0x40 MSTORE DUP1 SWAP3 SWAP2 SWAP1 DUP2 DUP2 MSTORE PUSH1 0x20 ADD DUP3 DUP1 SLOAD DUP1 ISZERO PUSH2 0x1144 JUMPI PUSH1 0x20 MUL DUP3 ADD SWAP2 SWAP1 PUSH1 0x0 MSTORE PUSH1 0x20 PUSH1 0x0 KECCAK256 SWAP1 JUMPDEST DUP2 SLOAD PUSH1 0x1 PUSH1 0x1 PUSH1 0xA0 SHL SUB AND DUP2 MSTORE PUSH1 0x1 SWAP1 SWAP2 ADD SWAP1 PUSH1 0x20 ADD DUP1 DUP4 GT PUSH2 0x1126 JUMPI JUMPDEST POP POP POP POP POP SWAP1 POP SWAP1 JUMP JUMPDEST PUSH2 0x1156 PUSH2 0x1509 JUMP JUMPDEST CALLER PUSH2 0x115F PUSH2 0x1454 JUMP JUMPDEST PUSH1 0x9 SSTORE TIMESTAMP PUSH1 0x8 SSTORE PUSH1 0x1 PUSH1 0x1 PUSH1 0xA0 SHL SUB DUP2 AND ISZERO PUSH2 0x11AA JUMPI PUSH2 0x117E DUP2 PUSH2 0x597 JUMP JUMPDEST PUSH1 0x1 PUSH1 0x1 PUSH1 0xA0 SHL SUB DUP3 AND PUSH1 0x0 SWAP1 DUP2 MSTORE PUSH1 0xE PUSH1 0x20 SWAP1 DUP2 MSTORE PUSH1 0x40 DUP1 DUP4 KECCAK256 SWAP4 SWAP1 SWAP4 SSTORE PUSH1 0x9 SLOAD PUSH1 0xD SWAP1 SWAP2 MSTORE SWAP2 SWAP1 KECCAK256 SSTORE JUMPDEST PUSH1 0x0 DUP5 GT PUSH2 0x11F2 JUMPI PUSH1 0x40 MLOAD PUSH3 0x461BCD PUSH1 0xE5 SHL DUP2 MSTORE PUSH1 0x20 PUSH1 0x4 DUP3 ADD MSTORE PUSH1 0x15 PUSH1 0x24 DUP3 ADD MSTORE PUSH21 0x43616E6E6F74207374616B65203020746F6B656E73 PUSH1 0x58 SHL PUSH1 0x44 DUP3 ADD MSTORE PUSH1 0x64 ADD PUSH2 0x6BF JUMP JUMPDEST PUSH1 0xB SLOAD DUP4 LT ISZERO PUSH2 0x123C JUMPI PUSH1 0x40 MLOAD PUSH3 0x461BCD PUSH1 0xE5 SHL DUP2 MSTORE PUSH1 0x20 PUSH1 0x4 DUP3 ADD MSTORE PUSH1 0x15 PUSH1 0x24 DUP3 ADD MSTORE PUSH21 0x131BD8DAC81C195C9A5BD9081D1BDBC81CDA1BDC9D PUSH1 0x5A SHL PUSH1 0x44 DUP3 ADD MSTORE PUSH1 0x64 ADD PUSH2 0x6BF JUMP JUMPDEST DUP2 ISZERO PUSH2 0x12ED JUMPI PUSH1 0xA SLOAD DUP5 LT ISZERO PUSH2 0x1294 JUMPI PUSH1 0x40 MLOAD PUSH3 0x461BCD PUSH1 0xE5 SHL DUP2 MSTORE PUSH1 0x20 PUSH1 0x4 DUP3 ADD DUP2 SWAP1 MSTORE PUSH1 0x24 DUP3 ADD MSTORE PUSH32 0x496E73756666696369656E74207374616B6520666F722076616C696461746F72 PUSH1 0x44 DUP3 ADD MSTORE PUSH1 0x64 ADD PUSH2 0x6BF JUMP JUMPDEST CALLER PUSH1 0x0 SWAP1 DUP2 MSTORE PUSH1 0x4 PUSH1 0x20 MSTORE PUSH1 0x40 SWAP1 KECCAK256 PUSH1 0x5 ADD SLOAD PUSH1 0xFF AND ISZERO PUSH2 0x12ED JUMPI PUSH1 0x40 MLOAD PUSH3 0x461BCD PUSH1 0xE5 SHL DUP2 MSTORE PUSH1 0x20 PUSH1 0x4 DUP3 ADD MSTORE PUSH1 0x13 PUSH1 0x24 DUP3 ADD MSTORE PUSH19 0x20B63932B0B23C9030903B30B634B230BA37B9 PUSH1 0x69 SHL PUSH1 0x44 DUP3 ADD MSTORE PUSH1 0x64 ADD PUSH2 0x6BF JUMP JUMPDEST PUSH1 0x2 SLOAD PUSH2 0x1305 SWAP1 PUSH1 0x1 PUSH1 0x1 PUSH1 0xA0 SHL SUB AND CALLER ADDRESS DUP8 PUSH2 0x15BF JUMP JUMPDEST CALLER PUSH1 0x0 SWAP1 DUP2 MSTORE PUSH1 0x3 PUSH1 0x20 MSTORE PUSH1 0x40 DUP2 KECCAK256 DUP1 SLOAD SWAP1 SWAP2 DUP7 SWAP2 DUP4 SWAP2 SWAP1 PUSH2 0x1328 SWAP1 DUP5 SWAP1 PUSH2 0x1B69 JUMP JUMPDEST SWAP1 SWAP2 SSTORE POP POP TIMESTAMP PUSH1 0x1 DUP3 ADD SSTORE PUSH1 0x2 DUP2 ADD DUP5 SWAP1 SSTORE PUSH1 0x4 DUP2 ADD DUP1 SLOAD PUSH1 0xFF NOT AND DUP5 ISZERO ISZERO OR SWAP1 SSTORE PUSH1 0x6 DUP1 SLOAD DUP7 SWAP2 SWAP1 PUSH1 0x0 SWAP1 PUSH2 0x135F SWAP1 DUP5 SWAP1 PUSH2 0x1B69 JUMP JUMPDEST SWAP1 SWAP2 SSTORE POP POP DUP3 ISZERO PUSH2 0x1374 JUMPI PUSH2 0x1374 CALLER DUP7 PUSH2 0x175B JUMP JUMPDEST PUSH1 0x40 DUP1 MLOAD DUP7 DUP2 MSTORE PUSH1 0x20 DUP2 ADD DUP7 SWAP1 MSTORE DUP5 ISZERO ISZERO DUP2 DUP4 ADD MSTORE SWAP1 MLOAD CALLER SWAP2 PUSH32 0x6363655A3C7ACE10EB7A32098436BD120788E6C01329BB863799624F11B575F3 SWAP2 SWAP1 DUP2 SWAP1 SUB PUSH1 0x60 ADD SWAP1 LOG2 POP POP PUSH2 0xC98 PUSH1 0x1 PUSH1 0x0 SSTORE JUMP JUMPDEST PUSH2 0x13F8 PUSH1 0x40 MLOAD DUP1 PUSH1 0xA0 ADD PUSH1 0x40 MSTORE DUP1 PUSH1 0x0 DUP2 MSTORE PUSH1 0x20 ADD PUSH1 0x0 DUP2 MSTORE PUSH1 0x20 ADD PUSH1 0x0 DUP2 MSTORE PUSH1 0x20 ADD PUSH1 0x0 DUP2 MSTORE PUSH1 0x20 ADD PUSH1 0x0 ISZERO ISZERO DUP2 MSTORE POP SWAP1 JUMP JUMPDEST POP PUSH1 0x1 PUSH1 0x1 PUSH1 0xA0 SHL SUB AND PUSH1 0x0 SWAP1 DUP2 MSTORE PUSH1 0x3 PUSH1 0x20 DUP2 DUP2 MSTORE PUSH1 0x40 SWAP3 DUP4 SWAP1 KECCAK256 DUP4 MLOAD PUSH1 0xA0 DUP2 ADD DUP6 MSTORE DUP2 SLOAD DUP2 MSTORE PUSH1 0x1 DUP3 ADD SLOAD SWAP3 DUP2 ADD SWAP3 SWAP1 SWAP3 MSTORE PUSH1 0x2 DUP2 ADD SLOAD SWAP4 DUP3 ADD SWAP4 SWAP1 SWAP4 MSTORE SWAP1 DUP3 ADD SLOAD PUSH1 0x60 DUP3 ADD MSTORE PUSH1 0x4 SWAP1 SWAP2 ADD SLOAD PUSH1 0xFF AND ISZERO ISZERO PUSH1 0x80 DUP3 ADD MSTORE SWAP1 JUMP JUMPDEST PUSH1 0x0 PUSH1 0x6 SLOAD PUSH1 0x0 SUB PUSH2 0x1467 JUMPI POP PUSH1 0x9 SLOAD SWAP1 JUMP JUMPDEST PUSH1 0x6 SLOAD PUSH1 0x7 SLOAD PUSH1 0x8 SLOAD PUSH2 0x147A SWAP1 TIMESTAMP PUSH2 0x1B1D JUMP JUMPDEST PUSH2 0x1484 SWAP2 SWAP1 PUSH2 0x1B30 JUMP JUMPDEST PUSH2 0x1496 SWAP1 PUSH8 0xDE0B6B3A7640000 PUSH2 0x1B30 JUMP JUMPDEST PUSH2 0x14A0 SWAP2 SWAP1 PUSH2 0x1B47 JUMP JUMPDEST PUSH1 0x9 SLOAD PUSH2 0x14AD SWAP2 SWAP1 PUSH2 0x1B69 JUMP JUMPDEST SWAP1 POP SWAP1 JUMP JUMPDEST PUSH2 0x14BA PUSH2 0x1592 JUMP JUMPDEST PUSH1 0x7 SWAP4 SWAP1 SWAP4 SSTORE PUSH1 0xA SWAP2 SWAP1 SWAP2 SSTORE PUSH1 0xB SSTORE PUSH1 0xC SSTORE JUMP JUMPDEST PUSH2 0x14D6 PUSH2 0x1592 JUMP JUMPDEST PUSH1 0x1 PUSH1 0x1 PUSH1 0xA0 SHL SUB DUP2 AND PUSH2 0x1500 JUMPI PUSH1 0x40 MLOAD PUSH4 0x1E4FBDF7 PUSH1 0xE0 SHL DUP2 MSTORE PUSH1 0x0 PUSH1 0x4 DUP3 ADD MSTORE PUSH1 0x24 ADD PUSH2 0x6BF JUMP JUMPDEST PUSH2 0xAE7 DUP2 PUSH2 0x1709 JUMP JUMPDEST PUSH1 0x2 PUSH1 0x0 SLOAD SUB PUSH2 0x152C JUMPI PUSH1 0x40 MLOAD PUSH4 0x3EE5AEB5 PUSH1 0xE0 SHL DUP2 MSTORE PUSH1 0x4 ADD PUSH1 0x40 MLOAD DUP1 SWAP2 SUB SWAP1 REVERT JUMPDEST PUSH1 0x2 PUSH1 0x0 SSTORE JUMP JUMPDEST PUSH1 0x40 MLOAD PUSH1 0x1 PUSH1 0x1 PUSH1 0xA0 SHL SUB DUP4 DUP2 AND PUSH1 0x24 DUP4 ADD MSTORE PUSH1 0x44 DUP3 ADD DUP4 SWAP1 MSTORE PUSH2 0xC98 SWAP2 DUP6 SWAP2 DUP3 AND SWAP1 PUSH4 0xA9059CBB SWAP1 PUSH1 0x64 ADD JUMPDEST PUSH1 0x40 MLOAD PUSH1 0x20 DUP2 DUP4 SUB SUB DUP2 MSTORE SWAP1 PUSH1 0x40 MSTORE SWAP2 POP PUSH1 0xE0 SHL PUSH1 0x20 DUP3 ADD DUP1 MLOAD PUSH1 0x1 PUSH1 0x1 PUSH1 0xE0 SHL SUB DUP4 DUP2 DUP4 AND OR DUP4 MSTORE POP POP POP POP PUSH2 0x1870 JUMP JUMPDEST PUSH1 0x1 SLOAD PUSH1 0x1 PUSH1 0x1 PUSH1 0xA0 SHL SUB AND CALLER EQ PUSH2 0x732 JUMPI PUSH1 0x40 MLOAD PUSH4 0x118CDAA7 PUSH1 0xE0 SHL DUP2 MSTORE CALLER PUSH1 0x4 DUP3 ADD MSTORE PUSH1 0x24 ADD PUSH2 0x6BF JUMP JUMPDEST PUSH1 0x40 MLOAD PUSH1 0x1 PUSH1 0x1 PUSH1 0xA0 SHL SUB DUP5 DUP2 AND PUSH1 0x24 DUP4 ADD MSTORE DUP4 DUP2 AND PUSH1 0x44 DUP4 ADD MSTORE PUSH1 0x64 DUP3 ADD DUP4 SWAP1 MSTORE PUSH2 0x15F8 SWAP2 DUP7 SWAP2 DUP3 AND SWAP1 PUSH4 0x23B872DD SWAP1 PUSH1 0x84 ADD PUSH2 0x1560 JUMP JUMPDEST POP POP POP POP JUMP JUMPDEST PUSH1 0x0 JUMPDEST PUSH1 0x5 SLOAD DUP2 LT ISZERO PUSH2 0x1705 JUMPI DUP2 PUSH1 0x1 PUSH1 0x1 PUSH1 0xA0 SHL SUB AND PUSH1 0x5 DUP3 DUP2 SLOAD DUP2 LT PUSH2 0x1628 JUMPI PUSH2 0x1628 PUSH2 0x1B95 JUMP JUMPDEST PUSH1 0x0 SWAP2 DUP3 MSTORE PUSH1 0x20 SWAP1 SWAP2 KECCAK256 ADD SLOAD PUSH1 0x1 PUSH1 0x1 PUSH1 0xA0 SHL SUB AND SUB PUSH2 0x16F3 JUMPI PUSH1 0x5 DUP1 SLOAD PUSH2 0x1652 SWAP1 PUSH1 0x1 SWAP1 PUSH2 0x1B1D JUMP JUMPDEST DUP2 SLOAD DUP2 LT PUSH2 0x1662 JUMPI PUSH2 0x1662 PUSH2 0x1B95 JUMP JUMPDEST PUSH1 0x0 SWAP2 DUP3 MSTORE PUSH1 0x20 SWAP1 SWAP2 KECCAK256 ADD SLOAD PUSH1 0x5 DUP1 SLOAD PUSH1 0x1 PUSH1 0x1 PUSH1 0xA0 SHL SUB SWAP1 SWAP3 AND SWAP2 DUP4 SWAP1 DUP2 LT PUSH2 0x168E JUMPI PUSH2 0x168E PUSH2 0x1B95 JUMP JUMPDEST SWAP1 PUSH1 0x0 MSTORE PUSH1 0x20 PUSH1 0x0 KECCAK256 ADD PUSH1 0x0 PUSH2 0x100 EXP DUP2 SLOAD DUP2 PUSH1 0x1 PUSH1 0x1 PUSH1 0xA0 SHL SUB MUL NOT AND SWAP1 DUP4 PUSH1 0x1 PUSH1 0x1 PUSH1 0xA0 SHL SUB AND MUL OR SWAP1 SSTORE POP PUSH1 0x5 DUP1 SLOAD DUP1 PUSH2 0x16CD JUMPI PUSH2 0x16CD PUSH2 0x1C01 JUMP JUMPDEST PUSH1 0x0 DUP3 DUP2 MSTORE PUSH1 0x20 SWAP1 KECCAK256 DUP2 ADD PUSH1 0x0 NOT SWAP1 DUP2 ADD DUP1 SLOAD PUSH1 0x1 PUSH1 0x1 PUSH1 0xA0 SHL SUB NOT AND SWAP1 SSTORE ADD SWAP1 SSTORE POP POP JUMP JUMPDEST DUP1 PUSH2 0x16FD DUP2 PUSH2 0x1B7C JUMP JUMPDEST SWAP2 POP POP PUSH2 0x1601 JUMP JUMPDEST POP POP JUMP JUMPDEST PUSH1 0x1 DUP1 SLOAD PUSH1 0x1 PUSH1 0x1 PUSH1 0xA0 SHL SUB DUP4 DUP2 AND PUSH1 0x1 PUSH1 0x1 PUSH1 0xA0 SHL SUB NOT DUP4 AND DUP2 OR SWAP1 SWAP4 SSTORE PUSH1 0x40 MLOAD SWAP2 AND SWAP2 SWAP1 DUP3 SWAP1 PUSH32 0x8BE0079C531659141344CD1FD0A4F28419497F9722A3DAAFE3B4186F6B6457E0 SWAP1 PUSH1 0x0 SWAP1 LOG3 POP POP JUMP JUMPDEST PUSH1 0x40 DUP1 MLOAD PUSH1 0xE0 DUP2 ADD DUP3 MSTORE PUSH1 0x1 PUSH1 0x1 PUSH1 0xA0 SHL SUB DUP5 DUP2 AND DUP1 DUP4 MSTORE PUSH1 0x20 DUP1 DUP5 ADD DUP7 DUP2 MSTORE PUSH2 0x1F4 DUP6 DUP8 ADD SWAP1 DUP2 MSTORE PUSH1 0x0 PUSH1 0x60 DUP8 ADD DUP2 DUP2 MSTORE PUSH1 0x80 DUP9 ADD DUP3 DUP2 MSTORE PUSH1 0x1 PUSH1 0xA0 DUP11 ADD DUP2 DUP2 MSTORE PUSH1 0xC0 DUP12 ADD DUP6 DUP2 MSTORE DUP10 DUP7 MSTORE PUSH1 0x4 DUP1 DUP11 MSTORE DUP14 DUP8 KECCAK256 SWAP13 MLOAD DUP14 SLOAD PUSH1 0x1 PUSH1 0x1 PUSH1 0xA0 SHL SUB NOT SWAP1 DUP2 AND SWAP2 SWAP1 SWAP14 AND OR DUP14 SSTORE SWAP8 MLOAD DUP13 DUP5 ADD SSTORE SWAP6 MLOAD PUSH1 0x2 DUP13 ADD SSTORE SWAP3 MLOAD PUSH1 0x3 DUP12 ADD SSTORE SWAP1 MLOAD SWAP5 DUP10 ADD SWAP5 SWAP1 SWAP5 SSTORE MLOAD PUSH1 0x5 DUP1 DUP10 ADD DUP1 SLOAD PUSH1 0xFF NOT AND SWAP3 ISZERO ISZERO SWAP3 SWAP1 SWAP3 OR SWAP1 SWAP2 SSTORE SWAP2 MLOAD PUSH1 0x6 SWAP1 SWAP8 ADD SWAP7 SWAP1 SWAP7 SSTORE DUP1 SLOAD SWAP2 DUP3 ADD DUP2 SSTORE SWAP1 SWAP5 MSTORE PUSH32 0x36B6384B5ECA791C62761152D0C79BB0604C104A5FB6F4EB0703F3154BB3DB0 SWAP1 SWAP4 ADD DUP1 SLOAD SWAP1 SWAP3 AND DUP2 OR SWAP1 SWAP2 SSTORE SWAP2 MLOAD DUP4 DUP2 MSTORE PUSH32 0xB4A7F5C563A0E35593D156394ED681BDC9C39467D7D722749D23862C2E4B712C SWAP2 ADD PUSH1 0x40 MLOAD DUP1 SWAP2 SUB SWAP1 LOG2 POP POP JUMP JUMPDEST PUSH1 0x0 DUP1 PUSH1 0x20 PUSH1 0x0 DUP5 MLOAD PUSH1 0x20 DUP7 ADD PUSH1 0x0 DUP9 GAS CALL DUP1 PUSH2 0x1893 JUMPI PUSH1 0x40 MLOAD RETURNDATASIZE PUSH1 0x0 DUP3 RETURNDATACOPY RETURNDATASIZE DUP2 REVERT JUMPDEST POP POP PUSH1 0x0 MLOAD RETURNDATASIZE SWAP2 POP DUP2 ISZERO PUSH2 0x18AB JUMPI DUP1 PUSH1 0x1 EQ ISZERO PUSH2 0x18B8 JUMP JUMPDEST PUSH1 0x1 PUSH1 0x1 PUSH1 0xA0 SHL SUB DUP5 AND EXTCODESIZE ISZERO JUMPDEST ISZERO PUSH2 0x15F8 JUMPI PUSH1 0x40 MLOAD PUSH4 0x5274AFE7 PUSH1 0xE0 SHL DUP2 MSTORE PUSH1 0x1 PUSH1 0x1 PUSH1 0xA0 SHL SUB DUP6 AND PUSH1 0x4 DUP3 ADD MSTORE PUSH1 0x24 ADD PUSH2 0x6BF JUMP JUMPDEST DUP1 CALLDATALOAD PUSH1 0x1 PUSH1 0x1 PUSH1 0xA0 SHL SUB DUP2 AND DUP2 EQ PUSH2 0x18F8 JUMPI PUSH1 0x0 DUP1 REVERT JUMPDEST SWAP2 SWAP1 POP JUMP JUMPDEST PUSH1 0x0 PUSH1 0x20 DUP3 DUP5 SUB SLT ISZERO PUSH2 0x190F JUMPI PUSH1 0x0 DUP1 REVERT JUMPDEST PUSH2 0x1918 DUP3 PUSH2 0x18E1 JUMP JUMPDEST SWAP4 SWAP3 POP POP POP JUMP JUMPDEST PUSH1 0x0 PUSH1 0x20 DUP3 DUP5 SUB SLT ISZERO PUSH2 0x1931 JUMPI PUSH1 0x0 DUP1 REVERT JUMPDEST POP CALLDATALOAD SWAP2 SWAP1 POP JUMP JUMPDEST DUP1 CALLDATALOAD DUP1 ISZERO ISZERO DUP2 EQ PUSH2 0x18F8 JUMPI PUSH1 0x0 DUP1 REVERT JUMPDEST PUSH1 0x0 DUP1 PUSH1 0x40 DUP4 DUP6 SUB SLT ISZERO PUSH2 0x195B JUMPI PUSH1 0x0 DUP1 REVERT JUMPDEST PUSH2 0x1964 DUP4 PUSH2 0x18E1 JUMP JUMPDEST SWAP2 POP PUSH2 0x1972 PUSH1 0x20 DUP5 ADD PUSH2 0x1938 JUMP JUMPDEST SWAP1 POP SWAP3 POP SWAP3 SWAP1 POP JUMP JUMPDEST PUSH1 0x20 DUP1 DUP3 MSTORE DUP3 MLOAD DUP3 DUP3 ADD DUP2 SWAP1 MSTORE PUSH1 0x0 SWAP2 SWAP1 DUP5 DUP3 ADD SWAP1 PUSH1 0x40 DUP6 ADD SWAP1 DUP5 JUMPDEST DUP2 DUP2 LT ISZERO PUSH2 0x19BC JUMPI DUP4 MLOAD PUSH1 0x1 PUSH1 0x1 PUSH1 0xA0 SHL SUB AND DUP4 MSTORE SWAP3 DUP5 ADD SWAP3 SWAP2 DUP5 ADD SWAP2 PUSH1 0x1 ADD PUSH2 0x1997 JUMP JUMPDEST POP SWAP1 SWAP7 SWAP6 POP POP POP POP POP POP JUMP JUMPDEST PUSH4 0x4E487B71 PUSH1 0xE0 SHL PUSH1 0x0 MSTORE PUSH1 0x41 PUSH1 0x4 MSTORE PUSH1 0x24 PUSH1 0x0 REVERT JUMPDEST PUSH1 0x0 DUP1 PUSH1 0x40 DUP4 DUP6 SUB SLT ISZERO PUSH2 0x19F1 JUMPI PUSH1 0x0 DUP1 REVERT JUMPDEST PUSH2 0x19FA DUP4 PUSH2 0x18E1 JUMP JUMPDEST SWAP2 POP PUSH1 0x20 DUP4 ADD CALLDATALOAD PUSH8 0xFFFFFFFFFFFFFFFF DUP1 DUP3 GT ISZERO PUSH2 0x1A17 JUMPI PUSH1 0x0 DUP1 REVERT JUMPDEST DUP2 DUP6 ADD SWAP2 POP DUP6 PUSH1 0x1F DUP4 ADD SLT PUSH2 0x1A2B JUMPI PUSH1 0x0 DUP1 REVERT JUMPDEST DUP2 CALLDATALOAD DUP2 DUP2 GT ISZERO PUSH2 0x1A3D JUMPI PUSH2 0x1A3D PUSH2 0x19C8 JUMP JUMPDEST PUSH1 0x40 MLOAD PUSH1 0x1F DUP3 ADD PUSH1 0x1F NOT SWAP1 DUP2 AND PUSH1 0x3F ADD AND DUP2 ADD SWAP1 DUP4 DUP3 GT DUP2 DUP4 LT OR ISZERO PUSH2 0x1A65 JUMPI PUSH2 0x1A65 PUSH2 0x19C8 JUMP JUMPDEST DUP2 PUSH1 0x40 MSTORE DUP3 DUP2 MSTORE DUP9 PUSH1 0x20 DUP5 DUP8 ADD ADD GT ISZERO PUSH2 0x1A7E JUMPI PUSH1 0x0 DUP1 REVERT JUMPDEST DUP3 PUSH1 0x20 DUP7 ADD PUSH1 0x20 DUP4 ADD CALLDATACOPY PUSH1 0x0 PUSH1 0x20 DUP5 DUP4 ADD ADD MSTORE DUP1 SWAP6 POP POP POP POP POP POP SWAP3 POP SWAP3 SWAP1 POP JUMP JUMPDEST PUSH1 0x0 DUP1 PUSH1 0x0 PUSH1 0x60 DUP5 DUP7 SUB SLT ISZERO PUSH2 0x1AB5 JUMPI PUSH1 0x0 DUP1 REVERT JUMPDEST DUP4 CALLDATALOAD SWAP3 POP PUSH1 0x20 DUP5 ADD CALLDATALOAD SWAP2 POP PUSH2 0x1ACC PUSH1 0x40 DUP6 ADD PUSH2 0x1938 JUMP JUMPDEST SWAP1 POP SWAP3 POP SWAP3 POP SWAP3 JUMP JUMPDEST PUSH1 0x0 DUP1 PUSH1 0x0 DUP1 PUSH1 0x80 DUP6 DUP8 SUB SLT ISZERO PUSH2 0x1AEB JUMPI PUSH1 0x0 DUP1 REVERT JUMPDEST POP POP DUP3 CALLDATALOAD SWAP5 PUSH1 0x20 DUP5 ADD CALLDATALOAD SWAP5 POP PUSH1 0x40 DUP5 ADD CALLDATALOAD SWAP4 PUSH1 0x60 ADD CALLDATALOAD SWAP3 POP SWAP1 POP JUMP JUMPDEST PUSH4 0x4E487B71 PUSH1 0xE0 SHL PUSH1 0x0 MSTORE PUSH1 0x11 PUSH1 0x4 MSTORE PUSH1 0x24 PUSH1 0x0 REVERT JUMPDEST DUP2 DUP2 SUB DUP2 DUP2 GT ISZERO PUSH2 0x60E JUMPI PUSH2 0x60E PUSH2 0x1B07 JUMP JUMPDEST DUP1 DUP3 MUL DUP2 ISZERO DUP3 DUP3 DIV DUP5 EQ OR PUSH2 0x60E JUMPI PUSH2 0x60E PUSH2 0x1B07 JUMP JUMPDEST PUSH1 0x0 DUP3 PUSH2 0x1B64 JUMPI PUSH4 0x4E487B71 PUSH1 0xE0 SHL PUSH1 0x0 MSTORE PUSH1 0x12 PUSH1 0x4 MSTORE PUSH1 0x24 PUSH1 0x0 REVERT JUMPDEST POP DIV SWAP1 JUMP JUMPDEST DUP1 DUP3 ADD DUP1 DUP3 GT ISZERO PUSH2 0x60E JUMPI PUSH2 0x60E PUSH2 0x1B07 JUMP JUMPDEST PUSH1 0x0 PUSH1 0x1 DUP3 ADD PUSH2 0x1B8E JUMPI PUSH2 0x1B8E PUSH2 0x1B07 JUMP JUMPDEST POP PUSH1 0x1 ADD SWAP1 JUMP JUMPDEST PUSH4 0x4E487B71 PUSH1 0xE0 SHL PUSH1 0x0 MSTORE PUSH1 0x32 PUSH1 0x4 MSTORE PUSH1 0x24 PUSH1 0x0 REVERT JUMPDEST DUP3 DUP2 MSTORE PUSH1 0x0 PUSH1 0x20 PUSH1 0x40 DUP2 DUP5 ADD MSTORE DUP4 MLOAD DUP1 PUSH1 0x40 DUP6 ADD MSTORE PUSH1 0x0 JUMPDEST DUP2 DUP2 LT ISZERO PUSH2 0x1BDF JUMPI DUP6 DUP2 ADD DUP4 ADD MLOAD DUP6 DUP3 ADD PUSH1 0x60 ADD MSTORE DUP3 ADD PUSH2 0x1BC3 JUMP JUMPDEST POP PUSH1 0x0 PUSH1 0x60 DUP3 DUP7 ADD ADD MSTORE PUSH1 0x60 PUSH1 0x1F NOT PUSH1 0x1F DUP4 ADD AND DUP6 ADD ADD SWAP3 POP POP POP SWAP4 SWAP3 POP POP POP JUMP JUMPDEST PUSH4 0x4E487B71 PUSH1 0xE0 SHL PUSH1 0x0 MSTORE PUSH1 0x31 PUSH1 0x4 MSTORE PUSH1 0x24 PUSH1 0x0 REVERT INVALID LOG2 PUSH5 0x6970667358 0x22 SLT KECCAK256 0x5D JUMPDEST CALLDATALOAD 0xEB CREATE 0xFC SSTORE 0xC8 SLOAD 0x4C LT 0xE8 DUP16 BASEFEE 0xAA 0xC0 0x5D DUP12 0xB2 GAS PUSH3 0x595E32 SLOAD PUSH17 0x8011BDE7945064736F6C63430008140033 "},"gasEstimates":{"creation":{"codeDepositCost":"1449000","executionCost":"infinite","totalCost":"infinite"},"external":{"claimRewards()":"infinite","distributeRewards(uint256)":"infinite","earned(address)":"infinite","getActiveValidators()":"infinite","getStakeInfo(address)":"11445","getValidatorInfo(address)":"15879","getValidators()":"infinite","isActiveValidator(address)":"2667","lastUpdateTime()":"2351","minimumStakingPeriod()":"2329","minimumValidatorStake()":"2328","orxToken()":"2406","owner()":"2399","renounceOwnership()":"infinite","rewardPerToken()":"infinite","rewardPerTokenStored()":"2395","rewardRate()":"2396","rewards(address)":"2599","slashStake(address,string)":"infinite","slashingRate()":"2330","stakeTokens(uint256,uint256,bool)":"infinite","stakes(address)":"11149","totalStaked()":"2351","transferOwnership(address)":"28424","unstakeTokens(uint256)":"infinite","updateParameters(uint256,uint256,uint256,uint256)":"90941","updateValidatorPerformance(address,bool)":"infinite","userRewardPerTokenPaid(address)":"2619","validatorList(uint256)":"4681","validators(address)":"15499"},"internal":{"_registerValidator(address,uint256)":"infinite","_removeFromValidatorList(address)":"infinite"}},"methodIdentifiers":{"claimRewards()":"372500ab","distributeRewards(uint256)":"59974e38","earned(address)":"008cc262","getActiveValidators()":"9de70258","getStakeInfo(address)":"c3453153","getValidatorInfo(address)":"8a11d7c9","getValidators()":"b7ab4db5","isActiveValidator(address)":"40550a1c","lastUpdateTime()":"c8f33c91","minimumStakingPeriod()":"7ebed54c","minimumValidatorStake()":"ea394362","orxToken()":"032db339","owner()":"8da5cb5b","renounceOwnership()":"715018a6","rewardPerToken()":"cd3daf9d","rewardPerTokenStored()":"df136d65","rewardRate()":"7b0a47ee","rewards(address)":"0700037d","slashStake(address,string)":"a2b61e27","slashingRate()":"13baa069","stakeTokens(uint256,uint256,bool)":"b9e2c1e0","stakes(address)":"16934fc4","totalStaked()":"817b1cd2","transferOwnership(address)":"f2fde38b","unstakeTokens(uint256)":"608e4dd0","updateParameters(uint256,uint256,uint256,uint256)":"ee1eab4f","updateValidatorPerformance(address,bool)":"8ccdadc2","userRewardPerTokenPaid(address)":"8b876347","validatorList(uint256)":"b048e056","validators(address)":"fa52c7d8"}},"storageLayout":{"storage":[{"astId":928,"contract":"contracts/StakingContract.sol:StakingContract","label":"_status","offset":0,"slot":"0","type":"t_uint256"},{"astId":8,"contract":"contracts/StakingContract.sol:StakingContract","label":"_owner","offset":0,"slot":"1","type":"t_address"},{"astId":4771,"contract":"contracts/StakingContract.sol:StakingContract","label":"orxToken","offset":0,"slot":"2","type":"t_contract(IERC20)315"},{"astId":4776,"contract":"contracts/StakingContract.sol:StakingContract","label":"stakes","offset":0,"slot":"3","type":"t_mapping(t_address,t_struct(StakeInfo)4753_storage)"},{"astId":4781,"contract":"contracts/StakingContract.sol:StakingContract","label":"validators","offset":0,"slot":"4","type":"t_mapping(t_address,t_struct(Validator)4768_storage)"},{"astId":4784,"contract":"contracts/StakingContract.sol:StakingContract","label":"validatorList","offset":0,"slot":"5","type":"t_array(t_address)dyn_storage"},{"astId":4786,"contract":"contracts/StakingContract.sol:StakingContract","label":"totalStaked","offset":0,"slot":"6","type":"t_uint256"},{"astId":4788,"contract":"contracts/StakingContract.sol:StakingContract","label":"rewardRate","offset":0,"slot":"7","type":"t_uint256"},{"astId":4790,"contract":"contracts/StakingContract.sol:StakingContract","label":"lastUpdateTime","offset":0,"slot":"8","type":"t_uint256"},{"astId":4792,"contract":"contracts/StakingContract.sol:StakingContract","label":"rewardPerTokenStored","offset":0,"slot":"9","type":"t_uint256"},{"astId":4794,"contract":"contracts/StakingContract.sol:StakingContract","label":"minimumValidatorStake","offset":0,"slot":"10","type":"t_uint256"},{"astId":4796,"contract":"contracts/StakingContract.sol:StakingContract","label":"minimumStakingPeriod","offset":0,"slot":"11","type":"t_uint256"},{"astId":4798,"contract":"contracts/StakingContract.sol:StakingContract","label":"slashingRate","offset":0,"slot":"12","type":"t_uint256"},{"astId":4802,"contract":"contracts/StakingContract.sol:StakingContract","label":"userRewardPerTokenPaid","offset":0,"slot":"13","type":"t_mapping(t_address,t_uint256)"},{"astId":4806,"contract":"contracts/StakingContract.sol:StakingContract","label":"rewards","offset":0,"slot":"14","type":"t_mapping(t_address,t_uint256)"}],"types":{"t_address":{"encoding":"inplace","label":"address","numberOfBytes":"20"},"t_array(t_address)dyn_storage":{"base":"t_address","encoding":"dynamic_array","label":"address[]","numberOfBytes":"32"},"t_bool":{"encoding":"inplace","label":"bool","numberOfBytes":"1"},"t_contract(IERC20)315":{"encoding":"inplace","label":"contract IERC20","numberOfBytes":"20"},"t_mapping(t_address,t_struct(StakeInfo)4753_storage)":{"encoding":"mapping","key":"t_address","label":"mapping(address => struct StakingContract.StakeInfo)","numberOfBytes":"32","value":"t_struct(StakeInfo)4753_storage"},"t_mapping(t_address,t_struct(Validator)4768_storage)":{"encoding":"mapping","key":"t_address","label":"mapping(address => struct StakingContract.Validator)","numberOfBytes":"32","value":"t_struct(Validator)4768_storage"},"t_mapping(t_address,t_uint256)":{"encoding":"mapping","key":"t_address","label":"mapping(address => uint256)","numberOfBytes":"32","value":"t_uint256"},"t_struct(StakeInfo)4753_storage":{"encoding":"inplace","label":"struct StakingContract.StakeInfo","members":[{"astId":4744,"contract":"contracts/StakingContract.sol:StakingContract","label":"amount","offset":0,"slot":"0","type":"t_uint256"},{"astId":4746,"contract":"contracts/StakingContract.sol:StakingContract","label":"timestamp","offset":0,"slot":"1","type":"t_uint256"},{"astId":4748,"contract":"contracts/StakingContract.sol:StakingContract","label":"lockPeriod","offset":0,"slot":"2","type":"t_uint256"},{"astId":4750,"contract":"contracts/StakingContract.sol:StakingContract","label":"rewardDebt","offset":0,"slot":"3","type":"t_uint256"},{"astId":4752,"contract":"contracts/StakingContract.sol:StakingContract","label":"isValidator","offset":0,"slot":"4","type":"t_bool"}],"numberOfBytes":"160"},"t_struct(Validator)4768_storage":{"encoding":"inplace","label":"struct StakingContract.Validator","members":[{"astId":4755,"contract":"contracts/StakingContract.sol:StakingContract","label":"validatorAddress","offset":0,"slot":"0","type":"t_address"},{"astId":4757,"contract":"contracts/StakingContract.sol:StakingContract","label":"totalStaked","offset":0,"slot":"1","type":"t_uint256"},{"astId":4759,"contract":"contracts/StakingContract.sol:StakingContract","label":"reputation","offset":0,"slot":"2","type":"t_uint256"},{"astId":4761,"contract":"contracts/StakingContract.sol:StakingContract","label":"successfulResolutions","offset":0,"slot":"3","type":"t_uint256"},{"astId":4763,"contract":"contracts/StakingContract.sol:StakingContract","label":"totalResolutions","offset":0,"slot":"4","type":"t_uint256"},{"astId":4765,"contract":"contracts/StakingContract.sol:StakingContract","label":"isActive","offset":0,"slot":"5","type":"t_bool"},{"astId":4767,"contract":"contracts/StakingContract.sol:StakingContract","label":"slashCount","offset":0,"slot":"6","type":"t_uint256"}],"numberOfBytes":"224"},"t_uint256":{"encoding":"inplace","label":"uint256","numberOfBytes":"32"}}},"userdoc":{"kind":"user","methods":{},"version":1}}}}