{"contracts/PredictionMarket.sol":{"PredictionMarket":{"abi":[{"inputs":[{"internalType":"string","name":"_title","type":"string"},{"internalType":"string","name":"_description","type":"string"},{"internalType":"string[]","name":"_outcomes","type":"string[]"},{"internalType":"uint256","name":"_expiryTime","type":"uint256"},{"internalType":"address","name":"_creator","type":"address"},{"internalType":"address","name":"_oracleAddress","type":"address"},{"internalType":"uint8","name":"_oracleType","type":"uint8"},{"internalType":"address","name":"_factory","type":"address"}],"stateMutability":"nonpayable","type":"constructor"},{"inputs":[],"name":"EnforcedPause","type":"error"},{"inputs":[],"name":"ExpectedPause","type":"error"},{"inputs":[],"name":"ReentrancyGuardReentrantCall","type":"error"},{"anonymous":false,"inputs":[{"indexed":true,"internalType":"address","name":"user","type":"address"},{"indexed":true,"internalType":"uint256","name":"outcome","type":"uint256"},{"indexed":false,"internalType":"uint256","name":"amount","type":"uint256"},{"indexed":false,"internalType":"uint256","name":"timestamp","type":"uint256"}],"name":"BetPlaced","type":"event"},{"anonymous":false,"inputs":[{"indexed":false,"internalType":"uint256","name":"timestamp","type":"uint256"},{"indexed":false,"internalType":"string","name":"reason","type":"string"}],"name":"MarketCancelled","type":"event"},{"anonymous":false,"inputs":[{"indexed":true,"internalType":"address","name":"disputer","type":"address"},{"indexed":false,"internalType":"uint256","name":"timestamp","type":"uint256"},{"indexed":false,"internalType":"string","name":"reason","type":"string"}],"name":"MarketDisputed","type":"event"},{"anonymous":false,"inputs":[{"indexed":true,"internalType":"uint256","name":"winningOutcome","type":"uint256"},{"indexed":false,"internalType":"uint256","name":"timestamp","type":"uint256"},{"indexed":false,"internalType":"string","name":"resolution","type":"string"}],"name":"MarketResolved","type":"event"},{"anonymous":false,"inputs":[{"indexed":false,"internalType":"address","name":"account","type":"address"}],"name":"Paused","type":"event"},{"anonymous":false,"inputs":[{"indexed":true,"internalType":"address","name":"user","type":"address"},{"indexed":false,"internalType":"uint256","name":"amount","type":"uint256"},{"indexed":false,"internalType":"uint256","name":"timestamp","type":"uint256"}],"name":"RewardClaimed","type":"event"},{"anonymous":false,"inputs":[{"indexed":false,"internalType":"address","name":"account","type":"address"}],"name":"Unpaused","type":"event"},{"inputs":[{"internalType":"address","name":"_user","type":"address"}],"name":"calculateUserReward","outputs":[{"internalType":"uint256","name":"","type":"uint256"}],"stateMutability":"view","type":"function"},{"inputs":[{"internalType":"string","name":"_reason","type":"string"}],"name":"cancelMarket","outputs":[],"stateMutability":"nonpayable","type":"function"},{"inputs":[],"name":"claimReward","outputs":[],"stateMutability":"nonpayable","type":"function"},{"inputs":[],"name":"creator","outputs":[{"internalType":"address","name":"","type":"address"}],"stateMutability":"view","type":"function"},{"inputs":[],"name":"description","outputs":[{"internalType":"string","name":"","type":"string"}],"stateMutability":"view","type":"function"},{"inputs":[{"internalType":"string","name":"_reason","type":"string"}],"name":"disputeMarket","outputs":[],"stateMutability":"payable","type":"function"},{"inputs":[],"name":"expiryTime","outputs":[{"internalType":"uint256","name":"","type":"uint256"}],"stateMutability":"view","type":"function"},{"inputs":[],"name":"factory","outputs":[{"internalType":"address","name":"","type":"address"}],"stateMutability":"view","type":"function"},{"inputs":[],"name":"getMarketInfo","outputs":[{"internalType":"string","name":"_title","type":"string"},{"internalType":"string","name":"_description","type":"string"},{"internalType":"uint256","name":"_totalVolume","type":"uint256"},{"internalType":"uint256","name":"_expiryTime","type":"uint256"},{"internalType":"enum PredictionMarket.MarketStatus","name":"_status","type":"uint8"},{"internalType":"uint256","name":"_participantCount","type":"uint256"},{"internalType":"uint256","name":"_outcomeCount","type":"uint256"}],"stateMutability":"view","type":"function"},{"inputs":[],"name":"getOdds","outputs":[{"internalType":"uint256[]","name":"","type":"uint256[]"}],"stateMutability":"view","type":"function"},{"inputs":[],"name":"getOutcomes","outputs":[{"components":[{"internalType":"string","name":"name","type":"string"},{"internalType":"uint256","name":"totalStaked","type":"uint256"},{"internalType":"uint256","name":"betCount","type":"uint256"}],"internalType":"struct PredictionMarket.Outcome[]","name":"","type":"tuple[]"}],"stateMutability":"view","type":"function"},{"inputs":[],"name":"getParticipants","outputs":[{"internalType":"address[]","name":"","type":"address[]"}],"stateMutability":"view","type":"function"},{"inputs":[{"internalType":"address","name":"_user","type":"address"}],"name":"getUserBets","outputs":[{"components":[{"internalType":"uint256","name":"amount","type":"uint256"},{"internalType":"uint256","name":"outcome","type":"uint256"},{"internalType":"uint256","name":"timestamp","type":"uint256"},{"internalType":"bool","name":"claimed","type":"bool"}],"internalType":"struct PredictionMarket.Bet[]","name":"","type":"tuple[]"}],"stateMutability":"view","type":"function"},{"inputs":[{"internalType":"address","name":"","type":"address"}],"name":"hasParticipated","outputs":[{"internalType":"bool","name":"","type":"bool"}],"stateMutability":"view","type":"function"},{"inputs":[{"internalType":"address","name":"_user","type":"address"}],"name":"hasUnclaimedRewards","outputs":[{"internalType":"bool","name":"","type":"bool"}],"stateMutability":"view","type":"function"},{"inputs":[],"name":"oracleAddress","outputs":[{"internalType":"address","name":"","type":"address"}],"stateMutability":"view","type":"function"},{"inputs":[],"name":"oracleType","outputs":[{"internalType":"enum PredictionMarket.OracleType","name":"","type":"uint8"}],"stateMutability":"view","type":"function"},{"inputs":[{"internalType":"uint256","name":"","type":"uint256"}],"name":"outcomeStaked","outputs":[{"internalType":"uint256","name":"","type":"uint256"}],"stateMutability":"view","type":"function"},{"inputs":[{"internalType":"uint256","name":"","type":"uint256"}],"name":"outcomes","outputs":[{"internalType":"string","name":"name","type":"string"},{"internalType":"uint256","name":"totalStaked","type":"uint256"},{"internalType":"uint256","name":"betCount","type":"uint256"}],"stateMutability":"view","type":"function"},{"inputs":[{"internalType":"uint256","name":"","type":"uint256"}],"name":"participants","outputs":[{"internalType":"address","name":"","type":"address"}],"stateMutability":"view","type":"function"},{"inputs":[],"name":"pause","outputs":[],"stateMutability":"nonpayable","type":"function"},{"inputs":[],"name":"paused","outputs":[{"internalType":"bool","name":"","type":"bool"}],"stateMutability":"view","type":"function"},{"inputs":[{"internalType":"uint256","name":"_outcome","type":"uint256"}],"name":"placeBet","outputs":[],"stateMutability":"payable","type":"function"},{"inputs":[],"name":"platformFeeRate","outputs":[{"internalType":"uint256","name":"","type":"uint256"}],"stateMutability":"view","type":"function"},{"inputs":[],"name":"resolutionTime","outputs":[{"internalType":"uint256","name":"","type":"uint256"}],"stateMutability":"view","type":"function"},{"inputs":[{"internalType":"uint256","name":"_winningOutcome","type":"uint256"},{"internalType":"string","name":"_resolution","type":"string"}],"name":"resolveMarket","outputs":[],"stateMutability":"nonpayable","type":"function"},{"inputs":[],"name":"status","outputs":[{"internalType":"enum PredictionMarket.MarketStatus","name":"","type":"uint8"}],"stateMutability":"view","type":"function"},{"inputs":[],"name":"title","outputs":[{"internalType":"string","name":"","type":"string"}],"stateMutability":"view","type":"function"},{"inputs":[],"name":"totalVolume","outputs":[{"internalType":"uint256","name":"","type":"uint256"}],"stateMutability":"view","type":"function"},{"inputs":[],"name":"unpause","outputs":[],"stateMutability":"nonpayable","type":"function"},{"inputs":[{"internalType":"address","name":"","type":"address"},{"internalType":"uint256","name":"","type":"uint256"}],"name":"userBets","outputs":[{"internalType":"uint256","name":"amount","type":"uint256"},{"internalType":"uint256","name":"outcome","type":"uint256"},{"internalType":"uint256","name":"timestamp","type":"uint256"},{"internalType":"bool","name":"claimed","type":"bool"}],"stateMutability":"view","type":"function"},{"inputs":[{"internalType":"address","name":"","type":"address"}],"name":"userTotalStaked","outputs":[{"internalType":"uint256","name":"","type":"uint256"}],"stateMutability":"view","type":"function"},{"inputs":[],"name":"winningOutcome","outputs":[{"internalType":"uint256","name":"","type":"uint256"}],"stateMutability":"view","type":"function"}],"devdoc":{"errors":{"EnforcedPause()":[{"details":"The operation failed because the contract is paused."}],"ExpectedPause()":[{"details":"The operation failed because the contract is not paused."}],"ReentrancyGuardReentrantCall()":[{"details":"Unauthorized reentrant call."}]},"events":{"Paused(address)":{"details":"Emitted when the pause is triggered by `account`."},"Unpaused(address)":{"details":"Emitted when the pause is lifted by `account`."}},"kind":"dev","methods":{"calculateUserReward(address)":{"details":"Calculate potential reward for a user"},"cancelMarket(string)":{"details":"Cancel market and refund all participants"},"claimReward()":{"details":"Claim rewards for winning bets"},"disputeMarket(string)":{"details":"Dispute market resolution"},"getMarketInfo()":{"details":"Get market information"},"getOdds()":{"details":"Get market odds for each outcome"},"getOutcomes()":{"details":"Get all outcomes"},"getParticipants()":{"details":"Get participants list"},"getUserBets(address)":{"details":"Get user's bets"},"hasUnclaimedRewards(address)":{"details":"Check if user has unclaimed rewards"},"pause()":{"details":"Emergency pause (only creator or factory)"},"paused()":{"details":"Returns true if the contract is paused, and false otherwise."},"placeBet(uint256)":{"details":"Place a bet on a specific outcome","params":{"_outcome":"Index of the outcome to bet on"}},"resolveMarket(uint256,string)":{"details":"Resolve market with winning outcome","params":{"_resolution":"Description of resolution","_winningOutcome":"Index of the winning outcome"}},"unpause()":{"details":"Unpause (only creator or factory)"}},"version":1},"evm":{"bytecode":{"linkReferences":{},"object":"60806040523480156200001157600080fd5b506040516200280e3803806200280e8339810160408190526200003491620003ff565b6001600055855160021115620000915760405162461bcd60e51b815260206004820152601860248201527f4e656564206174206c656173742032206f7574636f6d6573000000000000000060448201526064015b60405180910390fd5b428511620000e25760405162461bcd60e51b815260206004820152601860248201527f457870697279206d75737420626520696e206675747572650000000000000000604482015260640162000088565b6002620000f0898262000574565b506003620000ff888262000574565b506005859055600680546001600160a01b038087166001600160a01b031992831617909255600880549286169290911691909117905560ff821660028111156200014d576200014d62000640565b6008805460ff60a01b1916600160a01b83600281111562000172576200017262000640565b0217905550600780546001600160a01b0319166001600160a01b0383161790556008805460ff60a81b1916905560fa600c5560005b8651811015620002415760046040518060600160405280898481518110620001d357620001d362000656565b60209081029190910181015182526000828201819052604090920182905283546001810185559382529020815191926003020190819062000215908262000574565b50602082015160018201556040909101516002909101558062000238816200066c565b915050620001a7565b50505050505050505062000694565b634e487b7160e01b600052604160045260246000fd5b604051601f8201601f191681016001600160401b038111828210171562000291576200029162000250565b604052919050565b600082601f830112620002ab57600080fd5b81516001600160401b03811115620002c757620002c762000250565b6020620002dd601f8301601f1916820162000266565b8281528582848701011115620002f257600080fd5b60005b8381101562000312578581018301518282018401528201620002f5565b506000928101909101919091529392505050565b600082601f8301126200033857600080fd5b815160206001600160401b038083111562000357576200035762000250565b8260051b6200036883820162000266565b93845285810183019383810190888611156200038357600080fd5b84880192505b85831015620003c457825184811115620003a35760008081fd5b620003b38a87838c010162000299565b835250918401919084019062000389565b98975050505050505050565b80516001600160a01b0381168114620003e857600080fd5b919050565b805160ff81168114620003e857600080fd5b600080600080600080600080610100898b0312156200041d57600080fd5b88516001600160401b03808211156200043557600080fd5b620004438c838d0162000299565b995060208b01519150808211156200045a57600080fd5b620004688c838d0162000299565b985060408b01519150808211156200047f57600080fd5b506200048e8b828c0162000326565b96505060608901519450620004a660808a01620003d0565b9350620004b660a08a01620003d0565b9250620004c660c08a01620003ed565b9150620004d660e08a01620003d0565b90509295985092959890939650565b600181811c90821680620004fa57607f821691505b6020821081036200051b57634e487b7160e01b600052602260045260246000fd5b50919050565b601f8211156200056f57600081815260208120601f850160051c810160208610156200054a5750805b601f850160051c820191505b818110156200056b5782815560010162000556565b5050505b505050565b81516001600160401b0381111562000590576200059062000250565b620005a881620005a18454620004e5565b8462000521565b602080601f831160018114620005e05760008415620005c75750858301515b600019600386901b1c1916600185901b1785556200056b565b600085815260208120601f198616915b828110156200061157888601518255948401946001909101908401620005f0565b5085821015620006305787850151600019600388901b60f8161c191681555b5050505050600190811b01905550565b634e487b7160e01b600052602160045260246000fd5b634e487b7160e01b600052603260045260246000fd5b6000600182016200068d57634e487b7160e01b600052601160045260246000fd5b5060010190565b61216a80620006a46000396000f3fe6080604052600436106101ee5760003560e01c8063719de1ef1161010d578063a89ae4ba116100a0578063c75bb7241161006f578063c75bb724146105c5578063cf2b9f48146105e5578063eeca08f014610605578063eed2a1471461061b578063f3e41e901461064a57600080fd5b8063a89ae4ba14610540578063b4fb3ee314610560578063b88a802f14610590578063c45a0155146105a557600080fd5b80638456cb59116100dc5780638456cb59146104ec57806387abac111461050157806399bc0aea146105145780639b34ae031461052a57600080fd5b8063719de1ef146104485780637284e416146104755780638029c0711461048a5780638068aa68146104aa57600080fd5b80633d3db8eb116101855780635aa68ac0116101545780635aa68ac0146103cc5780635c975abb146103ee5780635f81a57c1461041257806364ff1cb31461042857600080fd5b80633d3db8eb146103515780633f4ba83a146103735780634a79d50c146103885780634c5be574146103aa57600080fd5b806320fdfc9b116101c157806320fdfc9b146102a157806323341a05146102dc5780632d56657d1461030457806335c1d3491461033157600080fd5b806302d05d3f146101f35780630d623e101461023057806310fe7c481461025e578063200d2ed214610273575b600080fd5b3480156101ff57600080fd5b50600654610213906001600160a01b031681565b6040516001600160a01b0390911681526020015b60405180910390f35b34801561023c57600080fd5b5060085461025190600160a01b900460ff1681565b6040516102279190611bf6565b61027161026c366004611c10565b610660565b005b34801561027f57600080fd5b5060085461029490600160a81b900460ff1681565b6040516102279190611c3d565b3480156102ad57600080fd5b506102ce6102bc366004611c10565b600f6020526000908152604090205481565b604051908152602001610227565b3480156102e857600080fd5b506102f1610988565b6040516102279796959493929190611c97565b34801561031057600080fd5b5061032461031f366004611d09565b610ae8565b6040516102279190611d2b565b34801561033d57600080fd5b5061021361034c366004611c10565b610b84565b34801561035d57600080fd5b50610366610bae565b6040516102279190611d91565b34801561037f57600080fd5b50610271610cb3565b34801561039457600080fd5b5061039d610d1b565b6040516102279190611e12565b3480156103b657600080fd5b506103bf610da9565b6040516102279190611e25565b3480156103d857600080fd5b506103e1610ecc565b6040516102279190611e69565b3480156103fa57600080fd5b5060015460ff165b6040519015158152602001610227565b34801561041e57600080fd5b506102ce60095481565b34801561043457600080fd5b50610271610443366004611f4d565b610f2e565b34801561045457600080fd5b506102ce610463366004611d09565b600e6020526000908152604090205481565b34801561048157600080fd5b5061039d611113565b34801561049657600080fd5b506104026104a5366004611d09565b611120565b3480156104b657600080fd5b506104ca6104c5366004611f82565b611161565b6040805194855260208501939093529183015215156060820152608001610227565b3480156104f857600080fd5b506102716111aa565b61027161050f366004611f4d565b611210565b34801561052057600080fd5b506102ce60055481565b34801561053657600080fd5b506102ce600a5481565b34801561054c57600080fd5b50600854610213906001600160a01b031681565b34801561056c57600080fd5b5061040261057b366004611d09565b60116020526000908152604090205460ff1681565b34801561059c57600080fd5b50610271611375565b3480156105b157600080fd5b50600754610213906001600160a01b031681565b3480156105d157600080fd5b506102716105e0366004611fac565b611719565b3480156105f157600080fd5b506102ce610600366004611d09565b6118b1565b34801561061157600080fd5b506102ce600c5481565b34801561062757600080fd5b5061063b610636366004611c10565b611a20565b60405161022793929190611ff3565b34801561065657600080fd5b506102ce600b5481565b610668611ae2565b6000600854600160a81b900460ff16600381111561068857610688611be0565b146106ae5760405162461bcd60e51b81526004016106a590612018565b60405180910390fd5b60055442106106f05760405162461bcd60e51b815260206004820152600e60248201526d13585c9ad95d08195e1c1a5c995960921b60448201526064016106a5565b6106f8611b0c565b600454811061073b5760405162461bcd60e51b815260206004820152600f60248201526e496e76616c6964206f7574636f6d6560881b60448201526064016106a5565b6000341161078b5760405162461bcd60e51b815260206004820152601b60248201527f42657420616d6f756e74206d75737420626520706f736974697665000000000060448201526064016106a5565b336000908152600d602090815260408083208151608081018352348082528185018781524294830194855260608301878152845460018082018755958952969097209251600496870290930192835551928201929092559151600283015592516003909101805460ff191691151591909117905580548390811061081157610811612043565b90600052602060002090600302016001016000828254610831919061206f565b9091555050600480548290811061084a5761084a612043565b60009182526020822060026003909202010180549161086883612082565b90915550506000818152600f60205260408120805434929061088b90849061206f565b9091555050336000908152600e6020526040812080543492906108af90849061206f565b9250508190555034600960008282546108c8919061206f565b90915550503360009081526011602052604090205460ff1661093f576010805460018181019092557f1b6847dc741a1b0cd08d278845f9d819d87b734759afb55fe2de5cb82a9ae6720180546001600160a01b031916339081179091556000908152601160205260409020805460ff191690911790555b60408051348152426020820152829133917f7363e6581df4db69463222156be4a09656528b9f1302890fa4c0b60819b69fc6910160405180910390a36109856001600055565b50565b606080600080600080600060026003600954600554600860159054906101000a900460ff166010805490506004805490508680546109c59061209b565b80601f01602080910402602001604051908101604052809291908181526020018280546109f19061209b565b8015610a3e5780601f10610a1357610100808354040283529160200191610a3e565b820191906000526020600020905b815481529060010190602001808311610a2157829003601f168201915b50505050509650858054610a519061209b565b80601f0160208091040260200160405190810160405280929190818152602001828054610a7d9061209b565b8015610aca5780601f10610a9f57610100808354040283529160200191610aca565b820191906000526020600020905b815481529060010190602001808311610aad57829003601f168201915b50505050509550965096509650965096509650965090919293949596565b6001600160a01b0381166000908152600d60209081526040808320805482518185028101850190935280835260609492939192909184015b82821015610b79576000848152602090819020604080516080810182526004860290920180548352600180820154848601526002820154928401929092526003015460ff16151560608301529083529092019101610b20565b505050509050919050565b60108181548110610b9457600080fd5b6000918252602090912001546001600160a01b0316905081565b60606004805480602002602001604051908101604052809291908181526020016000905b82821015610caa5783829060005260206000209060030201604051806060016040529081600082018054610c059061209b565b80601f0160208091040260200160405190810160405280929190818152602001828054610c319061209b565b8015610c7e5780601f10610c5357610100808354040283529160200191610c7e565b820191906000526020600020905b815481529060010190602001808311610c6157829003601f168201915b505050505081526020016001820154815260200160028201548152505081526020019060010190610bd2565b50505050905090565b6006546001600160a01b0316331480610cd657506007546001600160a01b031633145b610d115760405162461bcd60e51b815260206004820152600c60248201526b155b985d5d1a1bdc9a5e995960a21b60448201526064016106a5565b610d19611b30565b565b60028054610d289061209b565b80601f0160208091040260200160405190810160405280929190818152602001828054610d549061209b565b8015610da15780601f10610d7657610100808354040283529160200191610da1565b820191906000526020600020905b815481529060010190602001808311610d8457829003601f168201915b505050505081565b60045460609060009067ffffffffffffffff811115610dca57610dca611eaa565b604051908082528060200260200182016040528015610df3578160200160208202803683370190505b509050600954600003610e515760005b600454811015610e4b57600454610e1c906127106120cf565b828281518110610e2e57610e2e612043565b602090810291909101015280610e4381612082565b915050610e03565b50919050565b60005b600454811015610e4b5760095460048281548110610e7457610e74612043565b906000526020600020906003020160010154612710610e9391906120f1565b610e9d91906120cf565b828281518110610eaf57610eaf612043565b602090810291909101015280610ec481612082565b915050610e54565b60606010805480602002602001604051908101604052809291908181526020018280548015610f2457602002820191906000526020600020905b81546001600160a01b03168152600190910190602001808311610f06575b5050505050905090565b6007546001600160a01b03163314610f7f5760405162461bcd60e51b815260206004820152601460248201527313db9b1e48199858dd1bdc9e48185b1b1bddd95960621b60448201526064016106a5565b6000600854600160a81b900460ff166003811115610f9f57610f9f611be0565b14610fbc5760405162461bcd60e51b81526004016106a590612018565b6008805460ff60a81b1916600360a81b17905560005b6010548110156110d657600060108281548110610ff157610ff1612043565b60009182526020808320909101546001600160a01b0316808352600e90915260409091205490915080156110c1576001600160a01b0382166000818152600e60205260408082208290555190919083908381818185875af1925050503d8060008114611079576040519150601f19603f3d011682016040523d82523d6000602084013e61107e565b606091505b50509050806110bf5760405162461bcd60e51b815260206004820152600d60248201526c1499599d5b990819985a5b1959609a1b60448201526064016106a5565b505b505080806110ce90612082565b915050610fd2565b507f4c4561c5b0048424071c1115e9f1e325486e21c21333d968f21097b7b72d12ad4282604051611108929190612108565b60405180910390a150565b60038054610d289061209b565b60006001600854600160a81b900460ff16600381111561114257611142611be0565b1461114f57506000919050565b600061115a836118b1565b1192915050565b600d602052816000526040600020818154811061117d57600080fd5b60009182526020909120600490910201805460018201546002830154600390930154919450925060ff1684565b6006546001600160a01b03163314806111cd57506007546001600160a01b031633145b6112085760405162461bcd60e51b815260206004820152600c60248201526b155b985d5d1a1bdc9a5e995960a21b60448201526064016106a5565b610d19611b82565b6001600854600160a81b900460ff16600381111561123057611230611be0565b146112735760405162461bcd60e51b815260206004820152601360248201527213585c9ad95d081b9bdd081c995cdbdb1d9959606a1b60448201526064016106a5565b600b546112839062093a8061206f565b4211156112cb5760405162461bcd60e51b8152602060048201526016602482015275111a5cdc1d5d19481c195c9a5bd908195e1c1a5c995960521b60448201526064016106a5565b67016345785d8a00003410156113235760405162461bcd60e51b815260206004820152601960248201527f496e73756666696369656e74206469737075746520626f6e640000000000000060448201526064016106a5565b6008805460ff60a81b1916600160a91b17905560405133907fa552416225d3047eceaa265d9762310e2fdd111aaf18a172236982ae9fadfe279061136a9042908590612108565b60405180910390a250565b61137d611ae2565b6001600854600160a81b900460ff16600381111561139d5761139d611be0565b146113e05760405162461bcd60e51b815260206004820152601360248201527213585c9ad95d081b9bdd081c995cdbdb1d9959606a1b60448201526064016106a5565b336000908152600d602052604090205461142c5760405162461bcd60e51b815260206004820152600d60248201526c139bc818995d1cc8199bdd5b99609a1b60448201526064016106a5565b6000611437336118b1565b90506000811161147f5760405162461bcd60e51b81526020600482015260136024820152724e6f207265776172647320746f20636c61696d60681b60448201526064016106a5565b60005b336000908152600d602052604090205481101561157057600a54336000908152600d602052604090208054839081106114bd576114bd612043565b9060005260206000209060040201600101541480156115115750336000908152600d602052604090208054829081106114f8576114f8612043565b600091825260209091206003600490920201015460ff16155b1561155e57336000908152600d602052604090208054600191908390811061153b5761153b612043565b60009182526020909120600490910201600301805460ff19169115159190911790555b8061156881612082565b915050611482565b506000612710600c548361158491906120f1565b61158e91906120cf565b9050600061159c8284612121565b604051909150600090339083908381818185875af1925050503d80600081146115e1576040519150601f19603f3d011682016040523d82523d6000602084013e6115e6565b606091505b50509050806116305760405162461bcd60e51b815260206004820152601660248201527514995dd85c99081d1c985b9cd9995c8819985a5b195960521b60448201526064016106a5565b82156116d1576007546040516000916001600160a01b03169085908381818185875af1925050503d8060008114611683576040519150601f19603f3d011682016040523d82523d6000602084013e611688565b606091505b50509050806116cf5760405162461bcd60e51b8152602060048201526013602482015272119959481d1c985b9cd9995c8819985a5b1959606a1b60448201526064016106a5565b505b6040805183815242602082015233917ff01da32686223933d8a18a391060918c7f11a3648639edd87ae013e2e2731743910160405180910390a250505050610d196001600055565b6008546001600160a01b031633146117695760405162461bcd60e51b815260206004820152601360248201527213db9b1e481bdc9858db1948185b1b1bddd959606a1b60448201526064016106a5565b611771611ae2565b6000600854600160a81b900460ff16600381111561179157611791611be0565b146117ae5760405162461bcd60e51b81526004016106a590612018565b6005544210156117f95760405162461bcd60e51b815260206004820152601660248201527513585c9ad95d081b9bdd08195e1c1a5c9959081e595d60521b60448201526064016106a5565b600454821061184a5760405162461bcd60e51b815260206004820152601760248201527f496e76616c69642077696e6e696e67206f7574636f6d6500000000000000000060448201526064016106a5565b6008805460ff60a81b1916600160a81b179055600a82905542600b81905560405183917f230e0c4260efa5ac59d08aaabf3711693fe4f1df54fcb28cc4981a800e5863069161189b91908590612108565b60405180910390a26118ad6001600055565b5050565b60006001600854600160a81b900460ff1660038111156118d3576118d3611be0565b146118e057506000919050565b6000805b6001600160a01b0384166000908152600d60205260409020548110156119b0576001600160a01b0384166000908152600d6020526040812080548390811061192e5761192e612043565b60009182526020918290206040805160808101825260049093029091018054835260018101549383018490526002810154918301919091526003015460ff1615156060820152600a5490925014801561198957508060600151155b1561199d57805161199a908461206f565b92505b50806119a881612082565b9150506118e4565b50806000036119c25750600092915050565b60006004600a54815481106119d9576119d9612043565b9060005260206000209060030201600101549050806000036119ff575060009392505050565b8060095483611a0e91906120f1565b611a1891906120cf565b949350505050565b60048181548110611a3057600080fd5b9060005260206000209060030201600091509050806000018054611a539061209b565b80601f0160208091040260200160405190810160405280929190818152602001828054611a7f9061209b565b8015611acc5780601f10611aa157610100808354040283529160200191611acc565b820191906000526020600020905b815481529060010190602001808311611aaf57829003601f168201915b5050505050908060010154908060020154905083565b600260005403611b0557604051633ee5aeb560e01b815260040160405180910390fd5b6002600055565b60015460ff1615610d195760405163d93c066560e01b815260040160405180910390fd5b611b38611bbd565b6001805460ff191690557f5db9ee0a495bf2e6ff9c91a7834c1ba4fdd244a5e8aa4e537bd38aeae4b073aa335b6040516001600160a01b03909116815260200160405180910390a1565b611b8a611b0c565b6001805460ff1916811790557f62e78cea01bee320cd4e420270b5ea74000d11b0c9f74754ebdbfc544b05a25833611b65565b60015460ff16610d1957604051638dfc202b60e01b815260040160405180910390fd5b634e487b7160e01b600052602160045260246000fd5b6020810160038310611c0a57611c0a611be0565b91905290565b600060208284031215611c2257600080fd5b5035919050565b60048110611c3957611c39611be0565b9052565b60208101611c4b8284611c29565b92915050565b6000815180845260005b81811015611c7757602081850181015186830182015201611c5b565b506000602082860101526020601f19601f83011685010191505092915050565b60e081526000611caa60e083018a611c51565b8281036020840152611cbc818a611c51565b915050866040830152856060830152611cd86080830186611c29565b60a082019390935260c0015295945050505050565b80356001600160a01b0381168114611d0457600080fd5b919050565b600060208284031215611d1b57600080fd5b611d2482611ced565b9392505050565b602080825282518282018190526000919060409081850190868401855b82811015611d84578151805185528681015187860152858101518686015260609081015115159085015260809093019290850190600101611d48565b5091979650505050505050565b60006020808301818452808551808352604092508286019150828160051b87010184880160005b83811015611e0457603f19898403018552815160608151818652611dde82870182611c51565b838b0151878c015292890151958901959095525094870194925090860190600101611db8565b509098975050505050505050565b602081526000611d246020830184611c51565b6020808252825182820181905260009190848201906040850190845b81811015611e5d57835183529284019291840191600101611e41565b50909695505050505050565b6020808252825182820181905260009190848201906040850190845b81811015611e5d5783516001600160a01b031683529284019291840191600101611e85565b634e487b7160e01b600052604160045260246000fd5b600082601f830112611ed157600080fd5b813567ffffffffffffffff80821115611eec57611eec611eaa565b604051601f8301601f19908116603f01168101908282118183101715611f1457611f14611eaa565b81604052838152866020858801011115611f2d57600080fd5b836020870160208301376000602085830101528094505050505092915050565b600060208284031215611f5f57600080fd5b813567ffffffffffffffff811115611f7657600080fd5b611a1884828501611ec0565b60008060408385031215611f9557600080fd5b611f9e83611ced565b946020939093013593505050565b60008060408385031215611fbf57600080fd5b82359150602083013567ffffffffffffffff811115611fdd57600080fd5b611fe985828601611ec0565b9150509250929050565b6060815260006120066060830186611c51565b60208301949094525060400152919050565b6020808252601190820152704d61726b6574206e6f742061637469766560781b604082015260600190565b634e487b7160e01b600052603260045260246000fd5b634e487b7160e01b600052601160045260246000fd5b80820180821115611c4b57611c4b612059565b60006001820161209457612094612059565b5060010190565b600181811c908216806120af57607f821691505b602082108103610e4b57634e487b7160e01b600052602260045260246000fd5b6000826120ec57634e487b7160e01b600052601260045260246000fd5b500490565b8082028115828204841417611c4b57611c4b612059565b828152604060208201526000611a186040830184611c51565b81810381811115611c4b57611c4b61205956fea26469706673582212204b17e6cf223ce5987b7a05a3f7ff56cec4333e2fa54649571f4dea8c16d53e5764736f6c63430008140033","opcodes":"PUSH1 0x80 PUSH1 0x40 MSTORE CALLVALUE DUP1 ISZERO PUSH3 0x11 JUMPI PUSH1 0x0 DUP1 REVERT JUMPDEST POP PUSH1 0x40 MLOAD PUSH3 0x280E CODESIZE SUB DUP1 PUSH3 0x280E DUP4 CODECOPY DUP2 ADD PUSH1 0x40 DUP2 SWAP1 MSTORE PUSH3 0x34 SWAP2 PUSH3 0x3FF JUMP JUMPDEST PUSH1 0x1 PUSH1 0x0 SSTORE DUP6 MLOAD PUSH1 0x2 GT ISZERO PUSH3 0x91 JUMPI PUSH1 0x40 MLOAD PUSH3 0x461BCD PUSH1 0xE5 SHL DUP2 MSTORE PUSH1 0x20 PUSH1 0x4 DUP3 ADD MSTORE PUSH1 0x18 PUSH1 0x24 DUP3 ADD MSTORE PUSH32 0x4E656564206174206C656173742032206F7574636F6D65730000000000000000 PUSH1 0x44 DUP3 ADD MSTORE PUSH1 0x64 ADD JUMPDEST PUSH1 0x40 MLOAD DUP1 SWAP2 SUB SWAP1 REVERT JUMPDEST TIMESTAMP DUP6 GT PUSH3 0xE2 JUMPI PUSH1 0x40 MLOAD PUSH3 0x461BCD PUSH1 0xE5 SHL DUP2 MSTORE PUSH1 0x20 PUSH1 0x4 DUP3 ADD MSTORE PUSH1 0x18 PUSH1 0x24 DUP3 ADD MSTORE PUSH32 0x457870697279206D75737420626520696E206675747572650000000000000000 PUSH1 0x44 DUP3 ADD MSTORE PUSH1 0x64 ADD PUSH3 0x88 JUMP JUMPDEST PUSH1 0x2 PUSH3 0xF0 DUP10 DUP3 PUSH3 0x574 JUMP JUMPDEST POP PUSH1 0x3 PUSH3 0xFF DUP9 DUP3 PUSH3 0x574 JUMP JUMPDEST POP PUSH1 0x5 DUP6 SWAP1 SSTORE PUSH1 0x6 DUP1 SLOAD PUSH1 0x1 PUSH1 0x1 PUSH1 0xA0 SHL SUB DUP1 DUP8 AND PUSH1 0x1 PUSH1 0x1 PUSH1 0xA0 SHL SUB NOT SWAP3 DUP4 AND OR SWAP1 SWAP3 SSTORE PUSH1 0x8 DUP1 SLOAD SWAP3 DUP7 AND SWAP3 SWAP1 SWAP2 AND SWAP2 SWAP1 SWAP2 OR SWAP1 SSTORE PUSH1 0xFF DUP3 AND PUSH1 0x2 DUP2 GT ISZERO PUSH3 0x14D JUMPI PUSH3 0x14D PUSH3 0x640 JUMP JUMPDEST PUSH1 0x8 DUP1 SLOAD PUSH1 0xFF PUSH1 0xA0 SHL NOT AND PUSH1 0x1 PUSH1 0xA0 SHL DUP4 PUSH1 0x2 DUP2 GT ISZERO PUSH3 0x172 JUMPI PUSH3 0x172 PUSH3 0x640 JUMP JUMPDEST MUL OR SWAP1 SSTORE POP PUSH1 0x7 DUP1 SLOAD PUSH1 0x1 PUSH1 0x1 PUSH1 0xA0 SHL SUB NOT AND PUSH1 0x1 PUSH1 0x1 PUSH1 0xA0 SHL SUB DUP4 AND OR SWAP1 SSTORE PUSH1 0x8 DUP1 SLOAD PUSH1 0xFF PUSH1 0xA8 SHL NOT AND SWAP1 SSTORE PUSH1 0xFA PUSH1 0xC SSTORE PUSH1 0x0 JUMPDEST DUP7 MLOAD DUP2 LT ISZERO PUSH3 0x241 JUMPI PUSH1 0x4 PUSH1 0x40 MLOAD DUP1 PUSH1 0x60 ADD PUSH1 0x40 MSTORE DUP1 DUP10 DUP5 DUP2 MLOAD DUP2 LT PUSH3 0x1D3 JUMPI PUSH3 0x1D3 PUSH3 0x656 JUMP JUMPDEST PUSH1 0x20 SWAP1 DUP2 MUL SWAP2 SWAP1 SWAP2 ADD DUP2 ADD MLOAD DUP3 MSTORE PUSH1 0x0 DUP3 DUP3 ADD DUP2 SWAP1 MSTORE PUSH1 0x40 SWAP1 SWAP3 ADD DUP3 SWAP1 MSTORE DUP4 SLOAD PUSH1 0x1 DUP2 ADD DUP6 SSTORE SWAP4 DUP3 MSTORE SWAP1 KECCAK256 DUP2 MLOAD SWAP2 SWAP3 PUSH1 0x3 MUL ADD SWAP1 DUP2 SWAP1 PUSH3 0x215 SWAP1 DUP3 PUSH3 0x574 JUMP JUMPDEST POP PUSH1 0x20 DUP3 ADD MLOAD PUSH1 0x1 DUP3 ADD SSTORE PUSH1 0x40 SWAP1 SWAP2 ADD MLOAD PUSH1 0x2 SWAP1 SWAP2 ADD SSTORE DUP1 PUSH3 0x238 DUP2 PUSH3 0x66C JUMP JUMPDEST SWAP2 POP POP PUSH3 0x1A7 JUMP JUMPDEST POP POP POP POP POP POP POP POP POP PUSH3 0x694 JUMP JUMPDEST PUSH4 0x4E487B71 PUSH1 0xE0 SHL PUSH1 0x0 MSTORE PUSH1 0x41 PUSH1 0x4 MSTORE PUSH1 0x24 PUSH1 0x0 REVERT JUMPDEST PUSH1 0x40 MLOAD PUSH1 0x1F DUP3 ADD PUSH1 0x1F NOT AND DUP2 ADD PUSH1 0x1 PUSH1 0x1 PUSH1 0x40 SHL SUB DUP2 GT DUP3 DUP3 LT OR ISZERO PUSH3 0x291 JUMPI PUSH3 0x291 PUSH3 0x250 JUMP JUMPDEST PUSH1 0x40 MSTORE SWAP2 SWAP1 POP JUMP JUMPDEST PUSH1 0x0 DUP3 PUSH1 0x1F DUP4 ADD SLT PUSH3 0x2AB JUMPI PUSH1 0x0 DUP1 REVERT JUMPDEST DUP2 MLOAD PUSH1 0x1 PUSH1 0x1 PUSH1 0x40 SHL SUB DUP2 GT ISZERO PUSH3 0x2C7 JUMPI PUSH3 0x2C7 PUSH3 0x250 JUMP JUMPDEST PUSH1 0x20 PUSH3 0x2DD PUSH1 0x1F DUP4 ADD PUSH1 0x1F NOT AND DUP3 ADD PUSH3 0x266 JUMP JUMPDEST DUP3 DUP2 MSTORE DUP6 DUP3 DUP5 DUP8 ADD ADD GT ISZERO PUSH3 0x2F2 JUMPI PUSH1 0x0 DUP1 REVERT JUMPDEST PUSH1 0x0 JUMPDEST DUP4 DUP2 LT ISZERO PUSH3 0x312 JUMPI DUP6 DUP2 ADD DUP4 ADD MLOAD DUP3 DUP3 ADD DUP5 ADD MSTORE DUP3 ADD PUSH3 0x2F5 JUMP JUMPDEST POP PUSH1 0x0 SWAP3 DUP2 ADD SWAP1 SWAP2 ADD SWAP2 SWAP1 SWAP2 MSTORE SWAP4 SWAP3 POP POP POP JUMP JUMPDEST PUSH1 0x0 DUP3 PUSH1 0x1F DUP4 ADD SLT PUSH3 0x338 JUMPI PUSH1 0x0 DUP1 REVERT JUMPDEST DUP2 MLOAD PUSH1 0x20 PUSH1 0x1 PUSH1 0x1 PUSH1 0x40 SHL SUB DUP1 DUP4 GT ISZERO PUSH3 0x357 JUMPI PUSH3 0x357 PUSH3 0x250 JUMP JUMPDEST DUP3 PUSH1 0x5 SHL PUSH3 0x368 DUP4 DUP3 ADD PUSH3 0x266 JUMP JUMPDEST SWAP4 DUP5 MSTORE DUP6 DUP2 ADD DUP4 ADD SWAP4 DUP4 DUP2 ADD SWAP1 DUP9 DUP7 GT ISZERO PUSH3 0x383 JUMPI PUSH1 0x0 DUP1 REVERT JUMPDEST DUP5 DUP9 ADD SWAP3 POP JUMPDEST DUP6 DUP4 LT ISZERO PUSH3 0x3C4 JUMPI DUP3 MLOAD DUP5 DUP2 GT ISZERO PUSH3 0x3A3 JUMPI PUSH1 0x0 DUP1 DUP2 REVERT JUMPDEST PUSH3 0x3B3 DUP11 DUP8 DUP4 DUP13 ADD ADD PUSH3 0x299 JUMP JUMPDEST DUP4 MSTORE POP SWAP2 DUP5 ADD SWAP2 SWAP1 DUP5 ADD SWAP1 PUSH3 0x389 JUMP JUMPDEST SWAP9 SWAP8 POP POP POP POP POP POP POP POP JUMP JUMPDEST DUP1 MLOAD PUSH1 0x1 PUSH1 0x1 PUSH1 0xA0 SHL SUB DUP2 AND DUP2 EQ PUSH3 0x3E8 JUMPI PUSH1 0x0 DUP1 REVERT JUMPDEST SWAP2 SWAP1 POP JUMP JUMPDEST DUP1 MLOAD PUSH1 0xFF DUP2 AND DUP2 EQ PUSH3 0x3E8 JUMPI PUSH1 0x0 DUP1 REVERT JUMPDEST PUSH1 0x0 DUP1 PUSH1 0x0 DUP1 PUSH1 0x0 DUP1 PUSH1 0x0 DUP1 PUSH2 0x100 DUP10 DUP12 SUB SLT ISZERO PUSH3 0x41D JUMPI PUSH1 0x0 DUP1 REVERT JUMPDEST DUP9 MLOAD PUSH1 0x1 PUSH1 0x1 PUSH1 0x40 SHL SUB DUP1 DUP3 GT ISZERO PUSH3 0x435 JUMPI PUSH1 0x0 DUP1 REVERT JUMPDEST PUSH3 0x443 DUP13 DUP4 DUP14 ADD PUSH3 0x299 JUMP JUMPDEST SWAP10 POP PUSH1 0x20 DUP12 ADD MLOAD SWAP2 POP DUP1 DUP3 GT ISZERO PUSH3 0x45A JUMPI PUSH1 0x0 DUP1 REVERT JUMPDEST PUSH3 0x468 DUP13 DUP4 DUP14 ADD PUSH3 0x299 JUMP JUMPDEST SWAP9 POP PUSH1 0x40 DUP12 ADD MLOAD SWAP2 POP DUP1 DUP3 GT ISZERO PUSH3 0x47F JUMPI PUSH1 0x0 DUP1 REVERT JUMPDEST POP PUSH3 0x48E DUP12 DUP3 DUP13 ADD PUSH3 0x326 JUMP JUMPDEST SWAP7 POP POP PUSH1 0x60 DUP10 ADD MLOAD SWAP5 POP PUSH3 0x4A6 PUSH1 0x80 DUP11 ADD PUSH3 0x3D0 JUMP JUMPDEST SWAP4 POP PUSH3 0x4B6 PUSH1 0xA0 DUP11 ADD PUSH3 0x3D0 JUMP JUMPDEST SWAP3 POP PUSH3 0x4C6 PUSH1 0xC0 DUP11 ADD PUSH3 0x3ED JUMP JUMPDEST SWAP2 POP PUSH3 0x4D6 PUSH1 0xE0 DUP11 ADD PUSH3 0x3D0 JUMP JUMPDEST SWAP1 POP SWAP3 SWAP6 SWAP9 POP SWAP3 SWAP6 SWAP9 SWAP1 SWAP4 SWAP7 POP JUMP JUMPDEST PUSH1 0x1 DUP2 DUP2 SHR SWAP1 DUP3 AND DUP1 PUSH3 0x4FA JUMPI PUSH1 0x7F DUP3 AND SWAP2 POP JUMPDEST PUSH1 0x20 DUP3 LT DUP2 SUB PUSH3 0x51B JUMPI PUSH4 0x4E487B71 PUSH1 0xE0 SHL PUSH1 0x0 MSTORE PUSH1 0x22 PUSH1 0x4 MSTORE PUSH1 0x24 PUSH1 0x0 REVERT JUMPDEST POP SWAP2 SWAP1 POP JUMP JUMPDEST PUSH1 0x1F DUP3 GT ISZERO PUSH3 0x56F JUMPI PUSH1 0x0 DUP2 DUP2 MSTORE PUSH1 0x20 DUP2 KECCAK256 PUSH1 0x1F DUP6 ADD PUSH1 0x5 SHR DUP2 ADD PUSH1 0x20 DUP7 LT ISZERO PUSH3 0x54A JUMPI POP DUP1 JUMPDEST PUSH1 0x1F DUP6 ADD PUSH1 0x5 SHR DUP3 ADD SWAP2 POP JUMPDEST DUP2 DUP2 LT ISZERO PUSH3 0x56B JUMPI DUP3 DUP2 SSTORE PUSH1 0x1 ADD PUSH3 0x556 JUMP JUMPDEST POP POP POP JUMPDEST POP POP POP JUMP JUMPDEST DUP2 MLOAD PUSH1 0x1 PUSH1 0x1 PUSH1 0x40 SHL SUB DUP2 GT ISZERO PUSH3 0x590 JUMPI PUSH3 0x590 PUSH3 0x250 JUMP JUMPDEST PUSH3 0x5A8 DUP2 PUSH3 0x5A1 DUP5 SLOAD PUSH3 0x4E5 JUMP JUMPDEST DUP5 PUSH3 0x521 JUMP JUMPDEST PUSH1 0x20 DUP1 PUSH1 0x1F DUP4 GT PUSH1 0x1 DUP2 EQ PUSH3 0x5E0 JUMPI PUSH1 0x0 DUP5 ISZERO PUSH3 0x5C7 JUMPI POP DUP6 DUP4 ADD MLOAD JUMPDEST PUSH1 0x0 NOT PUSH1 0x3 DUP7 SWAP1 SHL SHR NOT AND PUSH1 0x1 DUP6 SWAP1 SHL OR DUP6 SSTORE PUSH3 0x56B JUMP JUMPDEST PUSH1 0x0 DUP6 DUP2 MSTORE PUSH1 0x20 DUP2 KECCAK256 PUSH1 0x1F NOT DUP7 AND SWAP2 JUMPDEST DUP3 DUP2 LT ISZERO PUSH3 0x611 JUMPI DUP9 DUP7 ADD MLOAD DUP3 SSTORE SWAP5 DUP5 ADD SWAP5 PUSH1 0x1 SWAP1 SWAP2 ADD SWAP1 DUP5 ADD PUSH3 0x5F0 JUMP JUMPDEST POP DUP6 DUP3 LT ISZERO PUSH3 0x630 JUMPI DUP8 DUP6 ADD MLOAD PUSH1 0x0 NOT PUSH1 0x3 DUP9 SWAP1 SHL PUSH1 0xF8 AND SHR NOT AND DUP2 SSTORE JUMPDEST POP POP POP POP POP PUSH1 0x1 SWAP1 DUP2 SHL ADD SWAP1 SSTORE POP JUMP JUMPDEST PUSH4 0x4E487B71 PUSH1 0xE0 SHL PUSH1 0x0 MSTORE PUSH1 0x21 PUSH1 0x4 MSTORE PUSH1 0x24 PUSH1 0x0 REVERT JUMPDEST PUSH4 0x4E487B71 PUSH1 0xE0 SHL PUSH1 0x0 MSTORE PUSH1 0x32 PUSH1 0x4 MSTORE PUSH1 0x24 PUSH1 0x0 REVERT JUMPDEST PUSH1 0x0 PUSH1 0x1 DUP3 ADD PUSH3 0x68D JUMPI PUSH4 0x4E487B71 PUSH1 0xE0 SHL PUSH1 0x0 MSTORE PUSH1 0x11 PUSH1 0x4 MSTORE PUSH1 0x24 PUSH1 0x0 REVERT JUMPDEST POP PUSH1 0x1 ADD SWAP1 JUMP JUMPDEST PUSH2 0x216A DUP1 PUSH3 0x6A4 PUSH1 0x0 CODECOPY PUSH1 0x0 RETURN INVALID PUSH1 0x80 PUSH1 0x40 MSTORE PUSH1 0x4 CALLDATASIZE LT PUSH2 0x1EE JUMPI PUSH1 0x0 CALLDATALOAD PUSH1 0xE0 SHR DUP1 PUSH4 0x719DE1EF GT PUSH2 0x10D JUMPI DUP1 PUSH4 0xA89AE4BA GT PUSH2 0xA0 JUMPI DUP1 PUSH4 0xC75BB724 GT PUSH2 0x6F JUMPI DUP1 PUSH4 0xC75BB724 EQ PUSH2 0x5C5 JUMPI DUP1 PUSH4 0xCF2B9F48 EQ PUSH2 0x5E5 JUMPI DUP1 PUSH4 0xEECA08F0 EQ PUSH2 0x605 JUMPI DUP1 PUSH4 0xEED2A147 EQ PUSH2 0x61B JUMPI DUP1 PUSH4 0xF3E41E90 EQ PUSH2 0x64A JUMPI PUSH1 0x0 DUP1 REVERT JUMPDEST DUP1 PUSH4 0xA89AE4BA EQ PUSH2 0x540 JUMPI DUP1 PUSH4 0xB4FB3EE3 EQ PUSH2 0x560 JUMPI DUP1 PUSH4 0xB88A802F EQ PUSH2 0x590 JUMPI DUP1 PUSH4 0xC45A0155 EQ PUSH2 0x5A5 JUMPI PUSH1 0x0 DUP1 REVERT JUMPDEST DUP1 PUSH4 0x8456CB59 GT PUSH2 0xDC JUMPI DUP1 PUSH4 0x8456CB59 EQ PUSH2 0x4EC JUMPI DUP1 PUSH4 0x87ABAC11 EQ PUSH2 0x501 JUMPI DUP1 PUSH4 0x99BC0AEA EQ PUSH2 0x514 JUMPI DUP1 PUSH4 0x9B34AE03 EQ PUSH2 0x52A JUMPI PUSH1 0x0 DUP1 REVERT JUMPDEST DUP1 PUSH4 0x719DE1EF EQ PUSH2 0x448 JUMPI DUP1 PUSH4 0x7284E416 EQ PUSH2 0x475 JUMPI DUP1 PUSH4 0x8029C071 EQ PUSH2 0x48A JUMPI DUP1 PUSH4 0x8068AA68 EQ PUSH2 0x4AA JUMPI PUSH1 0x0 DUP1 REVERT JUMPDEST DUP1 PUSH4 0x3D3DB8EB GT PUSH2 0x185 JUMPI DUP1 PUSH4 0x5AA68AC0 GT PUSH2 0x154 JUMPI DUP1 PUSH4 0x5AA68AC0 EQ PUSH2 0x3CC JUMPI DUP1 PUSH4 0x5C975ABB EQ PUSH2 0x3EE JUMPI DUP1 PUSH4 0x5F81A57C EQ PUSH2 0x412 JUMPI DUP1 PUSH4 0x64FF1CB3 EQ PUSH2 0x428 JUMPI PUSH1 0x0 DUP1 REVERT JUMPDEST DUP1 PUSH4 0x3D3DB8EB EQ PUSH2 0x351 JUMPI DUP1 PUSH4 0x3F4BA83A EQ PUSH2 0x373 JUMPI DUP1 PUSH4 0x4A79D50C EQ PUSH2 0x388 JUMPI DUP1 PUSH4 0x4C5BE574 EQ PUSH2 0x3AA JUMPI PUSH1 0x0 DUP1 REVERT JUMPDEST DUP1 PUSH4 0x20FDFC9B GT PUSH2 0x1C1 JUMPI DUP1 PUSH4 0x20FDFC9B EQ PUSH2 0x2A1 JUMPI DUP1 PUSH4 0x23341A05 EQ PUSH2 0x2DC JUMPI DUP1 PUSH4 0x2D56657D EQ PUSH2 0x304 JUMPI DUP1 PUSH4 0x35C1D349 EQ PUSH2 0x331 JUMPI PUSH1 0x0 DUP1 REVERT JUMPDEST DUP1 PUSH4 0x2D05D3F EQ PUSH2 0x1F3 JUMPI DUP1 PUSH4 0xD623E10 EQ PUSH2 0x230 JUMPI DUP1 PUSH4 0x10FE7C48 EQ PUSH2 0x25E JUMPI DUP1 PUSH4 0x200D2ED2 EQ PUSH2 0x273 JUMPI JUMPDEST PUSH1 0x0 DUP1 REVERT JUMPDEST CALLVALUE DUP1 ISZERO PUSH2 0x1FF JUMPI PUSH1 0x0 DUP1 REVERT JUMPDEST POP PUSH1 0x6 SLOAD PUSH2 0x213 SWAP1 PUSH1 0x1 PUSH1 0x1 PUSH1 0xA0 SHL SUB AND DUP2 JUMP JUMPDEST PUSH1 0x40 MLOAD PUSH1 0x1 PUSH1 0x1 PUSH1 0xA0 SHL SUB SWAP1 SWAP2 AND DUP2 MSTORE PUSH1 0x20 ADD JUMPDEST PUSH1 0x40 MLOAD DUP1 SWAP2 SUB SWAP1 RETURN JUMPDEST CALLVALUE DUP1 ISZERO PUSH2 0x23C JUMPI PUSH1 0x0 DUP1 REVERT JUMPDEST POP PUSH1 0x8 SLOAD PUSH2 0x251 SWAP1 PUSH1 0x1 PUSH1 0xA0 SHL SWAP1 DIV PUSH1 0xFF AND DUP2 JUMP JUMPDEST PUSH1 0x40 MLOAD PUSH2 0x227 SWAP2 SWAP1 PUSH2 0x1BF6 JUMP JUMPDEST PUSH2 0x271 PUSH2 0x26C CALLDATASIZE PUSH1 0x4 PUSH2 0x1C10 JUMP JUMPDEST PUSH2 0x660 JUMP JUMPDEST STOP JUMPDEST CALLVALUE DUP1 ISZERO PUSH2 0x27F JUMPI PUSH1 0x0 DUP1 REVERT JUMPDEST POP PUSH1 0x8 SLOAD PUSH2 0x294 SWAP1 PUSH1 0x1 PUSH1 0xA8 SHL SWAP1 DIV PUSH1 0xFF AND DUP2 JUMP JUMPDEST PUSH1 0x40 MLOAD PUSH2 0x227 SWAP2 SWAP1 PUSH2 0x1C3D JUMP JUMPDEST CALLVALUE DUP1 ISZERO PUSH2 0x2AD JUMPI PUSH1 0x0 DUP1 REVERT JUMPDEST POP PUSH2 0x2CE PUSH2 0x2BC CALLDATASIZE PUSH1 0x4 PUSH2 0x1C10 JUMP JUMPDEST PUSH1 0xF PUSH1 0x20 MSTORE PUSH1 0x0 SWAP1 DUP2 MSTORE PUSH1 0x40 SWAP1 KECCAK256 SLOAD DUP2 JUMP JUMPDEST PUSH1 0x40 MLOAD SWAP1 DUP2 MSTORE PUSH1 0x20 ADD PUSH2 0x227 JUMP JUMPDEST CALLVALUE DUP1 ISZERO PUSH2 0x2E8 JUMPI PUSH1 0x0 DUP1 REVERT JUMPDEST POP PUSH2 0x2F1 PUSH2 0x988 JUMP JUMPDEST PUSH1 0x40 MLOAD PUSH2 0x227 SWAP8 SWAP7 SWAP6 SWAP5 SWAP4 SWAP3 SWAP2 SWAP1 PUSH2 0x1C97 JUMP JUMPDEST CALLVALUE DUP1 ISZERO PUSH2 0x310 JUMPI PUSH1 0x0 DUP1 REVERT JUMPDEST POP PUSH2 0x324 PUSH2 0x31F CALLDATASIZE PUSH1 0x4 PUSH2 0x1D09 JUMP JUMPDEST PUSH2 0xAE8 JUMP JUMPDEST PUSH1 0x40 MLOAD PUSH2 0x227 SWAP2 SWAP1 PUSH2 0x1D2B JUMP JUMPDEST CALLVALUE DUP1 ISZERO PUSH2 0x33D JUMPI PUSH1 0x0 DUP1 REVERT JUMPDEST POP PUSH2 0x213 PUSH2 0x34C CALLDATASIZE PUSH1 0x4 PUSH2 0x1C10 JUMP JUMPDEST PUSH2 0xB84 JUMP JUMPDEST CALLVALUE DUP1 ISZERO PUSH2 0x35D JUMPI PUSH1 0x0 DUP1 REVERT JUMPDEST POP PUSH2 0x366 PUSH2 0xBAE JUMP JUMPDEST PUSH1 0x40 MLOAD PUSH2 0x227 SWAP2 SWAP1 PUSH2 0x1D91 JUMP JUMPDEST CALLVALUE DUP1 ISZERO PUSH2 0x37F JUMPI PUSH1 0x0 DUP1 REVERT JUMPDEST POP PUSH2 0x271 PUSH2 0xCB3 JUMP JUMPDEST CALLVALUE DUP1 ISZERO PUSH2 0x394 JUMPI PUSH1 0x0 DUP1 REVERT JUMPDEST POP PUSH2 0x39D PUSH2 0xD1B JUMP JUMPDEST PUSH1 0x40 MLOAD PUSH2 0x227 SWAP2 SWAP1 PUSH2 0x1E12 JUMP JUMPDEST CALLVALUE DUP1 ISZERO PUSH2 0x3B6 JUMPI PUSH1 0x0 DUP1 REVERT JUMPDEST POP PUSH2 0x3BF PUSH2 0xDA9 JUMP JUMPDEST PUSH1 0x40 MLOAD PUSH2 0x227 SWAP2 SWAP1 PUSH2 0x1E25 JUMP JUMPDEST CALLVALUE DUP1 ISZERO PUSH2 0x3D8 JUMPI PUSH1 0x0 DUP1 REVERT JUMPDEST POP PUSH2 0x3E1 PUSH2 0xECC JUMP JUMPDEST PUSH1 0x40 MLOAD PUSH2 0x227 SWAP2 SWAP1 PUSH2 0x1E69 JUMP JUMPDEST CALLVALUE DUP1 ISZERO PUSH2 0x3FA JUMPI PUSH1 0x0 DUP1 REVERT JUMPDEST POP PUSH1 0x1 SLOAD PUSH1 0xFF AND JUMPDEST PUSH1 0x40 MLOAD SWAP1 ISZERO ISZERO DUP2 MSTORE PUSH1 0x20 ADD PUSH2 0x227 JUMP JUMPDEST CALLVALUE DUP1 ISZERO PUSH2 0x41E JUMPI PUSH1 0x0 DUP1 REVERT JUMPDEST POP PUSH2 0x2CE PUSH1 0x9 SLOAD DUP2 JUMP JUMPDEST CALLVALUE DUP1 ISZERO PUSH2 0x434 JUMPI PUSH1 0x0 DUP1 REVERT JUMPDEST POP PUSH2 0x271 PUSH2 0x443 CALLDATASIZE PUSH1 0x4 PUSH2 0x1F4D JUMP JUMPDEST PUSH2 0xF2E JUMP JUMPDEST CALLVALUE DUP1 ISZERO PUSH2 0x454 JUMPI PUSH1 0x0 DUP1 REVERT JUMPDEST POP PUSH2 0x2CE PUSH2 0x463 CALLDATASIZE PUSH1 0x4 PUSH2 0x1D09 JUMP JUMPDEST PUSH1 0xE PUSH1 0x20 MSTORE PUSH1 0x0 SWAP1 DUP2 MSTORE PUSH1 0x40 SWAP1 KECCAK256 SLOAD DUP2 JUMP JUMPDEST CALLVALUE DUP1 ISZERO PUSH2 0x481 JUMPI PUSH1 0x0 DUP1 REVERT JUMPDEST POP PUSH2 0x39D PUSH2 0x1113 JUMP JUMPDEST CALLVALUE DUP1 ISZERO PUSH2 0x496 JUMPI PUSH1 0x0 DUP1 REVERT JUMPDEST POP PUSH2 0x402 PUSH2 0x4A5 CALLDATASIZE PUSH1 0x4 PUSH2 0x1D09 JUMP JUMPDEST PUSH2 0x1120 JUMP JUMPDEST CALLVALUE DUP1 ISZERO PUSH2 0x4B6 JUMPI PUSH1 0x0 DUP1 REVERT JUMPDEST POP PUSH2 0x4CA PUSH2 0x4C5 CALLDATASIZE PUSH1 0x4 PUSH2 0x1F82 JUMP JUMPDEST PUSH2 0x1161 JUMP JUMPDEST PUSH1 0x40 DUP1 MLOAD SWAP5 DUP6 MSTORE PUSH1 0x20 DUP6 ADD SWAP4 SWAP1 SWAP4 MSTORE SWAP2 DUP4 ADD MSTORE ISZERO ISZERO PUSH1 0x60 DUP3 ADD MSTORE PUSH1 0x80 ADD PUSH2 0x227 JUMP JUMPDEST CALLVALUE DUP1 ISZERO PUSH2 0x4F8 JUMPI PUSH1 0x0 DUP1 REVERT JUMPDEST POP PUSH2 0x271 PUSH2 0x11AA JUMP JUMPDEST PUSH2 0x271 PUSH2 0x50F CALLDATASIZE PUSH1 0x4 PUSH2 0x1F4D JUMP JUMPDEST PUSH2 0x1210 JUMP JUMPDEST CALLVALUE DUP1 ISZERO PUSH2 0x520 JUMPI PUSH1 0x0 DUP1 REVERT JUMPDEST POP PUSH2 0x2CE PUSH1 0x5 SLOAD DUP2 JUMP JUMPDEST CALLVALUE DUP1 ISZERO PUSH2 0x536 JUMPI PUSH1 0x0 DUP1 REVERT JUMPDEST POP PUSH2 0x2CE PUSH1 0xA SLOAD DUP2 JUMP JUMPDEST CALLVALUE DUP1 ISZERO PUSH2 0x54C JUMPI PUSH1 0x0 DUP1 REVERT JUMPDEST POP PUSH1 0x8 SLOAD PUSH2 0x213 SWAP1 PUSH1 0x1 PUSH1 0x1 PUSH1 0xA0 SHL SUB AND DUP2 JUMP JUMPDEST CALLVALUE DUP1 ISZERO PUSH2 0x56C JUMPI PUSH1 0x0 DUP1 REVERT JUMPDEST POP PUSH2 0x402 PUSH2 0x57B CALLDATASIZE PUSH1 0x4 PUSH2 0x1D09 JUMP JUMPDEST PUSH1 0x11 PUSH1 0x20 MSTORE PUSH1 0x0 SWAP1 DUP2 MSTORE PUSH1 0x40 SWAP1 KECCAK256 SLOAD PUSH1 0xFF AND DUP2 JUMP JUMPDEST CALLVALUE DUP1 ISZERO PUSH2 0x59C JUMPI PUSH1 0x0 DUP1 REVERT JUMPDEST POP PUSH2 0x271 PUSH2 0x1375 JUMP JUMPDEST CALLVALUE DUP1 ISZERO PUSH2 0x5B1 JUMPI PUSH1 0x0 DUP1 REVERT JUMPDEST POP PUSH1 0x7 SLOAD PUSH2 0x213 SWAP1 PUSH1 0x1 PUSH1 0x1 PUSH1 0xA0 SHL SUB AND DUP2 JUMP JUMPDEST CALLVALUE DUP1 ISZERO PUSH2 0x5D1 JUMPI PUSH1 0x0 DUP1 REVERT JUMPDEST POP PUSH2 0x271 PUSH2 0x5E0 CALLDATASIZE PUSH1 0x4 PUSH2 0x1FAC JUMP JUMPDEST PUSH2 0x1719 JUMP JUMPDEST CALLVALUE DUP1 ISZERO PUSH2 0x5F1 JUMPI PUSH1 0x0 DUP1 REVERT JUMPDEST POP PUSH2 0x2CE PUSH2 0x600 CALLDATASIZE PUSH1 0x4 PUSH2 0x1D09 JUMP JUMPDEST PUSH2 0x18B1 JUMP JUMPDEST CALLVALUE DUP1 ISZERO PUSH2 0x611 JUMPI PUSH1 0x0 DUP1 REVERT JUMPDEST POP PUSH2 0x2CE PUSH1 0xC SLOAD DUP2 JUMP JUMPDEST CALLVALUE DUP1 ISZERO PUSH2 0x627 JUMPI PUSH1 0x0 DUP1 REVERT JUMPDEST POP PUSH2 0x63B PUSH2 0x636 CALLDATASIZE PUSH1 0x4 PUSH2 0x1C10 JUMP JUMPDEST PUSH2 0x1A20 JUMP JUMPDEST PUSH1 0x40 MLOAD PUSH2 0x227 SWAP4 SWAP3 SWAP2 SWAP1 PUSH2 0x1FF3 JUMP JUMPDEST CALLVALUE DUP1 ISZERO PUSH2 0x656 JUMPI PUSH1 0x0 DUP1 REVERT JUMPDEST POP PUSH2 0x2CE PUSH1 0xB SLOAD DUP2 JUMP JUMPDEST PUSH2 0x668 PUSH2 0x1AE2 JUMP JUMPDEST PUSH1 0x0 PUSH1 0x8 SLOAD PUSH1 0x1 PUSH1 0xA8 SHL SWAP1 DIV PUSH1 0xFF AND PUSH1 0x3 DUP2 GT ISZERO PUSH2 0x688 JUMPI PUSH2 0x688 PUSH2 0x1BE0 JUMP JUMPDEST EQ PUSH2 0x6AE JUMPI PUSH1 0x40 MLOAD PUSH3 0x461BCD PUSH1 0xE5 SHL DUP2 MSTORE PUSH1 0x4 ADD PUSH2 0x6A5 SWAP1 PUSH2 0x2018 JUMP JUMPDEST PUSH1 0x40 MLOAD DUP1 SWAP2 SUB SWAP1 REVERT JUMPDEST PUSH1 0x5 SLOAD TIMESTAMP LT PUSH2 0x6F0 JUMPI PUSH1 0x40 MLOAD PUSH3 0x461BCD PUSH1 0xE5 SHL DUP2 MSTORE PUSH1 0x20 PUSH1 0x4 DUP3 ADD MSTORE PUSH1 0xE PUSH1 0x24 DUP3 ADD MSTORE PUSH14 0x13585C9AD95D08195E1C1A5C9959 PUSH1 0x92 SHL PUSH1 0x44 DUP3 ADD MSTORE PUSH1 0x64 ADD PUSH2 0x6A5 JUMP JUMPDEST PUSH2 0x6F8 PUSH2 0x1B0C JUMP JUMPDEST PUSH1 0x4 SLOAD DUP2 LT PUSH2 0x73B JUMPI PUSH1 0x40 MLOAD PUSH3 0x461BCD PUSH1 0xE5 SHL DUP2 MSTORE PUSH1 0x20 PUSH1 0x4 DUP3 ADD MSTORE PUSH1 0xF PUSH1 0x24 DUP3 ADD MSTORE PUSH15 0x496E76616C6964206F7574636F6D65 PUSH1 0x88 SHL PUSH1 0x44 DUP3 ADD MSTORE PUSH1 0x64 ADD PUSH2 0x6A5 JUMP JUMPDEST PUSH1 0x0 CALLVALUE GT PUSH2 0x78B JUMPI PUSH1 0x40 MLOAD PUSH3 0x461BCD PUSH1 0xE5 SHL DUP2 MSTORE PUSH1 0x20 PUSH1 0x4 DUP3 ADD MSTORE PUSH1 0x1B PUSH1 0x24 DUP3 ADD MSTORE PUSH32 0x42657420616D6F756E74206D75737420626520706F7369746976650000000000 PUSH1 0x44 DUP3 ADD MSTORE PUSH1 0x64 ADD PUSH2 0x6A5 JUMP JUMPDEST CALLER PUSH1 0x0 SWAP1 DUP2 MSTORE PUSH1 0xD PUSH1 0x20 SWAP1 DUP2 MSTORE PUSH1 0x40 DUP1 DUP4 KECCAK256 DUP2 MLOAD PUSH1 0x80 DUP2 ADD DUP4 MSTORE CALLVALUE DUP1 DUP3 MSTORE DUP2 DUP6 ADD DUP8 DUP2 MSTORE TIMESTAMP SWAP5 DUP4 ADD SWAP5 DUP6 MSTORE PUSH1 0x60 DUP4 ADD DUP8 DUP2 MSTORE DUP5 SLOAD PUSH1 0x1 DUP1 DUP3 ADD DUP8 SSTORE SWAP6 DUP10 MSTORE SWAP7 SWAP1 SWAP8 KECCAK256 SWAP3 MLOAD PUSH1 0x4 SWAP7 DUP8 MUL SWAP1 SWAP4 ADD SWAP3 DUP4 SSTORE MLOAD SWAP3 DUP3 ADD SWAP3 SWAP1 SWAP3 SSTORE SWAP2 MLOAD PUSH1 0x2 DUP4 ADD SSTORE SWAP3 MLOAD PUSH1 0x3 SWAP1 SWAP2 ADD DUP1 SLOAD PUSH1 0xFF NOT AND SWAP2 ISZERO ISZERO SWAP2 SWAP1 SWAP2 OR SWAP1 SSTORE DUP1 SLOAD DUP4 SWAP1 DUP2 LT PUSH2 0x811 JUMPI PUSH2 0x811 PUSH2 0x2043 JUMP JUMPDEST SWAP1 PUSH1 0x0 MSTORE PUSH1 0x20 PUSH1 0x0 KECCAK256 SWAP1 PUSH1 0x3 MUL ADD PUSH1 0x1 ADD PUSH1 0x0 DUP3 DUP3 SLOAD PUSH2 0x831 SWAP2 SWAP1 PUSH2 0x206F JUMP JUMPDEST SWAP1 SWAP2 SSTORE POP POP PUSH1 0x4 DUP1 SLOAD DUP3 SWAP1 DUP2 LT PUSH2 0x84A JUMPI PUSH2 0x84A PUSH2 0x2043 JUMP JUMPDEST PUSH1 0x0 SWAP2 DUP3 MSTORE PUSH1 0x20 DUP3 KECCAK256 PUSH1 0x2 PUSH1 0x3 SWAP1 SWAP3 MUL ADD ADD DUP1 SLOAD SWAP2 PUSH2 0x868 DUP4 PUSH2 0x2082 JUMP JUMPDEST SWAP1 SWAP2 SSTORE POP POP PUSH1 0x0 DUP2 DUP2 MSTORE PUSH1 0xF PUSH1 0x20 MSTORE PUSH1 0x40 DUP2 KECCAK256 DUP1 SLOAD CALLVALUE SWAP3 SWAP1 PUSH2 0x88B SWAP1 DUP5 SWAP1 PUSH2 0x206F JUMP JUMPDEST SWAP1 SWAP2 SSTORE POP POP CALLER PUSH1 0x0 SWAP1 DUP2 MSTORE PUSH1 0xE PUSH1 0x20 MSTORE PUSH1 0x40 DUP2 KECCAK256 DUP1 SLOAD CALLVALUE SWAP3 SWAP1 PUSH2 0x8AF SWAP1 DUP5 SWAP1 PUSH2 0x206F JUMP JUMPDEST SWAP3 POP POP DUP2 SWAP1 SSTORE POP CALLVALUE PUSH1 0x9 PUSH1 0x0 DUP3 DUP3 SLOAD PUSH2 0x8C8 SWAP2 SWAP1 PUSH2 0x206F JUMP JUMPDEST SWAP1 SWAP2 SSTORE POP POP CALLER PUSH1 0x0 SWAP1 DUP2 MSTORE PUSH1 0x11 PUSH1 0x20 MSTORE PUSH1 0x40 SWAP1 KECCAK256 SLOAD PUSH1 0xFF AND PUSH2 0x93F JUMPI PUSH1 0x10 DUP1 SLOAD PUSH1 0x1 DUP2 DUP2 ADD SWAP1 SWAP3 SSTORE PUSH32 0x1B6847DC741A1B0CD08D278845F9D819D87B734759AFB55FE2DE5CB82A9AE672 ADD DUP1 SLOAD PUSH1 0x1 PUSH1 0x1 PUSH1 0xA0 SHL SUB NOT AND CALLER SWAP1 DUP2 OR SWAP1 SWAP2 SSTORE PUSH1 0x0 SWAP1 DUP2 MSTORE PUSH1 0x11 PUSH1 0x20 MSTORE PUSH1 0x40 SWAP1 KECCAK256 DUP1 SLOAD PUSH1 0xFF NOT AND SWAP1 SWAP2 OR SWAP1 SSTORE JUMPDEST PUSH1 0x40 DUP1 MLOAD CALLVALUE DUP2 MSTORE TIMESTAMP PUSH1 0x20 DUP3 ADD MSTORE DUP3 SWAP2 CALLER SWAP2 PUSH32 0x7363E6581DF4DB69463222156BE4A09656528B9F1302890FA4C0B60819B69FC6 SWAP2 ADD PUSH1 0x40 MLOAD DUP1 SWAP2 SUB SWAP1 LOG3 PUSH2 0x985 PUSH1 0x1 PUSH1 0x0 SSTORE JUMP JUMPDEST POP JUMP JUMPDEST PUSH1 0x60 DUP1 PUSH1 0x0 DUP1 PUSH1 0x0 DUP1 PUSH1 0x0 PUSH1 0x2 PUSH1 0x3 PUSH1 0x9 SLOAD PUSH1 0x5 SLOAD PUSH1 0x8 PUSH1 0x15 SWAP1 SLOAD SWAP1 PUSH2 0x100 EXP SWAP1 DIV PUSH1 0xFF AND PUSH1 0x10 DUP1 SLOAD SWAP1 POP PUSH1 0x4 DUP1 SLOAD SWAP1 POP DUP7 DUP1 SLOAD PUSH2 0x9C5 SWAP1 PUSH2 0x209B JUMP JUMPDEST DUP1 PUSH1 0x1F ADD PUSH1 0x20 DUP1 SWAP2 DIV MUL PUSH1 0x20 ADD PUSH1 0x40 MLOAD SWAP1 DUP2 ADD PUSH1 0x40 MSTORE DUP1 SWAP3 SWAP2 SWAP1 DUP2 DUP2 MSTORE PUSH1 0x20 ADD DUP3 DUP1 SLOAD PUSH2 0x9F1 SWAP1 PUSH2 0x209B JUMP JUMPDEST DUP1 ISZERO PUSH2 0xA3E JUMPI DUP1 PUSH1 0x1F LT PUSH2 0xA13 JUMPI PUSH2 0x100 DUP1 DUP4 SLOAD DIV MUL DUP4 MSTORE SWAP2 PUSH1 0x20 ADD SWAP2 PUSH2 0xA3E JUMP JUMPDEST DUP3 ADD SWAP2 SWAP1 PUSH1 0x0 MSTORE PUSH1 0x20 PUSH1 0x0 KECCAK256 SWAP1 JUMPDEST DUP2 SLOAD DUP2 MSTORE SWAP1 PUSH1 0x1 ADD SWAP1 PUSH1 0x20 ADD DUP1 DUP4 GT PUSH2 0xA21 JUMPI DUP3 SWAP1 SUB PUSH1 0x1F AND DUP3 ADD SWAP2 JUMPDEST POP POP POP POP POP SWAP7 POP DUP6 DUP1 SLOAD PUSH2 0xA51 SWAP1 PUSH2 0x209B JUMP JUMPDEST DUP1 PUSH1 0x1F ADD PUSH1 0x20 DUP1 SWAP2 DIV MUL PUSH1 0x20 ADD PUSH1 0x40 MLOAD SWAP1 DUP2 ADD PUSH1 0x40 MSTORE DUP1 SWAP3 SWAP2 SWAP1 DUP2 DUP2 MSTORE PUSH1 0x20 ADD DUP3 DUP1 SLOAD PUSH2 0xA7D SWAP1 PUSH2 0x209B JUMP JUMPDEST DUP1 ISZERO PUSH2 0xACA JUMPI DUP1 PUSH1 0x1F LT PUSH2 0xA9F JUMPI PUSH2 0x100 DUP1 DUP4 SLOAD DIV MUL DUP4 MSTORE SWAP2 PUSH1 0x20 ADD SWAP2 PUSH2 0xACA JUMP JUMPDEST DUP3 ADD SWAP2 SWAP1 PUSH1 0x0 MSTORE PUSH1 0x20 PUSH1 0x0 KECCAK256 SWAP1 JUMPDEST DUP2 SLOAD DUP2 MSTORE SWAP1 PUSH1 0x1 ADD SWAP1 PUSH1 0x20 ADD DUP1 DUP4 GT PUSH2 0xAAD JUMPI DUP3 SWAP1 SUB PUSH1 0x1F AND DUP3 ADD SWAP2 JUMPDEST POP POP POP POP POP SWAP6 POP SWAP7 POP SWAP7 POP SWAP7 POP SWAP7 POP SWAP7 POP SWAP7 POP SWAP7 POP SWAP1 SWAP2 SWAP3 SWAP4 SWAP5 SWAP6 SWAP7 JUMP JUMPDEST PUSH1 0x1 PUSH1 0x1 PUSH1 0xA0 SHL SUB DUP2 AND PUSH1 0x0 SWAP1 DUP2 MSTORE PUSH1 0xD PUSH1 0x20 SWAP1 DUP2 MSTORE PUSH1 0x40 DUP1 DUP4 KECCAK256 DUP1 SLOAD DUP3 MLOAD DUP2 DUP6 MUL DUP2 ADD DUP6 ADD SWAP1 SWAP4 MSTORE DUP1 DUP4 MSTORE PUSH1 0x60 SWAP5 SWAP3 SWAP4 SWAP2 SWAP3 SWAP1 SWAP2 DUP5 ADD JUMPDEST DUP3 DUP3 LT ISZERO PUSH2 0xB79 JUMPI PUSH1 0x0 DUP5 DUP2 MSTORE PUSH1 0x20 SWAP1 DUP2 SWAP1 KECCAK256 PUSH1 0x40 DUP1 MLOAD PUSH1 0x80 DUP2 ADD DUP3 MSTORE PUSH1 0x4 DUP7 MUL SWAP1 SWAP3 ADD DUP1 SLOAD DUP4 MSTORE PUSH1 0x1 DUP1 DUP3 ADD SLOAD DUP5 DUP7 ADD MSTORE PUSH1 0x2 DUP3 ADD SLOAD SWAP3 DUP5 ADD SWAP3 SWAP1 SWAP3 MSTORE PUSH1 0x3 ADD SLOAD PUSH1 0xFF AND ISZERO ISZERO PUSH1 0x60 DUP4 ADD MSTORE SWAP1 DUP4 MSTORE SWAP1 SWAP3 ADD SWAP2 ADD PUSH2 0xB20 JUMP JUMPDEST POP POP POP POP SWAP1 POP SWAP2 SWAP1 POP JUMP JUMPDEST PUSH1 0x10 DUP2 DUP2 SLOAD DUP2 LT PUSH2 0xB94 JUMPI PUSH1 0x0 DUP1 REVERT JUMPDEST PUSH1 0x0 SWAP2 DUP3 MSTORE PUSH1 0x20 SWAP1 SWAP2 KECCAK256 ADD SLOAD PUSH1 0x1 PUSH1 0x1 PUSH1 0xA0 SHL SUB AND SWAP1 POP DUP2 JUMP JUMPDEST PUSH1 0x60 PUSH1 0x4 DUP1 SLOAD DUP1 PUSH1 0x20 MUL PUSH1 0x20 ADD PUSH1 0x40 MLOAD SWAP1 DUP2 ADD PUSH1 0x40 MSTORE DUP1 SWAP3 SWAP2 SWAP1 DUP2 DUP2 MSTORE PUSH1 0x20 ADD PUSH1 0x0 SWAP1 JUMPDEST DUP3 DUP3 LT ISZERO PUSH2 0xCAA JUMPI DUP4 DUP3 SWAP1 PUSH1 0x0 MSTORE PUSH1 0x20 PUSH1 0x0 KECCAK256 SWAP1 PUSH1 0x3 MUL ADD PUSH1 0x40 MLOAD DUP1 PUSH1 0x60 ADD PUSH1 0x40 MSTORE SWAP1 DUP2 PUSH1 0x0 DUP3 ADD DUP1 SLOAD PUSH2 0xC05 SWAP1 PUSH2 0x209B JUMP JUMPDEST DUP1 PUSH1 0x1F ADD PUSH1 0x20 DUP1 SWAP2 DIV MUL PUSH1 0x20 ADD PUSH1 0x40 MLOAD SWAP1 DUP2 ADD PUSH1 0x40 MSTORE DUP1 SWAP3 SWAP2 SWAP1 DUP2 DUP2 MSTORE PUSH1 0x20 ADD DUP3 DUP1 SLOAD PUSH2 0xC31 SWAP1 PUSH2 0x209B JUMP JUMPDEST DUP1 ISZERO PUSH2 0xC7E JUMPI DUP1 PUSH1 0x1F LT PUSH2 0xC53 JUMPI PUSH2 0x100 DUP1 DUP4 SLOAD DIV MUL DUP4 MSTORE SWAP2 PUSH1 0x20 ADD SWAP2 PUSH2 0xC7E JUMP JUMPDEST DUP3 ADD SWAP2 SWAP1 PUSH1 0x0 MSTORE PUSH1 0x20 PUSH1 0x0 KECCAK256 SWAP1 JUMPDEST DUP2 SLOAD DUP2 MSTORE SWAP1 PUSH1 0x1 ADD SWAP1 PUSH1 0x20 ADD DUP1 DUP4 GT PUSH2 0xC61 JUMPI DUP3 SWAP1 SUB PUSH1 0x1F AND DUP3 ADD SWAP2 JUMPDEST POP POP POP POP POP DUP2 MSTORE PUSH1 0x20 ADD PUSH1 0x1 DUP3 ADD SLOAD DUP2 MSTORE PUSH1 0x20 ADD PUSH1 0x2 DUP3 ADD SLOAD DUP2 MSTORE POP POP DUP2 MSTORE PUSH1 0x20 ADD SWAP1 PUSH1 0x1 ADD SWAP1 PUSH2 0xBD2 JUMP JUMPDEST POP POP POP POP SWAP1 POP SWAP1 JUMP JUMPDEST PUSH1 0x6 SLOAD PUSH1 0x1 PUSH1 0x1 PUSH1 0xA0 SHL SUB AND CALLER EQ DUP1 PUSH2 0xCD6 JUMPI POP PUSH1 0x7 SLOAD PUSH1 0x1 PUSH1 0x1 PUSH1 0xA0 SHL SUB AND CALLER EQ JUMPDEST PUSH2 0xD11 JUMPI PUSH1 0x40 MLOAD PUSH3 0x461BCD PUSH1 0xE5 SHL DUP2 MSTORE PUSH1 0x20 PUSH1 0x4 DUP3 ADD MSTORE PUSH1 0xC PUSH1 0x24 DUP3 ADD MSTORE PUSH12 0x155B985D5D1A1BDC9A5E9959 PUSH1 0xA2 SHL PUSH1 0x44 DUP3 ADD MSTORE PUSH1 0x64 ADD PUSH2 0x6A5 JUMP JUMPDEST PUSH2 0xD19 PUSH2 0x1B30 JUMP JUMPDEST JUMP JUMPDEST PUSH1 0x2 DUP1 SLOAD PUSH2 0xD28 SWAP1 PUSH2 0x209B JUMP JUMPDEST DUP1 PUSH1 0x1F ADD PUSH1 0x20 DUP1 SWAP2 DIV MUL PUSH1 0x20 ADD PUSH1 0x40 MLOAD SWAP1 DUP2 ADD PUSH1 0x40 MSTORE DUP1 SWAP3 SWAP2 SWAP1 DUP2 DUP2 MSTORE PUSH1 0x20 ADD DUP3 DUP1 SLOAD PUSH2 0xD54 SWAP1 PUSH2 0x209B JUMP JUMPDEST DUP1 ISZERO PUSH2 0xDA1 JUMPI DUP1 PUSH1 0x1F LT PUSH2 0xD76 JUMPI PUSH2 0x100 DUP1 DUP4 SLOAD DIV MUL DUP4 MSTORE SWAP2 PUSH1 0x20 ADD SWAP2 PUSH2 0xDA1 JUMP JUMPDEST DUP3 ADD SWAP2 SWAP1 PUSH1 0x0 MSTORE PUSH1 0x20 PUSH1 0x0 KECCAK256 SWAP1 JUMPDEST DUP2 SLOAD DUP2 MSTORE SWAP1 PUSH1 0x1 ADD SWAP1 PUSH1 0x20 ADD DUP1 DUP4 GT PUSH2 0xD84 JUMPI DUP3 SWAP1 SUB PUSH1 0x1F AND DUP3 ADD SWAP2 JUMPDEST POP POP POP POP POP DUP2 JUMP JUMPDEST PUSH1 0x4 SLOAD PUSH1 0x60 SWAP1 PUSH1 0x0 SWAP1 PUSH8 0xFFFFFFFFFFFFFFFF DUP2 GT ISZERO PUSH2 0xDCA JUMPI PUSH2 0xDCA PUSH2 0x1EAA JUMP JUMPDEST PUSH1 0x40 MLOAD SWAP1 DUP1 DUP3 MSTORE DUP1 PUSH1 0x20 MUL PUSH1 0x20 ADD DUP3 ADD PUSH1 0x40 MSTORE DUP1 ISZERO PUSH2 0xDF3 JUMPI DUP2 PUSH1 0x20 ADD PUSH1 0x20 DUP3 MUL DUP1 CALLDATASIZE DUP4 CALLDATACOPY ADD SWAP1 POP JUMPDEST POP SWAP1 POP PUSH1 0x9 SLOAD PUSH1 0x0 SUB PUSH2 0xE51 JUMPI PUSH1 0x0 JUMPDEST PUSH1 0x4 SLOAD DUP2 LT ISZERO PUSH2 0xE4B JUMPI PUSH1 0x4 SLOAD PUSH2 0xE1C SWAP1 PUSH2 0x2710 PUSH2 0x20CF JUMP JUMPDEST DUP3 DUP3 DUP2 MLOAD DUP2 LT PUSH2 0xE2E JUMPI PUSH2 0xE2E PUSH2 0x2043 JUMP JUMPDEST PUSH1 0x20 SWAP1 DUP2 MUL SWAP2 SWAP1 SWAP2 ADD ADD MSTORE DUP1 PUSH2 0xE43 DUP2 PUSH2 0x2082 JUMP JUMPDEST SWAP2 POP POP PUSH2 0xE03 JUMP JUMPDEST POP SWAP2 SWAP1 POP JUMP JUMPDEST PUSH1 0x0 JUMPDEST PUSH1 0x4 SLOAD DUP2 LT ISZERO PUSH2 0xE4B JUMPI PUSH1 0x9 SLOAD PUSH1 0x4 DUP3 DUP2 SLOAD DUP2 LT PUSH2 0xE74 JUMPI PUSH2 0xE74 PUSH2 0x2043 JUMP JUMPDEST SWAP1 PUSH1 0x0 MSTORE PUSH1 0x20 PUSH1 0x0 KECCAK256 SWAP1 PUSH1 0x3 MUL ADD PUSH1 0x1 ADD SLOAD PUSH2 0x2710 PUSH2 0xE93 SWAP2 SWAP1 PUSH2 0x20F1 JUMP JUMPDEST PUSH2 0xE9D SWAP2 SWAP1 PUSH2 0x20CF JUMP JUMPDEST DUP3 DUP3 DUP2 MLOAD DUP2 LT PUSH2 0xEAF JUMPI PUSH2 0xEAF PUSH2 0x2043 JUMP JUMPDEST PUSH1 0x20 SWAP1 DUP2 MUL SWAP2 SWAP1 SWAP2 ADD ADD MSTORE DUP1 PUSH2 0xEC4 DUP2 PUSH2 0x2082 JUMP JUMPDEST SWAP2 POP POP PUSH2 0xE54 JUMP JUMPDEST PUSH1 0x60 PUSH1 0x10 DUP1 SLOAD DUP1 PUSH1 0x20 MUL PUSH1 0x20 ADD PUSH1 0x40 MLOAD SWAP1 DUP2 ADD PUSH1 0x40 MSTORE DUP1 SWAP3 SWAP2 SWAP1 DUP2 DUP2 MSTORE PUSH1 0x20 ADD DUP3 DUP1 SLOAD DUP1 ISZERO PUSH2 0xF24 JUMPI PUSH1 0x20 MUL DUP3 ADD SWAP2 SWAP1 PUSH1 0x0 MSTORE PUSH1 0x20 PUSH1 0x0 KECCAK256 SWAP1 JUMPDEST DUP2 SLOAD PUSH1 0x1 PUSH1 0x1 PUSH1 0xA0 SHL SUB AND DUP2 MSTORE PUSH1 0x1 SWAP1 SWAP2 ADD SWAP1 PUSH1 0x20 ADD DUP1 DUP4 GT PUSH2 0xF06 JUMPI JUMPDEST POP POP POP POP POP SWAP1 POP SWAP1 JUMP JUMPDEST PUSH1 0x7 SLOAD PUSH1 0x1 PUSH1 0x1 PUSH1 0xA0 SHL SUB AND CALLER EQ PUSH2 0xF7F JUMPI PUSH1 0x40 MLOAD PUSH3 0x461BCD PUSH1 0xE5 SHL DUP2 MSTORE PUSH1 0x20 PUSH1 0x4 DUP3 ADD MSTORE PUSH1 0x14 PUSH1 0x24 DUP3 ADD MSTORE PUSH20 0x13DB9B1E48199858DD1BDC9E48185B1B1BDDD959 PUSH1 0x62 SHL PUSH1 0x44 DUP3 ADD MSTORE PUSH1 0x64 ADD PUSH2 0x6A5 JUMP JUMPDEST PUSH1 0x0 PUSH1 0x8 SLOAD PUSH1 0x1 PUSH1 0xA8 SHL SWAP1 DIV PUSH1 0xFF AND PUSH1 0x3 DUP2 GT ISZERO PUSH2 0xF9F JUMPI PUSH2 0xF9F PUSH2 0x1BE0 JUMP JUMPDEST EQ PUSH2 0xFBC JUMPI PUSH1 0x40 MLOAD PUSH3 0x461BCD PUSH1 0xE5 SHL DUP2 MSTORE PUSH1 0x4 ADD PUSH2 0x6A5 SWAP1 PUSH2 0x2018 JUMP JUMPDEST PUSH1 0x8 DUP1 SLOAD PUSH1 0xFF PUSH1 0xA8 SHL NOT AND PUSH1 0x3 PUSH1 0xA8 SHL OR SWAP1 SSTORE PUSH1 0x0 JUMPDEST PUSH1 0x10 SLOAD DUP2 LT ISZERO PUSH2 0x10D6 JUMPI PUSH1 0x0 PUSH1 0x10 DUP3 DUP2 SLOAD DUP2 LT PUSH2 0xFF1 JUMPI PUSH2 0xFF1 PUSH2 0x2043 JUMP JUMPDEST PUSH1 0x0 SWAP2 DUP3 MSTORE PUSH1 0x20 DUP1 DUP4 KECCAK256 SWAP1 SWAP2 ADD SLOAD PUSH1 0x1 PUSH1 0x1 PUSH1 0xA0 SHL SUB AND DUP1 DUP4 MSTORE PUSH1 0xE SWAP1 SWAP2 MSTORE PUSH1 0x40 SWAP1 SWAP2 KECCAK256 SLOAD SWAP1 SWAP2 POP DUP1 ISZERO PUSH2 0x10C1 JUMPI PUSH1 0x1 PUSH1 0x1 PUSH1 0xA0 SHL SUB DUP3 AND PUSH1 0x0 DUP2 DUP2 MSTORE PUSH1 0xE PUSH1 0x20 MSTORE PUSH1 0x40 DUP1 DUP3 KECCAK256 DUP3 SWAP1 SSTORE MLOAD SWAP1 SWAP2 SWAP1 DUP4 SWAP1 DUP4 DUP2 DUP2 DUP2 DUP6 DUP8 GAS CALL SWAP3 POP POP POP RETURNDATASIZE DUP1 PUSH1 0x0 DUP2 EQ PUSH2 0x1079 JUMPI PUSH1 0x40 MLOAD SWAP2 POP PUSH1 0x1F NOT PUSH1 0x3F RETURNDATASIZE ADD AND DUP3 ADD PUSH1 0x40 MSTORE RETURNDATASIZE DUP3 MSTORE RETURNDATASIZE PUSH1 0x0 PUSH1 0x20 DUP5 ADD RETURNDATACOPY PUSH2 0x107E JUMP JUMPDEST PUSH1 0x60 SWAP2 POP JUMPDEST POP POP SWAP1 POP DUP1 PUSH2 0x10BF JUMPI PUSH1 0x40 MLOAD PUSH3 0x461BCD PUSH1 0xE5 SHL DUP2 MSTORE PUSH1 0x20 PUSH1 0x4 DUP3 ADD MSTORE PUSH1 0xD PUSH1 0x24 DUP3 ADD MSTORE PUSH13 0x1499599D5B990819985A5B1959 PUSH1 0x9A SHL PUSH1 0x44 DUP3 ADD MSTORE PUSH1 0x64 ADD PUSH2 0x6A5 JUMP JUMPDEST POP JUMPDEST POP POP DUP1 DUP1 PUSH2 0x10CE SWAP1 PUSH2 0x2082 JUMP JUMPDEST SWAP2 POP POP PUSH2 0xFD2 JUMP JUMPDEST POP PUSH32 0x4C4561C5B0048424071C1115E9F1E325486E21C21333D968F21097B7B72D12AD TIMESTAMP DUP3 PUSH1 0x40 MLOAD PUSH2 0x1108 SWAP3 SWAP2 SWAP1 PUSH2 0x2108 JUMP JUMPDEST PUSH1 0x40 MLOAD DUP1 SWAP2 SUB SWAP1 LOG1 POP JUMP JUMPDEST PUSH1 0x3 DUP1 SLOAD PUSH2 0xD28 SWAP1 PUSH2 0x209B JUMP JUMPDEST PUSH1 0x0 PUSH1 0x1 PUSH1 0x8 SLOAD PUSH1 0x1 PUSH1 0xA8 SHL SWAP1 DIV PUSH1 0xFF AND PUSH1 0x3 DUP2 GT ISZERO PUSH2 0x1142 JUMPI PUSH2 0x1142 PUSH2 0x1BE0 JUMP JUMPDEST EQ PUSH2 0x114F JUMPI POP PUSH1 0x0 SWAP2 SWAP1 POP JUMP JUMPDEST PUSH1 0x0 PUSH2 0x115A DUP4 PUSH2 0x18B1 JUMP JUMPDEST GT SWAP3 SWAP2 POP POP JUMP JUMPDEST PUSH1 0xD PUSH1 0x20 MSTORE DUP2 PUSH1 0x0 MSTORE PUSH1 0x40 PUSH1 0x0 KECCAK256 DUP2 DUP2 SLOAD DUP2 LT PUSH2 0x117D JUMPI PUSH1 0x0 DUP1 REVERT JUMPDEST PUSH1 0x0 SWAP2 DUP3 MSTORE PUSH1 0x20 SWAP1 SWAP2 KECCAK256 PUSH1 0x4 SWAP1 SWAP2 MUL ADD DUP1 SLOAD PUSH1 0x1 DUP3 ADD SLOAD PUSH1 0x2 DUP4 ADD SLOAD PUSH1 0x3 SWAP1 SWAP4 ADD SLOAD SWAP2 SWAP5 POP SWAP3 POP PUSH1 0xFF AND DUP5 JUMP JUMPDEST PUSH1 0x6 SLOAD PUSH1 0x1 PUSH1 0x1 PUSH1 0xA0 SHL SUB AND CALLER EQ DUP1 PUSH2 0x11CD JUMPI POP PUSH1 0x7 SLOAD PUSH1 0x1 PUSH1 0x1 PUSH1 0xA0 SHL SUB AND CALLER EQ JUMPDEST PUSH2 0x1208 JUMPI PUSH1 0x40 MLOAD PUSH3 0x461BCD PUSH1 0xE5 SHL DUP2 MSTORE PUSH1 0x20 PUSH1 0x4 DUP3 ADD MSTORE PUSH1 0xC PUSH1 0x24 DUP3 ADD MSTORE PUSH12 0x155B985D5D1A1BDC9A5E9959 PUSH1 0xA2 SHL PUSH1 0x44 DUP3 ADD MSTORE PUSH1 0x64 ADD PUSH2 0x6A5 JUMP JUMPDEST PUSH2 0xD19 PUSH2 0x1B82 JUMP JUMPDEST PUSH1 0x1 PUSH1 0x8 SLOAD PUSH1 0x1 PUSH1 0xA8 SHL SWAP1 DIV PUSH1 0xFF AND PUSH1 0x3 DUP2 GT ISZERO PUSH2 0x1230 JUMPI PUSH2 0x1230 PUSH2 0x1BE0 JUMP JUMPDEST EQ PUSH2 0x1273 JUMPI PUSH1 0x40 MLOAD PUSH3 0x461BCD PUSH1 0xE5 SHL DUP2 MSTORE PUSH1 0x20 PUSH1 0x4 DUP3 ADD MSTORE PUSH1 0x13 PUSH1 0x24 DUP3 ADD MSTORE PUSH19 0x13585C9AD95D081B9BDD081C995CDBDB1D9959 PUSH1 0x6A SHL PUSH1 0x44 DUP3 ADD MSTORE PUSH1 0x64 ADD PUSH2 0x6A5 JUMP JUMPDEST PUSH1 0xB SLOAD PUSH2 0x1283 SWAP1 PUSH3 0x93A80 PUSH2 0x206F JUMP JUMPDEST TIMESTAMP GT ISZERO PUSH2 0x12CB JUMPI PUSH1 0x40 MLOAD PUSH3 0x461BCD PUSH1 0xE5 SHL DUP2 MSTORE PUSH1 0x20 PUSH1 0x4 DUP3 ADD MSTORE PUSH1 0x16 PUSH1 0x24 DUP3 ADD MSTORE PUSH22 0x111A5CDC1D5D19481C195C9A5BD908195E1C1A5C9959 PUSH1 0x52 SHL PUSH1 0x44 DUP3 ADD MSTORE PUSH1 0x64 ADD PUSH2 0x6A5 JUMP JUMPDEST PUSH8 0x16345785D8A0000 CALLVALUE LT ISZERO PUSH2 0x1323 JUMPI PUSH1 0x40 MLOAD PUSH3 0x461BCD PUSH1 0xE5 SHL DUP2 MSTORE PUSH1 0x20 PUSH1 0x4 DUP3 ADD MSTORE PUSH1 0x19 PUSH1 0x24 DUP3 ADD MSTORE PUSH32 0x496E73756666696369656E74206469737075746520626F6E6400000000000000 PUSH1 0x44 DUP3 ADD MSTORE PUSH1 0x64 ADD PUSH2 0x6A5 JUMP JUMPDEST PUSH1 0x8 DUP1 SLOAD PUSH1 0xFF PUSH1 0xA8 SHL NOT AND PUSH1 0x1 PUSH1 0xA9 SHL OR SWAP1 SSTORE PUSH1 0x40 MLOAD CALLER SWAP1 PUSH32 0xA552416225D3047ECEAA265D9762310E2FDD111AAF18A172236982AE9FADFE27 SWAP1 PUSH2 0x136A SWAP1 TIMESTAMP SWAP1 DUP6 SWAP1 PUSH2 0x2108 JUMP JUMPDEST PUSH1 0x40 MLOAD DUP1 SWAP2 SUB SWAP1 LOG2 POP JUMP JUMPDEST PUSH2 0x137D PUSH2 0x1AE2 JUMP JUMPDEST PUSH1 0x1 PUSH1 0x8 SLOAD PUSH1 0x1 PUSH1 0xA8 SHL SWAP1 DIV PUSH1 0xFF AND PUSH1 0x3 DUP2 GT ISZERO PUSH2 0x139D JUMPI PUSH2 0x139D PUSH2 0x1BE0 JUMP JUMPDEST EQ PUSH2 0x13E0 JUMPI PUSH1 0x40 MLOAD PUSH3 0x461BCD PUSH1 0xE5 SHL DUP2 MSTORE PUSH1 0x20 PUSH1 0x4 DUP3 ADD MSTORE PUSH1 0x13 PUSH1 0x24 DUP3 ADD MSTORE PUSH19 0x13585C9AD95D081B9BDD081C995CDBDB1D9959 PUSH1 0x6A SHL PUSH1 0x44 DUP3 ADD MSTORE PUSH1 0x64 ADD PUSH2 0x6A5 JUMP JUMPDEST CALLER PUSH1 0x0 SWAP1 DUP2 MSTORE PUSH1 0xD PUSH1 0x20 MSTORE PUSH1 0x40 SWAP1 KECCAK256 SLOAD PUSH2 0x142C JUMPI PUSH1 0x40 MLOAD PUSH3 0x461BCD PUSH1 0xE5 SHL DUP2 MSTORE PUSH1 0x20 PUSH1 0x4 DUP3 ADD MSTORE PUSH1 0xD PUSH1 0x24 DUP3 ADD MSTORE PUSH13 0x139BC818995D1CC8199BDD5B99 PUSH1 0x9A SHL PUSH1 0x44 DUP3 ADD MSTORE PUSH1 0x64 ADD PUSH2 0x6A5 JUMP JUMPDEST PUSH1 0x0 PUSH2 0x1437 CALLER PUSH2 0x18B1 JUMP JUMPDEST SWAP1 POP PUSH1 0x0 DUP2 GT PUSH2 0x147F JUMPI PUSH1 0x40 MLOAD PUSH3 0x461BCD PUSH1 0xE5 SHL DUP2 MSTORE PUSH1 0x20 PUSH1 0x4 DUP3 ADD MSTORE PUSH1 0x13 PUSH1 0x24 DUP3 ADD MSTORE PUSH19 0x4E6F207265776172647320746F20636C61696D PUSH1 0x68 SHL PUSH1 0x44 DUP3 ADD MSTORE PUSH1 0x64 ADD PUSH2 0x6A5 JUMP JUMPDEST PUSH1 0x0 JUMPDEST CALLER PUSH1 0x0 SWAP1 DUP2 MSTORE PUSH1 0xD PUSH1 0x20 MSTORE PUSH1 0x40 SWAP1 KECCAK256 SLOAD DUP2 LT ISZERO PUSH2 0x1570 JUMPI PUSH1 0xA SLOAD CALLER PUSH1 0x0 SWAP1 DUP2 MSTORE PUSH1 0xD PUSH1 0x20 MSTORE PUSH1 0x40 SWAP1 KECCAK256 DUP1 SLOAD DUP4 SWAP1 DUP2 LT PUSH2 0x14BD JUMPI PUSH2 0x14BD PUSH2 0x2043 JUMP JUMPDEST SWAP1 PUSH1 0x0 MSTORE PUSH1 0x20 PUSH1 0x0 KECCAK256 SWAP1 PUSH1 0x4 MUL ADD PUSH1 0x1 ADD SLOAD EQ DUP1 ISZERO PUSH2 0x1511 JUMPI POP CALLER PUSH1 0x0 SWAP1 DUP2 MSTORE PUSH1 0xD PUSH1 0x20 MSTORE PUSH1 0x40 SWAP1 KECCAK256 DUP1 SLOAD DUP3 SWAP1 DUP2 LT PUSH2 0x14F8 JUMPI PUSH2 0x14F8 PUSH2 0x2043 JUMP JUMPDEST PUSH1 0x0 SWAP2 DUP3 MSTORE PUSH1 0x20 SWAP1 SWAP2 KECCAK256 PUSH1 0x3 PUSH1 0x4 SWAP1 SWAP3 MUL ADD ADD SLOAD PUSH1 0xFF AND ISZERO JUMPDEST ISZERO PUSH2 0x155E JUMPI CALLER PUSH1 0x0 SWAP1 DUP2 MSTORE PUSH1 0xD PUSH1 0x20 MSTORE PUSH1 0x40 SWAP1 KECCAK256 DUP1 SLOAD PUSH1 0x1 SWAP2 SWAP1 DUP4 SWAP1 DUP2 LT PUSH2 0x153B JUMPI PUSH2 0x153B PUSH2 0x2043 JUMP JUMPDEST PUSH1 0x0 SWAP2 DUP3 MSTORE PUSH1 0x20 SWAP1 SWAP2 KECCAK256 PUSH1 0x4 SWAP1 SWAP2 MUL ADD PUSH1 0x3 ADD DUP1 SLOAD PUSH1 0xFF NOT AND SWAP2 ISZERO ISZERO SWAP2 SWAP1 SWAP2 OR SWAP1 SSTORE JUMPDEST DUP1 PUSH2 0x1568 DUP2 PUSH2 0x2082 JUMP JUMPDEST SWAP2 POP POP PUSH2 0x1482 JUMP JUMPDEST POP PUSH1 0x0 PUSH2 0x2710 PUSH1 0xC SLOAD DUP4 PUSH2 0x1584 SWAP2 SWAP1 PUSH2 0x20F1 JUMP JUMPDEST PUSH2 0x158E SWAP2 SWAP1 PUSH2 0x20CF JUMP JUMPDEST SWAP1 POP PUSH1 0x0 PUSH2 0x159C DUP3 DUP5 PUSH2 0x2121 JUMP JUMPDEST PUSH1 0x40 MLOAD SWAP1 SWAP2 POP PUSH1 0x0 SWAP1 CALLER SWAP1 DUP4 SWAP1 DUP4 DUP2 DUP2 DUP2 DUP6 DUP8 GAS CALL SWAP3 POP POP POP RETURNDATASIZE DUP1 PUSH1 0x0 DUP2 EQ PUSH2 0x15E1 JUMPI PUSH1 0x40 MLOAD SWAP2 POP PUSH1 0x1F NOT PUSH1 0x3F RETURNDATASIZE ADD AND DUP3 ADD PUSH1 0x40 MSTORE RETURNDATASIZE DUP3 MSTORE RETURNDATASIZE PUSH1 0x0 PUSH1 0x20 DUP5 ADD RETURNDATACOPY PUSH2 0x15E6 JUMP JUMPDEST PUSH1 0x60 SWAP2 POP JUMPDEST POP POP SWAP1 POP DUP1 PUSH2 0x1630 JUMPI PUSH1 0x40 MLOAD PUSH3 0x461BCD PUSH1 0xE5 SHL DUP2 MSTORE PUSH1 0x20 PUSH1 0x4 DUP3 ADD MSTORE PUSH1 0x16 PUSH1 0x24 DUP3 ADD MSTORE PUSH22 0x14995DD85C99081D1C985B9CD9995C8819985A5B1959 PUSH1 0x52 SHL PUSH1 0x44 DUP3 ADD MSTORE PUSH1 0x64 ADD PUSH2 0x6A5 JUMP JUMPDEST DUP3 ISZERO PUSH2 0x16D1 JUMPI PUSH1 0x7 SLOAD PUSH1 0x40 MLOAD PUSH1 0x0 SWAP2 PUSH1 0x1 PUSH1 0x1 PUSH1 0xA0 SHL SUB AND SWAP1 DUP6 SWAP1 DUP4 DUP2 DUP2 DUP2 DUP6 DUP8 GAS CALL SWAP3 POP POP POP RETURNDATASIZE DUP1 PUSH1 0x0 DUP2 EQ PUSH2 0x1683 JUMPI PUSH1 0x40 MLOAD SWAP2 POP PUSH1 0x1F NOT PUSH1 0x3F RETURNDATASIZE ADD AND DUP3 ADD PUSH1 0x40 MSTORE RETURNDATASIZE DUP3 MSTORE RETURNDATASIZE PUSH1 0x0 PUSH1 0x20 DUP5 ADD RETURNDATACOPY PUSH2 0x1688 JUMP JUMPDEST PUSH1 0x60 SWAP2 POP JUMPDEST POP POP SWAP1 POP DUP1 PUSH2 0x16CF JUMPI PUSH1 0x40 MLOAD PUSH3 0x461BCD PUSH1 0xE5 SHL DUP2 MSTORE PUSH1 0x20 PUSH1 0x4 DUP3 ADD MSTORE PUSH1 0x13 PUSH1 0x24 DUP3 ADD MSTORE PUSH19 0x119959481D1C985B9CD9995C8819985A5B1959 PUSH1 0x6A SHL PUSH1 0x44 DUP3 ADD MSTORE PUSH1 0x64 ADD PUSH2 0x6A5 JUMP JUMPDEST POP JUMPDEST PUSH1 0x40 DUP1 MLOAD DUP4 DUP2 MSTORE TIMESTAMP PUSH1 0x20 DUP3 ADD MSTORE CALLER SWAP2 PUSH32 0xF01DA32686223933D8A18A391060918C7F11A3648639EDD87AE013E2E2731743 SWAP2 ADD PUSH1 0x40 MLOAD DUP1 SWAP2 SUB SWAP1 LOG2 POP POP POP POP PUSH2 0xD19 PUSH1 0x1 PUSH1 0x0 SSTORE JUMP JUMPDEST PUSH1 0x8 SLOAD PUSH1 0x1 PUSH1 0x1 PUSH1 0xA0 SHL SUB AND CALLER EQ PUSH2 0x1769 JUMPI PUSH1 0x40 MLOAD PUSH3 0x461BCD PUSH1 0xE5 SHL DUP2 MSTORE PUSH1 0x20 PUSH1 0x4 DUP3 ADD MSTORE PUSH1 0x13 PUSH1 0x24 DUP3 ADD MSTORE PUSH19 0x13DB9B1E481BDC9858DB1948185B1B1BDDD959 PUSH1 0x6A SHL PUSH1 0x44 DUP3 ADD MSTORE PUSH1 0x64 ADD PUSH2 0x6A5 JUMP JUMPDEST PUSH2 0x1771 PUSH2 0x1AE2 JUMP JUMPDEST PUSH1 0x0 PUSH1 0x8 SLOAD PUSH1 0x1 PUSH1 0xA8 SHL SWAP1 DIV PUSH1 0xFF AND PUSH1 0x3 DUP2 GT ISZERO PUSH2 0x1791 JUMPI PUSH2 0x1791 PUSH2 0x1BE0 JUMP JUMPDEST EQ PUSH2 0x17AE JUMPI PUSH1 0x40 MLOAD PUSH3 0x461BCD PUSH1 0xE5 SHL DUP2 MSTORE PUSH1 0x4 ADD PUSH2 0x6A5 SWAP1 PUSH2 0x2018 JUMP JUMPDEST PUSH1 0x5 SLOAD TIMESTAMP LT ISZERO PUSH2 0x17F9 JUMPI PUSH1 0x40 MLOAD PUSH3 0x461BCD PUSH1 0xE5 SHL DUP2 MSTORE PUSH1 0x20 PUSH1 0x4 DUP3 ADD MSTORE PUSH1 0x16 PUSH1 0x24 DUP3 ADD MSTORE PUSH22 0x13585C9AD95D081B9BDD08195E1C1A5C9959081E595D PUSH1 0x52 SHL PUSH1 0x44 DUP3 ADD MSTORE PUSH1 0x64 ADD PUSH2 0x6A5 JUMP JUMPDEST PUSH1 0x4 SLOAD DUP3 LT PUSH2 0x184A JUMPI PUSH1 0x40 MLOAD PUSH3 0x461BCD PUSH1 0xE5 SHL DUP2 MSTORE PUSH1 0x20 PUSH1 0x4 DUP3 ADD MSTORE PUSH1 0x17 PUSH1 0x24 DUP3 ADD MSTORE PUSH32 0x496E76616C69642077696E6E696E67206F7574636F6D65000000000000000000 PUSH1 0x44 DUP3 ADD MSTORE PUSH1 0x64 ADD PUSH2 0x6A5 JUMP JUMPDEST PUSH1 0x8 DUP1 SLOAD PUSH1 0xFF PUSH1 0xA8 SHL NOT AND PUSH1 0x1 PUSH1 0xA8 SHL OR SWAP1 SSTORE PUSH1 0xA DUP3 SWAP1 SSTORE TIMESTAMP PUSH1 0xB DUP2 SWAP1 SSTORE PUSH1 0x40 MLOAD DUP4 SWAP2 PUSH32 0x230E0C4260EFA5AC59D08AAABF3711693FE4F1DF54FCB28CC4981A800E586306 SWAP2 PUSH2 0x189B SWAP2 SWAP1 DUP6 SWAP1 PUSH2 0x2108 JUMP JUMPDEST PUSH1 0x40 MLOAD DUP1 SWAP2 SUB SWAP1 LOG2 PUSH2 0x18AD PUSH1 0x1 PUSH1 0x0 SSTORE JUMP JUMPDEST POP POP JUMP JUMPDEST PUSH1 0x0 PUSH1 0x1 PUSH1 0x8 SLOAD PUSH1 0x1 PUSH1 0xA8 SHL SWAP1 DIV PUSH1 0xFF AND PUSH1 0x3 DUP2 GT ISZERO PUSH2 0x18D3 JUMPI PUSH2 0x18D3 PUSH2 0x1BE0 JUMP JUMPDEST EQ PUSH2 0x18E0 JUMPI POP PUSH1 0x0 SWAP2 SWAP1 POP JUMP JUMPDEST PUSH1 0x0 DUP1 JUMPDEST PUSH1 0x1 PUSH1 0x1 PUSH1 0xA0 SHL SUB DUP5 AND PUSH1 0x0 SWAP1 DUP2 MSTORE PUSH1 0xD PUSH1 0x20 MSTORE PUSH1 0x40 SWAP1 KECCAK256 SLOAD DUP2 LT ISZERO PUSH2 0x19B0 JUMPI PUSH1 0x1 PUSH1 0x1 PUSH1 0xA0 SHL SUB DUP5 AND PUSH1 0x0 SWAP1 DUP2 MSTORE PUSH1 0xD PUSH1 0x20 MSTORE PUSH1 0x40 DUP2 KECCAK256 DUP1 SLOAD DUP4 SWAP1 DUP2 LT PUSH2 0x192E JUMPI PUSH2 0x192E PUSH2 0x2043 JUMP JUMPDEST PUSH1 0x0 SWAP2 DUP3 MSTORE PUSH1 0x20 SWAP2 DUP3 SWAP1 KECCAK256 PUSH1 0x40 DUP1 MLOAD PUSH1 0x80 DUP2 ADD DUP3 MSTORE PUSH1 0x4 SWAP1 SWAP4 MUL SWAP1 SWAP2 ADD DUP1 SLOAD DUP4 MSTORE PUSH1 0x1 DUP2 ADD SLOAD SWAP4 DUP4 ADD DUP5 SWAP1 MSTORE PUSH1 0x2 DUP2 ADD SLOAD SWAP2 DUP4 ADD SWAP2 SWAP1 SWAP2 MSTORE PUSH1 0x3 ADD SLOAD PUSH1 0xFF AND ISZERO ISZERO PUSH1 0x60 DUP3 ADD MSTORE PUSH1 0xA SLOAD SWAP1 SWAP3 POP EQ DUP1 ISZERO PUSH2 0x1989 JUMPI POP DUP1 PUSH1 0x60 ADD MLOAD ISZERO JUMPDEST ISZERO PUSH2 0x199D JUMPI DUP1 MLOAD PUSH2 0x199A SWAP1 DUP5 PUSH2 0x206F JUMP JUMPDEST SWAP3 POP JUMPDEST POP DUP1 PUSH2 0x19A8 DUP2 PUSH2 0x2082 JUMP JUMPDEST SWAP2 POP POP PUSH2 0x18E4 JUMP JUMPDEST POP DUP1 PUSH1 0x0 SUB PUSH2 0x19C2 JUMPI POP PUSH1 0x0 SWAP3 SWAP2 POP POP JUMP JUMPDEST PUSH1 0x0 PUSH1 0x4 PUSH1 0xA SLOAD DUP2 SLOAD DUP2 LT PUSH2 0x19D9 JUMPI PUSH2 0x19D9 PUSH2 0x2043 JUMP JUMPDEST SWAP1 PUSH1 0x0 MSTORE PUSH1 0x20 PUSH1 0x0 KECCAK256 SWAP1 PUSH1 0x3 MUL ADD PUSH1 0x1 ADD SLOAD SWAP1 POP DUP1 PUSH1 0x0 SUB PUSH2 0x19FF JUMPI POP PUSH1 0x0 SWAP4 SWAP3 POP POP POP JUMP JUMPDEST DUP1 PUSH1 0x9 SLOAD DUP4 PUSH2 0x1A0E SWAP2 SWAP1 PUSH2 0x20F1 JUMP JUMPDEST PUSH2 0x1A18 SWAP2 SWAP1 PUSH2 0x20CF JUMP JUMPDEST SWAP5 SWAP4 POP POP POP POP JUMP JUMPDEST PUSH1 0x4 DUP2 DUP2 SLOAD DUP2 LT PUSH2 0x1A30 JUMPI PUSH1 0x0 DUP1 REVERT JUMPDEST SWAP1 PUSH1 0x0 MSTORE PUSH1 0x20 PUSH1 0x0 KECCAK256 SWAP1 PUSH1 0x3 MUL ADD PUSH1 0x0 SWAP2 POP SWAP1 POP DUP1 PUSH1 0x0 ADD DUP1 SLOAD PUSH2 0x1A53 SWAP1 PUSH2 0x209B JUMP JUMPDEST DUP1 PUSH1 0x1F ADD PUSH1 0x20 DUP1 SWAP2 DIV MUL PUSH1 0x20 ADD PUSH1 0x40 MLOAD SWAP1 DUP2 ADD PUSH1 0x40 MSTORE DUP1 SWAP3 SWAP2 SWAP1 DUP2 DUP2 MSTORE PUSH1 0x20 ADD DUP3 DUP1 SLOAD PUSH2 0x1A7F SWAP1 PUSH2 0x209B JUMP JUMPDEST DUP1 ISZERO PUSH2 0x1ACC JUMPI DUP1 PUSH1 0x1F LT PUSH2 0x1AA1 JUMPI PUSH2 0x100 DUP1 DUP4 SLOAD DIV MUL DUP4 MSTORE SWAP2 PUSH1 0x20 ADD SWAP2 PUSH2 0x1ACC JUMP JUMPDEST DUP3 ADD SWAP2 SWAP1 PUSH1 0x0 MSTORE PUSH1 0x20 PUSH1 0x0 KECCAK256 SWAP1 JUMPDEST DUP2 SLOAD DUP2 MSTORE SWAP1 PUSH1 0x1 ADD SWAP1 PUSH1 0x20 ADD DUP1 DUP4 GT PUSH2 0x1AAF JUMPI DUP3 SWAP1 SUB PUSH1 0x1F AND DUP3 ADD SWAP2 JUMPDEST POP POP POP POP POP SWAP1 DUP1 PUSH1 0x1 ADD SLOAD SWAP1 DUP1 PUSH1 0x2 ADD SLOAD SWAP1 POP DUP4 JUMP JUMPDEST PUSH1 0x2 PUSH1 0x0 SLOAD SUB PUSH2 0x1B05 JUMPI PUSH1 0x40 MLOAD PUSH4 0x3EE5AEB5 PUSH1 0xE0 SHL DUP2 MSTORE PUSH1 0x4 ADD PUSH1 0x40 MLOAD DUP1 SWAP2 SUB SWAP1 REVERT JUMPDEST PUSH1 0x2 PUSH1 0x0 SSTORE JUMP JUMPDEST PUSH1 0x1 SLOAD PUSH1 0xFF AND ISZERO PUSH2 0xD19 JUMPI PUSH1 0x40 MLOAD PUSH4 0xD93C0665 PUSH1 0xE0 SHL DUP2 MSTORE PUSH1 0x4 ADD PUSH1 0x40 MLOAD DUP1 SWAP2 SUB SWAP1 REVERT JUMPDEST PUSH2 0x1B38 PUSH2 0x1BBD JUMP JUMPDEST PUSH1 0x1 DUP1 SLOAD PUSH1 0xFF NOT AND SWAP1 SSTORE PUSH32 0x5DB9EE0A495BF2E6FF9C91A7834C1BA4FDD244A5E8AA4E537BD38AEAE4B073AA CALLER JUMPDEST PUSH1 0x40 MLOAD PUSH1 0x1 PUSH1 0x1 PUSH1 0xA0 SHL SUB SWAP1 SWAP2 AND DUP2 MSTORE PUSH1 0x20 ADD PUSH1 0x40 MLOAD DUP1 SWAP2 SUB SWAP1 LOG1 JUMP JUMPDEST PUSH2 0x1B8A PUSH2 0x1B0C JUMP JUMPDEST PUSH1 0x1 DUP1 SLOAD PUSH1 0xFF NOT AND DUP2 OR SWAP1 SSTORE PUSH32 0x62E78CEA01BEE320CD4E420270B5EA74000D11B0C9F74754EBDBFC544B05A258 CALLER PUSH2 0x1B65 JUMP JUMPDEST PUSH1 0x1 SLOAD PUSH1 0xFF AND PUSH2 0xD19 JUMPI PUSH1 0x40 MLOAD PUSH4 0x8DFC202B PUSH1 0xE0 SHL DUP2 MSTORE PUSH1 0x4 ADD PUSH1 0x40 MLOAD DUP1 SWAP2 SUB SWAP1 REVERT JUMPDEST PUSH4 0x4E487B71 PUSH1 0xE0 SHL PUSH1 0x0 MSTORE PUSH1 0x21 PUSH1 0x4 MSTORE PUSH1 0x24 PUSH1 0x0 REVERT JUMPDEST PUSH1 0x20 DUP2 ADD PUSH1 0x3 DUP4 LT PUSH2 0x1C0A JUMPI PUSH2 0x1C0A PUSH2 0x1BE0 JUMP JUMPDEST SWAP2 SWAP1 MSTORE SWAP1 JUMP JUMPDEST PUSH1 0x0 PUSH1 0x20 DUP3 DUP5 SUB SLT ISZERO PUSH2 0x1C22 JUMPI PUSH1 0x0 DUP1 REVERT JUMPDEST POP CALLDATALOAD SWAP2 SWAP1 POP JUMP JUMPDEST PUSH1 0x4 DUP2 LT PUSH2 0x1C39 JUMPI PUSH2 0x1C39 PUSH2 0x1BE0 JUMP JUMPDEST SWAP1 MSTORE JUMP JUMPDEST PUSH1 0x20 DUP2 ADD PUSH2 0x1C4B DUP3 DUP5 PUSH2 0x1C29 JUMP JUMPDEST SWAP3 SWAP2 POP POP JUMP JUMPDEST PUSH1 0x0 DUP2 MLOAD DUP1 DUP5 MSTORE PUSH1 0x0 JUMPDEST DUP2 DUP2 LT ISZERO PUSH2 0x1C77 JUMPI PUSH1 0x20 DUP2 DUP6 ADD DUP2 ADD MLOAD DUP7 DUP4 ADD DUP3 ADD MSTORE ADD PUSH2 0x1C5B JUMP JUMPDEST POP PUSH1 0x0 PUSH1 0x20 DUP3 DUP7 ADD ADD MSTORE PUSH1 0x20 PUSH1 0x1F NOT PUSH1 0x1F DUP4 ADD AND DUP6 ADD ADD SWAP2 POP POP SWAP3 SWAP2 POP POP JUMP JUMPDEST PUSH1 0xE0 DUP2 MSTORE PUSH1 0x0 PUSH2 0x1CAA PUSH1 0xE0 DUP4 ADD DUP11 PUSH2 0x1C51 JUMP JUMPDEST DUP3 DUP2 SUB PUSH1 0x20 DUP5 ADD MSTORE PUSH2 0x1CBC DUP2 DUP11 PUSH2 0x1C51 JUMP JUMPDEST SWAP2 POP POP DUP7 PUSH1 0x40 DUP4 ADD MSTORE DUP6 PUSH1 0x60 DUP4 ADD MSTORE PUSH2 0x1CD8 PUSH1 0x80 DUP4 ADD DUP7 PUSH2 0x1C29 JUMP JUMPDEST PUSH1 0xA0 DUP3 ADD SWAP4 SWAP1 SWAP4 MSTORE PUSH1 0xC0 ADD MSTORE SWAP6 SWAP5 POP POP POP POP POP JUMP JUMPDEST DUP1 CALLDATALOAD PUSH1 0x1 PUSH1 0x1 PUSH1 0xA0 SHL SUB DUP2 AND DUP2 EQ PUSH2 0x1D04 JUMPI PUSH1 0x0 DUP1 REVERT JUMPDEST SWAP2 SWAP1 POP JUMP JUMPDEST PUSH1 0x0 PUSH1 0x20 DUP3 DUP5 SUB SLT ISZERO PUSH2 0x1D1B JUMPI PUSH1 0x0 DUP1 REVERT JUMPDEST PUSH2 0x1D24 DUP3 PUSH2 0x1CED JUMP JUMPDEST SWAP4 SWAP3 POP POP POP JUMP JUMPDEST PUSH1 0x20 DUP1 DUP3 MSTORE DUP3 MLOAD DUP3 DUP3 ADD DUP2 SWAP1 MSTORE PUSH1 0x0 SWAP2 SWAP1 PUSH1 0x40 SWAP1 DUP2 DUP6 ADD SWAP1 DUP7 DUP5 ADD DUP6 JUMPDEST DUP3 DUP2 LT ISZERO PUSH2 0x1D84 JUMPI DUP2 MLOAD DUP1 MLOAD DUP6 MSTORE DUP7 DUP2 ADD MLOAD DUP8 DUP7 ADD MSTORE DUP6 DUP2 ADD MLOAD DUP7 DUP7 ADD MSTORE PUSH1 0x60 SWAP1 DUP2 ADD MLOAD ISZERO ISZERO SWAP1 DUP6 ADD MSTORE PUSH1 0x80 SWAP1 SWAP4 ADD SWAP3 SWAP1 DUP6 ADD SWAP1 PUSH1 0x1 ADD PUSH2 0x1D48 JUMP JUMPDEST POP SWAP2 SWAP8 SWAP7 POP POP POP POP POP POP POP JUMP JUMPDEST PUSH1 0x0 PUSH1 0x20 DUP1 DUP4 ADD DUP2 DUP5 MSTORE DUP1 DUP6 MLOAD DUP1 DUP4 MSTORE PUSH1 0x40 SWAP3 POP DUP3 DUP7 ADD SWAP2 POP DUP3 DUP2 PUSH1 0x5 SHL DUP8 ADD ADD DUP5 DUP9 ADD PUSH1 0x0 JUMPDEST DUP4 DUP2 LT ISZERO PUSH2 0x1E04 JUMPI PUSH1 0x3F NOT DUP10 DUP5 SUB ADD DUP6 MSTORE DUP2 MLOAD PUSH1 0x60 DUP2 MLOAD DUP2 DUP7 MSTORE PUSH2 0x1DDE DUP3 DUP8 ADD DUP3 PUSH2 0x1C51 JUMP JUMPDEST DUP4 DUP12 ADD MLOAD DUP8 DUP13 ADD MSTORE SWAP3 DUP10 ADD MLOAD SWAP6 DUP10 ADD SWAP6 SWAP1 SWAP6 MSTORE POP SWAP5 DUP8 ADD SWAP5 SWAP3 POP SWAP1 DUP7 ADD SWAP1 PUSH1 0x1 ADD PUSH2 0x1DB8 JUMP JUMPDEST POP SWAP1 SWAP9 SWAP8 POP POP POP POP POP POP POP POP JUMP JUMPDEST PUSH1 0x20 DUP2 MSTORE PUSH1 0x0 PUSH2 0x1D24 PUSH1 0x20 DUP4 ADD DUP5 PUSH2 0x1C51 JUMP JUMPDEST PUSH1 0x20 DUP1 DUP3 MSTORE DUP3 MLOAD DUP3 DUP3 ADD DUP2 SWAP1 MSTORE PUSH1 0x0 SWAP2 SWAP1 DUP5 DUP3 ADD SWAP1 PUSH1 0x40 DUP6 ADD SWAP1 DUP5 JUMPDEST DUP2 DUP2 LT ISZERO PUSH2 0x1E5D JUMPI DUP4 MLOAD DUP4 MSTORE SWAP3 DUP5 ADD SWAP3 SWAP2 DUP5 ADD SWAP2 PUSH1 0x1 ADD PUSH2 0x1E41 JUMP JUMPDEST POP SWAP1 SWAP7 SWAP6 POP POP POP POP POP POP JUMP JUMPDEST PUSH1 0x20 DUP1 DUP3 MSTORE DUP3 MLOAD DUP3 DUP3 ADD DUP2 SWAP1 MSTORE PUSH1 0x0 SWAP2 SWAP1 DUP5 DUP3 ADD SWAP1 PUSH1 0x40 DUP6 ADD SWAP1 DUP5 JUMPDEST DUP2 DUP2 LT ISZERO PUSH2 0x1E5D JUMPI DUP4 MLOAD PUSH1 0x1 PUSH1 0x1 PUSH1 0xA0 SHL SUB AND DUP4 MSTORE SWAP3 DUP5 ADD SWAP3 SWAP2 DUP5 ADD SWAP2 PUSH1 0x1 ADD PUSH2 0x1E85 JUMP JUMPDEST PUSH4 0x4E487B71 PUSH1 0xE0 SHL PUSH1 0x0 MSTORE PUSH1 0x41 PUSH1 0x4 MSTORE PUSH1 0x24 PUSH1 0x0 REVERT JUMPDEST PUSH1 0x0 DUP3 PUSH1 0x1F DUP4 ADD SLT PUSH2 0x1ED1 JUMPI PUSH1 0x0 DUP1 REVERT JUMPDEST DUP2 CALLDATALOAD PUSH8 0xFFFFFFFFFFFFFFFF DUP1 DUP3 GT ISZERO PUSH2 0x1EEC JUMPI PUSH2 0x1EEC PUSH2 0x1EAA JUMP JUMPDEST PUSH1 0x40 MLOAD PUSH1 0x1F DUP4 ADD PUSH1 0x1F NOT SWAP1 DUP2 AND PUSH1 0x3F ADD AND DUP2 ADD SWAP1 DUP3 DUP3 GT DUP2 DUP4 LT OR ISZERO PUSH2 0x1F14 JUMPI PUSH2 0x1F14 PUSH2 0x1EAA JUMP JUMPDEST DUP2 PUSH1 0x40 MSTORE DUP4 DUP2 MSTORE DUP7 PUSH1 0x20 DUP6 DUP9 ADD ADD GT ISZERO PUSH2 0x1F2D JUMPI PUSH1 0x0 DUP1 REVERT JUMPDEST DUP4 PUSH1 0x20 DUP8 ADD PUSH1 0x20 DUP4 ADD CALLDATACOPY PUSH1 0x0 PUSH1 0x20 DUP6 DUP4 ADD ADD MSTORE DUP1 SWAP5 POP POP POP POP POP SWAP3 SWAP2 POP POP JUMP JUMPDEST PUSH1 0x0 PUSH1 0x20 DUP3 DUP5 SUB SLT ISZERO PUSH2 0x1F5F JUMPI PUSH1 0x0 DUP1 REVERT JUMPDEST DUP2 CALLDATALOAD PUSH8 0xFFFFFFFFFFFFFFFF DUP2 GT ISZERO PUSH2 0x1F76 JUMPI PUSH1 0x0 DUP1 REVERT JUMPDEST PUSH2 0x1A18 DUP5 DUP3 DUP6 ADD PUSH2 0x1EC0 JUMP JUMPDEST PUSH1 0x0 DUP1 PUSH1 0x40 DUP4 DUP6 SUB SLT ISZERO PUSH2 0x1F95 JUMPI PUSH1 0x0 DUP1 REVERT JUMPDEST PUSH2 0x1F9E DUP4 PUSH2 0x1CED JUMP JUMPDEST SWAP5 PUSH1 0x20 SWAP4 SWAP1 SWAP4 ADD CALLDATALOAD SWAP4 POP POP POP JUMP JUMPDEST PUSH1 0x0 DUP1 PUSH1 0x40 DUP4 DUP6 SUB SLT ISZERO PUSH2 0x1FBF JUMPI PUSH1 0x0 DUP1 REVERT JUMPDEST DUP3 CALLDATALOAD SWAP2 POP PUSH1 0x20 DUP4 ADD CALLDATALOAD PUSH8 0xFFFFFFFFFFFFFFFF DUP2 GT ISZERO PUSH2 0x1FDD JUMPI PUSH1 0x0 DUP1 REVERT JUMPDEST PUSH2 0x1FE9 DUP6 DUP3 DUP7 ADD PUSH2 0x1EC0 JUMP JUMPDEST SWAP2 POP POP SWAP3 POP SWAP3 SWAP1 POP JUMP JUMPDEST PUSH1 0x60 DUP2 MSTORE PUSH1 0x0 PUSH2 0x2006 PUSH1 0x60 DUP4 ADD DUP7 PUSH2 0x1C51 JUMP JUMPDEST PUSH1 0x20 DUP4 ADD SWAP5 SWAP1 SWAP5 MSTORE POP PUSH1 0x40 ADD MSTORE SWAP2 SWAP1 POP JUMP JUMPDEST PUSH1 0x20 DUP1 DUP3 MSTORE PUSH1 0x11 SWAP1 DUP3 ADD MSTORE PUSH17 0x4D61726B6574206E6F7420616374697665 PUSH1 0x78 SHL PUSH1 0x40 DUP3 ADD MSTORE PUSH1 0x60 ADD SWAP1 JUMP JUMPDEST PUSH4 0x4E487B71 PUSH1 0xE0 SHL PUSH1 0x0 MSTORE PUSH1 0x32 PUSH1 0x4 MSTORE PUSH1 0x24 PUSH1 0x0 REVERT JUMPDEST PUSH4 0x4E487B71 PUSH1 0xE0 SHL PUSH1 0x0 MSTORE PUSH1 0x11 PUSH1 0x4 MSTORE PUSH1 0x24 PUSH1 0x0 REVERT JUMPDEST DUP1 DUP3 ADD DUP1 DUP3 GT ISZERO PUSH2 0x1C4B JUMPI PUSH2 0x1C4B PUSH2 0x2059 JUMP JUMPDEST PUSH1 0x0 PUSH1 0x1 DUP3 ADD PUSH2 0x2094 JUMPI PUSH2 0x2094 PUSH2 0x2059 JUMP JUMPDEST POP PUSH1 0x1 ADD SWAP1 JUMP JUMPDEST PUSH1 0x1 DUP2 DUP2 SHR SWAP1 DUP3 AND DUP1 PUSH2 0x20AF JUMPI PUSH1 0x7F DUP3 AND SWAP2 POP JUMPDEST PUSH1 0x20 DUP3 LT DUP2 SUB PUSH2 0xE4B JUMPI PUSH4 0x4E487B71 PUSH1 0xE0 SHL PUSH1 0x0 MSTORE PUSH1 0x22 PUSH1 0x4 MSTORE PUSH1 0x24 PUSH1 0x0 REVERT JUMPDEST PUSH1 0x0 DUP3 PUSH2 0x20EC JUMPI PUSH4 0x4E487B71 PUSH1 0xE0 SHL PUSH1 0x0 MSTORE PUSH1 0x12 PUSH1 0x4 MSTORE PUSH1 0x24 PUSH1 0x0 REVERT JUMPDEST POP DIV SWAP1 JUMP JUMPDEST DUP1 DUP3 MUL DUP2 ISZERO DUP3 DUP3 DIV DUP5 EQ OR PUSH2 0x1C4B JUMPI PUSH2 0x1C4B PUSH2 0x2059 JUMP JUMPDEST DUP3 DUP2 MSTORE PUSH1 0x40 PUSH1 0x20 DUP3 ADD MSTORE PUSH1 0x0 PUSH2 0x1A18 PUSH1 0x40 DUP4 ADD DUP5 PUSH2 0x1C51 JUMP JUMPDEST DUP2 DUP2 SUB DUP2 DUP2 GT ISZERO PUSH2 0x1C4B JUMPI PUSH2 0x1C4B PUSH2 0x2059 JUMP INVALID LOG2 PUSH5 0x6970667358 0x22 SLT KECCAK256 0x4B OR 0xE6 0xCF 0x22 EXTCODECOPY 0xE5 SWAP9 PUSH28 0x7A05A3F7FF56CEC4333E2FA54649571F4DEA8C16D53E5764736F6C63 NUMBER STOP ADDMOD EQ STOP CALLER "},"gasEstimates":{"creation":{"codeDepositCost":"1710800","executionCost":"infinite","totalCost":"infinite"},"external":{"calculateUserReward(address)":"infinite","cancelMarket(string)":"infinite","claimReward()":"infinite","creator()":"2373","description()":"infinite","disputeMarket(string)":"infinite","expiryTime()":"2384","factory()":"2437","getMarketInfo()":"infinite","getOdds()":"infinite","getOutcomes()":"infinite","getParticipants()":"infinite","getUserBets(address)":"infinite","hasParticipated(address)":"2598","hasUnclaimedRewards(address)":"infinite","oracleAddress()":"2371","oracleType()":"2437","outcomeStaked(uint256)":"2484","outcomes(uint256)":"infinite","participants(uint256)":"4715","pause()":"infinite","paused()":"2360","placeBet(uint256)":"infinite","platformFeeRate()":"2383","resolutionTime()":"2427","resolveMarket(uint256,string)":"infinite","status()":"2515","title()":"infinite","totalVolume()":"2384","unpause()":"infinite","userBets(address,uint256)":"11276","userTotalStaked(address)":"2565","winningOutcome()":"2406"}},"methodIdentifiers":{"calculateUserReward(address)":"cf2b9f48","cancelMarket(string)":"64ff1cb3","claimReward()":"b88a802f","creator()":"02d05d3f","description()":"7284e416","disputeMarket(string)":"87abac11","expiryTime()":"99bc0aea","factory()":"c45a0155","getMarketInfo()":"23341a05","getOdds()":"4c5be574","getOutcomes()":"3d3db8eb","getParticipants()":"5aa68ac0","getUserBets(address)":"2d56657d","hasParticipated(address)":"b4fb3ee3","hasUnclaimedRewards(address)":"8029c071","oracleAddress()":"a89ae4ba","oracleType()":"0d623e10","outcomeStaked(uint256)":"20fdfc9b","outcomes(uint256)":"eed2a147","participants(uint256)":"35c1d349","pause()":"8456cb59","paused()":"5c975abb","placeBet(uint256)":"10fe7c48","platformFeeRate()":"eeca08f0","resolutionTime()":"f3e41e90","resolveMarket(uint256,string)":"c75bb724","status()":"200d2ed2","title()":"4a79d50c","totalVolume()":"5f81a57c","unpause()":"3f4ba83a","userBets(address,uint256)":"8068aa68","userTotalStaked(address)":"719de1ef","winningOutcome()":"9b34ae03"}},"storageLayout":{"storage":[{"astId":928,"contract":"contracts/PredictionMarket.sol:PredictionMarket","label":"_status","offset":0,"slot":"0","type":"t_uint256"},{"astId":818,"contract":"contracts/PredictionMarket.sol:PredictionMarket","label":"_paused","offset":0,"slot":"1","type":"t_bool"},{"astId":3127,"contract":"contracts/PredictionMarket.sol:PredictionMarket","label":"title","offset":0,"slot":"2","type":"t_string_storage"},{"astId":3129,"contract":"contracts/PredictionMarket.sol:PredictionMarket","label":"description","offset":0,"slot":"3","type":"t_string_storage"},{"astId":3133,"contract":"contracts/PredictionMarket.sol:PredictionMarket","label":"outcomes","offset":0,"slot":"4","type":"t_array(t_struct(Outcome)3125_storage)dyn_storage"},{"astId":3135,"contract":"contracts/PredictionMarket.sol:PredictionMarket","label":"expiryTime","offset":0,"slot":"5","type":"t_uint256"},{"astId":3137,"contract":"contracts/PredictionMarket.sol:PredictionMarket","label":"creator","offset":0,"slot":"6","type":"t_address"},{"astId":3139,"contract":"contracts/PredictionMarket.sol:PredictionMarket","label":"factory","offset":0,"slot":"7","type":"t_address"},{"astId":3141,"contract":"contracts/PredictionMarket.sol:PredictionMarket","label":"oracleAddress","offset":0,"slot":"8","type":"t_address"},{"astId":3144,"contract":"contracts/PredictionMarket.sol:PredictionMarket","label":"oracleType","offset":20,"slot":"8","type":"t_enum(OracleType)3109"},{"astId":3147,"contract":"contracts/PredictionMarket.sol:PredictionMarket","label":"status","offset":21,"slot":"8","type":"t_enum(MarketStatus)3105"},{"astId":3149,"contract":"contracts/PredictionMarket.sol:PredictionMarket","label":"totalVolume","offset":0,"slot":"9","type":"t_uint256"},{"astId":3151,"contract":"contracts/PredictionMarket.sol:PredictionMarket","label":"winningOutcome","offset":0,"slot":"10","type":"t_uint256"},{"astId":3153,"contract":"contracts/PredictionMarket.sol:PredictionMarket","label":"resolutionTime","offset":0,"slot":"11","type":"t_uint256"},{"astId":3155,"contract":"contracts/PredictionMarket.sol:PredictionMarket","label":"platformFeeRate","offset":0,"slot":"12","type":"t_uint256"},{"astId":3161,"contract":"contracts/PredictionMarket.sol:PredictionMarket","label":"userBets","offset":0,"slot":"13","type":"t_mapping(t_address,t_array(t_struct(Bet)3118_storage)dyn_storage)"},{"astId":3165,"contract":"contracts/PredictionMarket.sol:PredictionMarket","label":"userTotalStaked","offset":0,"slot":"14","type":"t_mapping(t_address,t_uint256)"},{"astId":3169,"contract":"contracts/PredictionMarket.sol:PredictionMarket","label":"outcomeStaked","offset":0,"slot":"15","type":"t_mapping(t_uint256,t_uint256)"},{"astId":3172,"contract":"contracts/PredictionMarket.sol:PredictionMarket","label":"participants","offset":0,"slot":"16","type":"t_array(t_address)dyn_storage"},{"astId":3176,"contract":"contracts/PredictionMarket.sol:PredictionMarket","label":"hasParticipated","offset":0,"slot":"17","type":"t_mapping(t_address,t_bool)"}],"types":{"t_address":{"encoding":"inplace","label":"address","numberOfBytes":"20"},"t_array(t_address)dyn_storage":{"base":"t_address","encoding":"dynamic_array","label":"address[]","numberOfBytes":"32"},"t_array(t_struct(Bet)3118_storage)dyn_storage":{"base":"t_struct(Bet)3118_storage","encoding":"dynamic_array","label":"struct PredictionMarket.Bet[]","numberOfBytes":"32"},"t_array(t_struct(Outcome)3125_storage)dyn_storage":{"base":"t_struct(Outcome)3125_storage","encoding":"dynamic_array","label":"struct PredictionMarket.Outcome[]","numberOfBytes":"32"},"t_bool":{"encoding":"inplace","label":"bool","numberOfBytes":"1"},"t_enum(MarketStatus)3105":{"encoding":"inplace","label":"enum PredictionMarket.MarketStatus","numberOfBytes":"1"},"t_enum(OracleType)3109":{"encoding":"inplace","label":"enum PredictionMarket.OracleType","numberOfBytes":"1"},"t_mapping(t_address,t_array(t_struct(Bet)3118_storage)dyn_storage)":{"encoding":"mapping","key":"t_address","label":"mapping(address => struct PredictionMarket.Bet[])","numberOfBytes":"32","value":"t_array(t_struct(Bet)3118_storage)dyn_storage"},"t_mapping(t_address,t_bool)":{"encoding":"mapping","key":"t_address","label":"mapping(address => bool)","numberOfBytes":"32","value":"t_bool"},"t_mapping(t_address,t_uint256)":{"encoding":"mapping","key":"t_address","label":"mapping(address => uint256)","numberOfBytes":"32","value":"t_uint256"},"t_mapping(t_uint256,t_uint256)":{"encoding":"mapping","key":"t_uint256","label":"mapping(uint256 => uint256)","numberOfBytes":"32","value":"t_uint256"},"t_string_storage":{"encoding":"bytes","label":"string","numberOfBytes":"32"},"t_struct(Bet)3118_storage":{"encoding":"inplace","label":"struct PredictionMarket.Bet","members":[{"astId":3111,"contract":"contracts/PredictionMarket.sol:PredictionMarket","label":"amount","offset":0,"slot":"0","type":"t_uint256"},{"astId":3113,"contract":"contracts/PredictionMarket.sol:PredictionMarket","label":"outcome","offset":0,"slot":"1","type":"t_uint256"},{"astId":3115,"contract":"contracts/PredictionMarket.sol:PredictionMarket","label":"timestamp","offset":0,"slot":"2","type":"t_uint256"},{"astId":3117,"contract":"contracts/PredictionMarket.sol:PredictionMarket","label":"claimed","offset":0,"slot":"3","type":"t_bool"}],"numberOfBytes":"128"},"t_struct(Outcome)3125_storage":{"encoding":"inplace","label":"struct PredictionMarket.Outcome","members":[{"astId":3120,"contract":"contracts/PredictionMarket.sol:PredictionMarket","label":"name","offset":0,"slot":"0","type":"t_string_storage"},{"astId":3122,"contract":"contracts/PredictionMarket.sol:PredictionMarket","label":"totalStaked","offset":0,"slot":"1","type":"t_uint256"},{"astId":3124,"contract":"contracts/PredictionMarket.sol:PredictionMarket","label":"betCount","offset":0,"slot":"2","type":"t_uint256"}],"numberOfBytes":"96"},"t_uint256":{"encoding":"inplace","label":"uint256","numberOfBytes":"32"}}},"userdoc":{"kind":"user","methods":{},"version":1}}}}