{"contracts/DisputeResolution.sol":{"DisputeResolution":{"abi":[{"inputs":[{"internalType":"address","name":"_orxToken","type":"address"},{"internalType":"address","name":"_stakingContract","type":"address"},{"internalType":"uint256","name":"_minimumDisputeBond","type":"uint256"},{"internalType":"uint256","name":"_votingPeriod","type":"uint256"},{"internalType":"uint256","name":"_quorumThreshold","type":"uint256"}],"stateMutability":"nonpayable","type":"constructor"},{"inputs":[{"internalType":"address","name":"owner","type":"address"}],"name":"OwnableInvalidOwner","type":"error"},{"inputs":[{"internalType":"address","name":"account","type":"address"}],"name":"OwnableUnauthorizedAccount","type":"error"},{"inputs":[],"name":"ReentrancyGuardReentrantCall","type":"error"},{"anonymous":false,"inputs":[{"indexed":true,"internalType":"uint256","name":"disputeId","type":"uint256"},{"indexed":true,"internalType":"address","name":"market","type":"address"},{"indexed":true,"internalType":"address","name":"disputer","type":"address"},{"indexed":false,"internalType":"uint256","name":"disputedOutcome","type":"uint256"},{"indexed":false,"internalType":"uint256","name":"proposedOutcome","type":"uint256"}],"name":"DisputeOpened","type":"event"},{"anonymous":false,"inputs":[{"indexed":true,"internalType":"uint256","name":"disputeId","type":"uint256"},{"indexed":false,"internalType":"bool","name":"upheld","type":"bool"},{"indexed":false,"internalType":"uint256","name":"finalOutcome","type":"uint256"}],"name":"DisputeResolved","type":"event"},{"anonymous":false,"inputs":[{"indexed":true,"internalType":"address","name":"previousOwner","type":"address"},{"indexed":true,"internalType":"address","name":"newOwner","type":"address"}],"name":"OwnershipTransferred","type":"event"},{"anonymous":false,"inputs":[{"indexed":true,"internalType":"uint256","name":"disputeId","type":"uint256"},{"indexed":false,"internalType":"uint256","name":"totalRewards","type":"uint256"}],"name":"RewardsDistributed","type":"event"},{"anonymous":false,"inputs":[{"indexed":true,"internalType":"uint256","name":"disputeId","type":"uint256"},{"indexed":true,"internalType":"address","name":"voter","type":"address"},{"indexed":false,"internalType":"enum DisputeResolution.VoteChoice","name":"choice","type":"uint8"},{"indexed":false,"internalType":"uint256","name":"votingPower","type":"uint256"}],"name":"VoteCast","type":"event"},{"inputs":[{"internalType":"uint256","name":"_disputeId","type":"uint256"},{"internalType":"address","name":"_voter","type":"address"}],"name":"canVote","outputs":[{"internalType":"bool","name":"","type":"bool"}],"stateMutability":"view","type":"function"},{"inputs":[{"internalType":"uint256","name":"_disputeId","type":"uint256"}],"name":"claimVotingReward","outputs":[],"stateMutability":"nonpayable","type":"function"},{"inputs":[],"name":"disputeCounter","outputs":[{"internalType":"uint256","name":"","type":"uint256"}],"stateMutability":"view","type":"function"},{"inputs":[{"internalType":"uint256","name":"","type":"uint256"},{"internalType":"uint256","name":"","type":"uint256"}],"name":"disputeVoters","outputs":[{"internalType":"address","name":"","type":"address"}],"stateMutability":"view","type":"function"},{"inputs":[{"internalType":"uint256","name":"","type":"uint256"}],"name":"disputes","outputs":[{"internalType":"address","name":"market","type":"address"},{"internalType":"address","name":"disputer","type":"address"},{"internalType":"uint256","name":"disputedOutcome","type":"uint256"},{"internalType":"uint256","name":"proposedOutcome","type":"uint256"},{"internalType":"string","name":"reason","type":"string"},{"internalType":"uint256","name":"disputeBond","type":"uint256"},{"internalType":"uint256","name":"createdAt","type":"uint256"},{"internalType":"uint256","name":"votingEndsAt","type":"uint256"},{"internalType":"enum DisputeResolution.DisputeStatus","name":"status","type":"uint8"},{"internalType":"uint256","name":"upholdVotes","type":"uint256"},{"internalType":"uint256","name":"overturnVotes","type":"uint256"},{"internalType":"uint256","name":"totalVotingPower","type":"uint256"},{"internalType":"bool","name":"resolved","type":"bool"},{"internalType":"uint256","name":"finalOutcome","type":"uint256"}],"stateMutability":"view","type":"function"},{"inputs":[],"name":"emergencyWithdraw","outputs":[],"stateMutability":"nonpayable","type":"function"},{"inputs":[{"internalType":"uint256","name":"_disputeId","type":"uint256"}],"name":"finalizeDispute","outputs":[],"stateMutability":"nonpayable","type":"function"},{"inputs":[],"name":"getActiveDisputes","outputs":[{"internalType":"uint256[]","name":"","type":"uint256[]"}],"stateMutability":"view","type":"function"},{"inputs":[{"internalType":"uint256","name":"_disputeId","type":"uint256"}],"name":"getDispute","outputs":[{"components":[{"internalType":"address","name":"market","type":"address"},{"internalType":"address","name":"disputer","type":"address"},{"internalType":"uint256","name":"disputedOutcome","type":"uint256"},{"internalType":"uint256","name":"proposedOutcome","type":"uint256"},{"internalType":"string","name":"reason","type":"string"},{"internalType":"uint256","name":"disputeBond","type":"uint256"},{"internalType":"uint256","name":"createdAt","type":"uint256"},{"internalType":"uint256","name":"votingEndsAt","type":"uint256"},{"internalType":"enum DisputeResolution.DisputeStatus","name":"status","type":"uint8"},{"internalType":"uint256","name":"upholdVotes","type":"uint256"},{"internalType":"uint256","name":"overturnVotes","type":"uint256"},{"internalType":"uint256","name":"totalVotingPower","type":"uint256"},{"internalType":"bool","name":"resolved","type":"bool"},{"internalType":"uint256","name":"finalOutcome","type":"uint256"}],"internalType":"struct DisputeResolution.Dispute","name":"","type":"tuple"}],"stateMutability":"view","type":"function"},{"inputs":[{"internalType":"uint256","name":"_disputeId","type":"uint256"}],"name":"getDisputeVoters","outputs":[{"internalType":"address[]","name":"","type":"address[]"}],"stateMutability":"view","type":"function"},{"inputs":[],"name":"getTotalDisputes","outputs":[{"internalType":"uint256","name":"","type":"uint256"}],"stateMutability":"view","type":"function"},{"inputs":[{"internalType":"uint256","name":"_disputeId","type":"uint256"},{"internalType":"address","name":"_voter","type":"address"}],"name":"getVote","outputs":[{"components":[{"internalType":"enum DisputeResolution.VoteChoice","name":"choice","type":"uint8"},{"internalType":"uint256","name":"votingPower","type":"uint256"},{"internalType":"uint256","name":"timestamp","type":"uint256"},{"internalType":"bool","name":"claimed","type":"bool"}],"internalType":"struct DisputeResolution.Vote","name":"","type":"tuple"}],"stateMutability":"view","type":"function"},{"inputs":[],"name":"minimumDisputeBond","outputs":[{"internalType":"uint256","name":"","type":"uint256"}],"stateMutability":"view","type":"function"},{"inputs":[],"name":"minimumVotingPower","outputs":[{"internalType":"uint256","name":"","type":"uint256"}],"stateMutability":"view","type":"function"},{"inputs":[{"internalType":"address","name":"_market","type":"address"},{"internalType":"uint256","name":"_disputedOutcome","type":"uint256"},{"internalType":"uint256","name":"_proposedOutcome","type":"uint256"},{"internalType":"string","name":"_reason","type":"string"}],"name":"openDispute","outputs":[{"internalType":"uint256","name":"","type":"uint256"}],"stateMutability":"payable","type":"function"},{"inputs":[],"name":"orxToken","outputs":[{"internalType":"contract IERC20","name":"","type":"address"}],"stateMutability":"view","type":"function"},{"inputs":[],"name":"owner","outputs":[{"internalType":"address","name":"","type":"address"}],"stateMutability":"view","type":"function"},{"inputs":[],"name":"quorumThreshold","outputs":[{"internalType":"uint256","name":"","type":"uint256"}],"stateMutability":"view","type":"function"},{"inputs":[],"name":"renounceOwnership","outputs":[],"stateMutability":"nonpayable","type":"function"},{"inputs":[],"name":"stakingContract","outputs":[{"internalType":"contract StakingContract","name":"","type":"address"}],"stateMutability":"view","type":"function"},{"inputs":[{"internalType":"address","name":"newOwner","type":"address"}],"name":"transferOwnership","outputs":[],"stateMutability":"nonpayable","type":"function"},{"inputs":[{"internalType":"uint256","name":"_minimumDisputeBond","type":"uint256"},{"internalType":"uint256","name":"_votingPeriod","type":"uint256"},{"internalType":"uint256","name":"_quorumThreshold","type":"uint256"},{"internalType":"uint256","name":"_minimumVotingPower","type":"uint256"}],"name":"updateParameters","outputs":[],"stateMutability":"nonpayable","type":"function"},{"inputs":[{"internalType":"uint256","name":"_disputeId","type":"uint256"},{"internalType":"enum DisputeResolution.VoteChoice","name":"_choice","type":"uint8"}],"name":"voteOnDispute","outputs":[],"stateMutability":"nonpayable","type":"function"},{"inputs":[{"internalType":"uint256","name":"","type":"uint256"},{"internalType":"address","name":"","type":"address"}],"name":"votes","outputs":[{"internalType":"enum DisputeResolution.VoteChoice","name":"choice","type":"uint8"},{"internalType":"uint256","name":"votingPower","type":"uint256"},{"internalType":"uint256","name":"timestamp","type":"uint256"},{"internalType":"bool","name":"claimed","type":"bool"}],"stateMutability":"view","type":"function"},{"inputs":[],"name":"votingPeriod","outputs":[{"internalType":"uint256","name":"","type":"uint256"}],"stateMutability":"view","type":"function"}],"devdoc":{"errors":{"OwnableInvalidOwner(address)":[{"details":"The owner is not a valid owner account. (eg. `address(0)`)"}],"OwnableUnauthorizedAccount(address)":[{"details":"The caller account is not authorized to perform an operation."}],"ReentrancyGuardReentrantCall()":[{"details":"Unauthorized reentrant call."}]},"kind":"dev","methods":{"canVote(uint256,address)":{"details":"Check if user can vote on dispute"},"claimVotingReward(uint256)":{"details":"Claim voting rewards manually"},"emergencyWithdraw()":{"details":"Emergency withdrawal of contract funds"},"finalizeDispute(uint256)":{"details":"Finalize a dispute after voting period","params":{"_disputeId":"ID of the dispute to finalize"}},"getActiveDisputes()":{"details":"Get active disputes"},"getDispute(uint256)":{"details":"Get dispute information"},"getDisputeVoters(uint256)":{"details":"Get all voters for a dispute"},"getTotalDisputes()":{"details":"Get total disputes count"},"getVote(uint256,address)":{"details":"Get vote information"},"openDispute(address,uint256,uint256,string)":{"details":"Open a dispute for a market resolution","params":{"_disputedOutcome":"Current outcome being disputed","_market":"Address of the prediction market","_proposedOutcome":"Proposed correct outcome","_reason":"Reason for the dispute"}},"owner()":{"details":"Returns the address of the current owner."},"renounceOwnership()":{"details":"Leaves the contract without owner. It will not be possible to call `onlyOwner` functions. Can only be called by the current owner. NOTE: Renouncing ownership will leave the contract without an owner, thereby disabling any functionality that is only available to the owner."},"transferOwnership(address)":{"details":"Transfers ownership of the contract to a new account (`newOwner`). Can only be called by the current owner."},"updateParameters(uint256,uint256,uint256,uint256)":{"details":"Update contract parameters"},"voteOnDispute(uint256,uint8)":{"details":"Vote on a dispute","params":{"_choice":"Vote choice (Uphold or Overturn)","_disputeId":"ID of the dispute"}}},"version":1},"evm":{"bytecode":{"linkReferences":{},"object":"60806040523480156200001157600080fd5b5060405162002d6938038062002d6983398101604081905262000034916200012a565b600160005533806200006057604051631e4fbdf760e01b81526000600482015260240160405180910390fd5b6200006b81620000bb565b50600a80546001600160a01b039687166001600160a01b031991821617909155600b805495909616941693909317909355600655600791909155600955683635c9adc5dea000006008556200017d565b600180546001600160a01b038381166001600160a01b0319831681179093556040519116919082907f8be0079c531659141344cd1fd0a4f28419497f9722a3daafe3b4186f6b6457e090600090a35050565b80516001600160a01b03811681146200012557600080fd5b919050565b600080600080600060a086880312156200014357600080fd5b6200014e866200010d565b94506200015e602087016200010d565b6040870151606088015160809098015196999198509695945092505050565b612bdc806200018d6000396000f3fe6080604052600436106101665760003560e01c80639a181e40116100d1578063db2e21bc1161008a578063ee1eab4f11610064578063ee1eab4f14610474578063ee99205c14610494578063f2fde38b146104b4578063f3d01532146104d457600080fd5b8063db2e21bc14610412578063e36c33b214610427578063e3a96cbd1461044757600080fd5b80639a181e4014610301578063ada6b0d414610321578063bc3f931f14610341578063c057f4ce1461036e578063cdb2867b14610381578063d23254b4146103b157600080fd5b806356989a831161012357806356989a831461026b578063715018a61461028d5780637b7a91dd146102a25780637d36f4d3146102b85780638da5cb5b146102ce57806397fbc2fb146102ec57600080fd5b806302a251a31461016b578063032db3391461019457806303a09d18146101cc578063120ea202146101ee5780631732d65214610204578063564a565d14610231575b600080fd5b34801561017757600080fd5b5061018160075481565b6040519081526020015b60405180910390f35b3480156101a057600080fd5b50600a546101b4906001600160a01b031681565b6040516001600160a01b03909116815260200161018b565b3480156101d857600080fd5b506101e16104ea565b60405161018b9190612239565b3480156101fa57600080fd5b5061018160085481565b34801561021057600080fd5b5061022461021f36600461227d565b610611565b60405161018b9190612296565b34801561023d57600080fd5b5061025161024c36600461227d565b61067d565b60405161018b9e9d9c9b9a99989796959493929190612351565b34801561027757600080fd5b5061028b61028636600461227d565b610788565b005b34801561029957600080fd5b5061028b610c95565b3480156102ae57600080fd5b5061018160095481565b3480156102c457600080fd5b5061018160055481565b3480156102da57600080fd5b506001546001600160a01b03166101b4565b3480156102f857600080fd5b50600554610181565b34801561030d57600080fd5b5061028b61031c36600461227d565b610ca9565b34801561032d57600080fd5b5061028b61033c3660046123ec565b610f34565b34801561034d57600080fd5b5061036161035c366004612435565b611491565b60405161018b919061246a565b61018161037c366004612512565b611536565b34801561038d57600080fd5b506103a161039c366004612435565b6118e3565b604051901515815260200161018b565b3480156103bd57600080fd5b506104026103cc366004612435565b60036020818152600093845260408085209091529183529120805460018201546002830154929093015460ff9182169392911684565b60405161018b94939291906125b8565b34801561041e57600080fd5b5061028b611be1565b34801561043357600080fd5b506101b46104423660046125e3565b611c92565b34801561045357600080fd5b5061046761046236600461227d565b611cca565b60405161018b9190612605565b34801561048057600080fd5b5061028b61048f3660046126f2565b611e43565b3480156104a057600080fd5b50600b546101b4906001600160a01b031681565b3480156104c057600080fd5b5061028b6104cf366004612724565b611e5f565b3480156104e057600080fd5b5061018160065481565b60606000805b60055481101561054757600160008281526002602052604090206008015460ff16600381111561052257610522612327565b0361053557816105318161275e565b9250505b8061053f8161275e565b9150506104f0565b5060008167ffffffffffffffff811115610563576105636124a3565b60405190808252806020026020018201604052801561058c578160200160208202803683370190505b5090506000805b60055481101561060857600160008281526002602052604090206008015460ff1660038111156105c5576105c5612327565b036105f657808383815181106105dd576105dd612777565b6020908102919091010152816105f28161275e565b9250505b806106008161275e565b915050610593565b50909392505050565b60008181526004602090815260409182902080548351818402810184019094528084526060939283018282801561067157602002820191906000526020600020905b81546001600160a01b03168152600190910190602001808311610653575b50505050509050919050565b6002602081905260009182526040909120805460018201549282015460038301546004840180546001600160a01b03948516969094169492939192916106c29061278d565b80601f01602080910402602001604051908101604052809291908181526020018280546106ee9061278d565b801561073b5780601f106107105761010080835404028352916020019161073b565b820191906000526020600020905b81548152906001019060200180831161071e57829003601f168201915b5050505060058301546006840154600785015460088601546009870154600a880154600b890154600c8a0154600d909a015498999698959750939560ff938416959294919391929116908e565b610790611e9a565b8060055481106107bb5760405162461bcd60e51b81526004016107b2906127c7565b60405180910390fd5b60008281526002602052604090206001600882015460ff1660038111156107e4576107e4612327565b146108315760405162461bcd60e51b815260206004820152601b60248201527f44697370757465206e6f7420696e20766f74696e67207068617365000000000060448201526064016107b2565b806007015442116108845760405162461bcd60e51b815260206004820152601760248201527f566f74696e6720706572696f64206e6f7420656e64656400000000000000000060448201526064016107b2565b600c81015460ff16156108d95760405162461bcd60e51b815260206004820152601860248201527f4469737075746520616c7265616479207265736f6c766564000000000000000060448201526064016107b2565b600a54600b546040516370a0823160e01b81526001600160a01b03918216600482015260009291909116906370a0823190602401602060405180830381865afa15801561092a573d6000803e3d6000fd5b505050506040513d601f19601f8201168201806040525081019061094e91906127f7565b905060006064600954836109629190612810565b61096c9190612827565b90508083600b01541015610a6f5760088301805460ff19166003179055600183015460058401546040516000926001600160a01b031691908381818185875af1925050503d80600081146109dc576040519150601f19603f3d011682016040523d82523d6000602084013e6109e1565b606091505b5050905080610a275760405162461bcd60e51b8152602060048201526012602482015271109bdb99081c995d1d5c9b8819985a5b195960721b60448201526064016107b2565b600d8401546040805160008152602081019290925287917f5add0b1fc2a3dfd95be33d1d5feb6709087e50213b7a73c3c3b2c387001221e7910160405180910390a250610c84565b600a8301546009840154118015610b3e5760088401805460ff19166002908117909155840154600d850155600184015460058501546040516000926001600160a01b031691908381818185875af1925050503d8060008114610aed576040519150601f19603f3d011682016040523d82523d6000602084013e610af2565b606091505b5050905080610b385760405162461bcd60e51b8152602060048201526012602482015271109bdb99081c995d1d5c9b8819985a5b195960721b60448201526064016107b2565b50610c20565b60088401805460ff191660029081179091556003850154600d8601556005850154600091610b6b91612827565b8560050154610b7a9190612849565b60018601546040519192506000916001600160a01b039091169083908381818185875af1925050503d8060008114610bce576040519150601f19603f3d011682016040523d82523d6000602084013e610bd3565b606091505b5050905080610c1d5760405162461bcd60e51b815260206004820152601660248201527514995dd85c99081d1c985b9cd9995c8819985a5b195960521b60448201526064016107b2565b50505b600c8401805460ff19166001179055610c398682611ec4565b857f5add0b1fc2a3dfd95be33d1d5feb6709087e50213b7a73c3c3b2c387001221e78286600d0154604051610c7a9291909115158252602082015260400190565b60405180910390a2505b50505050610c926001600055565b50565b610c9d612126565b610ca76000612153565b565b610cb1611e9a565b806005548110610cd35760405162461bcd60e51b81526004016107b2906127c7565b6000828152600260205260409020600c015460ff16610d2b5760405162461bcd60e51b8152602060048201526014602482015273111a5cdc1d5d19481b9bdd081c995cdbdb1d995960621b60448201526064016107b2565b6000828152600360208181526040808420338552909152909120015460ff1615610d905760405162461bcd60e51b815260206004820152601660248201527514995dd85c9908185b1c9958591e4818db185a5b595960521b60448201526064016107b2565b6000828152600260209081526040808320600383528184203385529092528220600a8201546009830154929391921190818015610de257506001835460ff166002811115610de057610de0612327565b145b80610e0b575081158015610e0b57506002835460ff166002811115610e0957610e09612327565b145b905080610e515760405162461bcd60e51b8152602060048201526014602482015273446964206e6f742077696e2074686520766f746560601b60448201526064016107b2565b600082610e625784600a0154610e68565b84600901545b9050600060048660050154610e7d9190612827565b9050600082828760010154610e929190612810565b610e9c9190612827565b60038701805460ff19166001179055600a5460405163a9059cbb60e01b8152336004820152602481018390529192506001600160a01b03169063a9059cbb906044016020604051808303816000875af1158015610efd573d6000803e3d6000fd5b505050506040513d601f19601f82011682018060405250810190610f219190612871565b505050505050505050610c926001600055565b610f3c611e9a565b816005548110610f5e5760405162461bcd60e51b81526004016107b2906127c7565b600b54604051631015428760e21b81523360048201526001600160a01b03909116906340550a1c90602401602060405180830381865afa158015610fa6573d6000803e3d6000fd5b505050506040513d601f19601f82011682018060405250810190610fca9190612871565b6110165760405162461bcd60e51b815260206004820152601760248201527f4e6f7420616e206163746976652076616c696461746f7200000000000000000060448201526064016107b2565b600082600281111561102a5761102a612327565b0361106d5760405162461bcd60e51b8152602060048201526013602482015272496e76616c696420766f74652063686f69636560681b60448201526064016107b2565b60008381526002602052604090206001600882015460ff16600381111561109657611096612327565b146110d95760405162461bcd60e51b8152602060048201526013602482015272159bdd1a5b99c81c195c9a5bd908195b991959606a1b60448201526064016107b2565b80600701544211156111255760405162461bcd60e51b8152602060048201526015602482015274159bdd1a5b99c81c195c9a5bd908195e1c1a5c9959605a1b60448201526064016107b2565b600084815260036020908152604080832033845290915281205460ff16600281111561115357611153612327565b146111905760405162461bcd60e51b815260206004820152600d60248201526c105b1c9958591e481d9bdd1959609a1b60448201526064016107b2565b600b5460405163c345315360e01b81523360048201526000916001600160a01b03169063c34531539060240160a060405180830381865afa1580156111d9573d6000803e3d6000fd5b505050506040513d601f19601f820116820180604052508101906111fd919061288c565b600b54604051638a11d7c960e01b81523360048201529192506000916001600160a01b0390911690638a11d7c99060240160e060405180830381865afa15801561124b573d6000803e3d6000fd5b505050506040513d601f19601f8201168201806040525081019061126f9190612900565b9050600854826000015110156112c75760405162461bcd60e51b815260206004820152601960248201527f496e73756666696369656e7420766f74696e6720706f7765720000000000000060448201526064016107b2565b60006103e8826040015184600001516112e09190612810565b6112ea9190612827565b9050604051806080016040528087600281111561130957611309612327565b8152602080820184905242604080840191909152600060609093018390528a835260038252808320338452909152902081518154829060ff1916600183600281111561135757611357612327565b021790555060208281015160018084019190915560408085015160028501556060909401516003909301805493151560ff199094169390931790925560008a81526004825292832080548084018255908452922090910180546001600160a01b031916331790558660028111156113d0576113d0612327565b036113f457808460090160008282546113e99190612849565b909155506114279050565b600286600281111561140857611408612327565b03611427578084600a0160008282546114219190612849565b90915550505b8084600b01600082825461143b9190612849565b9091555050604051339088907fb83d25c6a5d258561330739951487acb4bd09ba5190b5d32c4f261817d90679290611476908a908690612994565b60405180910390a3505050505061148d6001600055565b5050565b60408051608080820183526000808352602080840182905283850182905260608401829052868252600381528482206001600160a01b038716835290528390208351918201909352825491929091829060ff1660028111156114f5576114f5612327565b600281111561150657611506612327565b8152600182015460208201526002820154604082015260039091015460ff16151560609091015290505b92915050565b6000611540611e9a565b6006543410156115925760405162461bcd60e51b815260206004820152601960248201527f496e73756666696369656e74206469737075746520626f6e640000000000000060448201526064016107b2565b8284036115e15760405162461bcd60e51b815260206004820152601b60248201527f4f7574636f6d65732063616e6e6f74206265207468652073616d65000000000060448201526064016107b2565b60008251116116245760405162461bcd60e51b815260206004820152600f60248201526e1499585cdbdb881c995c5d5a5c9959608a1b60448201526064016107b2565b6000856001600160a01b03166323341a056040518163ffffffff1660e01b8152600401600060405180830381865afa158015611664573d6000803e3d6000fd5b505050506040513d6000823e601f3d908101601f1916820160405261168c91908101906129f4565b509095506001945061169e9350505050565b8160038111156116b0576116b0612327565b146116f35760405162461bcd60e51b815260206004820152601360248201527213585c9ad95d081b9bdd081c995cdbdb1d9959606a1b60448201526064016107b2565b60058054600091826117048361275e565b919050559050604051806101c00160405280886001600160a01b03168152602001336001600160a01b03168152602001878152602001868152602001858152602001348152602001428152602001600754426117609190612849565b8152602001600181526000602080830182905260408084018390526060808501849052608080860185905260a09095018c9052868452600280845293829020865181546001600160a01b03199081166001600160a01b039283161783559488015160018301805490961691161790935590850151928201929092559083015160038201559082015160048201906117f79082612ae6565b5060a0820151600582015560c0820151600682015560e0820151600782015561010082015160088201805460ff1916600183600381111561183a5761183a612327565b02179055506101208201516009820155610140820151600a820155610160820151600b820155610180820151600c8201805460ff19169115159190911790556101a090910151600d90910155604080518781526020810187905233916001600160a01b038a169184917f0f192e69661023236eea1ddf6a33a7b77ffadea48ea9250e4b49e4a4c68c4b03910160405180910390a49150506118db6001600055565b949350505050565b600060055483106118f657506000611530565b600083815260026020818152604080842081516101c08101835281546001600160a01b039081168252600183015416938101939093529283015490820152600382015460608201526004820180549192916080840191906119569061278d565b80601f01602080910402602001604051908101604052809291908181526020018280546119829061278d565b80156119cf5780601f106119a4576101008083540402835291602001916119cf565b820191906000526020600020905b8154815290600101906020018083116119b257829003601f168201915b5050509183525050600582015460208201526006820154604082015260078201546060820152600882015460809091019060ff166003811115611a1457611a14612327565b6003811115611a2557611a25612327565b815260098201546020820152600a8201546040820152600b8201546060820152600c82015460ff1615156080820152600d9091015460a090910152905060018161010001516003811115611a7b57611a7b612327565b14611a8a576000915050611530565b8060e00151421115611aa0576000915050611530565b60008481526003602090815260408083206001600160a01b038716845290915281205460ff166002811115611ad757611ad7612327565b14611ae6576000915050611530565b600b54604051631015428760e21b81526001600160a01b038581166004830152909116906340550a1c90602401602060405180830381865afa158015611b30573d6000803e3d6000fd5b505050506040513d601f19601f82011682018060405250810190611b549190612871565b611b62576000915050611530565b600b5460405163c345315360e01b81526001600160a01b038581166004830152600092169063c34531539060240160a060405180830381865afa158015611bad573d6000803e3d6000fd5b505050506040513d601f19601f82011682018060405250810190611bd1919061288c565b6008549051101595945050505050565b611be9612126565b476000611bfe6001546001600160a01b031690565b6001600160a01b03168260405160006040518083038185875af1925050503d8060008114611c48576040519150601f19603f3d011682016040523d82523d6000602084013e611c4d565b606091505b505090508061148d5760405162461bcd60e51b815260206004820152601160248201527015da5d1a191c985dd85b0819985a5b1959607a1b60448201526064016107b2565b60046020528160005260406000208181548110611cae57600080fd5b6000918252602090912001546001600160a01b03169150829050565b611cd26121a5565b60008281526002602081815260409283902083516101c08101855281546001600160a01b03908116825260018301541692810192909252918201549281019290925260038101546060830152600481018054608084019190611d339061278d565b80601f0160208091040260200160405190810160405280929190818152602001828054611d5f9061278d565b8015611dac5780601f10611d8157610100808354040283529160200191611dac565b820191906000526020600020905b815481529060010190602001808311611d8f57829003601f168201915b5050509183525050600582015460208201526006820154604082015260078201546060820152600882015460809091019060ff166003811115611df157611df1612327565b6003811115611e0257611e02612327565b815260098201546020820152600a8201546040820152600b8201546060820152600c82015460ff1615156080820152600d9091015460a09091015292915050565b611e4b612126565b600693909355600791909155600955600855565b611e67612126565b6001600160a01b038116611e9157604051631e4fbdf760e01b8152600060048201526024016107b2565b610c9281612153565b600260005403611ebd57604051633ee5aeb560e01b815260040160405180910390fd5b6002600055565b6000828152600260209081526040808320600483528184208054835181860281018601909452808452919493909190830182828015611f2c57602002820191906000526020600020905b81546001600160a01b03168152600190910190602001808311611f0e575b50505050509050600083611f445782600a0154611f4a565b82600901545b9050600060048460050154611f5f9190612827565b905081600003611f7157505050505050565b60005b83518110156120e3576000848281518110611f9157611f91612777565b60209081029190910181015160008a81526003835260408082206001600160a01b038416835290935291822090925090888015611fe357506001825460ff166002811115611fe157611fe1612327565b145b8061200c57508815801561200c57506002825460ff16600281111561200a5761200a612327565b145b90508080156120205750600382015460ff16155b156120cd576000868684600101546120389190612810565b6120429190612827565b60038401805460ff19166001179055600a5460405163a9059cbb60e01b81526001600160a01b0387811660048301526024820184905292935091169063a9059cbb906044016020604051808303816000875af11580156120a6573d6000803e3d6000fd5b505050506040513d601f19601f820116820180604052508101906120ca9190612871565b50505b50505080806120db9061275e565b915050611f74565b50857f29e98ba00d07f171959c4ddcd2f3020debc7c52cf537a034d7e664340d098c6c8260405161211691815260200190565b60405180910390a2505050505050565b6001546001600160a01b03163314610ca75760405163118cdaa760e01b81523360048201526024016107b2565b600180546001600160a01b038381166001600160a01b0319831681179093556040519116919082907f8be0079c531659141344cd1fd0a4f28419497f9722a3daafe3b4186f6b6457e090600090a35050565b604051806101c0016040528060006001600160a01b0316815260200160006001600160a01b031681526020016000815260200160008152602001606081526020016000815260200160008152602001600081526020016000600381111561220e5761220e612327565b8152602001600081526020016000815260200160008152602001600015158152602001600081525090565b6020808252825182820181905260009190848201906040850190845b8181101561227157835183529284019291840191600101612255565b50909695505050505050565b60006020828403121561228f57600080fd5b5035919050565b6020808252825182820181905260009190848201906040850190845b818110156122715783516001600160a01b0316835292840192918401916001016122b2565b60005b838110156122f25781810151838201526020016122da565b50506000910152565b600081518084526123138160208601602086016122d7565b601f01601f19169290920160200192915050565b634e487b7160e01b600052602160045260246000fd5b6004811061234d5761234d612327565b9052565b6001600160a01b038f811682528e166020820152604081018d9052606081018c90526101c06080820181905260009061238c9083018d6122fb565b90508a60a08301528960c08301528860e08301526123ae61010083018961233d565b8661012083015285610140830152846101608301526123d261018083018515159052565b826101a08301529f9e505050505050505050505050505050565b600080604083850312156123ff57600080fd5b8235915060208301356003811061241557600080fd5b809150509250929050565b6001600160a01b0381168114610c9257600080fd5b6000806040838503121561244857600080fd5b82359150602083013561241581612420565b6003811061234d5761234d612327565b600060808201905061247d82845161245a565b602083015160208301526040830151604083015260608301511515606083015292915050565b634e487b7160e01b600052604160045260246000fd5b604051601f8201601f1916810167ffffffffffffffff811182821017156124e2576124e26124a3565b604052919050565b600067ffffffffffffffff821115612504576125046124a3565b50601f01601f191660200190565b6000806000806080858703121561252857600080fd5b843561253381612420565b93506020850135925060408501359150606085013567ffffffffffffffff81111561255d57600080fd5b8501601f8101871361256e57600080fd5b803561258161257c826124ea565b6124b9565b81815288602083850101111561259657600080fd5b8160208401602083013760006020838301015280935050505092959194509250565b608081016125c6828761245a565b846020830152836040830152821515606083015295945050505050565b600080604083850312156125f657600080fd5b50508035926020909101359150565b6020815261261f6020820183516001600160a01b03169052565b6000602083015161263b60408401826001600160a01b03169052565b50604083015160608301526060830151608083015260808301516101c08060a085015261266c6101e08501836122fb565b915060a085015160c085015260c085015160e085015260e08501516101008181870152808701519150506101206126a58187018361233d565b86015161014086810191909152860151610160808701919091528601516101808087019190915286015190506101a06126e18187018315159052565b959095015193019290925250919050565b6000806000806080858703121561270857600080fd5b5050823594602084013594506040840135936060013592509050565b60006020828403121561273657600080fd5b813561274181612420565b9392505050565b634e487b7160e01b600052601160045260246000fd5b60006001820161277057612770612748565b5060010190565b634e487b7160e01b600052603260045260246000fd5b600181811c908216806127a157607f821691505b6020821081036127c157634e487b7160e01b600052602260045260246000fd5b50919050565b602080825260169082015275111a5cdc1d5d1948191bd95cc81b9bdd08195e1a5cdd60521b604082015260600190565b60006020828403121561280957600080fd5b5051919050565b808202811582820484141761153057611530612748565b60008261284457634e487b7160e01b600052601260045260246000fd5b500490565b8082018082111561153057611530612748565b8051801515811461286c57600080fd5b919050565b60006020828403121561288357600080fd5b6127418261285c565b600060a0828403121561289e57600080fd5b60405160a0810181811067ffffffffffffffff821117156128c1576128c16124a3565b8060405250825181526020830151602082015260408301516040820152606083015160608201526128f46080840161285c565b60808201529392505050565b600060e0828403121561291257600080fd5b60405160e0810181811067ffffffffffffffff82111715612935576129356124a3565b604052825161294381612420565b808252506020830151602082015260408301516040820152606083015160608201526080830151608082015261297b60a0840161285c565b60a082015260c083015160c08201528091505092915050565b604081016129a2828561245a565b8260208301529392505050565b600082601f8301126129c057600080fd5b81516129ce61257c826124ea565b8181528460208386010111156129e357600080fd5b6118db8260208301602087016122d7565b600080600080600080600060e0888a031215612a0f57600080fd5b875167ffffffffffffffff80821115612a2757600080fd5b612a338b838c016129af565b985060208a0151915080821115612a4957600080fd5b50612a568a828b016129af565b9650506040880151945060608801519350608088015160048110612a7957600080fd5b8093505060a0880151915060c0880151905092959891949750929550565b601f821115612ae157600081815260208120601f850160051c81016020861015612abe5750805b601f850160051c820191505b81811015612add57828155600101612aca565b5050505b505050565b815167ffffffffffffffff811115612b0057612b006124a3565b612b1481612b0e845461278d565b84612a97565b602080601f831160018114612b495760008415612b315750858301515b600019600386901b1c1916600185901b178555612add565b600085815260208120601f198616915b82811015612b7857888601518255948401946001909101908401612b59565b5085821015612b965787850151600019600388901b60f8161c191681555b5050505050600190811b0190555056fea2646970667358221220830cb5e2b92c1b48252aee7cd6552e5f397f8abbc2b9e2abc62691b22b446c1764736f6c63430008140033","opcodes":"PUSH1 0x80 PUSH1 0x40 MSTORE CALLVALUE DUP1 ISZERO PUSH3 0x11 JUMPI PUSH1 0x0 DUP1 REVERT JUMPDEST POP PUSH1 0x40 MLOAD PUSH3 0x2D69 CODESIZE SUB DUP1 PUSH3 0x2D69 DUP4 CODECOPY DUP2 ADD PUSH1 0x40 DUP2 SWAP1 MSTORE PUSH3 0x34 SWAP2 PUSH3 0x12A JUMP JUMPDEST PUSH1 0x1 PUSH1 0x0 SSTORE CALLER DUP1 PUSH3 0x60 JUMPI PUSH1 0x40 MLOAD PUSH4 0x1E4FBDF7 PUSH1 0xE0 SHL DUP2 MSTORE PUSH1 0x0 PUSH1 0x4 DUP3 ADD MSTORE PUSH1 0x24 ADD PUSH1 0x40 MLOAD DUP1 SWAP2 SUB SWAP1 REVERT JUMPDEST PUSH3 0x6B DUP2 PUSH3 0xBB JUMP JUMPDEST POP PUSH1 0xA DUP1 SLOAD PUSH1 0x1 PUSH1 0x1 PUSH1 0xA0 SHL SUB SWAP7 DUP8 AND PUSH1 0x1 PUSH1 0x1 PUSH1 0xA0 SHL SUB NOT SWAP2 DUP3 AND OR SWAP1 SWAP2 SSTORE PUSH1 0xB DUP1 SLOAD SWAP6 SWAP1 SWAP7 AND SWAP5 AND SWAP4 SWAP1 SWAP4 OR SWAP1 SWAP4 SSTORE PUSH1 0x6 SSTORE PUSH1 0x7 SWAP2 SWAP1 SWAP2 SSTORE PUSH1 0x9 SSTORE PUSH9 0x3635C9ADC5DEA00000 PUSH1 0x8 SSTORE PUSH3 0x17D JUMP JUMPDEST PUSH1 0x1 DUP1 SLOAD PUSH1 0x1 PUSH1 0x1 PUSH1 0xA0 SHL SUB DUP4 DUP2 AND PUSH1 0x1 PUSH1 0x1 PUSH1 0xA0 SHL SUB NOT DUP4 AND DUP2 OR SWAP1 SWAP4 SSTORE PUSH1 0x40 MLOAD SWAP2 AND SWAP2 SWAP1 DUP3 SWAP1 PUSH32 0x8BE0079C531659141344CD1FD0A4F28419497F9722A3DAAFE3B4186F6B6457E0 SWAP1 PUSH1 0x0 SWAP1 LOG3 POP POP JUMP JUMPDEST DUP1 MLOAD PUSH1 0x1 PUSH1 0x1 PUSH1 0xA0 SHL SUB DUP2 AND DUP2 EQ PUSH3 0x125 JUMPI PUSH1 0x0 DUP1 REVERT JUMPDEST SWAP2 SWAP1 POP JUMP JUMPDEST PUSH1 0x0 DUP1 PUSH1 0x0 DUP1 PUSH1 0x0 PUSH1 0xA0 DUP7 DUP9 SUB SLT ISZERO PUSH3 0x143 JUMPI PUSH1 0x0 DUP1 REVERT JUMPDEST PUSH3 0x14E DUP7 PUSH3 0x10D JUMP JUMPDEST SWAP5 POP PUSH3 0x15E PUSH1 0x20 DUP8 ADD PUSH3 0x10D JUMP JUMPDEST PUSH1 0x40 DUP8 ADD MLOAD PUSH1 0x60 DUP9 ADD MLOAD PUSH1 0x80 SWAP1 SWAP9 ADD MLOAD SWAP7 SWAP10 SWAP2 SWAP9 POP SWAP7 SWAP6 SWAP5 POP SWAP3 POP POP POP JUMP JUMPDEST PUSH2 0x2BDC DUP1 PUSH3 0x18D PUSH1 0x0 CODECOPY PUSH1 0x0 RETURN INVALID PUSH1 0x80 PUSH1 0x40 MSTORE PUSH1 0x4 CALLDATASIZE LT PUSH2 0x166 JUMPI PUSH1 0x0 CALLDATALOAD PUSH1 0xE0 SHR DUP1 PUSH4 0x9A181E40 GT PUSH2 0xD1 JUMPI DUP1 PUSH4 0xDB2E21BC GT PUSH2 0x8A JUMPI DUP1 PUSH4 0xEE1EAB4F GT PUSH2 0x64 JUMPI DUP1 PUSH4 0xEE1EAB4F EQ PUSH2 0x474 JUMPI DUP1 PUSH4 0xEE99205C EQ PUSH2 0x494 JUMPI DUP1 PUSH4 0xF2FDE38B EQ PUSH2 0x4B4 JUMPI DUP1 PUSH4 0xF3D01532 EQ PUSH2 0x4D4 JUMPI PUSH1 0x0 DUP1 REVERT JUMPDEST DUP1 PUSH4 0xDB2E21BC EQ PUSH2 0x412 JUMPI DUP1 PUSH4 0xE36C33B2 EQ PUSH2 0x427 JUMPI DUP1 PUSH4 0xE3A96CBD EQ PUSH2 0x447 JUMPI PUSH1 0x0 DUP1 REVERT JUMPDEST DUP1 PUSH4 0x9A181E40 EQ PUSH2 0x301 JUMPI DUP1 PUSH4 0xADA6B0D4 EQ PUSH2 0x321 JUMPI DUP1 PUSH4 0xBC3F931F EQ PUSH2 0x341 JUMPI DUP1 PUSH4 0xC057F4CE EQ PUSH2 0x36E JUMPI DUP1 PUSH4 0xCDB2867B EQ PUSH2 0x381 JUMPI DUP1 PUSH4 0xD23254B4 EQ PUSH2 0x3B1 JUMPI PUSH1 0x0 DUP1 REVERT JUMPDEST DUP1 PUSH4 0x56989A83 GT PUSH2 0x123 JUMPI DUP1 PUSH4 0x56989A83 EQ PUSH2 0x26B JUMPI DUP1 PUSH4 0x715018A6 EQ PUSH2 0x28D JUMPI DUP1 PUSH4 0x7B7A91DD EQ PUSH2 0x2A2 JUMPI DUP1 PUSH4 0x7D36F4D3 EQ PUSH2 0x2B8 JUMPI DUP1 PUSH4 0x8DA5CB5B EQ PUSH2 0x2CE JUMPI DUP1 PUSH4 0x97FBC2FB EQ PUSH2 0x2EC JUMPI PUSH1 0x0 DUP1 REVERT JUMPDEST DUP1 PUSH4 0x2A251A3 EQ PUSH2 0x16B JUMPI DUP1 PUSH4 0x32DB339 EQ PUSH2 0x194 JUMPI DUP1 PUSH4 0x3A09D18 EQ PUSH2 0x1CC JUMPI DUP1 PUSH4 0x120EA202 EQ PUSH2 0x1EE JUMPI DUP1 PUSH4 0x1732D652 EQ PUSH2 0x204 JUMPI DUP1 PUSH4 0x564A565D EQ PUSH2 0x231 JUMPI JUMPDEST PUSH1 0x0 DUP1 REVERT JUMPDEST CALLVALUE DUP1 ISZERO PUSH2 0x177 JUMPI PUSH1 0x0 DUP1 REVERT JUMPDEST POP PUSH2 0x181 PUSH1 0x7 SLOAD DUP2 JUMP JUMPDEST PUSH1 0x40 MLOAD SWAP1 DUP2 MSTORE PUSH1 0x20 ADD JUMPDEST PUSH1 0x40 MLOAD DUP1 SWAP2 SUB SWAP1 RETURN JUMPDEST CALLVALUE DUP1 ISZERO PUSH2 0x1A0 JUMPI PUSH1 0x0 DUP1 REVERT JUMPDEST POP PUSH1 0xA SLOAD PUSH2 0x1B4 SWAP1 PUSH1 0x1 PUSH1 0x1 PUSH1 0xA0 SHL SUB AND DUP2 JUMP JUMPDEST PUSH1 0x40 MLOAD PUSH1 0x1 PUSH1 0x1 PUSH1 0xA0 SHL SUB SWAP1 SWAP2 AND DUP2 MSTORE PUSH1 0x20 ADD PUSH2 0x18B JUMP JUMPDEST CALLVALUE DUP1 ISZERO PUSH2 0x1D8 JUMPI PUSH1 0x0 DUP1 REVERT JUMPDEST POP PUSH2 0x1E1 PUSH2 0x4EA JUMP JUMPDEST PUSH1 0x40 MLOAD PUSH2 0x18B SWAP2 SWAP1 PUSH2 0x2239 JUMP JUMPDEST CALLVALUE DUP1 ISZERO PUSH2 0x1FA JUMPI PUSH1 0x0 DUP1 REVERT JUMPDEST POP PUSH2 0x181 PUSH1 0x8 SLOAD DUP2 JUMP JUMPDEST CALLVALUE DUP1 ISZERO PUSH2 0x210 JUMPI PUSH1 0x0 DUP1 REVERT JUMPDEST POP PUSH2 0x224 PUSH2 0x21F CALLDATASIZE PUSH1 0x4 PUSH2 0x227D JUMP JUMPDEST PUSH2 0x611 JUMP JUMPDEST PUSH1 0x40 MLOAD PUSH2 0x18B SWAP2 SWAP1 PUSH2 0x2296 JUMP JUMPDEST CALLVALUE DUP1 ISZERO PUSH2 0x23D JUMPI PUSH1 0x0 DUP1 REVERT JUMPDEST POP PUSH2 0x251 PUSH2 0x24C CALLDATASIZE PUSH1 0x4 PUSH2 0x227D JUMP JUMPDEST PUSH2 0x67D JUMP JUMPDEST PUSH1 0x40 MLOAD PUSH2 0x18B SWAP15 SWAP14 SWAP13 SWAP12 SWAP11 SWAP10 SWAP9 SWAP8 SWAP7 SWAP6 SWAP5 SWAP4 SWAP3 SWAP2 SWAP1 PUSH2 0x2351 JUMP JUMPDEST CALLVALUE DUP1 ISZERO PUSH2 0x277 JUMPI PUSH1 0x0 DUP1 REVERT JUMPDEST POP PUSH2 0x28B PUSH2 0x286 CALLDATASIZE PUSH1 0x4 PUSH2 0x227D JUMP JUMPDEST PUSH2 0x788 JUMP JUMPDEST STOP JUMPDEST CALLVALUE DUP1 ISZERO PUSH2 0x299 JUMPI PUSH1 0x0 DUP1 REVERT JUMPDEST POP PUSH2 0x28B PUSH2 0xC95 JUMP JUMPDEST CALLVALUE DUP1 ISZERO PUSH2 0x2AE JUMPI PUSH1 0x0 DUP1 REVERT JUMPDEST POP PUSH2 0x181 PUSH1 0x9 SLOAD DUP2 JUMP JUMPDEST CALLVALUE DUP1 ISZERO PUSH2 0x2C4 JUMPI PUSH1 0x0 DUP1 REVERT JUMPDEST POP PUSH2 0x181 PUSH1 0x5 SLOAD DUP2 JUMP JUMPDEST CALLVALUE DUP1 ISZERO PUSH2 0x2DA JUMPI PUSH1 0x0 DUP1 REVERT JUMPDEST POP PUSH1 0x1 SLOAD PUSH1 0x1 PUSH1 0x1 PUSH1 0xA0 SHL SUB AND PUSH2 0x1B4 JUMP JUMPDEST CALLVALUE DUP1 ISZERO PUSH2 0x2F8 JUMPI PUSH1 0x0 DUP1 REVERT JUMPDEST POP PUSH1 0x5 SLOAD PUSH2 0x181 JUMP JUMPDEST CALLVALUE DUP1 ISZERO PUSH2 0x30D JUMPI PUSH1 0x0 DUP1 REVERT JUMPDEST POP PUSH2 0x28B PUSH2 0x31C CALLDATASIZE PUSH1 0x4 PUSH2 0x227D JUMP JUMPDEST PUSH2 0xCA9 JUMP JUMPDEST CALLVALUE DUP1 ISZERO PUSH2 0x32D JUMPI PUSH1 0x0 DUP1 REVERT JUMPDEST POP PUSH2 0x28B PUSH2 0x33C CALLDATASIZE PUSH1 0x4 PUSH2 0x23EC JUMP JUMPDEST PUSH2 0xF34 JUMP JUMPDEST CALLVALUE DUP1 ISZERO PUSH2 0x34D JUMPI PUSH1 0x0 DUP1 REVERT JUMPDEST POP PUSH2 0x361 PUSH2 0x35C CALLDATASIZE PUSH1 0x4 PUSH2 0x2435 JUMP JUMPDEST PUSH2 0x1491 JUMP JUMPDEST PUSH1 0x40 MLOAD PUSH2 0x18B SWAP2 SWAP1 PUSH2 0x246A JUMP JUMPDEST PUSH2 0x181 PUSH2 0x37C CALLDATASIZE PUSH1 0x4 PUSH2 0x2512 JUMP JUMPDEST PUSH2 0x1536 JUMP JUMPDEST CALLVALUE DUP1 ISZERO PUSH2 0x38D JUMPI PUSH1 0x0 DUP1 REVERT JUMPDEST POP PUSH2 0x3A1 PUSH2 0x39C CALLDATASIZE PUSH1 0x4 PUSH2 0x2435 JUMP JUMPDEST PUSH2 0x18E3 JUMP JUMPDEST PUSH1 0x40 MLOAD SWAP1 ISZERO ISZERO DUP2 MSTORE PUSH1 0x20 ADD PUSH2 0x18B JUMP JUMPDEST CALLVALUE DUP1 ISZERO PUSH2 0x3BD JUMPI PUSH1 0x0 DUP1 REVERT JUMPDEST POP PUSH2 0x402 PUSH2 0x3CC CALLDATASIZE PUSH1 0x4 PUSH2 0x2435 JUMP JUMPDEST PUSH1 0x3 PUSH1 0x20 DUP2 DUP2 MSTORE PUSH1 0x0 SWAP4 DUP5 MSTORE PUSH1 0x40 DUP1 DUP6 KECCAK256 SWAP1 SWAP2 MSTORE SWAP2 DUP4 MSTORE SWAP2 KECCAK256 DUP1 SLOAD PUSH1 0x1 DUP3 ADD SLOAD PUSH1 0x2 DUP4 ADD SLOAD SWAP3 SWAP1 SWAP4 ADD SLOAD PUSH1 0xFF SWAP2 DUP3 AND SWAP4 SWAP3 SWAP2 AND DUP5 JUMP JUMPDEST PUSH1 0x40 MLOAD PUSH2 0x18B SWAP5 SWAP4 SWAP3 SWAP2 SWAP1 PUSH2 0x25B8 JUMP JUMPDEST CALLVALUE DUP1 ISZERO PUSH2 0x41E JUMPI PUSH1 0x0 DUP1 REVERT JUMPDEST POP PUSH2 0x28B PUSH2 0x1BE1 JUMP JUMPDEST CALLVALUE DUP1 ISZERO PUSH2 0x433 JUMPI PUSH1 0x0 DUP1 REVERT JUMPDEST POP PUSH2 0x1B4 PUSH2 0x442 CALLDATASIZE PUSH1 0x4 PUSH2 0x25E3 JUMP JUMPDEST PUSH2 0x1C92 JUMP JUMPDEST CALLVALUE DUP1 ISZERO PUSH2 0x453 JUMPI PUSH1 0x0 DUP1 REVERT JUMPDEST POP PUSH2 0x467 PUSH2 0x462 CALLDATASIZE PUSH1 0x4 PUSH2 0x227D JUMP JUMPDEST PUSH2 0x1CCA JUMP JUMPDEST PUSH1 0x40 MLOAD PUSH2 0x18B SWAP2 SWAP1 PUSH2 0x2605 JUMP JUMPDEST CALLVALUE DUP1 ISZERO PUSH2 0x480 JUMPI PUSH1 0x0 DUP1 REVERT JUMPDEST POP PUSH2 0x28B PUSH2 0x48F CALLDATASIZE PUSH1 0x4 PUSH2 0x26F2 JUMP JUMPDEST PUSH2 0x1E43 JUMP JUMPDEST CALLVALUE DUP1 ISZERO PUSH2 0x4A0 JUMPI PUSH1 0x0 DUP1 REVERT JUMPDEST POP PUSH1 0xB SLOAD PUSH2 0x1B4 SWAP1 PUSH1 0x1 PUSH1 0x1 PUSH1 0xA0 SHL SUB AND DUP2 JUMP JUMPDEST CALLVALUE DUP1 ISZERO PUSH2 0x4C0 JUMPI PUSH1 0x0 DUP1 REVERT JUMPDEST POP PUSH2 0x28B PUSH2 0x4CF CALLDATASIZE PUSH1 0x4 PUSH2 0x2724 JUMP JUMPDEST PUSH2 0x1E5F JUMP JUMPDEST CALLVALUE DUP1 ISZERO PUSH2 0x4E0 JUMPI PUSH1 0x0 DUP1 REVERT JUMPDEST POP PUSH2 0x181 PUSH1 0x6 SLOAD DUP2 JUMP JUMPDEST PUSH1 0x60 PUSH1 0x0 DUP1 JUMPDEST PUSH1 0x5 SLOAD DUP2 LT ISZERO PUSH2 0x547 JUMPI PUSH1 0x1 PUSH1 0x0 DUP3 DUP2 MSTORE PUSH1 0x2 PUSH1 0x20 MSTORE PUSH1 0x40 SWAP1 KECCAK256 PUSH1 0x8 ADD SLOAD PUSH1 0xFF AND PUSH1 0x3 DUP2 GT ISZERO PUSH2 0x522 JUMPI PUSH2 0x522 PUSH2 0x2327 JUMP JUMPDEST SUB PUSH2 0x535 JUMPI DUP2 PUSH2 0x531 DUP2 PUSH2 0x275E JUMP JUMPDEST SWAP3 POP POP JUMPDEST DUP1 PUSH2 0x53F DUP2 PUSH2 0x275E JUMP JUMPDEST SWAP2 POP POP PUSH2 0x4F0 JUMP JUMPDEST POP PUSH1 0x0 DUP2 PUSH8 0xFFFFFFFFFFFFFFFF DUP2 GT ISZERO PUSH2 0x563 JUMPI PUSH2 0x563 PUSH2 0x24A3 JUMP JUMPDEST PUSH1 0x40 MLOAD SWAP1 DUP1 DUP3 MSTORE DUP1 PUSH1 0x20 MUL PUSH1 0x20 ADD DUP3 ADD PUSH1 0x40 MSTORE DUP1 ISZERO PUSH2 0x58C JUMPI DUP2 PUSH1 0x20 ADD PUSH1 0x20 DUP3 MUL DUP1 CALLDATASIZE DUP4 CALLDATACOPY ADD SWAP1 POP JUMPDEST POP SWAP1 POP PUSH1 0x0 DUP1 JUMPDEST PUSH1 0x5 SLOAD DUP2 LT ISZERO PUSH2 0x608 JUMPI PUSH1 0x1 PUSH1 0x0 DUP3 DUP2 MSTORE PUSH1 0x2 PUSH1 0x20 MSTORE PUSH1 0x40 SWAP1 KECCAK256 PUSH1 0x8 ADD SLOAD PUSH1 0xFF AND PUSH1 0x3 DUP2 GT ISZERO PUSH2 0x5C5 JUMPI PUSH2 0x5C5 PUSH2 0x2327 JUMP JUMPDEST SUB PUSH2 0x5F6 JUMPI DUP1 DUP4 DUP4 DUP2 MLOAD DUP2 LT PUSH2 0x5DD JUMPI PUSH2 0x5DD PUSH2 0x2777 JUMP JUMPDEST PUSH1 0x20 SWAP1 DUP2 MUL SWAP2 SWAP1 SWAP2 ADD ADD MSTORE DUP2 PUSH2 0x5F2 DUP2 PUSH2 0x275E JUMP JUMPDEST SWAP3 POP POP JUMPDEST DUP1 PUSH2 0x600 DUP2 PUSH2 0x275E JUMP JUMPDEST SWAP2 POP POP PUSH2 0x593 JUMP JUMPDEST POP SWAP1 SWAP4 SWAP3 POP POP POP JUMP JUMPDEST PUSH1 0x0 DUP2 DUP2 MSTORE PUSH1 0x4 PUSH1 0x20 SWAP1 DUP2 MSTORE PUSH1 0x40 SWAP2 DUP3 SWAP1 KECCAK256 DUP1 SLOAD DUP4 MLOAD DUP2 DUP5 MUL DUP2 ADD DUP5 ADD SWAP1 SWAP5 MSTORE DUP1 DUP5 MSTORE PUSH1 0x60 SWAP4 SWAP3 DUP4 ADD DUP3 DUP3 DUP1 ISZERO PUSH2 0x671 JUMPI PUSH1 0x20 MUL DUP3 ADD SWAP2 SWAP1 PUSH1 0x0 MSTORE PUSH1 0x20 PUSH1 0x0 KECCAK256 SWAP1 JUMPDEST DUP2 SLOAD PUSH1 0x1 PUSH1 0x1 PUSH1 0xA0 SHL SUB AND DUP2 MSTORE PUSH1 0x1 SWAP1 SWAP2 ADD SWAP1 PUSH1 0x20 ADD DUP1 DUP4 GT PUSH2 0x653 JUMPI JUMPDEST POP POP POP POP POP SWAP1 POP SWAP2 SWAP1 POP JUMP JUMPDEST PUSH1 0x2 PUSH1 0x20 DUP2 SWAP1 MSTORE PUSH1 0x0 SWAP2 DUP3 MSTORE PUSH1 0x40 SWAP1 SWAP2 KECCAK256 DUP1 SLOAD PUSH1 0x1 DUP3 ADD SLOAD SWAP3 DUP3 ADD SLOAD PUSH1 0x3 DUP4 ADD SLOAD PUSH1 0x4 DUP5 ADD DUP1 SLOAD PUSH1 0x1 PUSH1 0x1 PUSH1 0xA0 SHL SUB SWAP5 DUP6 AND SWAP7 SWAP1 SWAP5 AND SWAP5 SWAP3 SWAP4 SWAP2 SWAP3 SWAP2 PUSH2 0x6C2 SWAP1 PUSH2 0x278D JUMP JUMPDEST DUP1 PUSH1 0x1F ADD PUSH1 0x20 DUP1 SWAP2 DIV MUL PUSH1 0x20 ADD PUSH1 0x40 MLOAD SWAP1 DUP2 ADD PUSH1 0x40 MSTORE DUP1 SWAP3 SWAP2 SWAP1 DUP2 DUP2 MSTORE PUSH1 0x20 ADD DUP3 DUP1 SLOAD PUSH2 0x6EE SWAP1 PUSH2 0x278D JUMP JUMPDEST DUP1 ISZERO PUSH2 0x73B JUMPI DUP1 PUSH1 0x1F LT PUSH2 0x710 JUMPI PUSH2 0x100 DUP1 DUP4 SLOAD DIV MUL DUP4 MSTORE SWAP2 PUSH1 0x20 ADD SWAP2 PUSH2 0x73B JUMP JUMPDEST DUP3 ADD SWAP2 SWAP1 PUSH1 0x0 MSTORE PUSH1 0x20 PUSH1 0x0 KECCAK256 SWAP1 JUMPDEST DUP2 SLOAD DUP2 MSTORE SWAP1 PUSH1 0x1 ADD SWAP1 PUSH1 0x20 ADD DUP1 DUP4 GT PUSH2 0x71E JUMPI DUP3 SWAP1 SUB PUSH1 0x1F AND DUP3 ADD SWAP2 JUMPDEST POP POP POP POP PUSH1 0x5 DUP4 ADD SLOAD PUSH1 0x6 DUP5 ADD SLOAD PUSH1 0x7 DUP6 ADD SLOAD PUSH1 0x8 DUP7 ADD SLOAD PUSH1 0x9 DUP8 ADD SLOAD PUSH1 0xA DUP9 ADD SLOAD PUSH1 0xB DUP10 ADD SLOAD PUSH1 0xC DUP11 ADD SLOAD PUSH1 0xD SWAP1 SWAP11 ADD SLOAD SWAP9 SWAP10 SWAP7 SWAP9 SWAP6 SWAP8 POP SWAP4 SWAP6 PUSH1 0xFF SWAP4 DUP5 AND SWAP6 SWAP3 SWAP5 SWAP2 SWAP4 SWAP2 SWAP3 SWAP2 AND SWAP1 DUP15 JUMP JUMPDEST PUSH2 0x790 PUSH2 0x1E9A JUMP JUMPDEST DUP1 PUSH1 0x5 SLOAD DUP2 LT PUSH2 0x7BB JUMPI PUSH1 0x40 MLOAD PUSH3 0x461BCD PUSH1 0xE5 SHL DUP2 MSTORE PUSH1 0x4 ADD PUSH2 0x7B2 SWAP1 PUSH2 0x27C7 JUMP JUMPDEST PUSH1 0x40 MLOAD DUP1 SWAP2 SUB SWAP1 REVERT JUMPDEST PUSH1 0x0 DUP3 DUP2 MSTORE PUSH1 0x2 PUSH1 0x20 MSTORE PUSH1 0x40 SWAP1 KECCAK256 PUSH1 0x1 PUSH1 0x8 DUP3 ADD SLOAD PUSH1 0xFF AND PUSH1 0x3 DUP2 GT ISZERO PUSH2 0x7E4 JUMPI PUSH2 0x7E4 PUSH2 0x2327 JUMP JUMPDEST EQ PUSH2 0x831 JUMPI PUSH1 0x40 MLOAD PUSH3 0x461BCD PUSH1 0xE5 SHL DUP2 MSTORE PUSH1 0x20 PUSH1 0x4 DUP3 ADD MSTORE PUSH1 0x1B PUSH1 0x24 DUP3 ADD MSTORE PUSH32 0x44697370757465206E6F7420696E20766F74696E672070686173650000000000 PUSH1 0x44 DUP3 ADD MSTORE PUSH1 0x64 ADD PUSH2 0x7B2 JUMP JUMPDEST DUP1 PUSH1 0x7 ADD SLOAD TIMESTAMP GT PUSH2 0x884 JUMPI PUSH1 0x40 MLOAD PUSH3 0x461BCD PUSH1 0xE5 SHL DUP2 MSTORE PUSH1 0x20 PUSH1 0x4 DUP3 ADD MSTORE PUSH1 0x17 PUSH1 0x24 DUP3 ADD MSTORE PUSH32 0x566F74696E6720706572696F64206E6F7420656E646564000000000000000000 PUSH1 0x44 DUP3 ADD MSTORE PUSH1 0x64 ADD PUSH2 0x7B2 JUMP JUMPDEST PUSH1 0xC DUP2 ADD SLOAD PUSH1 0xFF AND ISZERO PUSH2 0x8D9 JUMPI PUSH1 0x40 MLOAD PUSH3 0x461BCD PUSH1 0xE5 SHL DUP2 MSTORE PUSH1 0x20 PUSH1 0x4 DUP3 ADD MSTORE PUSH1 0x18 PUSH1 0x24 DUP3 ADD MSTORE PUSH32 0x4469737075746520616C7265616479207265736F6C7665640000000000000000 PUSH1 0x44 DUP3 ADD MSTORE PUSH1 0x64 ADD PUSH2 0x7B2 JUMP JUMPDEST PUSH1 0xA SLOAD PUSH1 0xB SLOAD PUSH1 0x40 MLOAD PUSH4 0x70A08231 PUSH1 0xE0 SHL DUP2 MSTORE PUSH1 0x1 PUSH1 0x1 PUSH1 0xA0 SHL SUB SWAP2 DUP3 AND PUSH1 0x4 DUP3 ADD MSTORE PUSH1 0x0 SWAP3 SWAP2 SWAP1 SWAP2 AND SWAP1 PUSH4 0x70A08231 SWAP1 PUSH1 0x24 ADD PUSH1 0x20 PUSH1 0x40 MLOAD DUP1 DUP4 SUB DUP2 DUP7 GAS STATICCALL ISZERO DUP1 ISZERO PUSH2 0x92A JUMPI RETURNDATASIZE PUSH1 0x0 DUP1 RETURNDATACOPY RETURNDATASIZE PUSH1 0x0 REVERT JUMPDEST POP POP POP POP PUSH1 0x40 MLOAD RETURNDATASIZE PUSH1 0x1F NOT PUSH1 0x1F DUP3 ADD AND DUP3 ADD DUP1 PUSH1 0x40 MSTORE POP DUP2 ADD SWAP1 PUSH2 0x94E SWAP2 SWAP1 PUSH2 0x27F7 JUMP JUMPDEST SWAP1 POP PUSH1 0x0 PUSH1 0x64 PUSH1 0x9 SLOAD DUP4 PUSH2 0x962 SWAP2 SWAP1 PUSH2 0x2810 JUMP JUMPDEST PUSH2 0x96C SWAP2 SWAP1 PUSH2 0x2827 JUMP JUMPDEST SWAP1 POP DUP1 DUP4 PUSH1 0xB ADD SLOAD LT ISZERO PUSH2 0xA6F JUMPI PUSH1 0x8 DUP4 ADD DUP1 SLOAD PUSH1 0xFF NOT AND PUSH1 0x3 OR SWAP1 SSTORE PUSH1 0x1 DUP4 ADD SLOAD PUSH1 0x5 DUP5 ADD SLOAD PUSH1 0x40 MLOAD PUSH1 0x0 SWAP3 PUSH1 0x1 PUSH1 0x1 PUSH1 0xA0 SHL SUB AND SWAP2 SWAP1 DUP4 DUP2 DUP2 DUP2 DUP6 DUP8 GAS CALL SWAP3 POP POP POP RETURNDATASIZE DUP1 PUSH1 0x0 DUP2 EQ PUSH2 0x9DC JUMPI PUSH1 0x40 MLOAD SWAP2 POP PUSH1 0x1F NOT PUSH1 0x3F RETURNDATASIZE ADD AND DUP3 ADD PUSH1 0x40 MSTORE RETURNDATASIZE DUP3 MSTORE RETURNDATASIZE PUSH1 0x0 PUSH1 0x20 DUP5 ADD RETURNDATACOPY PUSH2 0x9E1 JUMP JUMPDEST PUSH1 0x60 SWAP2 POP JUMPDEST POP POP SWAP1 POP DUP1 PUSH2 0xA27 JUMPI PUSH1 0x40 MLOAD PUSH3 0x461BCD PUSH1 0xE5 SHL DUP2 MSTORE PUSH1 0x20 PUSH1 0x4 DUP3 ADD MSTORE PUSH1 0x12 PUSH1 0x24 DUP3 ADD MSTORE PUSH18 0x109BDB99081C995D1D5C9B8819985A5B1959 PUSH1 0x72 SHL PUSH1 0x44 DUP3 ADD MSTORE PUSH1 0x64 ADD PUSH2 0x7B2 JUMP JUMPDEST PUSH1 0xD DUP5 ADD SLOAD PUSH1 0x40 DUP1 MLOAD PUSH1 0x0 DUP2 MSTORE PUSH1 0x20 DUP2 ADD SWAP3 SWAP1 SWAP3 MSTORE DUP8 SWAP2 PUSH32 0x5ADD0B1FC2A3DFD95BE33D1D5FEB6709087E50213B7A73C3C3B2C387001221E7 SWAP2 ADD PUSH1 0x40 MLOAD DUP1 SWAP2 SUB SWAP1 LOG2 POP PUSH2 0xC84 JUMP JUMPDEST PUSH1 0xA DUP4 ADD SLOAD PUSH1 0x9 DUP5 ADD SLOAD GT DUP1 ISZERO PUSH2 0xB3E JUMPI PUSH1 0x8 DUP5 ADD DUP1 SLOAD PUSH1 0xFF NOT AND PUSH1 0x2 SWAP1 DUP2 OR SWAP1 SWAP2 SSTORE DUP5 ADD SLOAD PUSH1 0xD DUP6 ADD SSTORE PUSH1 0x1 DUP5 ADD SLOAD PUSH1 0x5 DUP6 ADD SLOAD PUSH1 0x40 MLOAD PUSH1 0x0 SWAP3 PUSH1 0x1 PUSH1 0x1 PUSH1 0xA0 SHL SUB AND SWAP2 SWAP1 DUP4 DUP2 DUP2 DUP2 DUP6 DUP8 GAS CALL SWAP3 POP POP POP RETURNDATASIZE DUP1 PUSH1 0x0 DUP2 EQ PUSH2 0xAED JUMPI PUSH1 0x40 MLOAD SWAP2 POP PUSH1 0x1F NOT PUSH1 0x3F RETURNDATASIZE ADD AND DUP3 ADD PUSH1 0x40 MSTORE RETURNDATASIZE DUP3 MSTORE RETURNDATASIZE PUSH1 0x0 PUSH1 0x20 DUP5 ADD RETURNDATACOPY PUSH2 0xAF2 JUMP JUMPDEST PUSH1 0x60 SWAP2 POP JUMPDEST POP POP SWAP1 POP DUP1 PUSH2 0xB38 JUMPI PUSH1 0x40 MLOAD PUSH3 0x461BCD PUSH1 0xE5 SHL DUP2 MSTORE PUSH1 0x20 PUSH1 0x4 DUP3 ADD MSTORE PUSH1 0x12 PUSH1 0x24 DUP3 ADD MSTORE PUSH18 0x109BDB99081C995D1D5C9B8819985A5B1959 PUSH1 0x72 SHL PUSH1 0x44 DUP3 ADD MSTORE PUSH1 0x64 ADD PUSH2 0x7B2 JUMP JUMPDEST POP PUSH2 0xC20 JUMP JUMPDEST PUSH1 0x8 DUP5 ADD DUP1 SLOAD PUSH1 0xFF NOT AND PUSH1 0x2 SWAP1 DUP2 OR SWAP1 SWAP2 SSTORE PUSH1 0x3 DUP6 ADD SLOAD PUSH1 0xD DUP7 ADD SSTORE PUSH1 0x5 DUP6 ADD SLOAD PUSH1 0x0 SWAP2 PUSH2 0xB6B SWAP2 PUSH2 0x2827 JUMP JUMPDEST DUP6 PUSH1 0x5 ADD SLOAD PUSH2 0xB7A SWAP2 SWAP1 PUSH2 0x2849 JUMP JUMPDEST PUSH1 0x1 DUP7 ADD SLOAD PUSH1 0x40 MLOAD SWAP2 SWAP3 POP PUSH1 0x0 SWAP2 PUSH1 0x1 PUSH1 0x1 PUSH1 0xA0 SHL SUB SWAP1 SWAP2 AND SWAP1 DUP4 SWAP1 DUP4 DUP2 DUP2 DUP2 DUP6 DUP8 GAS CALL SWAP3 POP POP POP RETURNDATASIZE DUP1 PUSH1 0x0 DUP2 EQ PUSH2 0xBCE JUMPI PUSH1 0x40 MLOAD SWAP2 POP PUSH1 0x1F NOT PUSH1 0x3F RETURNDATASIZE ADD AND DUP3 ADD PUSH1 0x40 MSTORE RETURNDATASIZE DUP3 MSTORE RETURNDATASIZE PUSH1 0x0 PUSH1 0x20 DUP5 ADD RETURNDATACOPY PUSH2 0xBD3 JUMP JUMPDEST PUSH1 0x60 SWAP2 POP JUMPDEST POP POP SWAP1 POP DUP1 PUSH2 0xC1D JUMPI PUSH1 0x40 MLOAD PUSH3 0x461BCD PUSH1 0xE5 SHL DUP2 MSTORE PUSH1 0x20 PUSH1 0x4 DUP3 ADD MSTORE PUSH1 0x16 PUSH1 0x24 DUP3 ADD MSTORE PUSH22 0x14995DD85C99081D1C985B9CD9995C8819985A5B1959 PUSH1 0x52 SHL PUSH1 0x44 DUP3 ADD MSTORE PUSH1 0x64 ADD PUSH2 0x7B2 JUMP JUMPDEST POP POP JUMPDEST PUSH1 0xC DUP5 ADD DUP1 SLOAD PUSH1 0xFF NOT AND PUSH1 0x1 OR SWAP1 SSTORE PUSH2 0xC39 DUP7 DUP3 PUSH2 0x1EC4 JUMP JUMPDEST DUP6 PUSH32 0x5ADD0B1FC2A3DFD95BE33D1D5FEB6709087E50213B7A73C3C3B2C387001221E7 DUP3 DUP7 PUSH1 0xD ADD SLOAD PUSH1 0x40 MLOAD PUSH2 0xC7A SWAP3 SWAP2 SWAP1 SWAP2 ISZERO ISZERO DUP3 MSTORE PUSH1 0x20 DUP3 ADD MSTORE PUSH1 0x40 ADD SWAP1 JUMP JUMPDEST PUSH1 0x40 MLOAD DUP1 SWAP2 SUB SWAP1 LOG2 POP JUMPDEST POP POP POP POP PUSH2 0xC92 PUSH1 0x1 PUSH1 0x0 SSTORE JUMP JUMPDEST POP JUMP JUMPDEST PUSH2 0xC9D PUSH2 0x2126 JUMP JUMPDEST PUSH2 0xCA7 PUSH1 0x0 PUSH2 0x2153 JUMP JUMPDEST JUMP JUMPDEST PUSH2 0xCB1 PUSH2 0x1E9A JUMP JUMPDEST DUP1 PUSH1 0x5 SLOAD DUP2 LT PUSH2 0xCD3 JUMPI PUSH1 0x40 MLOAD PUSH3 0x461BCD PUSH1 0xE5 SHL DUP2 MSTORE PUSH1 0x4 ADD PUSH2 0x7B2 SWAP1 PUSH2 0x27C7 JUMP JUMPDEST PUSH1 0x0 DUP3 DUP2 MSTORE PUSH1 0x2 PUSH1 0x20 MSTORE PUSH1 0x40 SWAP1 KECCAK256 PUSH1 0xC ADD SLOAD PUSH1 0xFF AND PUSH2 0xD2B JUMPI PUSH1 0x40 MLOAD PUSH3 0x461BCD PUSH1 0xE5 SHL DUP2 MSTORE PUSH1 0x20 PUSH1 0x4 DUP3 ADD MSTORE PUSH1 0x14 PUSH1 0x24 DUP3 ADD MSTORE PUSH20 0x111A5CDC1D5D19481B9BDD081C995CDBDB1D9959 PUSH1 0x62 SHL PUSH1 0x44 DUP3 ADD MSTORE PUSH1 0x64 ADD PUSH2 0x7B2 JUMP JUMPDEST PUSH1 0x0 DUP3 DUP2 MSTORE PUSH1 0x3 PUSH1 0x20 DUP2 DUP2 MSTORE PUSH1 0x40 DUP1 DUP5 KECCAK256 CALLER DUP6 MSTORE SWAP1 SWAP2 MSTORE SWAP1 SWAP2 KECCAK256 ADD SLOAD PUSH1 0xFF AND ISZERO PUSH2 0xD90 JUMPI PUSH1 0x40 MLOAD PUSH3 0x461BCD PUSH1 0xE5 SHL DUP2 MSTORE PUSH1 0x20 PUSH1 0x4 DUP3 ADD MSTORE PUSH1 0x16 PUSH1 0x24 DUP3 ADD MSTORE PUSH22 0x14995DD85C9908185B1C9958591E4818DB185A5B5959 PUSH1 0x52 SHL PUSH1 0x44 DUP3 ADD MSTORE PUSH1 0x64 ADD PUSH2 0x7B2 JUMP JUMPDEST PUSH1 0x0 DUP3 DUP2 MSTORE PUSH1 0x2 PUSH1 0x20 SWAP1 DUP2 MSTORE PUSH1 0x40 DUP1 DUP4 KECCAK256 PUSH1 0x3 DUP4 MSTORE DUP2 DUP5 KECCAK256 CALLER DUP6 MSTORE SWAP1 SWAP3 MSTORE DUP3 KECCAK256 PUSH1 0xA DUP3 ADD SLOAD PUSH1 0x9 DUP4 ADD SLOAD SWAP3 SWAP4 SWAP2 SWAP3 GT SWAP1 DUP2 DUP1 ISZERO PUSH2 0xDE2 JUMPI POP PUSH1 0x1 DUP4 SLOAD PUSH1 0xFF AND PUSH1 0x2 DUP2 GT ISZERO PUSH2 0xDE0 JUMPI PUSH2 0xDE0 PUSH2 0x2327 JUMP JUMPDEST EQ JUMPDEST DUP1 PUSH2 0xE0B JUMPI POP DUP2 ISZERO DUP1 ISZERO PUSH2 0xE0B JUMPI POP PUSH1 0x2 DUP4 SLOAD PUSH1 0xFF AND PUSH1 0x2 DUP2 GT ISZERO PUSH2 0xE09 JUMPI PUSH2 0xE09 PUSH2 0x2327 JUMP JUMPDEST EQ JUMPDEST SWAP1 POP DUP1 PUSH2 0xE51 JUMPI PUSH1 0x40 MLOAD PUSH3 0x461BCD PUSH1 0xE5 SHL DUP2 MSTORE PUSH1 0x20 PUSH1 0x4 DUP3 ADD MSTORE PUSH1 0x14 PUSH1 0x24 DUP3 ADD MSTORE PUSH20 0x446964206E6F742077696E2074686520766F7465 PUSH1 0x60 SHL PUSH1 0x44 DUP3 ADD MSTORE PUSH1 0x64 ADD PUSH2 0x7B2 JUMP JUMPDEST PUSH1 0x0 DUP3 PUSH2 0xE62 JUMPI DUP5 PUSH1 0xA ADD SLOAD PUSH2 0xE68 JUMP JUMPDEST DUP5 PUSH1 0x9 ADD SLOAD JUMPDEST SWAP1 POP PUSH1 0x0 PUSH1 0x4 DUP7 PUSH1 0x5 ADD SLOAD PUSH2 0xE7D SWAP2 SWAP1 PUSH2 0x2827 JUMP JUMPDEST SWAP1 POP PUSH1 0x0 DUP3 DUP3 DUP8 PUSH1 0x1 ADD SLOAD PUSH2 0xE92 SWAP2 SWAP1 PUSH2 0x2810 JUMP JUMPDEST PUSH2 0xE9C SWAP2 SWAP1 PUSH2 0x2827 JUMP JUMPDEST PUSH1 0x3 DUP8 ADD DUP1 SLOAD PUSH1 0xFF NOT AND PUSH1 0x1 OR SWAP1 SSTORE PUSH1 0xA SLOAD PUSH1 0x40 MLOAD PUSH4 0xA9059CBB PUSH1 0xE0 SHL DUP2 MSTORE CALLER PUSH1 0x4 DUP3 ADD MSTORE PUSH1 0x24 DUP2 ADD DUP4 SWAP1 MSTORE SWAP2 SWAP3 POP PUSH1 0x1 PUSH1 0x1 PUSH1 0xA0 SHL SUB AND SWAP1 PUSH4 0xA9059CBB SWAP1 PUSH1 0x44 ADD PUSH1 0x20 PUSH1 0x40 MLOAD DUP1 DUP4 SUB DUP2 PUSH1 0x0 DUP8 GAS CALL ISZERO DUP1 ISZERO PUSH2 0xEFD JUMPI RETURNDATASIZE PUSH1 0x0 DUP1 RETURNDATACOPY RETURNDATASIZE PUSH1 0x0 REVERT JUMPDEST POP POP POP POP PUSH1 0x40 MLOAD RETURNDATASIZE PUSH1 0x1F NOT PUSH1 0x1F DUP3 ADD AND DUP3 ADD DUP1 PUSH1 0x40 MSTORE POP DUP2 ADD SWAP1 PUSH2 0xF21 SWAP2 SWAP1 PUSH2 0x2871 JUMP JUMPDEST POP POP POP POP POP POP POP POP POP PUSH2 0xC92 PUSH1 0x1 PUSH1 0x0 SSTORE JUMP JUMPDEST PUSH2 0xF3C PUSH2 0x1E9A JUMP JUMPDEST DUP2 PUSH1 0x5 SLOAD DUP2 LT PUSH2 0xF5E JUMPI PUSH1 0x40 MLOAD PUSH3 0x461BCD PUSH1 0xE5 SHL DUP2 MSTORE PUSH1 0x4 ADD PUSH2 0x7B2 SWAP1 PUSH2 0x27C7 JUMP JUMPDEST PUSH1 0xB SLOAD PUSH1 0x40 MLOAD PUSH4 0x10154287 PUSH1 0xE2 SHL DUP2 MSTORE CALLER PUSH1 0x4 DUP3 ADD MSTORE PUSH1 0x1 PUSH1 0x1 PUSH1 0xA0 SHL SUB SWAP1 SWAP2 AND SWAP1 PUSH4 0x40550A1C SWAP1 PUSH1 0x24 ADD PUSH1 0x20 PUSH1 0x40 MLOAD DUP1 DUP4 SUB DUP2 DUP7 GAS STATICCALL ISZERO DUP1 ISZERO PUSH2 0xFA6 JUMPI RETURNDATASIZE PUSH1 0x0 DUP1 RETURNDATACOPY RETURNDATASIZE PUSH1 0x0 REVERT JUMPDEST POP POP POP POP PUSH1 0x40 MLOAD RETURNDATASIZE PUSH1 0x1F NOT PUSH1 0x1F DUP3 ADD AND DUP3 ADD DUP1 PUSH1 0x40 MSTORE POP DUP2 ADD SWAP1 PUSH2 0xFCA SWAP2 SWAP1 PUSH2 0x2871 JUMP JUMPDEST PUSH2 0x1016 JUMPI PUSH1 0x40 MLOAD PUSH3 0x461BCD PUSH1 0xE5 SHL DUP2 MSTORE PUSH1 0x20 PUSH1 0x4 DUP3 ADD MSTORE PUSH1 0x17 PUSH1 0x24 DUP3 ADD MSTORE PUSH32 0x4E6F7420616E206163746976652076616C696461746F72000000000000000000 PUSH1 0x44 DUP3 ADD MSTORE PUSH1 0x64 ADD PUSH2 0x7B2 JUMP JUMPDEST PUSH1 0x0 DUP3 PUSH1 0x2 DUP2 GT ISZERO PUSH2 0x102A JUMPI PUSH2 0x102A PUSH2 0x2327 JUMP JUMPDEST SUB PUSH2 0x106D JUMPI PUSH1 0x40 MLOAD PUSH3 0x461BCD PUSH1 0xE5 SHL DUP2 MSTORE PUSH1 0x20 PUSH1 0x4 DUP3 ADD MSTORE PUSH1 0x13 PUSH1 0x24 DUP3 ADD MSTORE PUSH19 0x496E76616C696420766F74652063686F696365 PUSH1 0x68 SHL PUSH1 0x44 DUP3 ADD MSTORE PUSH1 0x64 ADD PUSH2 0x7B2 JUMP JUMPDEST PUSH1 0x0 DUP4 DUP2 MSTORE PUSH1 0x2 PUSH1 0x20 MSTORE PUSH1 0x40 SWAP1 KECCAK256 PUSH1 0x1 PUSH1 0x8 DUP3 ADD SLOAD PUSH1 0xFF AND PUSH1 0x3 DUP2 GT ISZERO PUSH2 0x1096 JUMPI PUSH2 0x1096 PUSH2 0x2327 JUMP JUMPDEST EQ PUSH2 0x10D9 JUMPI PUSH1 0x40 MLOAD PUSH3 0x461BCD PUSH1 0xE5 SHL DUP2 MSTORE PUSH1 0x20 PUSH1 0x4 DUP3 ADD MSTORE PUSH1 0x13 PUSH1 0x24 DUP3 ADD MSTORE PUSH19 0x159BDD1A5B99C81C195C9A5BD908195B991959 PUSH1 0x6A SHL PUSH1 0x44 DUP3 ADD MSTORE PUSH1 0x64 ADD PUSH2 0x7B2 JUMP JUMPDEST DUP1 PUSH1 0x7 ADD SLOAD TIMESTAMP GT ISZERO PUSH2 0x1125 JUMPI PUSH1 0x40 MLOAD PUSH3 0x461BCD PUSH1 0xE5 SHL DUP2 MSTORE PUSH1 0x20 PUSH1 0x4 DUP3 ADD MSTORE PUSH1 0x15 PUSH1 0x24 DUP3 ADD MSTORE PUSH21 0x159BDD1A5B99C81C195C9A5BD908195E1C1A5C9959 PUSH1 0x5A SHL PUSH1 0x44 DUP3 ADD MSTORE PUSH1 0x64 ADD PUSH2 0x7B2 JUMP JUMPDEST PUSH1 0x0 DUP5 DUP2 MSTORE PUSH1 0x3 PUSH1 0x20 SWAP1 DUP2 MSTORE PUSH1 0x40 DUP1 DUP4 KECCAK256 CALLER DUP5 MSTORE SWAP1 SWAP2 MSTORE DUP2 KECCAK256 SLOAD PUSH1 0xFF AND PUSH1 0x2 DUP2 GT ISZERO PUSH2 0x1153 JUMPI PUSH2 0x1153 PUSH2 0x2327 JUMP JUMPDEST EQ PUSH2 0x1190 JUMPI PUSH1 0x40 MLOAD PUSH3 0x461BCD PUSH1 0xE5 SHL DUP2 MSTORE PUSH1 0x20 PUSH1 0x4 DUP3 ADD MSTORE PUSH1 0xD PUSH1 0x24 DUP3 ADD MSTORE PUSH13 0x105B1C9958591E481D9BDD1959 PUSH1 0x9A SHL PUSH1 0x44 DUP3 ADD MSTORE PUSH1 0x64 ADD PUSH2 0x7B2 JUMP JUMPDEST PUSH1 0xB SLOAD PUSH1 0x40 MLOAD PUSH4 0xC3453153 PUSH1 0xE0 SHL DUP2 MSTORE CALLER PUSH1 0x4 DUP3 ADD MSTORE PUSH1 0x0 SWAP2 PUSH1 0x1 PUSH1 0x1 PUSH1 0xA0 SHL SUB AND SWAP1 PUSH4 0xC3453153 SWAP1 PUSH1 0x24 ADD PUSH1 0xA0 PUSH1 0x40 MLOAD DUP1 DUP4 SUB DUP2 DUP7 GAS STATICCALL ISZERO DUP1 ISZERO PUSH2 0x11D9 JUMPI RETURNDATASIZE PUSH1 0x0 DUP1 RETURNDATACOPY RETURNDATASIZE PUSH1 0x0 REVERT JUMPDEST POP POP POP POP PUSH1 0x40 MLOAD RETURNDATASIZE PUSH1 0x1F NOT PUSH1 0x1F DUP3 ADD AND DUP3 ADD DUP1 PUSH1 0x40 MSTORE POP DUP2 ADD SWAP1 PUSH2 0x11FD SWAP2 SWAP1 PUSH2 0x288C JUMP JUMPDEST PUSH1 0xB SLOAD PUSH1 0x40 MLOAD PUSH4 0x8A11D7C9 PUSH1 0xE0 SHL DUP2 MSTORE CALLER PUSH1 0x4 DUP3 ADD MSTORE SWAP2 SWAP3 POP PUSH1 0x0 SWAP2 PUSH1 0x1 PUSH1 0x1 PUSH1 0xA0 SHL SUB SWAP1 SWAP2 AND SWAP1 PUSH4 0x8A11D7C9 SWAP1 PUSH1 0x24 ADD PUSH1 0xE0 PUSH1 0x40 MLOAD DUP1 DUP4 SUB DUP2 DUP7 GAS STATICCALL ISZERO DUP1 ISZERO PUSH2 0x124B JUMPI RETURNDATASIZE PUSH1 0x0 DUP1 RETURNDATACOPY RETURNDATASIZE PUSH1 0x0 REVERT JUMPDEST POP POP POP POP PUSH1 0x40 MLOAD RETURNDATASIZE PUSH1 0x1F NOT PUSH1 0x1F DUP3 ADD AND DUP3 ADD DUP1 PUSH1 0x40 MSTORE POP DUP2 ADD SWAP1 PUSH2 0x126F SWAP2 SWAP1 PUSH2 0x2900 JUMP JUMPDEST SWAP1 POP PUSH1 0x8 SLOAD DUP3 PUSH1 0x0 ADD MLOAD LT ISZERO PUSH2 0x12C7 JUMPI PUSH1 0x40 MLOAD PUSH3 0x461BCD PUSH1 0xE5 SHL DUP2 MSTORE PUSH1 0x20 PUSH1 0x4 DUP3 ADD MSTORE PUSH1 0x19 PUSH1 0x24 DUP3 ADD MSTORE PUSH32 0x496E73756666696369656E7420766F74696E6720706F77657200000000000000 PUSH1 0x44 DUP3 ADD MSTORE PUSH1 0x64 ADD PUSH2 0x7B2 JUMP JUMPDEST PUSH1 0x0 PUSH2 0x3E8 DUP3 PUSH1 0x40 ADD MLOAD DUP5 PUSH1 0x0 ADD MLOAD PUSH2 0x12E0 SWAP2 SWAP1 PUSH2 0x2810 JUMP JUMPDEST PUSH2 0x12EA SWAP2 SWAP1 PUSH2 0x2827 JUMP JUMPDEST SWAP1 POP PUSH1 0x40 MLOAD DUP1 PUSH1 0x80 ADD PUSH1 0x40 MSTORE DUP1 DUP8 PUSH1 0x2 DUP2 GT ISZERO PUSH2 0x1309 JUMPI PUSH2 0x1309 PUSH2 0x2327 JUMP JUMPDEST DUP2 MSTORE PUSH1 0x20 DUP1 DUP3 ADD DUP5 SWAP1 MSTORE TIMESTAMP PUSH1 0x40 DUP1 DUP5 ADD SWAP2 SWAP1 SWAP2 MSTORE PUSH1 0x0 PUSH1 0x60 SWAP1 SWAP4 ADD DUP4 SWAP1 MSTORE DUP11 DUP4 MSTORE PUSH1 0x3 DUP3 MSTORE DUP1 DUP4 KECCAK256 CALLER DUP5 MSTORE SWAP1 SWAP2 MSTORE SWAP1 KECCAK256 DUP2 MLOAD DUP2 SLOAD DUP3 SWAP1 PUSH1 0xFF NOT AND PUSH1 0x1 DUP4 PUSH1 0x2 DUP2 GT ISZERO PUSH2 0x1357 JUMPI PUSH2 0x1357 PUSH2 0x2327 JUMP JUMPDEST MUL OR SWAP1 SSTORE POP PUSH1 0x20 DUP3 DUP2 ADD MLOAD PUSH1 0x1 DUP1 DUP5 ADD SWAP2 SWAP1 SWAP2 SSTORE PUSH1 0x40 DUP1 DUP6 ADD MLOAD PUSH1 0x2 DUP6 ADD SSTORE PUSH1 0x60 SWAP1 SWAP5 ADD MLOAD PUSH1 0x3 SWAP1 SWAP4 ADD DUP1 SLOAD SWAP4 ISZERO ISZERO PUSH1 0xFF NOT SWAP1 SWAP5 AND SWAP4 SWAP1 SWAP4 OR SWAP1 SWAP3 SSTORE PUSH1 0x0 DUP11 DUP2 MSTORE PUSH1 0x4 DUP3 MSTORE SWAP3 DUP4 KECCAK256 DUP1 SLOAD DUP1 DUP5 ADD DUP3 SSTORE SWAP1 DUP5 MSTORE SWAP3 KECCAK256 SWAP1 SWAP2 ADD DUP1 SLOAD PUSH1 0x1 PUSH1 0x1 PUSH1 0xA0 SHL SUB NOT AND CALLER OR SWAP1 SSTORE DUP7 PUSH1 0x2 DUP2 GT ISZERO PUSH2 0x13D0 JUMPI PUSH2 0x13D0 PUSH2 0x2327 JUMP JUMPDEST SUB PUSH2 0x13F4 JUMPI DUP1 DUP5 PUSH1 0x9 ADD PUSH1 0x0 DUP3 DUP3 SLOAD PUSH2 0x13E9 SWAP2 SWAP1 PUSH2 0x2849 JUMP JUMPDEST SWAP1 SWAP2 SSTORE POP PUSH2 0x1427 SWAP1 POP JUMP JUMPDEST PUSH1 0x2 DUP7 PUSH1 0x2 DUP2 GT ISZERO PUSH2 0x1408 JUMPI PUSH2 0x1408 PUSH2 0x2327 JUMP JUMPDEST SUB PUSH2 0x1427 JUMPI DUP1 DUP5 PUSH1 0xA ADD PUSH1 0x0 DUP3 DUP3 SLOAD PUSH2 0x1421 SWAP2 SWAP1 PUSH2 0x2849 JUMP JUMPDEST SWAP1 SWAP2 SSTORE POP POP JUMPDEST DUP1 DUP5 PUSH1 0xB ADD PUSH1 0x0 DUP3 DUP3 SLOAD PUSH2 0x143B SWAP2 SWAP1 PUSH2 0x2849 JUMP JUMPDEST SWAP1 SWAP2 SSTORE POP POP PUSH1 0x40 MLOAD CALLER SWAP1 DUP9 SWAP1 PUSH32 0xB83D25C6A5D258561330739951487ACB4BD09BA5190B5D32C4F261817D906792 SWAP1 PUSH2 0x1476 SWAP1 DUP11 SWAP1 DUP7 SWAP1 PUSH2 0x2994 JUMP JUMPDEST PUSH1 0x40 MLOAD DUP1 SWAP2 SUB SWAP1 LOG3 POP POP POP POP POP PUSH2 0x148D PUSH1 0x1 PUSH1 0x0 SSTORE JUMP JUMPDEST POP POP JUMP JUMPDEST PUSH1 0x40 DUP1 MLOAD PUSH1 0x80 DUP1 DUP3 ADD DUP4 MSTORE PUSH1 0x0 DUP1 DUP4 MSTORE PUSH1 0x20 DUP1 DUP5 ADD DUP3 SWAP1 MSTORE DUP4 DUP6 ADD DUP3 SWAP1 MSTORE PUSH1 0x60 DUP5 ADD DUP3 SWAP1 MSTORE DUP7 DUP3 MSTORE PUSH1 0x3 DUP2 MSTORE DUP5 DUP3 KECCAK256 PUSH1 0x1 PUSH1 0x1 PUSH1 0xA0 SHL SUB DUP8 AND DUP4 MSTORE SWAP1 MSTORE DUP4 SWAP1 KECCAK256 DUP4 MLOAD SWAP2 DUP3 ADD SWAP1 SWAP4 MSTORE DUP3 SLOAD SWAP2 SWAP3 SWAP1 SWAP2 DUP3 SWAP1 PUSH1 0xFF AND PUSH1 0x2 DUP2 GT ISZERO PUSH2 0x14F5 JUMPI PUSH2 0x14F5 PUSH2 0x2327 JUMP JUMPDEST PUSH1 0x2 DUP2 GT ISZERO PUSH2 0x1506 JUMPI PUSH2 0x1506 PUSH2 0x2327 JUMP JUMPDEST DUP2 MSTORE PUSH1 0x1 DUP3 ADD SLOAD PUSH1 0x20 DUP3 ADD MSTORE PUSH1 0x2 DUP3 ADD SLOAD PUSH1 0x40 DUP3 ADD MSTORE PUSH1 0x3 SWAP1 SWAP2 ADD SLOAD PUSH1 0xFF AND ISZERO ISZERO PUSH1 0x60 SWAP1 SWAP2 ADD MSTORE SWAP1 POP JUMPDEST SWAP3 SWAP2 POP POP JUMP JUMPDEST PUSH1 0x0 PUSH2 0x1540 PUSH2 0x1E9A JUMP JUMPDEST PUSH1 0x6 SLOAD CALLVALUE LT ISZERO PUSH2 0x1592 JUMPI PUSH1 0x40 MLOAD PUSH3 0x461BCD PUSH1 0xE5 SHL DUP2 MSTORE PUSH1 0x20 PUSH1 0x4 DUP3 ADD MSTORE PUSH1 0x19 PUSH1 0x24 DUP3 ADD MSTORE PUSH32 0x496E73756666696369656E74206469737075746520626F6E6400000000000000 PUSH1 0x44 DUP3 ADD MSTORE PUSH1 0x64 ADD PUSH2 0x7B2 JUMP JUMPDEST DUP3 DUP5 SUB PUSH2 0x15E1 JUMPI PUSH1 0x40 MLOAD PUSH3 0x461BCD PUSH1 0xE5 SHL DUP2 MSTORE PUSH1 0x20 PUSH1 0x4 DUP3 ADD MSTORE PUSH1 0x1B PUSH1 0x24 DUP3 ADD MSTORE PUSH32 0x4F7574636F6D65732063616E6E6F74206265207468652073616D650000000000 PUSH1 0x44 DUP3 ADD MSTORE PUSH1 0x64 ADD PUSH2 0x7B2 JUMP JUMPDEST PUSH1 0x0 DUP3 MLOAD GT PUSH2 0x1624 JUMPI PUSH1 0x40 MLOAD PUSH3 0x461BCD PUSH1 0xE5 SHL DUP2 MSTORE PUSH1 0x20 PUSH1 0x4 DUP3 ADD MSTORE PUSH1 0xF PUSH1 0x24 DUP3 ADD MSTORE PUSH15 0x1499585CDBDB881C995C5D5A5C9959 PUSH1 0x8A SHL PUSH1 0x44 DUP3 ADD MSTORE PUSH1 0x64 ADD PUSH2 0x7B2 JUMP JUMPDEST PUSH1 0x0 DUP6 PUSH1 0x1 PUSH1 0x1 PUSH1 0xA0 SHL SUB AND PUSH4 0x23341A05 PUSH1 0x40 MLOAD DUP2 PUSH4 0xFFFFFFFF AND PUSH1 0xE0 SHL DUP2 MSTORE PUSH1 0x4 ADD PUSH1 0x0 PUSH1 0x40 MLOAD DUP1 DUP4 SUB DUP2 DUP7 GAS STATICCALL ISZERO DUP1 ISZERO PUSH2 0x1664 JUMPI RETURNDATASIZE PUSH1 0x0 DUP1 RETURNDATACOPY RETURNDATASIZE PUSH1 0x0 REVERT JUMPDEST POP POP POP POP PUSH1 0x40 MLOAD RETURNDATASIZE PUSH1 0x0 DUP3 RETURNDATACOPY PUSH1 0x1F RETURNDATASIZE SWAP1 DUP2 ADD PUSH1 0x1F NOT AND DUP3 ADD PUSH1 0x40 MSTORE PUSH2 0x168C SWAP2 SWAP1 DUP2 ADD SWAP1 PUSH2 0x29F4 JUMP JUMPDEST POP SWAP1 SWAP6 POP PUSH1 0x1 SWAP5 POP PUSH2 0x169E SWAP4 POP POP POP POP JUMP JUMPDEST DUP2 PUSH1 0x3 DUP2 GT ISZERO PUSH2 0x16B0 JUMPI PUSH2 0x16B0 PUSH2 0x2327 JUMP JUMPDEST EQ PUSH2 0x16F3 JUMPI PUSH1 0x40 MLOAD PUSH3 0x461BCD PUSH1 0xE5 SHL DUP2 MSTORE PUSH1 0x20 PUSH1 0x4 DUP3 ADD MSTORE PUSH1 0x13 PUSH1 0x24 DUP3 ADD MSTORE PUSH19 0x13585C9AD95D081B9BDD081C995CDBDB1D9959 PUSH1 0x6A SHL PUSH1 0x44 DUP3 ADD MSTORE PUSH1 0x64 ADD PUSH2 0x7B2 JUMP JUMPDEST PUSH1 0x5 DUP1 SLOAD PUSH1 0x0 SWAP2 DUP3 PUSH2 0x1704 DUP4 PUSH2 0x275E JUMP JUMPDEST SWAP2 SWAP1 POP SSTORE SWAP1 POP PUSH1 0x40 MLOAD DUP1 PUSH2 0x1C0 ADD PUSH1 0x40 MSTORE DUP1 DUP9 PUSH1 0x1 PUSH1 0x1 PUSH1 0xA0 SHL SUB AND DUP2 MSTORE PUSH1 0x20 ADD CALLER PUSH1 0x1 PUSH1 0x1 PUSH1 0xA0 SHL SUB AND DUP2 MSTORE PUSH1 0x20 ADD DUP8 DUP2 MSTORE PUSH1 0x20 ADD DUP7 DUP2 MSTORE PUSH1 0x20 ADD DUP6 DUP2 MSTORE PUSH1 0x20 ADD CALLVALUE DUP2 MSTORE PUSH1 0x20 ADD TIMESTAMP DUP2 MSTORE PUSH1 0x20 ADD PUSH1 0x7 SLOAD TIMESTAMP PUSH2 0x1760 SWAP2 SWAP1 PUSH2 0x2849 JUMP JUMPDEST DUP2 MSTORE PUSH1 0x20 ADD PUSH1 0x1 DUP2 MSTORE PUSH1 0x0 PUSH1 0x20 DUP1 DUP4 ADD DUP3 SWAP1 MSTORE PUSH1 0x40 DUP1 DUP5 ADD DUP4 SWAP1 MSTORE PUSH1 0x60 DUP1 DUP6 ADD DUP5 SWAP1 MSTORE PUSH1 0x80 DUP1 DUP7 ADD DUP6 SWAP1 MSTORE PUSH1 0xA0 SWAP1 SWAP6 ADD DUP13 SWAP1 MSTORE DUP7 DUP5 MSTORE PUSH1 0x2 DUP1 DUP5 MSTORE SWAP4 DUP3 SWAP1 KECCAK256 DUP7 MLOAD DUP2 SLOAD PUSH1 0x1 PUSH1 0x1 PUSH1 0xA0 SHL SUB NOT SWAP1 DUP2 AND PUSH1 0x1 PUSH1 0x1 PUSH1 0xA0 SHL SUB SWAP3 DUP4 AND OR DUP4 SSTORE SWAP5 DUP9 ADD MLOAD PUSH1 0x1 DUP4 ADD DUP1 SLOAD SWAP1 SWAP7 AND SWAP2 AND OR SWAP1 SWAP4 SSTORE SWAP1 DUP6 ADD MLOAD SWAP3 DUP3 ADD SWAP3 SWAP1 SWAP3 SSTORE SWAP1 DUP4 ADD MLOAD PUSH1 0x3 DUP3 ADD SSTORE SWAP1 DUP3 ADD MLOAD PUSH1 0x4 DUP3 ADD SWAP1 PUSH2 0x17F7 SWAP1 DUP3 PUSH2 0x2AE6 JUMP JUMPDEST POP PUSH1 0xA0 DUP3 ADD MLOAD PUSH1 0x5 DUP3 ADD SSTORE PUSH1 0xC0 DUP3 ADD MLOAD PUSH1 0x6 DUP3 ADD SSTORE PUSH1 0xE0 DUP3 ADD MLOAD PUSH1 0x7 DUP3 ADD SSTORE PUSH2 0x100 DUP3 ADD MLOAD PUSH1 0x8 DUP3 ADD DUP1 SLOAD PUSH1 0xFF NOT AND PUSH1 0x1 DUP4 PUSH1 0x3 DUP2 GT ISZERO PUSH2 0x183A JUMPI PUSH2 0x183A PUSH2 0x2327 JUMP JUMPDEST MUL OR SWAP1 SSTORE POP PUSH2 0x120 DUP3 ADD MLOAD PUSH1 0x9 DUP3 ADD SSTORE PUSH2 0x140 DUP3 ADD MLOAD PUSH1 0xA DUP3 ADD SSTORE PUSH2 0x160 DUP3 ADD MLOAD PUSH1 0xB DUP3 ADD SSTORE PUSH2 0x180 DUP3 ADD MLOAD PUSH1 0xC DUP3 ADD DUP1 SLOAD PUSH1 0xFF NOT AND SWAP2 ISZERO ISZERO SWAP2 SWAP1 SWAP2 OR SWAP1 SSTORE PUSH2 0x1A0 SWAP1 SWAP2 ADD MLOAD PUSH1 0xD SWAP1 SWAP2 ADD SSTORE PUSH1 0x40 DUP1 MLOAD DUP8 DUP2 MSTORE PUSH1 0x20 DUP2 ADD DUP8 SWAP1 MSTORE CALLER SWAP2 PUSH1 0x1 PUSH1 0x1 PUSH1 0xA0 SHL SUB DUP11 AND SWAP2 DUP5 SWAP2 PUSH32 0xF192E69661023236EEA1DDF6A33A7B77FFADEA48EA9250E4B49E4A4C68C4B03 SWAP2 ADD PUSH1 0x40 MLOAD DUP1 SWAP2 SUB SWAP1 LOG4 SWAP2 POP POP PUSH2 0x18DB PUSH1 0x1 PUSH1 0x0 SSTORE JUMP JUMPDEST SWAP5 SWAP4 POP POP POP POP JUMP JUMPDEST PUSH1 0x0 PUSH1 0x5 SLOAD DUP4 LT PUSH2 0x18F6 JUMPI POP PUSH1 0x0 PUSH2 0x1530 JUMP JUMPDEST PUSH1 0x0 DUP4 DUP2 MSTORE PUSH1 0x2 PUSH1 0x20 DUP2 DUP2 MSTORE PUSH1 0x40 DUP1 DUP5 KECCAK256 DUP2 MLOAD PUSH2 0x1C0 DUP2 ADD DUP4 MSTORE DUP2 SLOAD PUSH1 0x1 PUSH1 0x1 PUSH1 0xA0 SHL SUB SWAP1 DUP2 AND DUP3 MSTORE PUSH1 0x1 DUP4 ADD SLOAD AND SWAP4 DUP2 ADD SWAP4 SWAP1 SWAP4 MSTORE SWAP3 DUP4 ADD SLOAD SWAP1 DUP3 ADD MSTORE PUSH1 0x3 DUP3 ADD SLOAD PUSH1 0x60 DUP3 ADD MSTORE PUSH1 0x4 DUP3 ADD DUP1 SLOAD SWAP2 SWAP3 SWAP2 PUSH1 0x80 DUP5 ADD SWAP2 SWAP1 PUSH2 0x1956 SWAP1 PUSH2 0x278D JUMP JUMPDEST DUP1 PUSH1 0x1F ADD PUSH1 0x20 DUP1 SWAP2 DIV MUL PUSH1 0x20 ADD PUSH1 0x40 MLOAD SWAP1 DUP2 ADD PUSH1 0x40 MSTORE DUP1 SWAP3 SWAP2 SWAP1 DUP2 DUP2 MSTORE PUSH1 0x20 ADD DUP3 DUP1 SLOAD PUSH2 0x1982 SWAP1 PUSH2 0x278D JUMP JUMPDEST DUP1 ISZERO PUSH2 0x19CF JUMPI DUP1 PUSH1 0x1F LT PUSH2 0x19A4 JUMPI PUSH2 0x100 DUP1 DUP4 SLOAD DIV MUL DUP4 MSTORE SWAP2 PUSH1 0x20 ADD SWAP2 PUSH2 0x19CF JUMP JUMPDEST DUP3 ADD SWAP2 SWAP1 PUSH1 0x0 MSTORE PUSH1 0x20 PUSH1 0x0 KECCAK256 SWAP1 JUMPDEST DUP2 SLOAD DUP2 MSTORE SWAP1 PUSH1 0x1 ADD SWAP1 PUSH1 0x20 ADD DUP1 DUP4 GT PUSH2 0x19B2 JUMPI DUP3 SWAP1 SUB PUSH1 0x1F AND DUP3 ADD SWAP2 JUMPDEST POP POP POP SWAP2 DUP4 MSTORE POP POP PUSH1 0x5 DUP3 ADD SLOAD PUSH1 0x20 DUP3 ADD MSTORE PUSH1 0x6 DUP3 ADD SLOAD PUSH1 0x40 DUP3 ADD MSTORE PUSH1 0x7 DUP3 ADD SLOAD PUSH1 0x60 DUP3 ADD MSTORE PUSH1 0x8 DUP3 ADD SLOAD PUSH1 0x80 SWAP1 SWAP2 ADD SWAP1 PUSH1 0xFF AND PUSH1 0x3 DUP2 GT ISZERO PUSH2 0x1A14 JUMPI PUSH2 0x1A14 PUSH2 0x2327 JUMP JUMPDEST PUSH1 0x3 DUP2 GT ISZERO PUSH2 0x1A25 JUMPI PUSH2 0x1A25 PUSH2 0x2327 JUMP JUMPDEST DUP2 MSTORE PUSH1 0x9 DUP3 ADD SLOAD PUSH1 0x20 DUP3 ADD MSTORE PUSH1 0xA DUP3 ADD SLOAD PUSH1 0x40 DUP3 ADD MSTORE PUSH1 0xB DUP3 ADD SLOAD PUSH1 0x60 DUP3 ADD MSTORE PUSH1 0xC DUP3 ADD SLOAD PUSH1 0xFF AND ISZERO ISZERO PUSH1 0x80 DUP3 ADD MSTORE PUSH1 0xD SWAP1 SWAP2 ADD SLOAD PUSH1 0xA0 SWAP1 SWAP2 ADD MSTORE SWAP1 POP PUSH1 0x1 DUP2 PUSH2 0x100 ADD MLOAD PUSH1 0x3 DUP2 GT ISZERO PUSH2 0x1A7B JUMPI PUSH2 0x1A7B PUSH2 0x2327 JUMP JUMPDEST EQ PUSH2 0x1A8A JUMPI PUSH1 0x0 SWAP2 POP POP PUSH2 0x1530 JUMP JUMPDEST DUP1 PUSH1 0xE0 ADD MLOAD TIMESTAMP GT ISZERO PUSH2 0x1AA0 JUMPI PUSH1 0x0 SWAP2 POP POP PUSH2 0x1530 JUMP JUMPDEST PUSH1 0x0 DUP5 DUP2 MSTORE PUSH1 0x3 PUSH1 0x20 SWAP1 DUP2 MSTORE PUSH1 0x40 DUP1 DUP4 KECCAK256 PUSH1 0x1 PUSH1 0x1 PUSH1 0xA0 SHL SUB DUP8 AND DUP5 MSTORE SWAP1 SWAP2 MSTORE DUP2 KECCAK256 SLOAD PUSH1 0xFF AND PUSH1 0x2 DUP2 GT ISZERO PUSH2 0x1AD7 JUMPI PUSH2 0x1AD7 PUSH2 0x2327 JUMP JUMPDEST EQ PUSH2 0x1AE6 JUMPI PUSH1 0x0 SWAP2 POP POP PUSH2 0x1530 JUMP JUMPDEST PUSH1 0xB SLOAD PUSH1 0x40 MLOAD PUSH4 0x10154287 PUSH1 0xE2 SHL DUP2 MSTORE PUSH1 0x1 PUSH1 0x1 PUSH1 0xA0 SHL SUB DUP6 DUP2 AND PUSH1 0x4 DUP4 ADD MSTORE SWAP1 SWAP2 AND SWAP1 PUSH4 0x40550A1C SWAP1 PUSH1 0x24 ADD PUSH1 0x20 PUSH1 0x40 MLOAD DUP1 DUP4 SUB DUP2 DUP7 GAS STATICCALL ISZERO DUP1 ISZERO PUSH2 0x1B30 JUMPI RETURNDATASIZE PUSH1 0x0 DUP1 RETURNDATACOPY RETURNDATASIZE PUSH1 0x0 REVERT JUMPDEST POP POP POP POP PUSH1 0x40 MLOAD RETURNDATASIZE PUSH1 0x1F NOT PUSH1 0x1F DUP3 ADD AND DUP3 ADD DUP1 PUSH1 0x40 MSTORE POP DUP2 ADD SWAP1 PUSH2 0x1B54 SWAP2 SWAP1 PUSH2 0x2871 JUMP JUMPDEST PUSH2 0x1B62 JUMPI PUSH1 0x0 SWAP2 POP POP PUSH2 0x1530 JUMP JUMPDEST PUSH1 0xB SLOAD PUSH1 0x40 MLOAD PUSH4 0xC3453153 PUSH1 0xE0 SHL DUP2 MSTORE PUSH1 0x1 PUSH1 0x1 PUSH1 0xA0 SHL SUB DUP6 DUP2 AND PUSH1 0x4 DUP4 ADD MSTORE PUSH1 0x0 SWAP3 AND SWAP1 PUSH4 0xC3453153 SWAP1 PUSH1 0x24 ADD PUSH1 0xA0 PUSH1 0x40 MLOAD DUP1 DUP4 SUB DUP2 DUP7 GAS STATICCALL ISZERO DUP1 ISZERO PUSH2 0x1BAD JUMPI RETURNDATASIZE PUSH1 0x0 DUP1 RETURNDATACOPY RETURNDATASIZE PUSH1 0x0 REVERT JUMPDEST POP POP POP POP PUSH1 0x40 MLOAD RETURNDATASIZE PUSH1 0x1F NOT PUSH1 0x1F DUP3 ADD AND DUP3 ADD DUP1 PUSH1 0x40 MSTORE POP DUP2 ADD SWAP1 PUSH2 0x1BD1 SWAP2 SWAP1 PUSH2 0x288C JUMP JUMPDEST PUSH1 0x8 SLOAD SWAP1 MLOAD LT ISZERO SWAP6 SWAP5 POP POP POP POP POP JUMP JUMPDEST PUSH2 0x1BE9 PUSH2 0x2126 JUMP JUMPDEST SELFBALANCE PUSH1 0x0 PUSH2 0x1BFE PUSH1 0x1 SLOAD PUSH1 0x1 PUSH1 0x1 PUSH1 0xA0 SHL SUB AND SWAP1 JUMP JUMPDEST PUSH1 0x1 PUSH1 0x1 PUSH1 0xA0 SHL SUB AND DUP3 PUSH1 0x40 MLOAD PUSH1 0x0 PUSH1 0x40 MLOAD DUP1 DUP4 SUB DUP2 DUP6 DUP8 GAS CALL SWAP3 POP POP POP RETURNDATASIZE DUP1 PUSH1 0x0 DUP2 EQ PUSH2 0x1C48 JUMPI PUSH1 0x40 MLOAD SWAP2 POP PUSH1 0x1F NOT PUSH1 0x3F RETURNDATASIZE ADD AND DUP3 ADD PUSH1 0x40 MSTORE RETURNDATASIZE DUP3 MSTORE RETURNDATASIZE PUSH1 0x0 PUSH1 0x20 DUP5 ADD RETURNDATACOPY PUSH2 0x1C4D JUMP JUMPDEST PUSH1 0x60 SWAP2 POP JUMPDEST POP POP SWAP1 POP DUP1 PUSH2 0x148D JUMPI PUSH1 0x40 MLOAD PUSH3 0x461BCD PUSH1 0xE5 SHL DUP2 MSTORE PUSH1 0x20 PUSH1 0x4 DUP3 ADD MSTORE PUSH1 0x11 PUSH1 0x24 DUP3 ADD MSTORE PUSH17 0x15DA5D1A191C985DD85B0819985A5B1959 PUSH1 0x7A SHL PUSH1 0x44 DUP3 ADD MSTORE PUSH1 0x64 ADD PUSH2 0x7B2 JUMP JUMPDEST PUSH1 0x4 PUSH1 0x20 MSTORE DUP2 PUSH1 0x0 MSTORE PUSH1 0x40 PUSH1 0x0 KECCAK256 DUP2 DUP2 SLOAD DUP2 LT PUSH2 0x1CAE JUMPI PUSH1 0x0 DUP1 REVERT JUMPDEST PUSH1 0x0 SWAP2 DUP3 MSTORE PUSH1 0x20 SWAP1 SWAP2 KECCAK256 ADD SLOAD PUSH1 0x1 PUSH1 0x1 PUSH1 0xA0 SHL SUB AND SWAP2 POP DUP3 SWAP1 POP JUMP JUMPDEST PUSH2 0x1CD2 PUSH2 0x21A5 JUMP JUMPDEST PUSH1 0x0 DUP3 DUP2 MSTORE PUSH1 0x2 PUSH1 0x20 DUP2 DUP2 MSTORE PUSH1 0x40 SWAP3 DUP4 SWAP1 KECCAK256 DUP4 MLOAD PUSH2 0x1C0 DUP2 ADD DUP6 MSTORE DUP2 SLOAD PUSH1 0x1 PUSH1 0x1 PUSH1 0xA0 SHL SUB SWAP1 DUP2 AND DUP3 MSTORE PUSH1 0x1 DUP4 ADD SLOAD AND SWAP3 DUP2 ADD SWAP3 SWAP1 SWAP3 MSTORE SWAP2 DUP3 ADD SLOAD SWAP3 DUP2 ADD SWAP3 SWAP1 SWAP3 MSTORE PUSH1 0x3 DUP2 ADD SLOAD PUSH1 0x60 DUP4 ADD MSTORE PUSH1 0x4 DUP2 ADD DUP1 SLOAD PUSH1 0x80 DUP5 ADD SWAP2 SWAP1 PUSH2 0x1D33 SWAP1 PUSH2 0x278D JUMP JUMPDEST DUP1 PUSH1 0x1F ADD PUSH1 0x20 DUP1 SWAP2 DIV MUL PUSH1 0x20 ADD PUSH1 0x40 MLOAD SWAP1 DUP2 ADD PUSH1 0x40 MSTORE DUP1 SWAP3 SWAP2 SWAP1 DUP2 DUP2 MSTORE PUSH1 0x20 ADD DUP3 DUP1 SLOAD PUSH2 0x1D5F SWAP1 PUSH2 0x278D JUMP JUMPDEST DUP1 ISZERO PUSH2 0x1DAC JUMPI DUP1 PUSH1 0x1F LT PUSH2 0x1D81 JUMPI PUSH2 0x100 DUP1 DUP4 SLOAD DIV MUL DUP4 MSTORE SWAP2 PUSH1 0x20 ADD SWAP2 PUSH2 0x1DAC JUMP JUMPDEST DUP3 ADD SWAP2 SWAP1 PUSH1 0x0 MSTORE PUSH1 0x20 PUSH1 0x0 KECCAK256 SWAP1 JUMPDEST DUP2 SLOAD DUP2 MSTORE SWAP1 PUSH1 0x1 ADD SWAP1 PUSH1 0x20 ADD DUP1 DUP4 GT PUSH2 0x1D8F JUMPI DUP3 SWAP1 SUB PUSH1 0x1F AND DUP3 ADD SWAP2 JUMPDEST POP POP POP SWAP2 DUP4 MSTORE POP POP PUSH1 0x5 DUP3 ADD SLOAD PUSH1 0x20 DUP3 ADD MSTORE PUSH1 0x6 DUP3 ADD SLOAD PUSH1 0x40 DUP3 ADD MSTORE PUSH1 0x7 DUP3 ADD SLOAD PUSH1 0x60 DUP3 ADD MSTORE PUSH1 0x8 DUP3 ADD SLOAD PUSH1 0x80 SWAP1 SWAP2 ADD SWAP1 PUSH1 0xFF AND PUSH1 0x3 DUP2 GT ISZERO PUSH2 0x1DF1 JUMPI PUSH2 0x1DF1 PUSH2 0x2327 JUMP JUMPDEST PUSH1 0x3 DUP2 GT ISZERO PUSH2 0x1E02 JUMPI PUSH2 0x1E02 PUSH2 0x2327 JUMP JUMPDEST DUP2 MSTORE PUSH1 0x9 DUP3 ADD SLOAD PUSH1 0x20 DUP3 ADD MSTORE PUSH1 0xA DUP3 ADD SLOAD PUSH1 0x40 DUP3 ADD MSTORE PUSH1 0xB DUP3 ADD SLOAD PUSH1 0x60 DUP3 ADD MSTORE PUSH1 0xC DUP3 ADD SLOAD PUSH1 0xFF AND ISZERO ISZERO PUSH1 0x80 DUP3 ADD MSTORE PUSH1 0xD SWAP1 SWAP2 ADD SLOAD PUSH1 0xA0 SWAP1 SWAP2 ADD MSTORE SWAP3 SWAP2 POP POP JUMP JUMPDEST PUSH2 0x1E4B PUSH2 0x2126 JUMP JUMPDEST PUSH1 0x6 SWAP4 SWAP1 SWAP4 SSTORE PUSH1 0x7 SWAP2 SWAP1 SWAP2 SSTORE PUSH1 0x9 SSTORE PUSH1 0x8 SSTORE JUMP JUMPDEST PUSH2 0x1E67 PUSH2 0x2126 JUMP JUMPDEST PUSH1 0x1 PUSH1 0x1 PUSH1 0xA0 SHL SUB DUP2 AND PUSH2 0x1E91 JUMPI PUSH1 0x40 MLOAD PUSH4 0x1E4FBDF7 PUSH1 0xE0 SHL DUP2 MSTORE PUSH1 0x0 PUSH1 0x4 DUP3 ADD MSTORE PUSH1 0x24 ADD PUSH2 0x7B2 JUMP JUMPDEST PUSH2 0xC92 DUP2 PUSH2 0x2153 JUMP JUMPDEST PUSH1 0x2 PUSH1 0x0 SLOAD SUB PUSH2 0x1EBD JUMPI PUSH1 0x40 MLOAD PUSH4 0x3EE5AEB5 PUSH1 0xE0 SHL DUP2 MSTORE PUSH1 0x4 ADD PUSH1 0x40 MLOAD DUP1 SWAP2 SUB SWAP1 REVERT JUMPDEST PUSH1 0x2 PUSH1 0x0 SSTORE JUMP JUMPDEST PUSH1 0x0 DUP3 DUP2 MSTORE PUSH1 0x2 PUSH1 0x20 SWAP1 DUP2 MSTORE PUSH1 0x40 DUP1 DUP4 KECCAK256 PUSH1 0x4 DUP4 MSTORE DUP2 DUP5 KECCAK256 DUP1 SLOAD DUP4 MLOAD DUP2 DUP7 MUL DUP2 ADD DUP7 ADD SWAP1 SWAP5 MSTORE DUP1 DUP5 MSTORE SWAP2 SWAP5 SWAP4 SWAP1 SWAP2 SWAP1 DUP4 ADD DUP3 DUP3 DUP1 ISZERO PUSH2 0x1F2C JUMPI PUSH1 0x20 MUL DUP3 ADD SWAP2 SWAP1 PUSH1 0x0 MSTORE PUSH1 0x20 PUSH1 0x0 KECCAK256 SWAP1 JUMPDEST DUP2 SLOAD PUSH1 0x1 PUSH1 0x1 PUSH1 0xA0 SHL SUB AND DUP2 MSTORE PUSH1 0x1 SWAP1 SWAP2 ADD SWAP1 PUSH1 0x20 ADD DUP1 DUP4 GT PUSH2 0x1F0E JUMPI JUMPDEST POP POP POP POP POP SWAP1 POP PUSH1 0x0 DUP4 PUSH2 0x1F44 JUMPI DUP3 PUSH1 0xA ADD SLOAD PUSH2 0x1F4A JUMP JUMPDEST DUP3 PUSH1 0x9 ADD SLOAD JUMPDEST SWAP1 POP PUSH1 0x0 PUSH1 0x4 DUP5 PUSH1 0x5 ADD SLOAD PUSH2 0x1F5F SWAP2 SWAP1 PUSH2 0x2827 JUMP JUMPDEST SWAP1 POP DUP2 PUSH1 0x0 SUB PUSH2 0x1F71 JUMPI POP POP POP POP POP POP JUMP JUMPDEST PUSH1 0x0 JUMPDEST DUP4 MLOAD DUP2 LT ISZERO PUSH2 0x20E3 JUMPI PUSH1 0x0 DUP5 DUP3 DUP2 MLOAD DUP2 LT PUSH2 0x1F91 JUMPI PUSH2 0x1F91 PUSH2 0x2777 JUMP JUMPDEST PUSH1 0x20 SWAP1 DUP2 MUL SWAP2 SWAP1 SWAP2 ADD DUP2 ADD MLOAD PUSH1 0x0 DUP11 DUP2 MSTORE PUSH1 0x3 DUP4 MSTORE PUSH1 0x40 DUP1 DUP3 KECCAK256 PUSH1 0x1 PUSH1 0x1 PUSH1 0xA0 SHL SUB DUP5 AND DUP4 MSTORE SWAP1 SWAP4 MSTORE SWAP2 DUP3 KECCAK256 SWAP1 SWAP3 POP SWAP1 DUP9 DUP1 ISZERO PUSH2 0x1FE3 JUMPI POP PUSH1 0x1 DUP3 SLOAD PUSH1 0xFF AND PUSH1 0x2 DUP2 GT ISZERO PUSH2 0x1FE1 JUMPI PUSH2 0x1FE1 PUSH2 0x2327 JUMP JUMPDEST EQ JUMPDEST DUP1 PUSH2 0x200C JUMPI POP DUP9 ISZERO DUP1 ISZERO PUSH2 0x200C JUMPI POP PUSH1 0x2 DUP3 SLOAD PUSH1 0xFF AND PUSH1 0x2 DUP2 GT ISZERO PUSH2 0x200A JUMPI PUSH2 0x200A PUSH2 0x2327 JUMP JUMPDEST EQ JUMPDEST SWAP1 POP DUP1 DUP1 ISZERO PUSH2 0x2020 JUMPI POP PUSH1 0x3 DUP3 ADD SLOAD PUSH1 0xFF AND ISZERO JUMPDEST ISZERO PUSH2 0x20CD JUMPI PUSH1 0x0 DUP7 DUP7 DUP5 PUSH1 0x1 ADD SLOAD PUSH2 0x2038 SWAP2 SWAP1 PUSH2 0x2810 JUMP JUMPDEST PUSH2 0x2042 SWAP2 SWAP1 PUSH2 0x2827 JUMP JUMPDEST PUSH1 0x3 DUP5 ADD DUP1 SLOAD PUSH1 0xFF NOT AND PUSH1 0x1 OR SWAP1 SSTORE PUSH1 0xA SLOAD PUSH1 0x40 MLOAD PUSH4 0xA9059CBB PUSH1 0xE0 SHL DUP2 MSTORE PUSH1 0x1 PUSH1 0x1 PUSH1 0xA0 SHL SUB DUP8 DUP2 AND PUSH1 0x4 DUP4 ADD MSTORE PUSH1 0x24 DUP3 ADD DUP5 SWAP1 MSTORE SWAP3 SWAP4 POP SWAP2 AND SWAP1 PUSH4 0xA9059CBB SWAP1 PUSH1 0x44 ADD PUSH1 0x20 PUSH1 0x40 MLOAD DUP1 DUP4 SUB DUP2 PUSH1 0x0 DUP8 GAS CALL ISZERO DUP1 ISZERO PUSH2 0x20A6 JUMPI RETURNDATASIZE PUSH1 0x0 DUP1 RETURNDATACOPY RETURNDATASIZE PUSH1 0x0 REVERT JUMPDEST POP POP POP POP PUSH1 0x40 MLOAD RETURNDATASIZE PUSH1 0x1F NOT PUSH1 0x1F DUP3 ADD AND DUP3 ADD DUP1 PUSH1 0x40 MSTORE POP DUP2 ADD SWAP1 PUSH2 0x20CA SWAP2 SWAP1 PUSH2 0x2871 JUMP JUMPDEST POP POP JUMPDEST POP POP POP DUP1 DUP1 PUSH2 0x20DB SWAP1 PUSH2 0x275E JUMP JUMPDEST SWAP2 POP POP PUSH2 0x1F74 JUMP JUMPDEST POP DUP6 PUSH32 0x29E98BA00D07F171959C4DDCD2F3020DEBC7C52CF537A034D7E664340D098C6C DUP3 PUSH1 0x40 MLOAD PUSH2 0x2116 SWAP2 DUP2 MSTORE PUSH1 0x20 ADD SWAP1 JUMP JUMPDEST PUSH1 0x40 MLOAD DUP1 SWAP2 SUB SWAP1 LOG2 POP POP POP POP POP POP JUMP JUMPDEST PUSH1 0x1 SLOAD PUSH1 0x1 PUSH1 0x1 PUSH1 0xA0 SHL SUB AND CALLER EQ PUSH2 0xCA7 JUMPI PUSH1 0x40 MLOAD PUSH4 0x118CDAA7 PUSH1 0xE0 SHL DUP2 MSTORE CALLER PUSH1 0x4 DUP3 ADD MSTORE PUSH1 0x24 ADD PUSH2 0x7B2 JUMP JUMPDEST PUSH1 0x1 DUP1 SLOAD PUSH1 0x1 PUSH1 0x1 PUSH1 0xA0 SHL SUB DUP4 DUP2 AND PUSH1 0x1 PUSH1 0x1 PUSH1 0xA0 SHL SUB NOT DUP4 AND DUP2 OR SWAP1 SWAP4 SSTORE PUSH1 0x40 MLOAD SWAP2 AND SWAP2 SWAP1 DUP3 SWAP1 PUSH32 0x8BE0079C531659141344CD1FD0A4F28419497F9722A3DAAFE3B4186F6B6457E0 SWAP1 PUSH1 0x0 SWAP1 LOG3 POP POP JUMP JUMPDEST PUSH1 0x40 MLOAD DUP1 PUSH2 0x1C0 ADD PUSH1 0x40 MSTORE DUP1 PUSH1 0x0 PUSH1 0x1 PUSH1 0x1 PUSH1 0xA0 SHL SUB AND DUP2 MSTORE PUSH1 0x20 ADD PUSH1 0x0 PUSH1 0x1 PUSH1 0x1 PUSH1 0xA0 SHL SUB AND DUP2 MSTORE PUSH1 0x20 ADD PUSH1 0x0 DUP2 MSTORE PUSH1 0x20 ADD PUSH1 0x0 DUP2 MSTORE PUSH1 0x20 ADD PUSH1 0x60 DUP2 MSTORE PUSH1 0x20 ADD PUSH1 0x0 DUP2 MSTORE PUSH1 0x20 ADD PUSH1 0x0 DUP2 MSTORE PUSH1 0x20 ADD PUSH1 0x0 DUP2 MSTORE PUSH1 0x20 ADD PUSH1 0x0 PUSH1 0x3 DUP2 GT ISZERO PUSH2 0x220E JUMPI PUSH2 0x220E PUSH2 0x2327 JUMP JUMPDEST DUP2 MSTORE PUSH1 0x20 ADD PUSH1 0x0 DUP2 MSTORE PUSH1 0x20 ADD PUSH1 0x0 DUP2 MSTORE PUSH1 0x20 ADD PUSH1 0x0 DUP2 MSTORE PUSH1 0x20 ADD PUSH1 0x0 ISZERO ISZERO DUP2 MSTORE PUSH1 0x20 ADD PUSH1 0x0 DUP2 MSTORE POP SWAP1 JUMP JUMPDEST PUSH1 0x20 DUP1 DUP3 MSTORE DUP3 MLOAD DUP3 DUP3 ADD DUP2 SWAP1 MSTORE PUSH1 0x0 SWAP2 SWAP1 DUP5 DUP3 ADD SWAP1 PUSH1 0x40 DUP6 ADD SWAP1 DUP5 JUMPDEST DUP2 DUP2 LT ISZERO PUSH2 0x2271 JUMPI DUP4 MLOAD DUP4 MSTORE SWAP3 DUP5 ADD SWAP3 SWAP2 DUP5 ADD SWAP2 PUSH1 0x1 ADD PUSH2 0x2255 JUMP JUMPDEST POP SWAP1 SWAP7 SWAP6 POP POP POP POP POP POP JUMP JUMPDEST PUSH1 0x0 PUSH1 0x20 DUP3 DUP5 SUB SLT ISZERO PUSH2 0x228F JUMPI PUSH1 0x0 DUP1 REVERT JUMPDEST POP CALLDATALOAD SWAP2 SWAP1 POP JUMP JUMPDEST PUSH1 0x20 DUP1 DUP3 MSTORE DUP3 MLOAD DUP3 DUP3 ADD DUP2 SWAP1 MSTORE PUSH1 0x0 SWAP2 SWAP1 DUP5 DUP3 ADD SWAP1 PUSH1 0x40 DUP6 ADD SWAP1 DUP5 JUMPDEST DUP2 DUP2 LT ISZERO PUSH2 0x2271 JUMPI DUP4 MLOAD PUSH1 0x1 PUSH1 0x1 PUSH1 0xA0 SHL SUB AND DUP4 MSTORE SWAP3 DUP5 ADD SWAP3 SWAP2 DUP5 ADD SWAP2 PUSH1 0x1 ADD PUSH2 0x22B2 JUMP JUMPDEST PUSH1 0x0 JUMPDEST DUP4 DUP2 LT ISZERO PUSH2 0x22F2 JUMPI DUP2 DUP2 ADD MLOAD DUP4 DUP3 ADD MSTORE PUSH1 0x20 ADD PUSH2 0x22DA JUMP JUMPDEST POP POP PUSH1 0x0 SWAP2 ADD MSTORE JUMP JUMPDEST PUSH1 0x0 DUP2 MLOAD DUP1 DUP5 MSTORE PUSH2 0x2313 DUP2 PUSH1 0x20 DUP7 ADD PUSH1 0x20 DUP7 ADD PUSH2 0x22D7 JUMP JUMPDEST PUSH1 0x1F ADD PUSH1 0x1F NOT AND SWAP3 SWAP1 SWAP3 ADD PUSH1 0x20 ADD SWAP3 SWAP2 POP POP JUMP JUMPDEST PUSH4 0x4E487B71 PUSH1 0xE0 SHL PUSH1 0x0 MSTORE PUSH1 0x21 PUSH1 0x4 MSTORE PUSH1 0x24 PUSH1 0x0 REVERT JUMPDEST PUSH1 0x4 DUP2 LT PUSH2 0x234D JUMPI PUSH2 0x234D PUSH2 0x2327 JUMP JUMPDEST SWAP1 MSTORE JUMP JUMPDEST PUSH1 0x1 PUSH1 0x1 PUSH1 0xA0 SHL SUB DUP16 DUP2 AND DUP3 MSTORE DUP15 AND PUSH1 0x20 DUP3 ADD MSTORE PUSH1 0x40 DUP2 ADD DUP14 SWAP1 MSTORE PUSH1 0x60 DUP2 ADD DUP13 SWAP1 MSTORE PUSH2 0x1C0 PUSH1 0x80 DUP3 ADD DUP2 SWAP1 MSTORE PUSH1 0x0 SWAP1 PUSH2 0x238C SWAP1 DUP4 ADD DUP14 PUSH2 0x22FB JUMP JUMPDEST SWAP1 POP DUP11 PUSH1 0xA0 DUP4 ADD MSTORE DUP10 PUSH1 0xC0 DUP4 ADD MSTORE DUP9 PUSH1 0xE0 DUP4 ADD MSTORE PUSH2 0x23AE PUSH2 0x100 DUP4 ADD DUP10 PUSH2 0x233D JUMP JUMPDEST DUP7 PUSH2 0x120 DUP4 ADD MSTORE DUP6 PUSH2 0x140 DUP4 ADD MSTORE DUP5 PUSH2 0x160 DUP4 ADD MSTORE PUSH2 0x23D2 PUSH2 0x180 DUP4 ADD DUP6 ISZERO ISZERO SWAP1 MSTORE JUMP JUMPDEST DUP3 PUSH2 0x1A0 DUP4 ADD MSTORE SWAP16 SWAP15 POP POP POP POP POP POP POP POP POP POP POP POP POP POP POP JUMP JUMPDEST PUSH1 0x0 DUP1 PUSH1 0x40 DUP4 DUP6 SUB SLT ISZERO PUSH2 0x23FF JUMPI PUSH1 0x0 DUP1 REVERT JUMPDEST DUP3 CALLDATALOAD SWAP2 POP PUSH1 0x20 DUP4 ADD CALLDATALOAD PUSH1 0x3 DUP2 LT PUSH2 0x2415 JUMPI PUSH1 0x0 DUP1 REVERT JUMPDEST DUP1 SWAP2 POP POP SWAP3 POP SWAP3 SWAP1 POP JUMP JUMPDEST PUSH1 0x1 PUSH1 0x1 PUSH1 0xA0 SHL SUB DUP2 AND DUP2 EQ PUSH2 0xC92 JUMPI PUSH1 0x0 DUP1 REVERT JUMPDEST PUSH1 0x0 DUP1 PUSH1 0x40 DUP4 DUP6 SUB SLT ISZERO PUSH2 0x2448 JUMPI PUSH1 0x0 DUP1 REVERT JUMPDEST DUP3 CALLDATALOAD SWAP2 POP PUSH1 0x20 DUP4 ADD CALLDATALOAD PUSH2 0x2415 DUP2 PUSH2 0x2420 JUMP JUMPDEST PUSH1 0x3 DUP2 LT PUSH2 0x234D JUMPI PUSH2 0x234D PUSH2 0x2327 JUMP JUMPDEST PUSH1 0x0 PUSH1 0x80 DUP3 ADD SWAP1 POP PUSH2 0x247D DUP3 DUP5 MLOAD PUSH2 0x245A JUMP JUMPDEST PUSH1 0x20 DUP4 ADD MLOAD PUSH1 0x20 DUP4 ADD MSTORE PUSH1 0x40 DUP4 ADD MLOAD PUSH1 0x40 DUP4 ADD MSTORE PUSH1 0x60 DUP4 ADD MLOAD ISZERO ISZERO PUSH1 0x60 DUP4 ADD MSTORE SWAP3 SWAP2 POP POP JUMP JUMPDEST PUSH4 0x4E487B71 PUSH1 0xE0 SHL PUSH1 0x0 MSTORE PUSH1 0x41 PUSH1 0x4 MSTORE PUSH1 0x24 PUSH1 0x0 REVERT JUMPDEST PUSH1 0x40 MLOAD PUSH1 0x1F DUP3 ADD PUSH1 0x1F NOT AND DUP2 ADD PUSH8 0xFFFFFFFFFFFFFFFF DUP2 GT DUP3 DUP3 LT OR ISZERO PUSH2 0x24E2 JUMPI PUSH2 0x24E2 PUSH2 0x24A3 JUMP JUMPDEST PUSH1 0x40 MSTORE SWAP2 SWAP1 POP JUMP JUMPDEST PUSH1 0x0 PUSH8 0xFFFFFFFFFFFFFFFF DUP3 GT ISZERO PUSH2 0x2504 JUMPI PUSH2 0x2504 PUSH2 0x24A3 JUMP JUMPDEST POP PUSH1 0x1F ADD PUSH1 0x1F NOT AND PUSH1 0x20 ADD SWAP1 JUMP JUMPDEST PUSH1 0x0 DUP1 PUSH1 0x0 DUP1 PUSH1 0x80 DUP6 DUP8 SUB SLT ISZERO PUSH2 0x2528 JUMPI PUSH1 0x0 DUP1 REVERT JUMPDEST DUP5 CALLDATALOAD PUSH2 0x2533 DUP2 PUSH2 0x2420 JUMP JUMPDEST SWAP4 POP PUSH1 0x20 DUP6 ADD CALLDATALOAD SWAP3 POP PUSH1 0x40 DUP6 ADD CALLDATALOAD SWAP2 POP PUSH1 0x60 DUP6 ADD CALLDATALOAD PUSH8 0xFFFFFFFFFFFFFFFF DUP2 GT ISZERO PUSH2 0x255D JUMPI PUSH1 0x0 DUP1 REVERT JUMPDEST DUP6 ADD PUSH1 0x1F DUP2 ADD DUP8 SGT PUSH2 0x256E JUMPI PUSH1 0x0 DUP1 REVERT JUMPDEST DUP1 CALLDATALOAD PUSH2 0x2581 PUSH2 0x257C DUP3 PUSH2 0x24EA JUMP JUMPDEST PUSH2 0x24B9 JUMP JUMPDEST DUP2 DUP2 MSTORE DUP9 PUSH1 0x20 DUP4 DUP6 ADD ADD GT ISZERO PUSH2 0x2596 JUMPI PUSH1 0x0 DUP1 REVERT JUMPDEST DUP2 PUSH1 0x20 DUP5 ADD PUSH1 0x20 DUP4 ADD CALLDATACOPY PUSH1 0x0 PUSH1 0x20 DUP4 DUP4 ADD ADD MSTORE DUP1 SWAP4 POP POP POP POP SWAP3 SWAP6 SWAP2 SWAP5 POP SWAP3 POP JUMP JUMPDEST PUSH1 0x80 DUP2 ADD PUSH2 0x25C6 DUP3 DUP8 PUSH2 0x245A JUMP JUMPDEST DUP5 PUSH1 0x20 DUP4 ADD MSTORE DUP4 PUSH1 0x40 DUP4 ADD MSTORE DUP3 ISZERO ISZERO PUSH1 0x60 DUP4 ADD MSTORE SWAP6 SWAP5 POP POP POP POP POP JUMP JUMPDEST PUSH1 0x0 DUP1 PUSH1 0x40 DUP4 DUP6 SUB SLT ISZERO PUSH2 0x25F6 JUMPI PUSH1 0x0 DUP1 REVERT JUMPDEST POP POP DUP1 CALLDATALOAD SWAP3 PUSH1 0x20 SWAP1 SWAP2 ADD CALLDATALOAD SWAP2 POP JUMP JUMPDEST PUSH1 0x20 DUP2 MSTORE PUSH2 0x261F PUSH1 0x20 DUP3 ADD DUP4 MLOAD PUSH1 0x1 PUSH1 0x1 PUSH1 0xA0 SHL SUB AND SWAP1 MSTORE JUMP JUMPDEST PUSH1 0x0 PUSH1 0x20 DUP4 ADD MLOAD PUSH2 0x263B PUSH1 0x40 DUP5 ADD DUP3 PUSH1 0x1 PUSH1 0x1 PUSH1 0xA0 SHL SUB AND SWAP1 MSTORE JUMP JUMPDEST POP PUSH1 0x40 DUP4 ADD MLOAD PUSH1 0x60 DUP4 ADD MSTORE PUSH1 0x60 DUP4 ADD MLOAD PUSH1 0x80 DUP4 ADD MSTORE PUSH1 0x80 DUP4 ADD MLOAD PUSH2 0x1C0 DUP1 PUSH1 0xA0 DUP6 ADD MSTORE PUSH2 0x266C PUSH2 0x1E0 DUP6 ADD DUP4 PUSH2 0x22FB JUMP JUMPDEST SWAP2 POP PUSH1 0xA0 DUP6 ADD MLOAD PUSH1 0xC0 DUP6 ADD MSTORE PUSH1 0xC0 DUP6 ADD MLOAD PUSH1 0xE0 DUP6 ADD MSTORE PUSH1 0xE0 DUP6 ADD MLOAD PUSH2 0x100 DUP2 DUP2 DUP8 ADD MSTORE DUP1 DUP8 ADD MLOAD SWAP2 POP POP PUSH2 0x120 PUSH2 0x26A5 DUP2 DUP8 ADD DUP4 PUSH2 0x233D JUMP JUMPDEST DUP7 ADD MLOAD PUSH2 0x140 DUP7 DUP2 ADD SWAP2 SWAP1 SWAP2 MSTORE DUP7 ADD MLOAD PUSH2 0x160 DUP1 DUP8 ADD SWAP2 SWAP1 SWAP2 MSTORE DUP7 ADD MLOAD PUSH2 0x180 DUP1 DUP8 ADD SWAP2 SWAP1 SWAP2 MSTORE DUP7 ADD MLOAD SWAP1 POP PUSH2 0x1A0 PUSH2 0x26E1 DUP2 DUP8 ADD DUP4 ISZERO ISZERO SWAP1 MSTORE JUMP JUMPDEST SWAP6 SWAP1 SWAP6 ADD MLOAD SWAP4 ADD SWAP3 SWAP1 SWAP3 MSTORE POP SWAP2 SWAP1 POP JUMP JUMPDEST PUSH1 0x0 DUP1 PUSH1 0x0 DUP1 PUSH1 0x80 DUP6 DUP8 SUB SLT ISZERO PUSH2 0x2708 JUMPI PUSH1 0x0 DUP1 REVERT JUMPDEST POP POP DUP3 CALLDATALOAD SWAP5 PUSH1 0x20 DUP5 ADD CALLDATALOAD SWAP5 POP PUSH1 0x40 DUP5 ADD CALLDATALOAD SWAP4 PUSH1 0x60 ADD CALLDATALOAD SWAP3 POP SWAP1 POP JUMP JUMPDEST PUSH1 0x0 PUSH1 0x20 DUP3 DUP5 SUB SLT ISZERO PUSH2 0x2736 JUMPI PUSH1 0x0 DUP1 REVERT JUMPDEST DUP2 CALLDATALOAD PUSH2 0x2741 DUP2 PUSH2 0x2420 JUMP JUMPDEST SWAP4 SWAP3 POP POP POP JUMP JUMPDEST PUSH4 0x4E487B71 PUSH1 0xE0 SHL PUSH1 0x0 MSTORE PUSH1 0x11 PUSH1 0x4 MSTORE PUSH1 0x24 PUSH1 0x0 REVERT JUMPDEST PUSH1 0x0 PUSH1 0x1 DUP3 ADD PUSH2 0x2770 JUMPI PUSH2 0x2770 PUSH2 0x2748 JUMP JUMPDEST POP PUSH1 0x1 ADD SWAP1 JUMP JUMPDEST PUSH4 0x4E487B71 PUSH1 0xE0 SHL PUSH1 0x0 MSTORE PUSH1 0x32 PUSH1 0x4 MSTORE PUSH1 0x24 PUSH1 0x0 REVERT JUMPDEST PUSH1 0x1 DUP2 DUP2 SHR SWAP1 DUP3 AND DUP1 PUSH2 0x27A1 JUMPI PUSH1 0x7F DUP3 AND SWAP2 POP JUMPDEST PUSH1 0x20 DUP3 LT DUP2 SUB PUSH2 0x27C1 JUMPI PUSH4 0x4E487B71 PUSH1 0xE0 SHL PUSH1 0x0 MSTORE PUSH1 0x22 PUSH1 0x4 MSTORE PUSH1 0x24 PUSH1 0x0 REVERT JUMPDEST POP SWAP2 SWAP1 POP JUMP JUMPDEST PUSH1 0x20 DUP1 DUP3 MSTORE PUSH1 0x16 SWAP1 DUP3 ADD MSTORE PUSH22 0x111A5CDC1D5D1948191BD95CC81B9BDD08195E1A5CDD PUSH1 0x52 SHL PUSH1 0x40 DUP3 ADD MSTORE PUSH1 0x60 ADD SWAP1 JUMP JUMPDEST PUSH1 0x0 PUSH1 0x20 DUP3 DUP5 SUB SLT ISZERO PUSH2 0x2809 JUMPI PUSH1 0x0 DUP1 REVERT JUMPDEST POP MLOAD SWAP2 SWAP1 POP JUMP JUMPDEST DUP1 DUP3 MUL DUP2 ISZERO DUP3 DUP3 DIV DUP5 EQ OR PUSH2 0x1530 JUMPI PUSH2 0x1530 PUSH2 0x2748 JUMP JUMPDEST PUSH1 0x0 DUP3 PUSH2 0x2844 JUMPI PUSH4 0x4E487B71 PUSH1 0xE0 SHL PUSH1 0x0 MSTORE PUSH1 0x12 PUSH1 0x4 MSTORE PUSH1 0x24 PUSH1 0x0 REVERT JUMPDEST POP DIV SWAP1 JUMP JUMPDEST DUP1 DUP3 ADD DUP1 DUP3 GT ISZERO PUSH2 0x1530 JUMPI PUSH2 0x1530 PUSH2 0x2748 JUMP JUMPDEST DUP1 MLOAD DUP1 ISZERO ISZERO DUP2 EQ PUSH2 0x286C JUMPI PUSH1 0x0 DUP1 REVERT JUMPDEST SWAP2 SWAP1 POP JUMP JUMPDEST PUSH1 0x0 PUSH1 0x20 DUP3 DUP5 SUB SLT ISZERO PUSH2 0x2883 JUMPI PUSH1 0x0 DUP1 REVERT JUMPDEST PUSH2 0x2741 DUP3 PUSH2 0x285C JUMP JUMPDEST PUSH1 0x0 PUSH1 0xA0 DUP3 DUP5 SUB SLT ISZERO PUSH2 0x289E JUMPI PUSH1 0x0 DUP1 REVERT JUMPDEST PUSH1 0x40 MLOAD PUSH1 0xA0 DUP2 ADD DUP2 DUP2 LT PUSH8 0xFFFFFFFFFFFFFFFF DUP3 GT OR ISZERO PUSH2 0x28C1 JUMPI PUSH2 0x28C1 PUSH2 0x24A3 JUMP JUMPDEST DUP1 PUSH1 0x40 MSTORE POP DUP3 MLOAD DUP2 MSTORE PUSH1 0x20 DUP4 ADD MLOAD PUSH1 0x20 DUP3 ADD MSTORE PUSH1 0x40 DUP4 ADD MLOAD PUSH1 0x40 DUP3 ADD MSTORE PUSH1 0x60 DUP4 ADD MLOAD PUSH1 0x60 DUP3 ADD MSTORE PUSH2 0x28F4 PUSH1 0x80 DUP5 ADD PUSH2 0x285C JUMP JUMPDEST PUSH1 0x80 DUP3 ADD MSTORE SWAP4 SWAP3 POP POP POP JUMP JUMPDEST PUSH1 0x0 PUSH1 0xE0 DUP3 DUP5 SUB SLT ISZERO PUSH2 0x2912 JUMPI PUSH1 0x0 DUP1 REVERT JUMPDEST PUSH1 0x40 MLOAD PUSH1 0xE0 DUP2 ADD DUP2 DUP2 LT PUSH8 0xFFFFFFFFFFFFFFFF DUP3 GT OR ISZERO PUSH2 0x2935 JUMPI PUSH2 0x2935 PUSH2 0x24A3 JUMP JUMPDEST PUSH1 0x40 MSTORE DUP3 MLOAD PUSH2 0x2943 DUP2 PUSH2 0x2420 JUMP JUMPDEST DUP1 DUP3 MSTORE POP PUSH1 0x20 DUP4 ADD MLOAD PUSH1 0x20 DUP3 ADD MSTORE PUSH1 0x40 DUP4 ADD MLOAD PUSH1 0x40 DUP3 ADD MSTORE PUSH1 0x60 DUP4 ADD MLOAD PUSH1 0x60 DUP3 ADD MSTORE PUSH1 0x80 DUP4 ADD MLOAD PUSH1 0x80 DUP3 ADD MSTORE PUSH2 0x297B PUSH1 0xA0 DUP5 ADD PUSH2 0x285C JUMP JUMPDEST PUSH1 0xA0 DUP3 ADD MSTORE PUSH1 0xC0 DUP4 ADD MLOAD PUSH1 0xC0 DUP3 ADD MSTORE DUP1 SWAP2 POP POP SWAP3 SWAP2 POP POP JUMP JUMPDEST PUSH1 0x40 DUP2 ADD PUSH2 0x29A2 DUP3 DUP6 PUSH2 0x245A JUMP JUMPDEST DUP3 PUSH1 0x20 DUP4 ADD MSTORE SWAP4 SWAP3 POP POP POP JUMP JUMPDEST PUSH1 0x0 DUP3 PUSH1 0x1F DUP4 ADD SLT PUSH2 0x29C0 JUMPI PUSH1 0x0 DUP1 REVERT JUMPDEST DUP2 MLOAD PUSH2 0x29CE PUSH2 0x257C DUP3 PUSH2 0x24EA JUMP JUMPDEST DUP2 DUP2 MSTORE DUP5 PUSH1 0x20 DUP4 DUP7 ADD ADD GT ISZERO PUSH2 0x29E3 JUMPI PUSH1 0x0 DUP1 REVERT JUMPDEST PUSH2 0x18DB DUP3 PUSH1 0x20 DUP4 ADD PUSH1 0x20 DUP8 ADD PUSH2 0x22D7 JUMP JUMPDEST PUSH1 0x0 DUP1 PUSH1 0x0 DUP1 PUSH1 0x0 DUP1 PUSH1 0x0 PUSH1 0xE0 DUP9 DUP11 SUB SLT ISZERO PUSH2 0x2A0F JUMPI PUSH1 0x0 DUP1 REVERT JUMPDEST DUP8 MLOAD PUSH8 0xFFFFFFFFFFFFFFFF DUP1 DUP3 GT ISZERO PUSH2 0x2A27 JUMPI PUSH1 0x0 DUP1 REVERT JUMPDEST PUSH2 0x2A33 DUP12 DUP4 DUP13 ADD PUSH2 0x29AF JUMP JUMPDEST SWAP9 POP PUSH1 0x20 DUP11 ADD MLOAD SWAP2 POP DUP1 DUP3 GT ISZERO PUSH2 0x2A49 JUMPI PUSH1 0x0 DUP1 REVERT JUMPDEST POP PUSH2 0x2A56 DUP11 DUP3 DUP12 ADD PUSH2 0x29AF JUMP JUMPDEST SWAP7 POP POP PUSH1 0x40 DUP9 ADD MLOAD SWAP5 POP PUSH1 0x60 DUP9 ADD MLOAD SWAP4 POP PUSH1 0x80 DUP9 ADD MLOAD PUSH1 0x4 DUP2 LT PUSH2 0x2A79 JUMPI PUSH1 0x0 DUP1 REVERT JUMPDEST DUP1 SWAP4 POP POP PUSH1 0xA0 DUP9 ADD MLOAD SWAP2 POP PUSH1 0xC0 DUP9 ADD MLOAD SWAP1 POP SWAP3 SWAP6 SWAP9 SWAP2 SWAP5 SWAP8 POP SWAP3 SWAP6 POP JUMP JUMPDEST PUSH1 0x1F DUP3 GT ISZERO PUSH2 0x2AE1 JUMPI PUSH1 0x0 DUP2 DUP2 MSTORE PUSH1 0x20 DUP2 KECCAK256 PUSH1 0x1F DUP6 ADD PUSH1 0x5 SHR DUP2 ADD PUSH1 0x20 DUP7 LT ISZERO PUSH2 0x2ABE JUMPI POP DUP1 JUMPDEST PUSH1 0x1F DUP6 ADD PUSH1 0x5 SHR DUP3 ADD SWAP2 POP JUMPDEST DUP2 DUP2 LT ISZERO PUSH2 0x2ADD JUMPI DUP3 DUP2 SSTORE PUSH1 0x1 ADD PUSH2 0x2ACA JUMP JUMPDEST POP POP POP JUMPDEST POP POP POP JUMP JUMPDEST DUP2 MLOAD PUSH8 0xFFFFFFFFFFFFFFFF DUP2 GT ISZERO PUSH2 0x2B00 JUMPI PUSH2 0x2B00 PUSH2 0x24A3 JUMP JUMPDEST PUSH2 0x2B14 DUP2 PUSH2 0x2B0E DUP5 SLOAD PUSH2 0x278D JUMP JUMPDEST DUP5 PUSH2 0x2A97 JUMP JUMPDEST PUSH1 0x20 DUP1 PUSH1 0x1F DUP4 GT PUSH1 0x1 DUP2 EQ PUSH2 0x2B49 JUMPI PUSH1 0x0 DUP5 ISZERO PUSH2 0x2B31 JUMPI POP DUP6 DUP4 ADD MLOAD JUMPDEST PUSH1 0x0 NOT PUSH1 0x3 DUP7 SWAP1 SHL SHR NOT AND PUSH1 0x1 DUP6 SWAP1 SHL OR DUP6 SSTORE PUSH2 0x2ADD JUMP JUMPDEST PUSH1 0x0 DUP6 DUP2 MSTORE PUSH1 0x20 DUP2 KECCAK256 PUSH1 0x1F NOT DUP7 AND SWAP2 JUMPDEST DUP3 DUP2 LT ISZERO PUSH2 0x2B78 JUMPI DUP9 DUP7 ADD MLOAD DUP3 SSTORE SWAP5 DUP5 ADD SWAP5 PUSH1 0x1 SWAP1 SWAP2 ADD SWAP1 DUP5 ADD PUSH2 0x2B59 JUMP JUMPDEST POP DUP6 DUP3 LT ISZERO PUSH2 0x2B96 JUMPI DUP8 DUP6 ADD MLOAD PUSH1 0x0 NOT PUSH1 0x3 DUP9 SWAP1 SHL PUSH1 0xF8 AND SHR NOT AND DUP2 SSTORE JUMPDEST POP POP POP POP POP PUSH1 0x1 SWAP1 DUP2 SHL ADD SWAP1 SSTORE POP JUMP INVALID LOG2 PUSH5 0x6970667358 0x22 SLT KECCAK256 DUP4 0xC 0xB5 0xE2 0xB9 0x2C SHL BASEFEE 0x25 0x2A 0xEE PUSH29 0xD6552E5F397F8ABBC2B9E2ABC62691B22B446C1764736F6C6343000814 STOP CALLER "},"gasEstimates":{"creation":{"codeDepositCost":"2245600","executionCost":"infinite","totalCost":"infinite"},"external":{"canVote(uint256,address)":"infinite","claimVotingReward(uint256)":"infinite","disputeCounter()":"2373","disputeVoters(uint256,uint256)":"4772","disputes(uint256)":"infinite","emergencyWithdraw()":"infinite","finalizeDispute(uint256)":"infinite","getActiveDisputes()":"infinite","getDispute(uint256)":"infinite","getDisputeVoters(uint256)":"infinite","getTotalDisputes()":"2414","getVote(uint256,address)":"9503","minimumDisputeBond()":"2394","minimumVotingPower()":"2374","openDispute(address,uint256,uint256,string)":"infinite","orxToken()":"2383","owner()":"2442","quorumThreshold()":"2351","renounceOwnership()":"infinite","stakingContract()":"2403","transferOwnership(address)":"infinite","updateParameters(uint256,uint256,uint256,uint256)":"90919","voteOnDispute(uint256,uint8)":"infinite","votes(uint256,address)":"9262","votingPeriod()":"2308"},"internal":{"_distributeVotingRewards(uint256,bool)":"infinite"}},"methodIdentifiers":{"canVote(uint256,address)":"cdb2867b","claimVotingReward(uint256)":"9a181e40","disputeCounter()":"7d36f4d3","disputeVoters(uint256,uint256)":"e36c33b2","disputes(uint256)":"564a565d","emergencyWithdraw()":"db2e21bc","finalizeDispute(uint256)":"56989a83","getActiveDisputes()":"03a09d18","getDispute(uint256)":"e3a96cbd","getDisputeVoters(uint256)":"1732d652","getTotalDisputes()":"97fbc2fb","getVote(uint256,address)":"bc3f931f","minimumDisputeBond()":"f3d01532","minimumVotingPower()":"120ea202","openDispute(address,uint256,uint256,string)":"c057f4ce","orxToken()":"032db339","owner()":"8da5cb5b","quorumThreshold()":"7b7a91dd","renounceOwnership()":"715018a6","stakingContract()":"ee99205c","transferOwnership(address)":"f2fde38b","updateParameters(uint256,uint256,uint256,uint256)":"ee1eab4f","voteOnDispute(uint256,uint8)":"ada6b0d4","votes(uint256,address)":"d23254b4","votingPeriod()":"02a251a3"}},"storageLayout":{"storage":[{"astId":928,"contract":"contracts/DisputeResolution.sol:DisputeResolution","label":"_status","offset":0,"slot":"0","type":"t_uint256"},{"astId":8,"contract":"contracts/DisputeResolution.sol:DisputeResolution","label":"_owner","offset":0,"slot":"1","type":"t_address"},{"astId":1939,"contract":"contracts/DisputeResolution.sol:DisputeResolution","label":"disputes","offset":0,"slot":"2","type":"t_mapping(t_uint256,t_struct(Dispute)1924_storage)"},{"astId":1946,"contract":"contracts/DisputeResolution.sol:DisputeResolution","label":"votes","offset":0,"slot":"3","type":"t_mapping(t_uint256,t_mapping(t_address,t_struct(Vote)1934_storage))"},{"astId":1951,"contract":"contracts/DisputeResolution.sol:DisputeResolution","label":"disputeVoters","offset":0,"slot":"4","type":"t_mapping(t_uint256,t_array(t_address)dyn_storage)"},{"astId":1953,"contract":"contracts/DisputeResolution.sol:DisputeResolution","label":"disputeCounter","offset":0,"slot":"5","type":"t_uint256"},{"astId":1955,"contract":"contracts/DisputeResolution.sol:DisputeResolution","label":"minimumDisputeBond","offset":0,"slot":"6","type":"t_uint256"},{"astId":1957,"contract":"contracts/DisputeResolution.sol:DisputeResolution","label":"votingPeriod","offset":0,"slot":"7","type":"t_uint256"},{"astId":1959,"contract":"contracts/DisputeResolution.sol:DisputeResolution","label":"minimumVotingPower","offset":0,"slot":"8","type":"t_uint256"},{"astId":1961,"contract":"contracts/DisputeResolution.sol:DisputeResolution","label":"quorumThreshold","offset":0,"slot":"9","type":"t_uint256"},{"astId":1964,"contract":"contracts/DisputeResolution.sol:DisputeResolution","label":"orxToken","offset":0,"slot":"10","type":"t_contract(IERC20)315"},{"astId":1967,"contract":"contracts/DisputeResolution.sol:DisputeResolution","label":"stakingContract","offset":0,"slot":"11","type":"t_contract(StakingContract)5757"}],"types":{"t_address":{"encoding":"inplace","label":"address","numberOfBytes":"20"},"t_array(t_address)dyn_storage":{"base":"t_address","encoding":"dynamic_array","label":"address[]","numberOfBytes":"32"},"t_bool":{"encoding":"inplace","label":"bool","numberOfBytes":"1"},"t_contract(IERC20)315":{"encoding":"inplace","label":"contract IERC20","numberOfBytes":"20"},"t_contract(StakingContract)5757":{"encoding":"inplace","label":"contract StakingContract","numberOfBytes":"20"},"t_enum(DisputeStatus)1890":{"encoding":"inplace","label":"enum DisputeResolution.DisputeStatus","numberOfBytes":"1"},"t_enum(VoteChoice)1894":{"encoding":"inplace","label":"enum DisputeResolution.VoteChoice","numberOfBytes":"1"},"t_mapping(t_address,t_struct(Vote)1934_storage)":{"encoding":"mapping","key":"t_address","label":"mapping(address => struct DisputeResolution.Vote)","numberOfBytes":"32","value":"t_struct(Vote)1934_storage"},"t_mapping(t_uint256,t_array(t_address)dyn_storage)":{"encoding":"mapping","key":"t_uint256","label":"mapping(uint256 => address[])","numberOfBytes":"32","value":"t_array(t_address)dyn_storage"},"t_mapping(t_uint256,t_mapping(t_address,t_struct(Vote)1934_storage))":{"encoding":"mapping","key":"t_uint256","label":"mapping(uint256 => mapping(address => struct DisputeResolution.Vote))","numberOfBytes":"32","value":"t_mapping(t_address,t_struct(Vote)1934_storage)"},"t_mapping(t_uint256,t_struct(Dispute)1924_storage)":{"encoding":"mapping","key":"t_uint256","label":"mapping(uint256 => struct DisputeResolution.Dispute)","numberOfBytes":"32","value":"t_struct(Dispute)1924_storage"},"t_string_storage":{"encoding":"bytes","label":"string","numberOfBytes":"32"},"t_struct(Dispute)1924_storage":{"encoding":"inplace","label":"struct DisputeResolution.Dispute","members":[{"astId":1896,"contract":"contracts/DisputeResolution.sol:DisputeResolution","label":"market","offset":0,"slot":"0","type":"t_address"},{"astId":1898,"contract":"contracts/DisputeResolution.sol:DisputeResolution","label":"disputer","offset":0,"slot":"1","type":"t_address"},{"astId":1900,"contract":"contracts/DisputeResolution.sol:DisputeResolution","label":"disputedOutcome","offset":0,"slot":"2","type":"t_uint256"},{"astId":1902,"contract":"contracts/DisputeResolution.sol:DisputeResolution","label":"proposedOutcome","offset":0,"slot":"3","type":"t_uint256"},{"astId":1904,"contract":"contracts/DisputeResolution.sol:DisputeResolution","label":"reason","offset":0,"slot":"4","type":"t_string_storage"},{"astId":1906,"contract":"contracts/DisputeResolution.sol:DisputeResolution","label":"disputeBond","offset":0,"slot":"5","type":"t_uint256"},{"astId":1908,"contract":"contracts/DisputeResolution.sol:DisputeResolution","label":"createdAt","offset":0,"slot":"6","type":"t_uint256"},{"astId":1910,"contract":"contracts/DisputeResolution.sol:DisputeResolution","label":"votingEndsAt","offset":0,"slot":"7","type":"t_uint256"},{"astId":1913,"contract":"contracts/DisputeResolution.sol:DisputeResolution","label":"status","offset":0,"slot":"8","type":"t_enum(DisputeStatus)1890"},{"astId":1915,"contract":"contracts/DisputeResolution.sol:DisputeResolution","label":"upholdVotes","offset":0,"slot":"9","type":"t_uint256"},{"astId":1917,"contract":"contracts/DisputeResolution.sol:DisputeResolution","label":"overturnVotes","offset":0,"slot":"10","type":"t_uint256"},{"astId":1919,"contract":"contracts/DisputeResolution.sol:DisputeResolution","label":"totalVotingPower","offset":0,"slot":"11","type":"t_uint256"},{"astId":1921,"contract":"contracts/DisputeResolution.sol:DisputeResolution","label":"resolved","offset":0,"slot":"12","type":"t_bool"},{"astId":1923,"contract":"contracts/DisputeResolution.sol:DisputeResolution","label":"finalOutcome","offset":0,"slot":"13","type":"t_uint256"}],"numberOfBytes":"448"},"t_struct(Vote)1934_storage":{"encoding":"inplace","label":"struct DisputeResolution.Vote","members":[{"astId":1927,"contract":"contracts/DisputeResolution.sol:DisputeResolution","label":"choice","offset":0,"slot":"0","type":"t_enum(VoteChoice)1894"},{"astId":1929,"contract":"contracts/DisputeResolution.sol:DisputeResolution","label":"votingPower","offset":0,"slot":"1","type":"t_uint256"},{"astId":1931,"contract":"contracts/DisputeResolution.sol:DisputeResolution","label":"timestamp","offset":0,"slot":"2","type":"t_uint256"},{"astId":1933,"contract":"contracts/DisputeResolution.sol:DisputeResolution","label":"claimed","offset":0,"slot":"3","type":"t_bool"}],"numberOfBytes":"128"},"t_uint256":{"encoding":"inplace","label":"uint256","numberOfBytes":"32"}}},"userdoc":{"kind":"user","methods":{},"version":1}}}}