{
  "_format": "hh-sol-artifact-1",
  "contractName": "OracleBridge",
  "sourceName": "contracts/OracleBridge.sol",
  "abi": [
    {
      "inputs": [
        {
          "internalType": "address",
          "name": "_orxToken",
          "type": "address"
        }
      ],
      "stateMutability": "nonpayable",
      "type": "constructor"
    },
    {
      "inputs": [
        {
          "internalType": "address",
          "name": "owner",
          "type": "address"
        }
      ],
      "name": "OwnableInvalidOwner",
      "type": "error"
    },
    {
      "inputs": [
        {
          "internalType": "address",
          "name": "account",
          "type": "address"
        }
      ],
      "name": "OwnableUnauthorizedAccount",
      "type": "error"
    },
    {
      "inputs": [],
      "name": "ReentrancyGuardReentrantCall",
      "type": "error"
    },
    {
      "anonymous": false,
      "inputs": [
        {
          "indexed": true,
          "internalType": "uint256",
          "name": "marketId",
          "type": "uint256"
        },
        {
          "indexed": true,
          "internalType": "address",
          "name": "disputer",
          "type": "address"
        }
      ],
      "name": "DisputeRaised",
      "type": "event"
    },
    {
      "anonymous": false,
      "inputs": [
        {
          "indexed": true,
          "internalType": "address",
          "name": "oracle",
          "type": "address"
        }
      ],
      "name": "OracleDeactivated",
      "type": "event"
    },
    {
      "anonymous": false,
      "inputs": [
        {
          "indexed": true,
          "internalType": "address",
          "name": "oracle",
          "type": "address"
        },
        {
          "indexed": false,
          "internalType": "uint256",
          "name": "stake",
          "type": "uint256"
        }
      ],
      "name": "OracleRegistered",
      "type": "event"
    },
    {
      "anonymous": false,
      "inputs": [
        {
          "indexed": true,
          "internalType": "address",
          "name": "previousOwner",
          "type": "address"
        },
        {
          "indexed": true,
          "internalType": "address",
          "name": "newOwner",
          "type": "address"
        }
      ],
      "name": "OwnershipTransferred",
      "type": "event"
    },
    {
      "anonymous": false,
      "inputs": [
        {
          "indexed": true,
          "internalType": "uint256",
          "name": "marketId",
          "type": "uint256"
        },
        {
          "indexed": false,
          "internalType": "bytes32",
          "name": "outcome",
          "type": "bytes32"
        }
      ],
      "name": "ResolutionFinalized",
      "type": "event"
    },
    {
      "anonymous": false,
      "inputs": [
        {
          "indexed": true,
          "internalType": "uint256",
          "name": "marketId",
          "type": "uint256"
        },
        {
          "indexed": true,
          "internalType": "address",
          "name": "oracle",
          "type": "address"
        },
        {
          "indexed": false,
          "internalType": "bytes32",
          "name": "outcome",
          "type": "bytes32"
        }
      ],
      "name": "ResolutionSubmitted",
      "type": "event"
    },
    {
      "inputs": [],
      "name": "CONSENSUS_THRESHOLD",
      "outputs": [
        {
          "internalType": "uint256",
          "name": "",
          "type": "uint256"
        }
      ],
      "stateMutability": "view",
      "type": "function"
    },
    {
      "inputs": [],
      "name": "MIN_ORACLES",
      "outputs": [
        {
          "internalType": "uint256",
          "name": "",
          "type": "uint256"
        }
      ],
      "stateMutability": "view",
      "type": "function"
    },
    {
      "inputs": [],
      "name": "MIN_STAKE",
      "outputs": [
        {
          "internalType": "uint256",
          "name": "",
          "type": "uint256"
        }
      ],
      "stateMutability": "view",
      "type": "function"
    },
    {
      "inputs": [
        {
          "internalType": "address",
          "name": "oracle",
          "type": "address"
        }
      ],
      "name": "deactivateOracle",
      "outputs": [],
      "stateMutability": "nonpayable",
      "type": "function"
    },
    {
      "inputs": [],
      "name": "getActiveOraclesCount",
      "outputs": [
        {
          "internalType": "uint256",
          "name": "",
          "type": "uint256"
        }
      ],
      "stateMutability": "view",
      "type": "function"
    },
    {
      "inputs": [
        {
          "internalType": "address",
          "name": "oracle",
          "type": "address"
        }
      ],
      "name": "getOracle",
      "outputs": [
        {
          "components": [
            {
              "internalType": "address",
              "name": "oracle",
              "type": "address"
            },
            {
              "internalType": "bool",
              "name": "isActive",
              "type": "bool"
            },
            {
              "internalType": "uint256",
              "name": "stake",
              "type": "uint256"
            },
            {
              "internalType": "uint256",
              "name": "reputation",
              "type": "uint256"
            },
            {
              "internalType": "uint256",
              "name": "totalResolutions",
              "type": "uint256"
            },
            {
              "internalType": "uint256",
              "name": "correctResolutions",
              "type": "uint256"
            }
          ],
          "internalType": "struct OracleBridge.Oracle",
          "name": "",
          "type": "tuple"
        }
      ],
      "stateMutability": "view",
      "type": "function"
    },
    {
      "inputs": [
        {
          "internalType": "uint256",
          "name": "marketId",
          "type": "uint256"
        }
      ],
      "name": "getResolution",
      "outputs": [
        {
          "components": [
            {
              "internalType": "uint256",
              "name": "marketId",
              "type": "uint256"
            },
            {
              "internalType": "bytes32",
              "name": "outcome",
              "type": "bytes32"
            },
            {
              "internalType": "uint256",
              "name": "confidence",
              "type": "uint256"
            },
            {
              "internalType": "uint256",
              "name": "timestamp",
              "type": "uint256"
            },
            {
              "internalType": "bool",
              "name": "disputed",
              "type": "bool"
            },
            {
              "internalType": "bool",
              "name": "finalized",
              "type": "bool"
            }
          ],
          "internalType": "struct OracleBridge.Resolution",
          "name": "",
          "type": "tuple"
        }
      ],
      "stateMutability": "view",
      "type": "function"
    },
    {
      "inputs": [
        {
          "internalType": "uint256",
          "name": "",
          "type": "uint256"
        },
        {
          "internalType": "uint256",
          "name": "",
          "type": "uint256"
        }
      ],
      "name": "marketOracles",
      "outputs": [
        {
          "internalType": "address",
          "name": "",
          "type": "address"
        }
      ],
      "stateMutability": "view",
      "type": "function"
    },
    {
      "inputs": [
        {
          "internalType": "uint256",
          "name": "",
          "type": "uint256"
        },
        {
          "internalType": "address",
          "name": "",
          "type": "address"
        }
      ],
      "name": "oracleVotes",
      "outputs": [
        {
          "internalType": "bytes32",
          "name": "",
          "type": "bytes32"
        }
      ],
      "stateMutability": "view",
      "type": "function"
    },
    {
      "inputs": [
        {
          "internalType": "address",
          "name": "",
          "type": "address"
        }
      ],
      "name": "oracles",
      "outputs": [
        {
          "internalType": "address",
          "name": "oracle",
          "type": "address"
        },
        {
          "internalType": "bool",
          "name": "isActive",
          "type": "bool"
        },
        {
          "internalType": "uint256",
          "name": "stake",
          "type": "uint256"
        },
        {
          "internalType": "uint256",
          "name": "reputation",
          "type": "uint256"
        },
        {
          "internalType": "uint256",
          "name": "totalResolutions",
          "type": "uint256"
        },
        {
          "internalType": "uint256",
          "name": "correctResolutions",
          "type": "uint256"
        }
      ],
      "stateMutability": "view",
      "type": "function"
    },
    {
      "inputs": [],
      "name": "orxToken",
      "outputs": [
        {
          "internalType": "contract ORXToken",
          "name": "",
          "type": "address"
        }
      ],
      "stateMutability": "view",
      "type": "function"
    },
    {
      "inputs": [],
      "name": "owner",
      "outputs": [
        {
          "internalType": "address",
          "name": "",
          "type": "address"
        }
      ],
      "stateMutability": "view",
      "type": "function"
    },
    {
      "inputs": [
        {
          "internalType": "uint256",
          "name": "marketId",
          "type": "uint256"
        }
      ],
      "name": "raiseDispute",
      "outputs": [],
      "stateMutability": "nonpayable",
      "type": "function"
    },
    {
      "inputs": [
        {
          "internalType": "uint256",
          "name": "stakeAmount",
          "type": "uint256"
        }
      ],
      "name": "registerOracle",
      "outputs": [],
      "stateMutability": "nonpayable",
      "type": "function"
    },
    {
      "inputs": [
        {
          "internalType": "uint256",
          "name": "",
          "type": "uint256"
        }
      ],
      "name": "registeredOracles",
      "outputs": [
        {
          "internalType": "address",
          "name": "",
          "type": "address"
        }
      ],
      "stateMutability": "view",
      "type": "function"
    },
    {
      "inputs": [],
      "name": "renounceOwnership",
      "outputs": [],
      "stateMutability": "nonpayable",
      "type": "function"
    },
    {
      "inputs": [
        {
          "internalType": "uint256",
          "name": "",
          "type": "uint256"
        }
      ],
      "name": "resolutions",
      "outputs": [
        {
          "internalType": "uint256",
          "name": "marketId",
          "type": "uint256"
        },
        {
          "internalType": "bytes32",
          "name": "outcome",
          "type": "bytes32"
        },
        {
          "internalType": "uint256",
          "name": "confidence",
          "type": "uint256"
        },
        {
          "internalType": "uint256",
          "name": "timestamp",
          "type": "uint256"
        },
        {
          "internalType": "bool",
          "name": "disputed",
          "type": "bool"
        },
        {
          "internalType": "bool",
          "name": "finalized",
          "type": "bool"
        }
      ],
      "stateMutability": "view",
      "type": "function"
    },
    {
      "inputs": [
        {
          "internalType": "uint256",
          "name": "marketId",
          "type": "uint256"
        },
        {
          "internalType": "bytes32",
          "name": "outcome",
          "type": "bytes32"
        },
        {
          "internalType": "uint256",
          "name": "confidence",
          "type": "uint256"
        }
      ],
      "name": "submitResolution",
      "outputs": [],
      "stateMutability": "nonpayable",
      "type": "function"
    },
    {
      "inputs": [
        {
          "internalType": "address",
          "name": "newOwner",
          "type": "address"
        }
      ],
      "name": "transferOwnership",
      "outputs": [],
      "stateMutability": "nonpayable",
      "type": "function"
    }
  ],
  "bytecode": "0x60a0346100da57601f61143b38819003918201601f19168301916001600160401b038311848410176100df578084926020946040528339810103126100da57516001600160a01b0390818116908190036100da5733156100c1576000543360018060a01b0319821617600055604051923391167f8be0079c531659141344cd1fd0a4f28419497f9722a3daafe3b4186f6b6457e0600080a36001805560805261134590816100f68239608051818181610afb01528181610ddd015261114b0152f35b604051631e4fbdf760e01b815260006004820152602490fd5b600080fd5b634e487b7160e01b600052604160045260246000fdfe608080604052600436101561001357600080fd5b60003560e01c908163032db339146111385750806310d3d22e1461107f5780633d10c2e014611056578063715018a614610ffd57806377cd91bf14610fab5780637bde43ec14610d6b5780638da5cb5b14610d42578063968ff72e14610cf5578063a4b7f5ce14610c8b578063a5c1674e14610a97578063addd509914610a21578063b6df0348146109a2578063bb4b98161461034a578063bca125f01461032e578063cb1c2b5c14610309578063d565a5331461025b578063ed69c6041461019f578063f2fde38b146101115763f52a3603146100f057600080fd5b3461010c57600036600319011261010c57602060405160038152f35b600080fd5b3461010c57602036600319011261010c5761012a61117a565b6101326111f5565b6001600160a01b0390811690811561018657600054826bffffffffffffffffffffffff60a01b821617600055167f8be0079c531659141344cd1fd0a4f28419497f9722a3daafe3b4186f6b6457e0600080a3005b604051631e4fbdf760e01b815260006004820152602490fd5b3461010c57602036600319011261010c576101b861117a565b6101c06111f5565b6001600160a01b031660008181526002602052604090205460a01c60ff1615610222576000818152600260205260408120805460ff60a01b191690557fa25de647dc39ef1d7eb7c3431bf1ab4da4040436d641e3c1ce57f20575b33a569080a2005b60405162461bcd60e51b81526020600482015260116024820152704f7261636c65206e6f742061637469766560781b6044820152606490fd5b3461010c57602036600319011261010c576102746112dd565b50600435600052600360205260c060406000206040519061029482611221565b8054918281526001820154916020820192835260028101546040830190815260046003830154926060850193845201549360ff60a0608086019582881615158752019560081c1615158552604051958652516020860152516040850152516060840152511515608083015251151560a0820152f35b3461010c57600036600319011261010c57602060405169021e19e0c9bab24000008152f35b3461010c57600036600319011261010c576020604051603c8152f35b3461010c57606036600319011261010c576004356024803533600052600260205260ff60406000205460a01c16156109675760646044351161092e578260005260046020526040600020336000526020526040600020546108fa57826000526004602052604060002033600052602052806040600020558260005260056020526040600020805490600160401b8210156108e557906103ee916001820181556111dd565b81549060031b9033821b9160018060a01b03901b1916179055604051908152827f0b903373da00a4376a6421fc4a16309dfe54dd8b4eb1faaed136bb6e4e5cb96760203393a3816000526005602052604060002091825492600384101561045157005b926020936040519081958284889452019060005260206000209260005b8181106108c35750506104839250038461123d565b6104ad83516104918161125f565b9061049f604051928361123d565b808252601f1992839161125f565b013660208301378451916104d96104c38461125f565b936104d1604051958661123d565b80855261125f565b0136602084013760009260005b86518110156105fc5760008281526004602052604090206001600160a01b0361050f838a61129c565b511660005260205260406000205460009060009160005b8881106105d2575b5015610587575061058291906001600160a01b0361054c838b61129c565b5116600052600260205261057c61057560026040600020015461056f848a61129c565b516112b0565b918761129c565b52611277565b6104e6565b6105cc915095610582929661059c828761129c565b526001600160a01b036105af888b61129c565b5116600052600260205260026040600020015461057c828861129c565b94611277565b826105dd828961129c565b51146105f1576105ec90611277565b610526565b92505060018a61052e565b50929394509060009360009260009260005b83811061087c575050505060648202918083046064149015171561086757603c61063882846112bd565b101561064057005b610649916112bd565b60405161065581611221565b82815260046020820191858352604081019384526060810142815260808201946000865260a08301946001865287600052600360205260406000209351845551600184015551600283015551600382015501915115159060ff61ff0084549251151560081b1692169061ffff19161717905560056020526040600020916040518084602082965493848152019060005260206000209260005b8181106108455750506107039250038461123d565b60005b8351811015610813576001600160a01b03610721828661129c565b5116806000526002602052600360406000200161073e8154611277565b905583600052600460205260406000208160005260205282604060002054146000146107d857806000526002602052600460406000200161077f8154611277565b90556000526002602052600260406000200190815460c881106107ad575b506107a89150611277565b610706565b600181018091116107c3576107a892558661079d565b86634e487b7160e01b60005260116004526000fd5b5060026020526002604060002001908154603281116107fc57506107a89150611277565b60011981019081116107c3576107a892558661079d565b5060209193507f60102048631ed85d68dd31acf799ff287ff0bb3b1e543db408d051b3494f9eb39250604051908152a2005b84546001600160a01b03168352600194850194889450602090930192016106ee565b84634e487b7160e01b60005260116004526000fd5b610891610889828461129c565b5180966112b0565b948681116108a9575b506108a490611277565b61060e565b90975094506108a46108bb888461129c565b51979061089a565b84546001600160a01b031683526001948501948894506020909301920161046e565b83634e487b7160e01b60005260416004526000fd5b60405162461bcd60e51b815260206004820152600d818401526c105b1c9958591e481d9bdd1959609a1b6044820152606490fd5b60405162461bcd60e51b81526020600482015260128184015271496e76616c696420636f6e666964656e636560701b6044820152606490fd5b60405162461bcd60e51b815260206004820152601481840152734e6f7420616e20616374697665206f7261636c6560601b6044820152606490fd5b3461010c57600036600319011261010c57600080600654905b8181106109cd57602083604051908152f35b6109d681611190565b60018060a01b0391549060031b1c16600052600260205260ff60406000205460a01c16610a0c575b610a0790611277565b6109bb565b91610a19610a0791611277565b9290506109fe565b3461010c57602036600319011261010c5760c06001600160a01b0380610a4561117a565b1660005260026020526040600020805490600181015460028201549060ff6004600385015494015494604051968116875260a01c161515602086015260408501526060840152608083015260a0820152f35b3461010c5760208060031936011261010c5760043590816000526003815260ff60046040600020015460081c1615610c4757816000526003815260ff60046040600020015416610c10576040516370a0823160e01b815233600482015281816024817f00000000000000000000000000000000000000000000000000000000000000006001600160a01b03165afa8015610c0457600090610bcd575b69021e19e0c9bab2400000915010610b895760039082600052526004604060002001600160ff1982541617905533907f84a477df8a28a4276ca6dee4458a06c3015f30c477d9c949ede4e13ff8a552b4600080a3005b6064906040519062461bcd60e51b82526004820152601d60248201527f496e73756666696369656e74207374616b6520746f20646973707574650000006044820152fd5b508181813d8311610bfd575b610be3818361123d565b8101031261010c5769021e19e0c9bab24000009051610b33565b503d610bd9565b6040513d6000823e3d90fd5b6064906040519062461bcd60e51b82526004820152601060248201526f105b1c9958591e48191a5cdc1d5d195960821b6044820152fd5b6064906040519062461bcd60e51b82526004820152601860248201527f5265736f6c7574696f6e206e6f742066696e616c697a656400000000000000006044820152fd5b3461010c57602036600319011261010c57600435600052600360205260c0604060002060ff815491600181015490600281015460046003830154920154926040519586526020860152604085015260608401528181161515608084015260081c16151560a0820152f35b3461010c57604036600319011261010c576024356001600160a01b0381169081900361010c5760043560005260046020526040600020906000526020526020604060002054604051908152f35b3461010c57600036600319011261010c576000546040516001600160a01b039091168152602090f35b3461010c5760208060031936011261010c576004359069021e19e0c9bab24000008210610f7257336000526002815260ff60406000205460a01c16610f39576040516323b872dd60e01b8152336004820152306024820152604481018390526001600160a01b039190818160648160007f000000000000000000000000000000000000000000000000000000000000000088165af18015610c0457610f06575b50604051610e1881611221565b33815260048282016001815260408301868152606084016064815260808501916000835260a086019360008552336000526002885288604060002097511687549160ff60a01b9051151560a01b16916affffffffffffffffffffff60a81b16171786555160018601555160028501555160038401555191015560065491600160401b831015610ef057610ed28360017fceecb5e89db45f65c8ea20cf56b8cd3f5ef551f4b31e6059c029252f2b941b5d9501600655611190565b819291549060031b9133831b921b19161790556040519283523392a2005b634e487b7160e01b600052604160045260246000fd5b8181813d8311610f32575b610f1b818361123d565b8101031261010c57518015150361010c5783610e0b565b503d610f11565b6064906040519062461bcd60e51b825260048201526012602482015271105b1c9958591e481c9959da5cdd195c995960721b6044820152fd5b6064906040519062461bcd60e51b825260048201526012602482015271496e73756666696369656e74207374616b6560701b6044820152fd5b3461010c57604036600319011261010c5760243560043560005260056020526040600020805482101561010c57602091610fe4916111dd565b905460405160039290921b1c6001600160a01b03168152f35b3461010c57600036600319011261010c576110166111f5565b600080546001600160a01b0319811682556001600160a01b03167f8be0079c531659141344cd1fd0a4f28419497f9722a3daafe3b4186f6b6457e08280a3005b3461010c57602036600319011261010c5760043560065481101561010c57610fe4602091611190565b3461010c57602036600319011261010c5760c061109a61117a565b6110a26112dd565b5060018060a01b0380911660005260026020526040600020604051906110c782611221565b80549283169283835260ff602084019160a01c16151581526001820154604084019081526002830154916060850192835260a06004600386015495608088019687520154950194855260405195865251151560208601525160408501525160608401525160808301525160a0820152f35b3461010c57600036600319011261010c577f00000000000000000000000000000000000000000000000000000000000000006001600160a01b03168152602090f35b600435906001600160a01b038216820361010c57565b6006548110156111c75760066000527ff652222313e28459528d920b65115c16c04f3efc82aaedc97be59f3f377c0d3f0190600090565b634e487b7160e01b600052603260045260246000fd5b80548210156111c75760005260206000200190600090565b6000546001600160a01b0316330361120957565b60405163118cdaa760e01b8152336004820152602490fd5b60c0810190811067ffffffffffffffff821117610ef057604052565b90601f8019910116810190811067ffffffffffffffff821117610ef057604052565b67ffffffffffffffff8111610ef05760051b60200190565b60001981146112865760010190565b634e487b7160e01b600052601160045260246000fd5b80518210156111c75760209160051b010190565b9190820180921161128657565b81156112c7570490565b634e487b7160e01b600052601260045260246000fd5b604051906112ea82611221565b8160a0600091828152826020820152826040820152826060820152826080820152015256fea26469706673582212206ef026cae841ea10163a0f5b8d7cbbb2f2e02d419fae9172109839bfe50130ff64736f6c63430008140033",
  "linkReferences": {},
  "deployedLinkReferences": {}
}