{
  "_format": "hh-sol-artifact-1",
  "contractName": "PredictionMarketFactory",
  "sourceName": "contracts/PredictionMarketFactory.sol",
  "abi": [
    {
      "inputs": [
        {
          "internalType": "uint256",
          "name": "_marketCreationFee",
          "type": "uint256"
        },
        {
          "internalType": "address",
          "name": "_oracleAddress",
          "type": "address"
        }
      ],
      "stateMutability": "nonpayable",
      "type": "constructor"
    },
    {
      "inputs": [
        {
          "internalType": "address",
          "name": "owner",
          "type": "address"
        }
      ],
      "name": "OwnableInvalidOwner",
      "type": "error"
    },
    {
      "inputs": [
        {
          "internalType": "address",
          "name": "account",
          "type": "address"
        }
      ],
      "name": "OwnableUnauthorizedAccount",
      "type": "error"
    },
    {
      "inputs": [],
      "name": "ReentrancyGuardReentrantCall",
      "type": "error"
    },
    {
      "anonymous": false,
      "inputs": [
        {
          "indexed": false,
          "internalType": "uint256",
          "name": "marketCreationFee",
          "type": "uint256"
        },
        {
          "indexed": false,
          "internalType": "address",
          "name": "oracleAddress",
          "type": "address"
        }
      ],
      "name": "FactoryConfigUpdated",
      "type": "event"
    },
    {
      "anonymous": false,
      "inputs": [
        {
          "indexed": true,
          "internalType": "uint256",
          "name": "marketId",
          "type": "uint256"
        },
        {
          "indexed": true,
          "internalType": "address",
          "name": "marketAddress",
          "type": "address"
        },
        {
          "indexed": true,
          "internalType": "address",
          "name": "creator",
          "type": "address"
        },
        {
          "indexed": false,
          "internalType": "string",
          "name": "title",
          "type": "string"
        },
        {
          "indexed": false,
          "internalType": "string",
          "name": "category",
          "type": "string"
        },
        {
          "indexed": false,
          "internalType": "uint256",
          "name": "expiryTime",
          "type": "uint256"
        }
      ],
      "name": "MarketCreated",
      "type": "event"
    },
    {
      "anonymous": false,
      "inputs": [
        {
          "indexed": true,
          "internalType": "uint256",
          "name": "marketId",
          "type": "uint256"
        },
        {
          "indexed": false,
          "internalType": "bool",
          "name": "isActive",
          "type": "bool"
        }
      ],
      "name": "MarketStatusChanged",
      "type": "event"
    },
    {
      "anonymous": false,
      "inputs": [
        {
          "indexed": true,
          "internalType": "address",
          "name": "previousOwner",
          "type": "address"
        },
        {
          "indexed": true,
          "internalType": "address",
          "name": "newOwner",
          "type": "address"
        }
      ],
      "name": "OwnershipTransferred",
      "type": "event"
    },
    {
      "inputs": [
        {
          "internalType": "string",
          "name": "",
          "type": "string"
        },
        {
          "internalType": "uint256",
          "name": "",
          "type": "uint256"
        }
      ],
      "name": "categoryMarkets",
      "outputs": [
        {
          "internalType": "uint256",
          "name": "",
          "type": "uint256"
        }
      ],
      "stateMutability": "view",
      "type": "function"
    },
    {
      "inputs": [
        {
          "internalType": "string",
          "name": "_title",
          "type": "string"
        },
        {
          "internalType": "string",
          "name": "_description",
          "type": "string"
        },
        {
          "internalType": "string[]",
          "name": "_outcomes",
          "type": "string[]"
        },
        {
          "internalType": "uint256",
          "name": "_expiryTime",
          "type": "uint256"
        },
        {
          "internalType": "string",
          "name": "_category",
          "type": "string"
        },
        {
          "internalType": "uint8",
          "name": "_oracleType",
          "type": "uint8"
        }
      ],
      "name": "createMarket",
      "outputs": [
        {
          "internalType": "address",
          "name": "",
          "type": "address"
        }
      ],
      "stateMutability": "payable",
      "type": "function"
    },
    {
      "inputs": [
        {
          "internalType": "uint256",
          "name": "_offset",
          "type": "uint256"
        },
        {
          "internalType": "uint256",
          "name": "_limit",
          "type": "uint256"
        }
      ],
      "name": "getActiveMarkets",
      "outputs": [
        {
          "components": [
            {
              "internalType": "address",
              "name": "marketAddress",
              "type": "address"
            },
            {
              "internalType": "string",
              "name": "title",
              "type": "string"
            },
            {
              "internalType": "string",
              "name": "description",
              "type": "string"
            },
            {
              "internalType": "uint256",
              "name": "createdAt",
              "type": "uint256"
            },
            {
              "internalType": "uint256",
              "name": "expiryTime",
              "type": "uint256"
            },
            {
              "internalType": "bool",
              "name": "isActive",
              "type": "bool"
            },
            {
              "internalType": "address",
              "name": "creator",
              "type": "address"
            },
            {
              "internalType": "string",
              "name": "category",
              "type": "string"
            }
          ],
          "internalType": "struct PredictionMarketFactory.MarketInfo[]",
          "name": "",
          "type": "tuple[]"
        }
      ],
      "stateMutability": "view",
      "type": "function"
    },
    {
      "inputs": [
        {
          "internalType": "uint256",
          "name": "_marketId",
          "type": "uint256"
        }
      ],
      "name": "getMarket",
      "outputs": [
        {
          "components": [
            {
              "internalType": "address",
              "name": "marketAddress",
              "type": "address"
            },
            {
              "internalType": "string",
              "name": "title",
              "type": "string"
            },
            {
              "internalType": "string",
              "name": "description",
              "type": "string"
            },
            {
              "internalType": "uint256",
              "name": "createdAt",
              "type": "uint256"
            },
            {
              "internalType": "uint256",
              "name": "expiryTime",
              "type": "uint256"
            },
            {
              "internalType": "bool",
              "name": "isActive",
              "type": "bool"
            },
            {
              "internalType": "address",
              "name": "creator",
              "type": "address"
            },
            {
              "internalType": "string",
              "name": "category",
              "type": "string"
            }
          ],
          "internalType": "struct PredictionMarketFactory.MarketInfo",
          "name": "",
          "type": "tuple"
        }
      ],
      "stateMutability": "view",
      "type": "function"
    },
    {
      "inputs": [
        {
          "internalType": "uint256",
          "name": "_offset",
          "type": "uint256"
        },
        {
          "internalType": "uint256",
          "name": "_limit",
          "type": "uint256"
        }
      ],
      "name": "getMarkets",
      "outputs": [
        {
          "components": [
            {
              "internalType": "address",
              "name": "marketAddress",
              "type": "address"
            },
            {
              "internalType": "string",
              "name": "title",
              "type": "string"
            },
            {
              "internalType": "string",
              "name": "description",
              "type": "string"
            },
            {
              "internalType": "uint256",
              "name": "createdAt",
              "type": "uint256"
            },
            {
              "internalType": "uint256",
              "name": "expiryTime",
              "type": "uint256"
            },
            {
              "internalType": "bool",
              "name": "isActive",
              "type": "bool"
            },
            {
              "internalType": "address",
              "name": "creator",
              "type": "address"
            },
            {
              "internalType": "string",
              "name": "category",
              "type": "string"
            }
          ],
          "internalType": "struct PredictionMarketFactory.MarketInfo[]",
          "name": "",
          "type": "tuple[]"
        }
      ],
      "stateMutability": "view",
      "type": "function"
    },
    {
      "inputs": [
        {
          "internalType": "string",
          "name": "_category",
          "type": "string"
        }
      ],
      "name": "getMarketsByCategory",
      "outputs": [
        {
          "internalType": "uint256[]",
          "name": "",
          "type": "uint256[]"
        }
      ],
      "stateMutability": "view",
      "type": "function"
    },
    {
      "inputs": [],
      "name": "getTotalMarkets",
      "outputs": [
        {
          "internalType": "uint256",
          "name": "",
          "type": "uint256"
        }
      ],
      "stateMutability": "view",
      "type": "function"
    },
    {
      "inputs": [
        {
          "internalType": "address",
          "name": "_user",
          "type": "address"
        }
      ],
      "name": "getUserMarkets",
      "outputs": [
        {
          "internalType": "uint256[]",
          "name": "",
          "type": "uint256[]"
        }
      ],
      "stateMutability": "view",
      "type": "function"
    },
    {
      "inputs": [],
      "name": "marketCounter",
      "outputs": [
        {
          "internalType": "uint256",
          "name": "",
          "type": "uint256"
        }
      ],
      "stateMutability": "view",
      "type": "function"
    },
    {
      "inputs": [],
      "name": "marketCreationFee",
      "outputs": [
        {
          "internalType": "uint256",
          "name": "",
          "type": "uint256"
        }
      ],
      "stateMutability": "view",
      "type": "function"
    },
    {
      "inputs": [
        {
          "internalType": "uint256",
          "name": "_marketId",
          "type": "uint256"
        }
      ],
      "name": "marketExists",
      "outputs": [
        {
          "internalType": "bool",
          "name": "",
          "type": "bool"
        }
      ],
      "stateMutability": "view",
      "type": "function"
    },
    {
      "inputs": [
        {
          "internalType": "uint256",
          "name": "",
          "type": "uint256"
        }
      ],
      "name": "markets",
      "outputs": [
        {
          "internalType": "address",
          "name": "marketAddress",
          "type": "address"
        },
        {
          "internalType": "string",
          "name": "title",
          "type": "string"
        },
        {
          "internalType": "string",
          "name": "description",
          "type": "string"
        },
        {
          "internalType": "uint256",
          "name": "createdAt",
          "type": "uint256"
        },
        {
          "internalType": "uint256",
          "name": "expiryTime",
          "type": "uint256"
        },
        {
          "internalType": "bool",
          "name": "isActive",
          "type": "bool"
        },
        {
          "internalType": "address",
          "name": "creator",
          "type": "address"
        },
        {
          "internalType": "string",
          "name": "category",
          "type": "string"
        }
      ],
      "stateMutability": "view",
      "type": "function"
    },
    {
      "inputs": [],
      "name": "oracleAddress",
      "outputs": [
        {
          "internalType": "address",
          "name": "",
          "type": "address"
        }
      ],
      "stateMutability": "view",
      "type": "function"
    },
    {
      "inputs": [],
      "name": "owner",
      "outputs": [
        {
          "internalType": "address",
          "name": "",
          "type": "address"
        }
      ],
      "stateMutability": "view",
      "type": "function"
    },
    {
      "inputs": [],
      "name": "renounceOwnership",
      "outputs": [],
      "stateMutability": "nonpayable",
      "type": "function"
    },
    {
      "inputs": [
        {
          "internalType": "address",
          "name": "_stakingContract",
          "type": "address"
        }
      ],
      "name": "setStakingContract",
      "outputs": [],
      "stateMutability": "nonpayable",
      "type": "function"
    },
    {
      "inputs": [],
      "name": "stakingContract",
      "outputs": [
        {
          "internalType": "address",
          "name": "",
          "type": "address"
        }
      ],
      "stateMutability": "view",
      "type": "function"
    },
    {
      "inputs": [
        {
          "internalType": "uint256",
          "name": "_marketId",
          "type": "uint256"
        }
      ],
      "name": "toggleMarketStatus",
      "outputs": [],
      "stateMutability": "nonpayable",
      "type": "function"
    },
    {
      "inputs": [
        {
          "internalType": "address",
          "name": "newOwner",
          "type": "address"
        }
      ],
      "name": "transferOwnership",
      "outputs": [],
      "stateMutability": "nonpayable",
      "type": "function"
    },
    {
      "inputs": [
        {
          "internalType": "uint256",
          "name": "_marketCreationFee",
          "type": "uint256"
        },
        {
          "internalType": "address",
          "name": "_oracleAddress",
          "type": "address"
        }
      ],
      "name": "updateConfig",
      "outputs": [],
      "stateMutability": "nonpayable",
      "type": "function"
    },
    {
      "inputs": [
        {
          "internalType": "address",
          "name": "",
          "type": "address"
        },
        {
          "internalType": "uint256",
          "name": "",
          "type": "uint256"
        }
      ],
      "name": "userMarkets",
      "outputs": [
        {
          "internalType": "uint256",
          "name": "",
          "type": "uint256"
        }
      ],
      "stateMutability": "view",
      "type": "function"
    },
    {
      "inputs": [],
      "name": "withdrawFees",
      "outputs": [],
      "stateMutability": "nonpayable",
      "type": "function"
    }
  ],
  "bytecode": "0x6080346100d957601f6140fe38819003918201601f19168301916001600160401b038311848410176100de5780849260409485528339810103126100d95780516020909101516001600160a01b0391828216918290036100d95733156100c0576000549060018060a01b0319913383821617600055604051943391167f8be0079c531659141344cd1fd0a4f28419497f9722a3daafe3b4186f6b6457e0600080a3600180556006556007541617600755600060055561400990816100f58239f35b604051631e4fbdf760e01b815260006004820152602490fd5b600080fd5b634e487b7160e01b600052604160045260246000fdfe608060405260043610156200001357600080fd5b60003560e01c806307a582d81462001406578063247608071462000f985780632ef1bdfa14620013e65780633caa7e9e1462001363578063476343ee1462001278578063715018a6146200121b578063733c0abc146200115557806376e6caff14620010ae57806380968d481462000fb857806381ebf2091462000f985780638da5cb5b1462000f6d5780639dd373b91462000f24578063a04ddcad1462000d4c578063a89ae4ba1462000d21578063b1283e771462000c52578063c2863fdf146200034c578063da4473d814620002be578063db0f871d146200025e578063eb44fdd31462000209578063ec69a65414620001e5578063ee99205c14620001ba5763f2fde38b146200012557600080fd5b34620001b5576020366003190112620001b5576200014262001486565b6200014c62001808565b6001600160a01b039081169081156200019c57600054826001600160601b0360a01b821617600055167f8be0079c531659141344cd1fd0a4f28419497f9722a3daafe3b4186f6b6457e0600080a3005b604051631e4fbdf760e01b815260006004820152602490fd5b600080fd5b34620001b5576000366003190112620001b5576008546040516001600160a01b039091168152602090f35b34620001b5576020366003190112620001b557602060055460043510604051908152f35b34620001b5576020366003190112620001b5576200022662001898565b5060043560005260026020526200025a620002456040600020620018db565b60405191829160208352602083019062001614565b0390f35b34620001b5576040366003190112620001b5576200027b62001486565b6001600160a01b0316600090815260036020526040902080546024359190821015620001b557602091620002af916200156a565b90549060031b1c604051908152f35b34620001b557602080600319360112620001b5576001600160a01b03620002e462001486565b1660005260038152604060002090604051908181845491828152019360005281600020916000905b82821062000334576200025a856200032781890382620014ba565b6040519182918262001599565b8354865294850194600193840193909101906200030c565b60c0366003190112620001b5576004356001600160401b038111620001b5576200037b903690600401620014f8565b6024356001600160401b038111620001b5576200039d903690600401620014f8565b90604435906001600160401b038211620001b55736602383011215620001b557816004013591620003ce83620017f0565b90620003de6040519283620014ba565b83825260208201906024829560051b82010190368211620001b55760248101925b82841062000c1f57505050506084356001600160401b038111620001b5576200042d903690600401620014f8565b9260a43560ff81168103620001b55760026001541462000c0d576002600155600654341062000bc85742606435111562000b8357600283511062000b3e5783511562000b015760018060a01b036007541660405193846125e88101106001600160401b036125e887011117620008fc5790849392916125e8620019ec8639620004e1620004ca610100806125e88901526125e888010189620015ed565b6125e88701810360206125e8890101528a620015ed565b906125e88601820360406125e88801015251808252602082019160208260051b82010195926000915b83831062000ac95750505050509060ff9160643560606125e8870101523360806125e88701015260a06125e8860101521660c06125e8840101523060e06125e88401015203906000f091821562000abd57600554906200056a8262001835565b6005556040516200057b816200149d565b60018060a01b0385168152602081019584875260408201524260608201526064356080820152600160a08201523360c08201528160e082015282600052600260205260406000209560018060a01b038251166001600160601b0360a01b885416178755518051906001600160401b038211620008fc5781906200060260018a015462001701565b601f811162000a65575b50602090601f8311600114620009ee57600092620009e2575b50508160011b916000199060031b1c19161760018701555b60408101518051906001600160401b038211620008fc5762000663600289015462001701565b601f811162000996575b50602090601f83116001146200091e5760e09392916000918362000912575b50508160011b916000199060031b1c19161760028801555b606081015160038801556080810151600488015560058701620006d960a08301511515829060ff801983541691151516179055565b60c08201518154610100600160a81b03191660089190911b610100600160a81b0316179055015180519095906001600160401b038111620008fc5762000723600683015462001701565b96601f8811620008ac575b602097508790601f831160011462000833579180600692620007d396959460009262000827575b50508160011b916000199060031b1c1916179101555b3360005260038652620007838360406000206200185b565b620007ae83604051888185516200079e8183858a0162001545565b810160048152030190206200185b565b620007c560405194606086526060860190620015ed565b9084820387860152620015ed565b606435604084015233926001600160a01b03851692917fcaafea989968011e03debffc528ce1e84144256402182734af77831433360d82919081900390a4600180556040516001600160a01b039091168152f35b015190508a8062000755565b9060068401600052886000209160005b601f198516811062000894575092600692600192620007d397969583601f198116106200087a575b505050811b019101556200076b565b015160001960f88460031b161c191690558a80806200086b565b91928a60018192868501518155019401920162000843565b600683016000526020600020601f830160051c81019860208410620008f1575b601f0160051c01975b888110620008e457506200072e565b60008155600101620008d5565b9098508890620008cc565b634e487b7160e01b600052604160045260246000fd5b0151905089806200068c565b906002890160005260206000209160005b601f19851681106200097d575091839160019360e09695601f1981161062000963575b505050811b016002880155620006a4565b015160001960f88460031b161c1916905589808062000952565b919260206001819286850151815501940192016200092f565b600289016000526020600020601f840160051c810160208510620009da575b601f830160051c82018110620009cd5750506200066d565b60008155600101620009b5565b5080620009b5565b01519050888062000625565b9250600189016000526020600020906000935b601f198416851062000a49576001945083601f1981161062000a2f575b505050811b0160018701556200063d565b015160001960f88460031b161c1916905588808062000a1e565b8181015183556020948501946001909301929091019062000a01565b909150600189016000526020600020601f840160051c81016020851062000ab5575b90849392915b601f830160051c8201811062000aa55750506200060c565b6000815585945060010162000a8d565b508062000a87565b6040513d6000823e3d90fd5b919397509193949560208062000aec600193601f198682030187528b51620015ed565b9901930193019092889796959492936200050a565b60405162461bcd60e51b81526020600482015260156024820152745469746c652063616e6e6f7420626520656d70747960581b6044820152606490fd5b60405162461bcd60e51b815260206004820152601d60248201527f4d7573742068617665206174206c656173742032206f7574636f6d65730000006044820152606490fd5b60405162461bcd60e51b815260206004820152601d60248201527f4578706972792074696d65206d75737420626520696e206675747572650000006044820152606490fd5b60405162461bcd60e51b815260206004820152601960248201527f496e73756666696369656e74206372656174696f6e20666565000000000000006044820152606490fd5b604051633ee5aeb560e01b8152600490fd5b83356001600160401b038111620001b55760209162000c46839260243691870101620014f8565b815201930192620003ff565b34620001b5576020366003190112620001b5576004356000526002602052604060002060018060a01b03906200025a828254169162000c94600182016200173e565b9362000ca3600283016200173e565b90600383015492600481015462000cf462000cc66006600585015494016200173e565b9462000ce56040519a8b9a8b526101008060208d01528b0190620015ed565b9089820360408b0152620015ed565b946060880152608087015260ff8116151560a087015260081c1660c085015283820360e0850152620015ed565b34620001b5576000366003190112620001b5576007546040516001600160a01b039091168152602090f35b34620001b55762000d5d36620015d6565b906000906000916005938454935b84811062000ee057508183101562000e905762000d89908362001960565b9080821162000e87575b5062000daa62000da483836200196e565b6200197c565b936000809260005b8681108062000e72575b1562000e6257808691600052600260205288604060002060ff878201541662000df5575b505062000ded9062001835565b905062000db2565b83889398101562000e1d575b505062000e1262000ded9162001835565b959050888a62000de0565b8562000e129262000e4362000ded959862000e3c62000e5795620018db565b92620019d6565b5262000e50818d620019d6565b5062001835565b94918a915062000e01565b604051806200025a8a826200169b565b5062000e7f86836200196e565b831062000dbc565b90508462000d93565b60405162461bcd60e51b815260206004820152602260248201527f4f6666736574206578636565647320616374697665206d61726b657420636f756044820152611b9d60f21b6064820152608490fd5b80600052600260205260ff86604060002001541662000f0b575b62000f059062001835565b62000d6b565b9162000f1b62000f059162001835565b92905062000efa565b34620001b5576020366003190112620001b55762000f4162001486565b62000f4b62001808565b600880546001600160a01b0319166001600160a01b0392909216919091179055005b34620001b5576000366003190112620001b5576000546040516001600160a01b039091168152602090f35b34620001b5576000366003190112620001b5576020600554604051908152f35b34620001b55762000fc936620015d6565b6005549081831015620010695762000fe2908362001960565b9080821162001060575b5062000ffd62000da483836200196e565b91805b8281106200101857604051806200025a86826200169b565b806200105a91600052600260205262000e506040600020620010466200103f86856200196e565b91620018db565b620010528289620019d6565b5286620019d6565b62001000565b90508262000fec565b60405162461bcd60e51b815260206004820152601b60248201527f4f66667365742065786365656473206d61726b657420636f756e7400000000006044820152606490fd5b34620001b557602080600319360112620001b5576004356001600160401b038111620001b55781620010e9620010fd923690600401620014f8565b816040519382858094519384920162001545565b8101600481520301902090604051908181845491828152019360005281600020916000905b8282106200113d576200025a856200032781890382620014ba565b83548652948501946001938401939091019062001122565b34620001b5576020366003190112620001b5576004356200117562001808565b600554811015620011de578060005260026020527f315acb57a244ad83f9f375c1ef115a0af14f9a4baed65840b493b4396aef5e41602060ff6005604060002001620011d18282541615829060ff801983541691151516179055565b54166040519015158152a2005b60405162461bcd60e51b815260206004820152601560248201527413585c9ad95d08191bd95cc81b9bdd08195e1a5cdd605a1b6044820152606490fd5b34620001b5576000366003190112620001b5576200123862001808565b600080546001600160a01b0319811682556001600160a01b03167f8be0079c531659141344cd1fd0a4f28419497f9722a3daafe3b4186f6b6457e08280a3005b34620001b5576000366003190112620001b5576200129562001808565b478015620013285760008080809360018060a01b038254165af13d1562001322573d620012c281620014dc565b90620012d26040519283620014ba565b8152600060203d92013e5b15620012e557005b60405162461bcd60e51b8152602060048201526015602482015274119959481dda5d1a191c985dd85b0819985a5b1959605a1b6044820152606490fd5b620012dd565b60405162461bcd60e51b81526020600482015260136024820152724e6f206665657320746f20776974686472617760681b6044820152606490fd5b34620001b5576040366003190112620001b5576004356001600160401b038111620001b55762001398903690600401620014f8565b620013b6602060243592816040519382858094519384920162001545565b810160048152030190208054821015620001b557602091620013d8916200156a565b90546040519160031b1c8152f35b34620001b5576000366003190112620001b5576020600654604051908152f35b34620001b5576040366003190112620001b5576004356024356001600160a01b03811690819003620001b5577f0db6d7d249323b5dae28f50531adc34efd77486fa927f7f23b9ff74b9203e964916040916200146162001808565b81600655806001600160601b0360a01b600754161760075582519182526020820152a1005b600435906001600160a01b0382168203620001b557565b61010081019081106001600160401b03821117620008fc57604052565b90601f801991011681019081106001600160401b03821117620008fc57604052565b6001600160401b038111620008fc57601f01601f191660200190565b81601f82011215620001b5578035906200151282620014dc565b92620015226040519485620014ba565b82845260208383010111620001b557816000926020809301838601378301015290565b60005b838110620015595750506000910152565b818101518382015260200162001548565b8054821015620015835760005260206000200190600090565b634e487b7160e01b600052603260045260246000fd5b6020908160408183019282815285518094520193019160005b828110620015c1575050505090565b835185529381019392810192600101620015b2565b6040906003190112620001b5576004359060243590565b90602091620016088151809281855285808601910162001545565b601f01601f1916010190565b620016989160e060018060a01b03928381511683526200165b620016486020830151610100806020880152860190620015ed565b60408301518582036040870152620015ed565b93606082015160608501526080820151608085015260a0820151151560a085015260c08201511660c084015201519060e0818403910152620015ed565b90565b602080820190808352835180925260408301928160408460051b8301019501936000915b848310620016d05750505050505090565b9091929394958480620016f0600193603f198682030187528a5162001614565b9801930193019194939290620016bf565b90600182811c9216801562001733575b60208310146200171d57565b634e487b7160e01b600052602260045260246000fd5b91607f169162001711565b9060405191826000825492620017548462001701565b908184526001948581169081600014620017cb575060011462001784575b50506200178292500383620014ba565b565b9093915060005260209081600020936000915b818310620017b2575050620017829350820101388062001772565b8554888401850152948501948794509183019162001797565b9150506200178294506020925060ff191682840152151560051b820101388062001772565b6001600160401b038111620008fc5760051b60200190565b6000546001600160a01b031633036200181d57565b60405163118cdaa760e01b8152336004820152602490fd5b6000198114620018455760010190565b634e487b7160e01b600052601160045260246000fd5b805468010000000000000000811015620008fc5762001880916001820181556200156a565b819291549060031b91821b91600019901b1916179055565b60405190620018a7826200149d565b606060e0836000815282602082015282604082015260008382015260006080820152600060a0820152600060c08201520152565b90604051620018ea816200149d565b60e06200195b6006839560018060a01b038082541686526200190f600183016200173e565b602087015262001922600283016200173e565b60408701526003820154606087015260048201546080870152600582015460ff8116151560a088015260081c1660c0860152016200173e565b910152565b919082018092116200184557565b919082039182116200184557565b906200198882620017f0565b620019976040519182620014ba565b8281528092620019aa601f1991620017f0565b019060005b828110620019bc57505050565b602090620019c962001898565b82828501015201620019af565b8051821015620015835760209160051b01019056fe60406080815234620007af57620025e890813803806200001f81620007e5565b93843982019161010081840312620007af5780516001600160401b038111620007af5783620000509183016200080b565b60208201516001600160401b038111620007af5784620000729184016200080b565b828401516001600160401b038111620007af5783019480601f87011215620007af578551956001600160401b038711620004c8578660051b90602080620000bb818501620007e5565b809a8152019282010191838311620007af5760208201905b838210620007b4575050505050606083015190620000f4608085016200087d565b916200010360a086016200087d565b9160c08601519560ff87168703620007af5760e06200012391016200087d565b94600160005560028951106200076b574283111562000727578051906001600160401b038211620004c85760025490600182811c921680156200071c575b6020831014620004a75781601f849311620006bb575b50602090601f83116001146200063d5760009262000631575b50508160011b916000199060031b1c1916176002555b8051906001600160401b038211620004c85760035490600182811c9216801562000626575b6020831014620004a75781601f849311620005b4575b50602090601f8311600114620005255760009262000519575b50508160011b916000199060031b1c1916176003555b600555600680546001600160a01b03199081166001600160a01b039485161790915560085493600360ff8716101562000503578316906007541617600755169060018060b01b031916179060ff60a01b9060a01b161760085560fa600c5560005b8251811015620004f457600581901b830160200151825190606082016001600160401b03811183821017620004c85784528152600060208201526000838201526004549068010000000000000000821015620004c8576001820180600455821015620004de576004600052805180517f8a35acfbc15ff81a39ae7d344fd709f28e8600b4aa8c65c6b64bfe7fe36bd19b92906001600160401b038111620004c8576003850284015492600184811c94168015620004bd575b6020851014620004a75783601f89951162000449575b50602090601f8311600114620003c5579180600394926002979694600092620003b9575b50508160011b9160001990861b1c1916178387028501555b6020810151600184880286010155015193020101556000198114620003a35760010162000271565b634e487b7160e01b600052601160045260246000fd5b01519050388062000363565b949392919060038702850160005260206000209560005b601f19841681106200042d575091600296600192600396959483601f1981161062000414575b505050811b018387028501556200037b565b015160001983881b60f8161c1916905538808062000402565b8282015188556001909701968a955060209283019201620003dc565b90919293506003860285016000526020600020601f840160051c8101602085106200049f575b908995949392915b601f830160051c820181106200048f5750506200033f565b600081558a965060010162000477565b50806200046f565b634e487b7160e01b600052602260045260246000fd5b93607f169362000329565b634e487b7160e01b600052604160045260246000fd5b634e487b7160e01b600052603260045260246000fd5b5051611d359081620008938239f35b634e487b7160e01b600052602160045260246000fd5b015190503880620001fa565b6003600090815293507fc2575a0e9e593c00f959f8c92f12db2869c3395a3b0502d05e2516446f71f85b91905b601f198416851062000598576001945083601f198116106200057e575b505050811b0160035562000210565b015160001960f88460031b161c191690553880806200056f565b8181015183556020948501946001909301929091019062000552565b60036000529091507fc2575a0e9e593c00f959f8c92f12db2869c3395a3b0502d05e2516446f71f85b601f840160051c8101602085106200061e575b90849392915b601f830160051c820181106200060e575050620001e1565b60008155859450600101620005f6565b5080620005f0565b91607f1691620001cb565b01519050388062000190565b600260009081529350600080516020620025c883398151915291905b601f19841685106200069f576001945083601f1981161062000685575b505050811b01600255620001a6565b015160001960f88460031b161c1916905538808062000676565b8181015183556020948501946001909301929091019062000659565b6002600052909150600080516020620025c8833981519152601f840160051c81016020851062000714575b90849392915b601f830160051c820181106200070457505062000177565b60008155859450600101620006ec565b5080620006e6565b91607f169162000161565b875162461bcd60e51b815260206004820152601860248201527f457870697279206d75737420626520696e2066757475726500000000000000006044820152606490fd5b875162461bcd60e51b815260206004820152601860248201527f4e656564206174206c656173742032206f7574636f6d657300000000000000006044820152606490fd5b600080fd5b81516001600160401b038111620007af57602091620007d9878480948801016200080b565b815201910190620000d3565b6040519190601f01601f191682016001600160401b03811183821017620004c857604052565b919080601f84011215620007af5782516001600160401b038111620004c85760209062000841601f8201601f19168301620007e5565b92818452828287010111620007af5760005b8181106200086957508260009394955001015290565b858101830151848201840152820162000853565b51906001600160a01b0382168203620007af5756fe608060408181526004918236101561001657600080fd5b600092833560e01c91826302d05d3f14611594575081630d623e101461155257816310fe7c4814611257578163200d2ed21461122b57816320fdfc9b1461120357816323341a051461117b5781632d56657d1461109b57816335c1d3491461105a5781633d3db8eb14610f155781633f4ba83a14610e925781634a79d50c14610e745781634c5be57414610d355781635aa68ac014610c705781635c975abb14610c4c5781635f81a57c14610c2d57816364ff1cb314610a8e578163719de1ef14610a565781637284e41614610a215781638029c071146109f25781638068aa681461097b5781638456cb59146108f857816387abac111461078857816399bc0aea146107695781639b34ae031461074a578163a89ae4ba14610721578163b4fb3ee3146106e3578163b88a802f14610440578163c45a015514610417578163c75bb72414610261578163cf2b9f4814610234578163eeca08f014610215578163eed2a147146101b1575063f3e41e901461019057600080fd5b346101ad57816003193601126101ad57602090600b549051908152f35b5080fd5b828434610212576020366003190112610212578235925483101561021257506101dc610205926119b1565b506101e681611877565b91600260018301549201549080519485946060865260608601906115dc565b9260208501528301520390f35b80fd5b5050346101ad57816003193601126101ad57602090600c549051908152f35b5050346101ad5760203660031901126101ad5760209061025a61025561161c565b611b7b565b9051908152f35b90503461041357816003193601126104135780359160243567ffffffffffffffff811161040f57610295903690840161194e565b6008549092906001600160a01b031633036103d7576102b2611a7c565b6008549060ff8260a81c16818110156103c4576102cf90156119ec565b6005544210610388578054851015610345575060ff60a81b1916600160a81b17600855600a83905542600b8190558151908152602081018290527f230e0c4260efa5ac59d08aaabf3711693fe4f1df54fcb28cc4981a800e586306929091829161033b918301906115dc565b0390a26001815580f35b606490602084519162461bcd60e51b8352820152601760248201527f496e76616c69642077696e6e696e67206f7574636f6d650000000000000000006044820152fd5b606490602084519162461bcd60e51b8352820152601660248201527513585c9ad95d081b9bdd08195e1c1a5c9959081e595d60521b6044820152fd5b634e487b7160e01b875260218252602487fd5b6020606492519162461bcd60e51b8352820152601360248201527213db9b1e481bdc9858db1948185b1b1bddd959606a1b6044820152fd5b8480fd5b8280fd5b5050346101ad57816003193601126101ad5760075490516001600160a01b039091168152602090f35b9190503461041357826003193601126104135761045b611a7c565b60ff908160085460a81c1692808410156106d05761047c6001809514611a9f565b338552600d9060209180835283872054156106a15761049a33611b7b565b9485156106685786919088835b6105cf575b505050506127106104bf600c5486611ae1565b048085039485116105bc578680808088335af16104da611b14565b501561058157808791610520575b505050907ff01da32686223933d8a18a391060918c7f11a3648639edd87ae013e2e273174391815193845242908401523392a2815580f35b600754829182918291906001600160a01b03165af161053d611b14565b501561054a5785816104e8565b915162461bcd60e51b8152918201526013602482015272119959481d1c985b9cd9995c8819985a5b1959606a1b6044820152606490fd5b50915162461bcd60e51b815291820152601660248201527514995dd85c99081d1c985b9cd9995c8819985a5b195960521b6044820152606490fd5b634e487b7160e01b875260118252602487fd5b338a52828652868a2090878b83548310156106605782876105f38261060d97611995565b500154600a54148061063a575b610613575b505050611a4f565b836104a7565b60039261062692338152888c5220611995565b5001805460ff191686179055878b82610605565b50505050338b52838752878b8285600361065683868620611995565b5001541615610600565b5050506104ac565b845162461bcd60e51b815280840185905260136024820152724e6f207265776172647320746f20636c61696d60681b6044820152606490fd5b60649284519262461bcd60e51b845283015260248201526c139bc818995d1cc8199bdd5b99609a1b6044820152fd5b634e487b7160e01b855260219052602484fd5b5050346101ad5760203660031901126101ad5760209160ff9082906001600160a01b0361070e61161c565b1681526011855220541690519015158152f35b5050346101ad57816003193601126101ad5760085490516001600160a01b039091168152602090f35b5050346101ad57816003193601126101ad57602090600a549051908152f35b5050346101ad57816003193601126101ad576020906005549051908152f35b9050602036600319011261041357803567ffffffffffffffff81116108f4576107b4903690830161194e565b906008549060ff8260a81c16818110156108e15760016107d49114611a9f565b600b5462093a8081018091116108ce5742116108925767016345785d8a0000341061084f575060ff60a81b1916600160a91b1760085581514281526020810183905233927fa552416225d3047eceaa265d9762310e2fdd111aaf18a172236982ae9fadfe2792829161084991908301906115dc565b0390a280f35b606490602085519162461bcd60e51b8352820152601960248201527f496e73756666696369656e74206469737075746520626f6e64000000000000006044820152fd5b606490602085519162461bcd60e51b83528201526016602482015275111a5cdc1d5d19481c195c9a5bd908195e1c1a5c995960521b6044820152fd5b634e487b7160e01b865260118252602486fd5b634e487b7160e01b865260218252602486fd5b8380fd5b5050346101ad57816003193601126101ad576006547f62e78cea01bee320cd4e420270b5ea74000d11b0c9f74754ebdbfc544b05a2589160209161095190336001600160a01b039182161490811561096d575b50611c97565b610959611a5e565b600160ff198154161760015551338152a180f35b90506007541633143861094b565b5050346101ad57806003193601126101ad5761099561161c565b6001600160a01b03168252600d6020528082208054602435939084101561021257506080926109c391611995565b509081549160018101549160ff6003600284015493015416928151948552602085015283015215156060820152f35b5050346101ad5760203660031901126101ad57602090610a18610a1361161c565b611cd2565b90519015158152f35b5050346101ad57816003193601126101ad57610a5290610a3f6117c3565b90519182916020835260208301906115dc565b0390f35b5050346101ad5760203660031901126101ad5760209181906001600160a01b03610a7e61161c565b168152600e845220549051908152f35b9190503461041357602090816003193601126108f457823567ffffffffffffffff811161040f57610ac2903690850161194e565b6007549094906001600160a01b039081163303610bf35760085460ff8160a81c1686811015610be057610af590156119ec565b60ff60a81b1916600360a81b17600855815b601054811015610b9e578282610b1c83611637565b90549060031b1c16808252600e87528582209081549182610b4a575b50505050610b4590611a4f565b610b07565b83928392838093555af1610b5c611b14565b5015610b6b5782388080610b38565b835162461bcd60e51b8152808701869052600d60248201526c1499599d5b990819985a5b1959609a1b6044820152606490fd5b827f4c4561c5b0048424071c1115e9f1e325486e21c21333d968f21097b7b72d12ad8587610bda8b8380519485944286528501528301906115dc565b0390a180f35b634e487b7160e01b845260218752602484fd5b50505162461bcd60e51b815291820152601460248201527313db9b1e48199858dd1bdc9e48185b1b1bddd95960621b604482015260649150fd5b5050346101ad57816003193601126101ad576020906009549051908152f35b5050346101ad57816003193601126101ad5760209060ff6001541690519015158152f35b8284346102125780600319360112610212579080519182906010549182855260208095018093601084527f1b6847dc741a1b0cd08d278845f9d819d87b734759afb55fe2de5cb82a9ae67290845b818110610d185750505081610cd49103826116b6565b83519485948186019282875251809352850193925b828110610cf857505050500390f35b83516001600160a01b031685528695509381019392810192600101610ce9565b82546001600160a01b031684529288019260019283019201610cbe565b905082346102125780600319360112610212578154610d5381611c6b565b91610d60855193846116b6565b818352610d6c82611c6b565b9360209283850195601f190136873760095480610e0c57508281158261271004915b838110610dda575050505050909392915b83519485948186019282875251809352850193925b828110610dc357505050500390f35b835185528695509381019392810192600101610db4565b81610df9578083610dee610df4938b611c83565b52611a4f565b610d8e565b634e487b7160e01b865260128552602486fd5b835b828110610e22575050505090939291610d9f565b6001610e2d826119b1565b50015461271090818102918183041490151715610e615790610e5283610e5c93611af4565b610dee828a611c83565b610e0e565b634e487b7160e01b865260118552602486fd5b5050346101ad57816003193601126101ad57610a5290610a3f6116d8565b905034610413578260031936011261041357600654610ec590336001600160a01b039182161490811561096d5750611c97565b6001549060ff821615610f07575060ff1916600155513381527f5db9ee0a495bf2e6ff9c91a7834c1ba4fdd244a5e8aa4e537bd38aeae4b073aa90602090a180f35b8251638dfc202b60e01b8152fd5b839150346101ad57816003193601126101ad5790815490610f3582611c6b565b610f41855191826116b6565b82815283825260209384820193837f8a35acfbc15ff81a39ae7d344fd709f28e8600b4aa8c65c6b64bfe7fe36bd19b865b838310610ff15750505050508451938085019181865251809252858501868360051b8701019493965b838810610fa85786860387f35b90919293948380600192603f198a82030186528851908580610fd2845160608086528501906115dc565b9385810151868501520151910152970193019701969093929193610f9b565b8998959698516060810181811067ffffffffffffffff8211176110475760019260039289928e5261102186611877565b815284860154838201528d60028701549082015281520192019201919097959497610f72565b634e487b7160e01b8b526041875260248bfd5b9050346104135760203660031901126104135735916010548310156102125750611085602092611637565b905491519160018060a01b039160031b1c168152f35b839150346101ad57602090816003193601126104135790916001600160a01b036110c361161c565b168152600d83528381209182546110d981611c6b565b916110e6875193846116b6565b8183528583018095855286852085915b848310611157575050505050845193808501918186525180925285850193925b8281106111235785850386f35b8351805186528083015186840152878101518887015260609081015115159086015260809094019392810192600101611116565b8389600192611169859c999a9c611b44565b815201920192019190979594976110f6565b919050346104135782600319360112610413576111d4925060095491600554906111f560ff60085460a81c166010549254936111b56116d8565b966111e26111c16117c3565b88519a8b9a60e08c5260e08c01906115dc565b908a820360208c01526115dc565b96880152606087015260808601906115b9565b60a084015260c08301520390f35b905034610413576020366003190112610413576020928291358152600f845220549051908152f35b5050346101ad57816003193601126101ad5760209061125560ff60085460a81c16915180926115b9565bf35b9190506020806003193601126108f457823591611272611a7c565b60ff60085460a81c168481101561153f5761128d90156119ec565b60055442101561150d5761129f611a5e565b83548310156114da57341561149957338552600d8252808520938151906112c582611684565b34825283820190858252838301924284526060810193898552885493680100000000000000009485811015611486576113059060019b8c82018155611995565b93909361147457906003939291518355518a83015551600282015501925115159260ff199360ff8583541691161790558661133f876119b1565b500161134c348254611a2c565b90556002611359876119b1565b50016113658154611a4f565b9055858852600f855283882061137c348254611a2c565b9055338852600e8552838820611393348254611a2c565b90556113a134600954611a2c565b6009553388526011855260ff8489205416156113f0575b505050807f7363e6581df4db69463222156be4a09656528b9f1302890fa4c0b60819b69fc691519234845242908401523392a3815580f35b6010549182101561146157509061142e82877f7363e6581df4db69463222156be4a09656528b9f1302890fa4c0b60819b69fc6959401601055611637565b81549060031b9033821b9160018060a01b03901b19161790553387526011845285828820918254161790559038806113b8565b634e487b7160e01b885260419052602487fd5b634e487b7160e01b8c528b855260248cfd5b634e487b7160e01b8c526041855260248cfd5b5162461bcd60e51b81529283015250601b60248201527f42657420616d6f756e74206d75737420626520706f73697469766500000000006044820152606490fd5b5162461bcd60e51b81529283015250600f60248201526e496e76616c6964206f7574636f6d6560881b6044820152606490fd5b5162461bcd60e51b81529283015250600e60248201526d13585c9ad95d08195e1c1a5c995960921b6044820152606490fd5b634e487b7160e01b865260218552602486fd5b8383346101ad57816003193601126101ad5760ff60085460a01c16905191600382101561158157602083838152f35b634e487b7160e01b815260218452602490fd5b8490346101ad57816003193601126101ad576006546001600160a01b03168152602090f35b9060048210156115c65752565b634e487b7160e01b600052602160045260246000fd5b919082519283825260005b848110611608575050826000602080949584010152601f8019910116010190565b6020818301810151848301820152016115e7565b600435906001600160a01b038216820361163257565b600080fd5b60105481101561166e5760106000527f1b6847dc741a1b0cd08d278845f9d819d87b734759afb55fe2de5cb82a9ae6720190600090565b634e487b7160e01b600052603260045260246000fd5b6080810190811067ffffffffffffffff8211176116a057604052565b634e487b7160e01b600052604160045260246000fd5b90601f8019910116810190811067ffffffffffffffff8211176116a057604052565b60405190600060025490600182811c908084169384156117b9575b60209485841081146117a557838852879493929181156117855750600114611726575b5050611724925003836116b6565b565b9093915060026000527f405787fa12a823e0f2b7631cc41b3ba8828b3321ca811111fa75cd3aa3bb5ace936000915b81831061176d57505061172493508201013880611716565b85548884018501529485019487945091830191611755565b91505061172494925060ff191682840152151560051b8201013880611716565b634e487b7160e01b85526022600452602485fd5b91607f16916116f3565b60405190600060035490600182811c9080841693841561186d575b60209485841081146117a55783885287949392918115611785575060011461180e575050611724925003836116b6565b9093915060036000527fc2575a0e9e593c00f959f8c92f12db2869c3395a3b0502d05e2516446f71f85b936000915b81831061185557505061172493508201013880611716565b8554888401850152948501948794509183019161183d565b91607f16916117de565b90604051906000835490600182811c90808416968715611928575b60209485841089146117a5578798848997989952908160001461190657506001146118c7575b505050611724925003836116b6565b600090815285812095935091905b8183106118ee57505061172493508201013880806118b8565b855488840185015294850194879450918301916118d5565b9250505061172494925060ff191682840152151560051b8201013880806118b8565b91607f1691611892565b67ffffffffffffffff81116116a057601f01601f191660200190565b81601f820112156116325780359061196582611932565b9261197360405194856116b6565b8284526020838301011161163257816000926020809301838601378301015290565b805482101561166e5760005260206000209060021b0190600090565b60045481101561166e576003906004600052027f8a35acfbc15ff81a39ae7d344fd709f28e8600b4aa8c65c6b64bfe7fe36bd19b0190600090565b156119f357565b60405162461bcd60e51b81526020600482015260116024820152704d61726b6574206e6f742061637469766560781b6044820152606490fd5b91908201809211611a3957565b634e487b7160e01b600052601160045260246000fd5b6000198114611a395760010190565b60ff60015416611a6a57565b60405163d93c066560e01b8152600490fd5b600260005414611a8d576002600055565b604051633ee5aeb560e01b8152600490fd5b15611aa657565b60405162461bcd60e51b815260206004820152601360248201527213585c9ad95d081b9bdd081c995cdbdb1d9959606a1b6044820152606490fd5b81810292918115918404141715611a3957565b8115611afe570490565b634e487b7160e01b600052601260045260246000fd5b3d15611b3f573d90611b2582611932565b91611b3360405193846116b6565b82523d6000602084013e565b606090565b90604051611b5181611684565b606060ff600383958054855260018101546020860152600281015460408601520154161515910152565b60ff60085460a81c1660048110156115c6576001809103611bd657600a5460009283835b611be5575b50508215611bdd57611bb5906119b1565b5001548015611bd657611bce611bd39260095490611ae1565b611af4565b90565b5050600090565b505050600090565b60018060a01b0382166000526020600d81528360406000208054841015611c6357611c1384611c1992611995565b50611b44565b918201511480611c57575b611c3c575b5090611c358492611a4f565b9091611b9f565b611c4e85939296611c35925190611a2c565b95919250611c29565b50606081015115611c24565b505050611ba4565b67ffffffffffffffff81116116a05760051b60200190565b805182101561166e5760209160051b010190565b15611c9e57565b60405162461bcd60e51b815260206004820152600c60248201526b155b985d5d1a1bdc9a5e995960a21b6044820152606490fd5b60ff60085460a81c1660048110156115c657600103611cf957611cf490611b7b565b151590565b5060009056fea264697066735822122015ca8a656326f660ce48153e77b107e01806442c87fdb00fef1f7c1ad8c73c2164736f6c63430008140033405787fa12a823e0f2b7631cc41b3ba8828b3321ca811111fa75cd3aa3bb5acea26469706673582212203330c43fcd245c0b7353c7dc6c5046de4beb8f66468e5b3583337f534b74160764736f6c63430008140033",
  "linkReferences": {},
  "deployedLinkReferences": {}
}