{
  "_format": "hh-sol-artifact-1",
  "contractName": "PredictionMarketFactory",
  "sourceName": "contracts/PredictionMarketFactory.sol",
  "abi": [
    {
      "inputs": [
        {
          "internalType": "uint256",
          "name": "_marketCreationFee",
          "type": "uint256"
        },
        {
          "internalType": "address",
          "name": "_oracleAddress",
          "type": "address"
        }
      ],
      "stateMutability": "nonpayable",
      "type": "constructor"
    },
    {
      "inputs": [
        {
          "internalType": "address",
          "name": "owner",
          "type": "address"
        }
      ],
      "name": "OwnableInvalidOwner",
      "type": "error"
    },
    {
      "inputs": [
        {
          "internalType": "address",
          "name": "account",
          "type": "address"
        }
      ],
      "name": "OwnableUnauthorizedAccount",
      "type": "error"
    },
    {
      "inputs": [],
      "name": "ReentrancyGuardReentrantCall",
      "type": "error"
    },
    {
      "anonymous": false,
      "inputs": [
        {
          "indexed": false,
          "internalType": "uint256",
          "name": "marketCreationFee",
          "type": "uint256"
        },
        {
          "indexed": false,
          "internalType": "address",
          "name": "oracleAddress",
          "type": "address"
        }
      ],
      "name": "FactoryConfigUpdated",
      "type": "event"
    },
    {
      "anonymous": false,
      "inputs": [
        {
          "indexed": true,
          "internalType": "uint256",
          "name": "marketId",
          "type": "uint256"
        },
        {
          "indexed": true,
          "internalType": "address",
          "name": "marketAddress",
          "type": "address"
        },
        {
          "indexed": true,
          "internalType": "address",
          "name": "creator",
          "type": "address"
        },
        {
          "indexed": false,
          "internalType": "string",
          "name": "title",
          "type": "string"
        },
        {
          "indexed": false,
          "internalType": "string",
          "name": "category",
          "type": "string"
        },
        {
          "indexed": false,
          "internalType": "uint256",
          "name": "expiryTime",
          "type": "uint256"
        }
      ],
      "name": "MarketCreated",
      "type": "event"
    },
    {
      "anonymous": false,
      "inputs": [
        {
          "indexed": true,
          "internalType": "uint256",
          "name": "marketId",
          "type": "uint256"
        },
        {
          "indexed": false,
          "internalType": "bool",
          "name": "isActive",
          "type": "bool"
        }
      ],
      "name": "MarketStatusChanged",
      "type": "event"
    },
    {
      "anonymous": false,
      "inputs": [
        {
          "indexed": true,
          "internalType": "address",
          "name": "previousOwner",
          "type": "address"
        },
        {
          "indexed": true,
          "internalType": "address",
          "name": "newOwner",
          "type": "address"
        }
      ],
      "name": "OwnershipTransferred",
      "type": "event"
    },
    {
      "inputs": [
        {
          "internalType": "string",
          "name": "",
          "type": "string"
        },
        {
          "internalType": "uint256",
          "name": "",
          "type": "uint256"
        }
      ],
      "name": "categoryMarkets",
      "outputs": [
        {
          "internalType": "uint256",
          "name": "",
          "type": "uint256"
        }
      ],
      "stateMutability": "view",
      "type": "function"
    },
    {
      "inputs": [
        {
          "internalType": "string",
          "name": "_title",
          "type": "string"
        },
        {
          "internalType": "string",
          "name": "_description",
          "type": "string"
        },
        {
          "internalType": "string[]",
          "name": "_outcomes",
          "type": "string[]"
        },
        {
          "internalType": "uint256",
          "name": "_expiryTime",
          "type": "uint256"
        },
        {
          "internalType": "string",
          "name": "_category",
          "type": "string"
        },
        {
          "internalType": "uint8",
          "name": "_oracleType",
          "type": "uint8"
        }
      ],
      "name": "createMarket",
      "outputs": [
        {
          "internalType": "address",
          "name": "",
          "type": "address"
        }
      ],
      "stateMutability": "payable",
      "type": "function"
    },
    {
      "inputs": [
        {
          "internalType": "uint256",
          "name": "_offset",
          "type": "uint256"
        },
        {
          "internalType": "uint256",
          "name": "_limit",
          "type": "uint256"
        }
      ],
      "name": "getActiveMarkets",
      "outputs": [
        {
          "components": [
            {
              "internalType": "address",
              "name": "marketAddress",
              "type": "address"
            },
            {
              "internalType": "string",
              "name": "title",
              "type": "string"
            },
            {
              "internalType": "string",
              "name": "description",
              "type": "string"
            },
            {
              "internalType": "uint256",
              "name": "createdAt",
              "type": "uint256"
            },
            {
              "internalType": "uint256",
              "name": "expiryTime",
              "type": "uint256"
            },
            {
              "internalType": "bool",
              "name": "isActive",
              "type": "bool"
            },
            {
              "internalType": "address",
              "name": "creator",
              "type": "address"
            },
            {
              "internalType": "string",
              "name": "category",
              "type": "string"
            }
          ],
          "internalType": "struct PredictionMarketFactory.MarketInfo[]",
          "name": "",
          "type": "tuple[]"
        }
      ],
      "stateMutability": "view",
      "type": "function"
    },
    {
      "inputs": [
        {
          "internalType": "uint256",
          "name": "_marketId",
          "type": "uint256"
        }
      ],
      "name": "getMarket",
      "outputs": [
        {
          "components": [
            {
              "internalType": "address",
              "name": "marketAddress",
              "type": "address"
            },
            {
              "internalType": "string",
              "name": "title",
              "type": "string"
            },
            {
              "internalType": "string",
              "name": "description",
              "type": "string"
            },
            {
              "internalType": "uint256",
              "name": "createdAt",
              "type": "uint256"
            },
            {
              "internalType": "uint256",
              "name": "expiryTime",
              "type": "uint256"
            },
            {
              "internalType": "bool",
              "name": "isActive",
              "type": "bool"
            },
            {
              "internalType": "address",
              "name": "creator",
              "type": "address"
            },
            {
              "internalType": "string",
              "name": "category",
              "type": "string"
            }
          ],
          "internalType": "struct PredictionMarketFactory.MarketInfo",
          "name": "",
          "type": "tuple"
        }
      ],
      "stateMutability": "view",
      "type": "function"
    },
    {
      "inputs": [
        {
          "internalType": "uint256",
          "name": "_offset",
          "type": "uint256"
        },
        {
          "internalType": "uint256",
          "name": "_limit",
          "type": "uint256"
        }
      ],
      "name": "getMarkets",
      "outputs": [
        {
          "components": [
            {
              "internalType": "address",
              "name": "marketAddress",
              "type": "address"
            },
            {
              "internalType": "string",
              "name": "title",
              "type": "string"
            },
            {
              "internalType": "string",
              "name": "description",
              "type": "string"
            },
            {
              "internalType": "uint256",
              "name": "createdAt",
              "type": "uint256"
            },
            {
              "internalType": "uint256",
              "name": "expiryTime",
              "type": "uint256"
            },
            {
              "internalType": "bool",
              "name": "isActive",
              "type": "bool"
            },
            {
              "internalType": "address",
              "name": "creator",
              "type": "address"
            },
            {
              "internalType": "string",
              "name": "category",
              "type": "string"
            }
          ],
          "internalType": "struct PredictionMarketFactory.MarketInfo[]",
          "name": "",
          "type": "tuple[]"
        }
      ],
      "stateMutability": "view",
      "type": "function"
    },
    {
      "inputs": [
        {
          "internalType": "string",
          "name": "_category",
          "type": "string"
        }
      ],
      "name": "getMarketsByCategory",
      "outputs": [
        {
          "internalType": "uint256[]",
          "name": "",
          "type": "uint256[]"
        }
      ],
      "stateMutability": "view",
      "type": "function"
    },
    {
      "inputs": [],
      "name": "getTotalMarkets",
      "outputs": [
        {
          "internalType": "uint256",
          "name": "",
          "type": "uint256"
        }
      ],
      "stateMutability": "view",
      "type": "function"
    },
    {
      "inputs": [
        {
          "internalType": "address",
          "name": "_user",
          "type": "address"
        }
      ],
      "name": "getUserMarkets",
      "outputs": [
        {
          "internalType": "uint256[]",
          "name": "",
          "type": "uint256[]"
        }
      ],
      "stateMutability": "view",
      "type": "function"
    },
    {
      "inputs": [],
      "name": "marketCounter",
      "outputs": [
        {
          "internalType": "uint256",
          "name": "",
          "type": "uint256"
        }
      ],
      "stateMutability": "view",
      "type": "function"
    },
    {
      "inputs": [],
      "name": "marketCreationFee",
      "outputs": [
        {
          "internalType": "uint256",
          "name": "",
          "type": "uint256"
        }
      ],
      "stateMutability": "view",
      "type": "function"
    },
    {
      "inputs": [
        {
          "internalType": "uint256",
          "name": "_marketId",
          "type": "uint256"
        }
      ],
      "name": "marketExists",
      "outputs": [
        {
          "internalType": "bool",
          "name": "",
          "type": "bool"
        }
      ],
      "stateMutability": "view",
      "type": "function"
    },
    {
      "inputs": [
        {
          "internalType": "uint256",
          "name": "",
          "type": "uint256"
        }
      ],
      "name": "markets",
      "outputs": [
        {
          "internalType": "address",
          "name": "marketAddress",
          "type": "address"
        },
        {
          "internalType": "string",
          "name": "title",
          "type": "string"
        },
        {
          "internalType": "string",
          "name": "description",
          "type": "string"
        },
        {
          "internalType": "uint256",
          "name": "createdAt",
          "type": "uint256"
        },
        {
          "internalType": "uint256",
          "name": "expiryTime",
          "type": "uint256"
        },
        {
          "internalType": "bool",
          "name": "isActive",
          "type": "bool"
        },
        {
          "internalType": "address",
          "name": "creator",
          "type": "address"
        },
        {
          "internalType": "string",
          "name": "category",
          "type": "string"
        }
      ],
      "stateMutability": "view",
      "type": "function"
    },
    {
      "inputs": [],
      "name": "oracleAddress",
      "outputs": [
        {
          "internalType": "address",
          "name": "",
          "type": "address"
        }
      ],
      "stateMutability": "view",
      "type": "function"
    },
    {
      "inputs": [],
      "name": "owner",
      "outputs": [
        {
          "internalType": "address",
          "name": "",
          "type": "address"
        }
      ],
      "stateMutability": "view",
      "type": "function"
    },
    {
      "inputs": [],
      "name": "renounceOwnership",
      "outputs": [],
      "stateMutability": "nonpayable",
      "type": "function"
    },
    {
      "inputs": [
        {
          "internalType": "address",
          "name": "_stakingContract",
          "type": "address"
        }
      ],
      "name": "setStakingContract",
      "outputs": [],
      "stateMutability": "nonpayable",
      "type": "function"
    },
    {
      "inputs": [],
      "name": "stakingContract",
      "outputs": [
        {
          "internalType": "address",
          "name": "",
          "type": "address"
        }
      ],
      "stateMutability": "view",
      "type": "function"
    },
    {
      "inputs": [
        {
          "internalType": "uint256",
          "name": "_marketId",
          "type": "uint256"
        }
      ],
      "name": "toggleMarketStatus",
      "outputs": [],
      "stateMutability": "nonpayable",
      "type": "function"
    },
    {
      "inputs": [
        {
          "internalType": "address",
          "name": "newOwner",
          "type": "address"
        }
      ],
      "name": "transferOwnership",
      "outputs": [],
      "stateMutability": "nonpayable",
      "type": "function"
    },
    {
      "inputs": [
        {
          "internalType": "uint256",
          "name": "_marketCreationFee",
          "type": "uint256"
        },
        {
          "internalType": "address",
          "name": "_oracleAddress",
          "type": "address"
        }
      ],
      "name": "updateConfig",
      "outputs": [],
      "stateMutability": "nonpayable",
      "type": "function"
    },
    {
      "inputs": [
        {
          "internalType": "address",
          "name": "",
          "type": "address"
        },
        {
          "internalType": "uint256",
          "name": "",
          "type": "uint256"
        }
      ],
      "name": "userMarkets",
      "outputs": [
        {
          "internalType": "uint256",
          "name": "",
          "type": "uint256"
        }
      ],
      "stateMutability": "view",
      "type": "function"
    },
    {
      "inputs": [],
      "name": "withdrawFees",
      "outputs": [],
      "stateMutability": "nonpayable",
      "type": "function"
    }
  ],
  "bytecode": "0x60806040523480156200001157600080fd5b5060405162004b7738038062004b778339810160408190526200003491620000eb565b33806200005b57604051631e4fbdf760e01b81526000600482015260240160405180910390fd5b62000066816200009b565b5060018055600691909155600780546001600160a01b0319166001600160a01b0390921691909117905560006005556200012a565b600080546001600160a01b038381166001600160a01b0319831681178455604051919092169283917f8be0079c531659141344cd1fd0a4f28419497f9722a3daafe3b4186f6b6457e09190a35050565b60008060408385031215620000ff57600080fd5b825160208401519092506001600160a01b03811681146200011f57600080fd5b809150509250929050565b614a3d806200013a6000396000f3fe6080604052600436106200014f5760003560e01c80639dd373b911620000b9578063da4473d81162000078578063da4473d814620003a9578063db0f871d14620003ce578063eb44fdd314620003f3578063ec69a6541462000427578063ee99205c146200045e578063f2fde38b146200048057600080fd5b80639dd373b914620002eb578063a04ddcad1462000310578063a89ae4ba1462000335578063b1283e771462000357578063c2863fdf146200039257600080fd5b8063715018a61162000112578063715018a614620001fb578063733c0abc146200021357806376e6caff146200023857806380968d48146200026c57806381ebf20914620002a05780638da5cb5b14620002b757600080fd5b806307a582d8146200015457806324760807146200017b5780632ef1bdfa14620001a65780633caa7e9e14620001be578063476343ee14620001e3575b600080fd5b3480156200016157600080fd5b50620001796200017336600462001916565b620004a5565b005b3480156200018857600080fd5b506200019360055481565b6040519081526020015b60405180910390f35b348015620001b357600080fd5b506200019360065481565b348015620001cb57600080fd5b5062000193620001dd36600462001a06565b62000510565b348015620001f057600080fd5b506200017962000551565b3480156200020857600080fd5b506200017962000648565b3480156200022057600080fd5b50620001796200023236600462001a4f565b62000660565b3480156200024557600080fd5b506200025d6200025736600462001a69565b62000715565b6040516200019d919062001aaa565b3480156200027957600080fd5b50620002916200028b36600462001af0565b62000789565b6040516200019d919062001c17565b348015620002ad57600080fd5b5060055462000193565b348015620002c457600080fd5b506000546001600160a01b03165b6040516001600160a01b0390911681526020016200019d565b348015620002f857600080fd5b50620001796200030a36600462001c7d565b62000af6565b3480156200031d57600080fd5b50620002916200032f36600462001af0565b62000b22565b3480156200034257600080fd5b50600754620002d2906001600160a01b031681565b3480156200036457600080fd5b506200037c6200037636600462001a4f565b62000f39565b6040516200019d98979695949392919062001ca2565b620002d2620003a336600462001ddf565b62001145565b348015620003b657600080fd5b506200025d620003c836600462001c7d565b620014d4565b348015620003db57600080fd5b5062000193620003ed36600462001eb4565b62001540565b3480156200040057600080fd5b50620004186200041236600462001a4f565b6200155d565b6040516200019d919062001ee1565b3480156200043457600080fd5b506200044d6200044636600462001a4f565b6005541190565b60405190151581526020016200019d565b3480156200046b57600080fd5b50600854620002d2906001600160a01b031681565b3480156200048d57600080fd5b50620001796200049f36600462001c7d565b620017a4565b620004af620017e8565b6006829055600780546001600160a01b0319166001600160a01b0383169081179091556040805184815260208101929092527f0db6d7d249323b5dae28f50531adc34efd77486fa927f7f23b9ff74b9203e964910160405180910390a15050565b815160208184018101805160048252928201918501919091209190528054829081106200053c57600080fd5b90600052602060002001600091509150505481565b6200055b620017e8565b4780620005a55760405162461bcd60e51b81526020600482015260136024820152724e6f206665657320746f20776974686472617760681b60448201526064015b60405180910390fd5b600080546040516001600160a01b039091169083908381818185875af1925050503d8060008114620005f4576040519150601f19603f3d011682016040523d82523d6000602084013e620005f9565b606091505b5050905080620006445760405162461bcd60e51b8152602060048201526015602482015274119959481dda5d1a191c985dd85b0819985a5b1959605a1b60448201526064016200059c565b5050565b62000652620017e8565b6200065e600062001817565b565b6200066a620017e8565b6005548110620006b55760405162461bcd60e51b815260206004820152601560248201527413585c9ad95d08191bd95cc81b9bdd08195e1a5cdd605a1b60448201526064016200059c565b600081815260026020908152604091829020600501805460ff8082161560ff199092168217909255925192161515825282917f315acb57a244ad83f9f375c1ef115a0af14f9a4baed65840b493b4396aef5e41910160405180910390a250565b606060048260405162000729919062001ef6565b90815260408051918290036020908101832080548083028501830190935282845291908301828280156200077d57602002820191906000526020600020905b81548152602001906001019080831162000768575b50505050509050919050565b60606005548310620007de5760405162461bcd60e51b815260206004820152601b60248201527f4f66667365742065786365656473206d61726b657420636f756e74000000000060448201526064016200059c565b6000620007ec838562001f2a565b9050600554811115620007fe57506005545b60006200080c858362001f40565b67ffffffffffffffff81111562000827576200082762001945565b6040519080825280602002602001820160405280156200086457816020015b6200085062001892565b815260200190600190039081620008465790505b509050845b8281101562000aeb576000818152600260209081526040918290208251610100810190935280546001600160a01b031683526001810180549192840191620008b19062001f56565b80601f0160208091040260200160405190810160405280929190818152602001828054620008df9062001f56565b8015620009305780601f10620009045761010080835404028352916020019162000930565b820191906000526020600020905b8154815290600101906020018083116200091257829003601f168201915b505050505081526020016002820180546200094b9062001f56565b80601f0160208091040260200160405190810160405280929190818152602001828054620009799062001f56565b8015620009ca5780601f106200099e57610100808354040283529160200191620009ca565b820191906000526020600020905b815481529060010190602001808311620009ac57829003601f168201915b50505091835250506003820154602082015260048201546040820152600582015460ff81161515606083015261010090046001600160a01b0316608082015260068201805460a09092019162000a209062001f56565b80601f016020809104026020016040519081016040528092919081815260200182805462000a4e9062001f56565b801562000a9f5780601f1062000a735761010080835404028352916020019162000a9f565b820191906000526020600020905b81548152906001019060200180831162000a8157829003601f168201915b50505050508152505082878362000ab7919062001f40565b8151811062000aca5762000aca62001f92565b6020026020010181905250808062000ae29062001fa8565b91505062000869565b509150505b92915050565b62000b00620017e8565b600880546001600160a01b0319166001600160a01b0392909216919091179055565b60606000805b60055481101562000b735760008181526002602052604090206005015460ff161562000b5e578162000b5a8162001fa8565b9250505b8062000b6a8162001fa8565b91505062000b28565b5080841062000bd05760405162461bcd60e51b815260206004820152602260248201527f4f6666736574206578636565647320616374697665206d61726b657420636f756044820152611b9d60f21b60648201526084016200059c565b600062000bde848662001f2a565b90508181111562000bec5750805b600062000bfa868362001f40565b67ffffffffffffffff81111562000c155762000c1562001945565b60405190808252806020026020018201604052801562000c5257816020015b62000c3e62001892565b81526020019060019003908162000c345790505b50905060008060005b6005548110801562000c77575062000c74898662001f40565b83105b1562000f2c5760008181526002602052604090206005015460ff161562000f175788821062000f07576000818152600260209081526040918290208251610100810190935280546001600160a01b03168352600181018054919284019162000cdf9062001f56565b80601f016020809104026020016040519081016040528092919081815260200182805462000d0d9062001f56565b801562000d5e5780601f1062000d325761010080835404028352916020019162000d5e565b820191906000526020600020905b81548152906001019060200180831162000d4057829003601f168201915b5050505050815260200160028201805462000d799062001f56565b80601f016020809104026020016040519081016040528092919081815260200182805462000da79062001f56565b801562000df85780601f1062000dcc5761010080835404028352916020019162000df8565b820191906000526020600020905b81548152906001019060200180831162000dda57829003601f168201915b50505091835250506003820154602082015260048201546040820152600582015460ff81161515606083015261010090046001600160a01b0316608082015260068201805460a09092019162000e4e9062001f56565b80601f016020809104026020016040519081016040528092919081815260200182805462000e7c9062001f56565b801562000ecd5780601f1062000ea15761010080835404028352916020019162000ecd565b820191906000526020600020905b81548152906001019060200180831162000eaf57829003601f168201915b50505050508152505084848151811062000eeb5762000eeb62001f92565b6020026020010181905250828062000f039062001fa8565b9350505b8162000f138162001fa8565b9250505b8062000f238162001fa8565b91505062000c5b565b5091979650505050505050565b600260205260009081526040902080546001820180546001600160a01b03909216929162000f679062001f56565b80601f016020809104026020016040519081016040528092919081815260200182805462000f959062001f56565b801562000fe65780601f1062000fba5761010080835404028352916020019162000fe6565b820191906000526020600020905b81548152906001019060200180831162000fc857829003601f168201915b50505050509080600201805462000ffd9062001f56565b80601f01602080910402602001604051908101604052809291908181526020018280546200102b9062001f56565b80156200107c5780601f1062001050576101008083540402835291602001916200107c565b820191906000526020600020905b8154815290600101906020018083116200105e57829003601f168201915b505050506003830154600484015460058501546006860180549596939592945060ff8216936101009092046001600160a01b031692620010bc9062001f56565b80601f0160208091040260200160405190810160405280929190818152602001828054620010ea9062001f56565b80156200113b5780601f106200110f576101008083540402835291602001916200113b565b820191906000526020600020905b8154815290600101906020018083116200111d57829003601f168201915b5050505050905088565b60006200115162001867565b600654341015620011a55760405162461bcd60e51b815260206004820152601960248201527f496e73756666696369656e74206372656174696f6e206665650000000000000060448201526064016200059c565b428411620011f65760405162461bcd60e51b815260206004820152601d60248201527f4578706972792074696d65206d75737420626520696e2066757475726500000060448201526064016200059c565b6002855110156200124a5760405162461bcd60e51b815260206004820152601d60248201527f4d7573742068617665206174206c656173742032206f7574636f6d657300000060448201526064016200059c565b6000875111620012955760405162461bcd60e51b81526020600482015260156024820152745469746c652063616e6e6f7420626520656d70747960581b60448201526064016200059c565b60008787878733600760009054906101000a90046001600160a01b03168830604051620012c290620018eb565b620012d598979695949392919062001fc4565b604051809103906000f080158015620012f2573d6000803e3d6000fd5b506005805491925060009190826200130a8362001fa8565b9091555060408051610100810182526001600160a01b03858116825260208083018e81528385018e9052426060850152608084018c9052600160a085018190523360c086015260e085018c90526000878152600290935294909120835181546001600160a01b03191693169290921782555193945090929091820190620013929082620020f2565b5060408201516002820190620013a99082620020f2565b50606082015160038201556080820151600482015560a082015160058201805460c08501516001600160a01b031661010002610100600160a81b0319931515939093166001600160a81b03199091161791909117905560e08201516006820190620014159082620020f2565b50503360009081526003602090815260408083208054600181018255908452919092200183905551600491506200144e90879062001ef6565b9081526040519081900360209081018220805460018101825560009182529190200182905533906001600160a01b0384169083907fcaafea989968011e03debffc528ce1e84144256402182734af77831433360d8290620014b5908e908b908d90620021bf565b60405180910390a4509050620014ca60018055565b9695505050505050565b6001600160a01b0381166000908152600360209081526040918290208054835181840281018401909452808452606093928301828280156200077d5760200282019190600052602060002090815481526020019060010190808311620007685750505050509050919050565b600360205281600052604060002081815481106200053c57600080fd5b6200156762001892565b6000828152600260209081526040918290208251610100810190935280546001600160a01b031683526001810180549192840191620015a69062001f56565b80601f0160208091040260200160405190810160405280929190818152602001828054620015d49062001f56565b8015620016255780601f10620015f95761010080835404028352916020019162001625565b820191906000526020600020905b8154815290600101906020018083116200160757829003601f168201915b50505050508152602001600282018054620016409062001f56565b80601f01602080910402602001604051908101604052809291908181526020018280546200166e9062001f56565b8015620016bf5780601f106200169357610100808354040283529160200191620016bf565b820191906000526020600020905b815481529060010190602001808311620016a157829003601f168201915b50505091835250506003820154602082015260048201546040820152600582015460ff81161515606083015261010090046001600160a01b0316608082015260068201805460a090920191620017159062001f56565b80601f0160208091040260200160405190810160405280929190818152602001828054620017439062001f56565b8015620017945780601f10620017685761010080835404028352916020019162001794565b820191906000526020600020905b8154815290600101906020018083116200177657829003601f168201915b5050505050815250509050919050565b620017ae620017e8565b6001600160a01b038116620017da57604051631e4fbdf760e01b8152600060048201526024016200059c565b620017e58162001817565b50565b6000546001600160a01b031633146200065e5760405163118cdaa760e01b81523360048201526024016200059c565b600080546001600160a01b038381166001600160a01b0319831681178455604051919092169283917f8be0079c531659141344cd1fd0a4f28419497f9722a3daafe3b4186f6b6457e09190a35050565b6002600154036200188b57604051633ee5aeb560e01b815260040160405180910390fd5b6002600155565b60405180610100016040528060006001600160a01b031681526020016060815260200160608152602001600081526020016000815260200160001515815260200160006001600160a01b03168152602001606081525090565b61280e80620021fa83390190565b80356001600160a01b03811681146200191157600080fd5b919050565b600080604083850312156200192a57600080fd5b823591506200193c60208401620018f9565b90509250929050565b634e487b7160e01b600052604160045260246000fd5b604051601f8201601f1916810167ffffffffffffffff8111828210171562001987576200198762001945565b604052919050565b600082601f830112620019a157600080fd5b813567ffffffffffffffff811115620019be57620019be62001945565b620019d3601f8201601f19166020016200195b565b818152846020838601011115620019e957600080fd5b816020850160208301376000918101602001919091529392505050565b6000806040838503121562001a1a57600080fd5b823567ffffffffffffffff81111562001a3257600080fd5b62001a40858286016200198f565b95602094909401359450505050565b60006020828403121562001a6257600080fd5b5035919050565b60006020828403121562001a7c57600080fd5b813567ffffffffffffffff81111562001a9457600080fd5b62001aa2848285016200198f565b949350505050565b6020808252825182820181905260009190848201906040850190845b8181101562001ae45783518352928401929184019160010162001ac6565b50909695505050505050565b6000806040838503121562001b0457600080fd5b50508035926020909101359150565b60005b8381101562001b3057818101518382015260200162001b16565b50506000910152565b6000815180845262001b5381602086016020860162001b13565b601f01601f19169290920160200192915050565b600061010060018060a01b038351168452602083015181602086015262001b918286018262001b39565b9150506040830151848203604086015262001bad828262001b39565b915050606083015160608501526080830151608085015260a083015162001bd860a086018215159052565b5060c083015162001bf460c08601826001600160a01b03169052565b5060e083015184820360e086015262001c0e828262001b39565b95945050505050565b6000602080830181845280855180835260408601915060408160051b870101925083870160005b8281101562001c7057603f1988860301845262001c5d85835162001b67565b9450928501929085019060010162001c3e565b5092979650505050505050565b60006020828403121562001c9057600080fd5b62001c9b82620018f9565b9392505050565b6001600160a01b0389811682526101006020830181905260009162001cca8483018c62001b39565b9150838203604085015262001ce0828b62001b39565b915088606085015287608085015286151560a085015280861660c08501525082810360e084015262001d13818562001b39565b9b9a5050505050505050505050565b600082601f83011262001d3457600080fd5b8135602067ffffffffffffffff8083111562001d545762001d5462001945565b8260051b62001d658382016200195b565b938452858101830193838101908886111562001d8057600080fd5b84880192505b8583101562001dc15782358481111562001da05760008081fd5b62001db08a87838c01016200198f565b835250918401919084019062001d86565b98975050505050505050565b803560ff811681146200191157600080fd5b60008060008060008060c0878903121562001df957600080fd5b863567ffffffffffffffff8082111562001e1257600080fd5b62001e208a838b016200198f565b9750602089013591508082111562001e3757600080fd5b62001e458a838b016200198f565b9650604089013591508082111562001e5c57600080fd5b62001e6a8a838b0162001d22565b955060608901359450608089013591508082111562001e8857600080fd5b5062001e9789828a016200198f565b92505062001ea860a0880162001dcd565b90509295509295509295565b6000806040838503121562001ec857600080fd5b62001ed383620018f9565b946020939093013593505050565b60208152600062001c9b602083018462001b67565b6000825162001f0a81846020870162001b13565b9190910192915050565b634e487b7160e01b600052601160045260246000fd5b8082018082111562000af05762000af062001f14565b8181038181111562000af05762000af062001f14565b600181811c9082168062001f6b57607f821691505b60208210810362001f8c57634e487b7160e01b600052602260045260246000fd5b50919050565b634e487b7160e01b600052603260045260246000fd5b60006001820162001fbd5762001fbd62001f14565b5060010190565b600061010080835262001fda8184018c62001b39565b905060208382038185015262001ff1828c62001b39565b91508382036040850152818a518084528284019150828160051b850101838d0160005b838110156200204657601f198784030185526200203383835162001b39565b9486019492509085019060010162002014565b5050606087018c90526001600160a01b038b16608088015294506200206b9350505050565b6001600160a01b03851660a083015260ff841660c08301526001600160a01b03831660e08301529998505050505050505050565b601f821115620020ed57600081815260208120601f850160051c81016020861015620020c85750805b601f850160051c820191505b81811015620020e957828155600101620020d4565b5050505b505050565b815167ffffffffffffffff8111156200210f576200210f62001945565b620021278162002120845462001f56565b846200209f565b602080601f8311600181146200215f5760008415620021465750858301515b600019600386901b1c1916600185901b178555620020e9565b600085815260208120601f198616915b8281101562002190578886015182559484019460019091019084016200216f565b5085821015620021af5787850151600019600388901b60f8161c191681555b5050505050600190811b01905550565b606081526000620021d4606083018662001b39565b8281036020840152620021e8818662001b39565b91505082604083015294935050505056fe60806040523480156200001157600080fd5b506040516200280e3803806200280e8339810160408190526200003491620003ff565b6001600055855160021115620000915760405162461bcd60e51b815260206004820152601860248201527f4e656564206174206c656173742032206f7574636f6d6573000000000000000060448201526064015b60405180910390fd5b428511620000e25760405162461bcd60e51b815260206004820152601860248201527f457870697279206d75737420626520696e206675747572650000000000000000604482015260640162000088565b6002620000f0898262000574565b506003620000ff888262000574565b506005859055600680546001600160a01b038087166001600160a01b031992831617909255600880549286169290911691909117905560ff821660028111156200014d576200014d62000640565b6008805460ff60a01b1916600160a01b83600281111562000172576200017262000640565b0217905550600780546001600160a01b0319166001600160a01b0383161790556008805460ff60a81b1916905560fa600c5560005b8651811015620002415760046040518060600160405280898481518110620001d357620001d362000656565b60209081029190910181015182526000828201819052604090920182905283546001810185559382529020815191926003020190819062000215908262000574565b50602082015160018201556040909101516002909101558062000238816200066c565b915050620001a7565b50505050505050505062000694565b634e487b7160e01b600052604160045260246000fd5b604051601f8201601f191681016001600160401b038111828210171562000291576200029162000250565b604052919050565b600082601f830112620002ab57600080fd5b81516001600160401b03811115620002c757620002c762000250565b6020620002dd601f8301601f1916820162000266565b8281528582848701011115620002f257600080fd5b60005b8381101562000312578581018301518282018401528201620002f5565b506000928101909101919091529392505050565b600082601f8301126200033857600080fd5b815160206001600160401b038083111562000357576200035762000250565b8260051b6200036883820162000266565b93845285810183019383810190888611156200038357600080fd5b84880192505b85831015620003c457825184811115620003a35760008081fd5b620003b38a87838c010162000299565b835250918401919084019062000389565b98975050505050505050565b80516001600160a01b0381168114620003e857600080fd5b919050565b805160ff81168114620003e857600080fd5b600080600080600080600080610100898b0312156200041d57600080fd5b88516001600160401b03808211156200043557600080fd5b620004438c838d0162000299565b995060208b01519150808211156200045a57600080fd5b620004688c838d0162000299565b985060408b01519150808211156200047f57600080fd5b506200048e8b828c0162000326565b96505060608901519450620004a660808a01620003d0565b9350620004b660a08a01620003d0565b9250620004c660c08a01620003ed565b9150620004d660e08a01620003d0565b90509295985092959890939650565b600181811c90821680620004fa57607f821691505b6020821081036200051b57634e487b7160e01b600052602260045260246000fd5b50919050565b601f8211156200056f57600081815260208120601f850160051c810160208610156200054a5750805b601f850160051c820191505b818110156200056b5782815560010162000556565b5050505b505050565b81516001600160401b0381111562000590576200059062000250565b620005a881620005a18454620004e5565b8462000521565b602080601f831160018114620005e05760008415620005c75750858301515b600019600386901b1c1916600185901b1785556200056b565b600085815260208120601f198616915b828110156200061157888601518255948401946001909101908401620005f0565b5085821015620006305787850151600019600388901b60f8161c191681555b5050505050600190811b01905550565b634e487b7160e01b600052602160045260246000fd5b634e487b7160e01b600052603260045260246000fd5b6000600182016200068d57634e487b7160e01b600052601160045260246000fd5b5060010190565b61216a80620006a46000396000f3fe6080604052600436106101ee5760003560e01c8063719de1ef1161010d578063a89ae4ba116100a0578063c75bb7241161006f578063c75bb724146105c5578063cf2b9f48146105e5578063eeca08f014610605578063eed2a1471461061b578063f3e41e901461064a57600080fd5b8063a89ae4ba14610540578063b4fb3ee314610560578063b88a802f14610590578063c45a0155146105a557600080fd5b80638456cb59116100dc5780638456cb59146104ec57806387abac111461050157806399bc0aea146105145780639b34ae031461052a57600080fd5b8063719de1ef146104485780637284e416146104755780638029c0711461048a5780638068aa68146104aa57600080fd5b80633d3db8eb116101855780635aa68ac0116101545780635aa68ac0146103cc5780635c975abb146103ee5780635f81a57c1461041257806364ff1cb31461042857600080fd5b80633d3db8eb146103515780633f4ba83a146103735780634a79d50c146103885780634c5be574146103aa57600080fd5b806320fdfc9b116101c157806320fdfc9b146102a157806323341a05146102dc5780632d56657d1461030457806335c1d3491461033157600080fd5b806302d05d3f146101f35780630d623e101461023057806310fe7c481461025e578063200d2ed214610273575b600080fd5b3480156101ff57600080fd5b50600654610213906001600160a01b031681565b6040516001600160a01b0390911681526020015b60405180910390f35b34801561023c57600080fd5b5060085461025190600160a01b900460ff1681565b6040516102279190611bf6565b61027161026c366004611c10565b610660565b005b34801561027f57600080fd5b5060085461029490600160a81b900460ff1681565b6040516102279190611c3d565b3480156102ad57600080fd5b506102ce6102bc366004611c10565b600f6020526000908152604090205481565b604051908152602001610227565b3480156102e857600080fd5b506102f1610988565b6040516102279796959493929190611c97565b34801561031057600080fd5b5061032461031f366004611d09565b610ae8565b6040516102279190611d2b565b34801561033d57600080fd5b5061021361034c366004611c10565b610b84565b34801561035d57600080fd5b50610366610bae565b6040516102279190611d91565b34801561037f57600080fd5b50610271610cb3565b34801561039457600080fd5b5061039d610d1b565b6040516102279190611e12565b3480156103b657600080fd5b506103bf610da9565b6040516102279190611e25565b3480156103d857600080fd5b506103e1610ecc565b6040516102279190611e69565b3480156103fa57600080fd5b5060015460ff165b6040519015158152602001610227565b34801561041e57600080fd5b506102ce60095481565b34801561043457600080fd5b50610271610443366004611f4d565b610f2e565b34801561045457600080fd5b506102ce610463366004611d09565b600e6020526000908152604090205481565b34801561048157600080fd5b5061039d611113565b34801561049657600080fd5b506104026104a5366004611d09565b611120565b3480156104b657600080fd5b506104ca6104c5366004611f82565b611161565b6040805194855260208501939093529183015215156060820152608001610227565b3480156104f857600080fd5b506102716111aa565b61027161050f366004611f4d565b611210565b34801561052057600080fd5b506102ce60055481565b34801561053657600080fd5b506102ce600a5481565b34801561054c57600080fd5b50600854610213906001600160a01b031681565b34801561056c57600080fd5b5061040261057b366004611d09565b60116020526000908152604090205460ff1681565b34801561059c57600080fd5b50610271611375565b3480156105b157600080fd5b50600754610213906001600160a01b031681565b3480156105d157600080fd5b506102716105e0366004611fac565b611719565b3480156105f157600080fd5b506102ce610600366004611d09565b6118b1565b34801561061157600080fd5b506102ce600c5481565b34801561062757600080fd5b5061063b610636366004611c10565b611a20565b60405161022793929190611ff3565b34801561065657600080fd5b506102ce600b5481565b610668611ae2565b6000600854600160a81b900460ff16600381111561068857610688611be0565b146106ae5760405162461bcd60e51b81526004016106a590612018565b60405180910390fd5b60055442106106f05760405162461bcd60e51b815260206004820152600e60248201526d13585c9ad95d08195e1c1a5c995960921b60448201526064016106a5565b6106f8611b0c565b600454811061073b5760405162461bcd60e51b815260206004820152600f60248201526e496e76616c6964206f7574636f6d6560881b60448201526064016106a5565b6000341161078b5760405162461bcd60e51b815260206004820152601b60248201527f42657420616d6f756e74206d75737420626520706f736974697665000000000060448201526064016106a5565b336000908152600d602090815260408083208151608081018352348082528185018781524294830194855260608301878152845460018082018755958952969097209251600496870290930192835551928201929092559151600283015592516003909101805460ff191691151591909117905580548390811061081157610811612043565b90600052602060002090600302016001016000828254610831919061206f565b9091555050600480548290811061084a5761084a612043565b60009182526020822060026003909202010180549161086883612082565b90915550506000818152600f60205260408120805434929061088b90849061206f565b9091555050336000908152600e6020526040812080543492906108af90849061206f565b9250508190555034600960008282546108c8919061206f565b90915550503360009081526011602052604090205460ff1661093f576010805460018181019092557f1b6847dc741a1b0cd08d278845f9d819d87b734759afb55fe2de5cb82a9ae6720180546001600160a01b031916339081179091556000908152601160205260409020805460ff191690911790555b60408051348152426020820152829133917f7363e6581df4db69463222156be4a09656528b9f1302890fa4c0b60819b69fc6910160405180910390a36109856001600055565b50565b606080600080600080600060026003600954600554600860159054906101000a900460ff166010805490506004805490508680546109c59061209b565b80601f01602080910402602001604051908101604052809291908181526020018280546109f19061209b565b8015610a3e5780601f10610a1357610100808354040283529160200191610a3e565b820191906000526020600020905b815481529060010190602001808311610a2157829003601f168201915b50505050509650858054610a519061209b565b80601f0160208091040260200160405190810160405280929190818152602001828054610a7d9061209b565b8015610aca5780601f10610a9f57610100808354040283529160200191610aca565b820191906000526020600020905b815481529060010190602001808311610aad57829003601f168201915b50505050509550965096509650965096509650965090919293949596565b6001600160a01b0381166000908152600d60209081526040808320805482518185028101850190935280835260609492939192909184015b82821015610b79576000848152602090819020604080516080810182526004860290920180548352600180820154848601526002820154928401929092526003015460ff16151560608301529083529092019101610b20565b505050509050919050565b60108181548110610b9457600080fd5b6000918252602090912001546001600160a01b0316905081565b60606004805480602002602001604051908101604052809291908181526020016000905b82821015610caa5783829060005260206000209060030201604051806060016040529081600082018054610c059061209b565b80601f0160208091040260200160405190810160405280929190818152602001828054610c319061209b565b8015610c7e5780601f10610c5357610100808354040283529160200191610c7e565b820191906000526020600020905b815481529060010190602001808311610c6157829003601f168201915b505050505081526020016001820154815260200160028201548152505081526020019060010190610bd2565b50505050905090565b6006546001600160a01b0316331480610cd657506007546001600160a01b031633145b610d115760405162461bcd60e51b815260206004820152600c60248201526b155b985d5d1a1bdc9a5e995960a21b60448201526064016106a5565b610d19611b30565b565b60028054610d289061209b565b80601f0160208091040260200160405190810160405280929190818152602001828054610d549061209b565b8015610da15780601f10610d7657610100808354040283529160200191610da1565b820191906000526020600020905b815481529060010190602001808311610d8457829003601f168201915b505050505081565b60045460609060009067ffffffffffffffff811115610dca57610dca611eaa565b604051908082528060200260200182016040528015610df3578160200160208202803683370190505b509050600954600003610e515760005b600454811015610e4b57600454610e1c906127106120cf565b828281518110610e2e57610e2e612043565b602090810291909101015280610e4381612082565b915050610e03565b50919050565b60005b600454811015610e4b5760095460048281548110610e7457610e74612043565b906000526020600020906003020160010154612710610e9391906120f1565b610e9d91906120cf565b828281518110610eaf57610eaf612043565b602090810291909101015280610ec481612082565b915050610e54565b60606010805480602002602001604051908101604052809291908181526020018280548015610f2457602002820191906000526020600020905b81546001600160a01b03168152600190910190602001808311610f06575b5050505050905090565b6007546001600160a01b03163314610f7f5760405162461bcd60e51b815260206004820152601460248201527313db9b1e48199858dd1bdc9e48185b1b1bddd95960621b60448201526064016106a5565b6000600854600160a81b900460ff166003811115610f9f57610f9f611be0565b14610fbc5760405162461bcd60e51b81526004016106a590612018565b6008805460ff60a81b1916600360a81b17905560005b6010548110156110d657600060108281548110610ff157610ff1612043565b60009182526020808320909101546001600160a01b0316808352600e90915260409091205490915080156110c1576001600160a01b0382166000818152600e60205260408082208290555190919083908381818185875af1925050503d8060008114611079576040519150601f19603f3d011682016040523d82523d6000602084013e61107e565b606091505b50509050806110bf5760405162461bcd60e51b815260206004820152600d60248201526c1499599d5b990819985a5b1959609a1b60448201526064016106a5565b505b505080806110ce90612082565b915050610fd2565b507f4c4561c5b0048424071c1115e9f1e325486e21c21333d968f21097b7b72d12ad4282604051611108929190612108565b60405180910390a150565b60038054610d289061209b565b60006001600854600160a81b900460ff16600381111561114257611142611be0565b1461114f57506000919050565b600061115a836118b1565b1192915050565b600d602052816000526040600020818154811061117d57600080fd5b60009182526020909120600490910201805460018201546002830154600390930154919450925060ff1684565b6006546001600160a01b03163314806111cd57506007546001600160a01b031633145b6112085760405162461bcd60e51b815260206004820152600c60248201526b155b985d5d1a1bdc9a5e995960a21b60448201526064016106a5565b610d19611b82565b6001600854600160a81b900460ff16600381111561123057611230611be0565b146112735760405162461bcd60e51b815260206004820152601360248201527213585c9ad95d081b9bdd081c995cdbdb1d9959606a1b60448201526064016106a5565b600b546112839062093a8061206f565b4211156112cb5760405162461bcd60e51b8152602060048201526016602482015275111a5cdc1d5d19481c195c9a5bd908195e1c1a5c995960521b60448201526064016106a5565b67016345785d8a00003410156113235760405162461bcd60e51b815260206004820152601960248201527f496e73756666696369656e74206469737075746520626f6e640000000000000060448201526064016106a5565b6008805460ff60a81b1916600160a91b17905560405133907fa552416225d3047eceaa265d9762310e2fdd111aaf18a172236982ae9fadfe279061136a9042908590612108565b60405180910390a250565b61137d611ae2565b6001600854600160a81b900460ff16600381111561139d5761139d611be0565b146113e05760405162461bcd60e51b815260206004820152601360248201527213585c9ad95d081b9bdd081c995cdbdb1d9959606a1b60448201526064016106a5565b336000908152600d602052604090205461142c5760405162461bcd60e51b815260206004820152600d60248201526c139bc818995d1cc8199bdd5b99609a1b60448201526064016106a5565b6000611437336118b1565b90506000811161147f5760405162461bcd60e51b81526020600482015260136024820152724e6f207265776172647320746f20636c61696d60681b60448201526064016106a5565b60005b336000908152600d602052604090205481101561157057600a54336000908152600d602052604090208054839081106114bd576114bd612043565b9060005260206000209060040201600101541480156115115750336000908152600d602052604090208054829081106114f8576114f8612043565b600091825260209091206003600490920201015460ff16155b1561155e57336000908152600d602052604090208054600191908390811061153b5761153b612043565b60009182526020909120600490910201600301805460ff19169115159190911790555b8061156881612082565b915050611482565b506000612710600c548361158491906120f1565b61158e91906120cf565b9050600061159c8284612121565b604051909150600090339083908381818185875af1925050503d80600081146115e1576040519150601f19603f3d011682016040523d82523d6000602084013e6115e6565b606091505b50509050806116305760405162461bcd60e51b815260206004820152601660248201527514995dd85c99081d1c985b9cd9995c8819985a5b195960521b60448201526064016106a5565b82156116d1576007546040516000916001600160a01b03169085908381818185875af1925050503d8060008114611683576040519150601f19603f3d011682016040523d82523d6000602084013e611688565b606091505b50509050806116cf5760405162461bcd60e51b8152602060048201526013602482015272119959481d1c985b9cd9995c8819985a5b1959606a1b60448201526064016106a5565b505b6040805183815242602082015233917ff01da32686223933d8a18a391060918c7f11a3648639edd87ae013e2e2731743910160405180910390a250505050610d196001600055565b6008546001600160a01b031633146117695760405162461bcd60e51b815260206004820152601360248201527213db9b1e481bdc9858db1948185b1b1bddd959606a1b60448201526064016106a5565b611771611ae2565b6000600854600160a81b900460ff16600381111561179157611791611be0565b146117ae5760405162461bcd60e51b81526004016106a590612018565b6005544210156117f95760405162461bcd60e51b815260206004820152601660248201527513585c9ad95d081b9bdd08195e1c1a5c9959081e595d60521b60448201526064016106a5565b600454821061184a5760405162461bcd60e51b815260206004820152601760248201527f496e76616c69642077696e6e696e67206f7574636f6d6500000000000000000060448201526064016106a5565b6008805460ff60a81b1916600160a81b179055600a82905542600b81905560405183917f230e0c4260efa5ac59d08aaabf3711693fe4f1df54fcb28cc4981a800e5863069161189b91908590612108565b60405180910390a26118ad6001600055565b5050565b60006001600854600160a81b900460ff1660038111156118d3576118d3611be0565b146118e057506000919050565b6000805b6001600160a01b0384166000908152600d60205260409020548110156119b0576001600160a01b0384166000908152600d6020526040812080548390811061192e5761192e612043565b60009182526020918290206040805160808101825260049093029091018054835260018101549383018490526002810154918301919091526003015460ff1615156060820152600a5490925014801561198957508060600151155b1561199d57805161199a908461206f565b92505b50806119a881612082565b9150506118e4565b50806000036119c25750600092915050565b60006004600a54815481106119d9576119d9612043565b9060005260206000209060030201600101549050806000036119ff575060009392505050565b8060095483611a0e91906120f1565b611a1891906120cf565b949350505050565b60048181548110611a3057600080fd5b9060005260206000209060030201600091509050806000018054611a539061209b565b80601f0160208091040260200160405190810160405280929190818152602001828054611a7f9061209b565b8015611acc5780601f10611aa157610100808354040283529160200191611acc565b820191906000526020600020905b815481529060010190602001808311611aaf57829003601f168201915b5050505050908060010154908060020154905083565b600260005403611b0557604051633ee5aeb560e01b815260040160405180910390fd5b6002600055565b60015460ff1615610d195760405163d93c066560e01b815260040160405180910390fd5b611b38611bbd565b6001805460ff191690557f5db9ee0a495bf2e6ff9c91a7834c1ba4fdd244a5e8aa4e537bd38aeae4b073aa335b6040516001600160a01b03909116815260200160405180910390a1565b611b8a611b0c565b6001805460ff1916811790557f62e78cea01bee320cd4e420270b5ea74000d11b0c9f74754ebdbfc544b05a25833611b65565b60015460ff16610d1957604051638dfc202b60e01b815260040160405180910390fd5b634e487b7160e01b600052602160045260246000fd5b6020810160038310611c0a57611c0a611be0565b91905290565b600060208284031215611c2257600080fd5b5035919050565b60048110611c3957611c39611be0565b9052565b60208101611c4b8284611c29565b92915050565b6000815180845260005b81811015611c7757602081850181015186830182015201611c5b565b506000602082860101526020601f19601f83011685010191505092915050565b60e081526000611caa60e083018a611c51565b8281036020840152611cbc818a611c51565b915050866040830152856060830152611cd86080830186611c29565b60a082019390935260c0015295945050505050565b80356001600160a01b0381168114611d0457600080fd5b919050565b600060208284031215611d1b57600080fd5b611d2482611ced565b9392505050565b602080825282518282018190526000919060409081850190868401855b82811015611d84578151805185528681015187860152858101518686015260609081015115159085015260809093019290850190600101611d48565b5091979650505050505050565b60006020808301818452808551808352604092508286019150828160051b87010184880160005b83811015611e0457603f19898403018552815160608151818652611dde82870182611c51565b838b0151878c015292890151958901959095525094870194925090860190600101611db8565b509098975050505050505050565b602081526000611d246020830184611c51565b6020808252825182820181905260009190848201906040850190845b81811015611e5d57835183529284019291840191600101611e41565b50909695505050505050565b6020808252825182820181905260009190848201906040850190845b81811015611e5d5783516001600160a01b031683529284019291840191600101611e85565b634e487b7160e01b600052604160045260246000fd5b600082601f830112611ed157600080fd5b813567ffffffffffffffff80821115611eec57611eec611eaa565b604051601f8301601f19908116603f01168101908282118183101715611f1457611f14611eaa565b81604052838152866020858801011115611f2d57600080fd5b836020870160208301376000602085830101528094505050505092915050565b600060208284031215611f5f57600080fd5b813567ffffffffffffffff811115611f7657600080fd5b611a1884828501611ec0565b60008060408385031215611f9557600080fd5b611f9e83611ced565b946020939093013593505050565b60008060408385031215611fbf57600080fd5b82359150602083013567ffffffffffffffff811115611fdd57600080fd5b611fe985828601611ec0565b9150509250929050565b6060815260006120066060830186611c51565b60208301949094525060400152919050565b6020808252601190820152704d61726b6574206e6f742061637469766560781b604082015260600190565b634e487b7160e01b600052603260045260246000fd5b634e487b7160e01b600052601160045260246000fd5b80820180821115611c4b57611c4b612059565b60006001820161209457612094612059565b5060010190565b600181811c908216806120af57607f821691505b602082108103610e4b57634e487b7160e01b600052602260045260246000fd5b6000826120ec57634e487b7160e01b600052601260045260246000fd5b500490565b8082028115828204841417611c4b57611c4b612059565b828152604060208201526000611a186040830184611c51565b81810381811115611c4b57611c4b61205956fea26469706673582212204b17e6cf223ce5987b7a05a3f7ff56cec4333e2fa54649571f4dea8c16d53e5764736f6c63430008140033a26469706673582212208831ce22d18af53902f9f69960e8b5b5d6eabdc76c8f401ba86cab172f320ce764736f6c63430008140033",
  "linkReferences": {},
  "deployedLinkReferences": {}
}