{
  "_format": "hh-sol-artifact-1",
  "contractName": "PredictionMarket",
  "sourceName": "contracts/PredictionMarket.sol",
  "abi": [
    {
      "inputs": [
        {
          "internalType": "string",
          "name": "_title",
          "type": "string"
        },
        {
          "internalType": "string",
          "name": "_description",
          "type": "string"
        },
        {
          "internalType": "string[]",
          "name": "_outcomes",
          "type": "string[]"
        },
        {
          "internalType": "uint256",
          "name": "_expiryTime",
          "type": "uint256"
        },
        {
          "internalType": "address",
          "name": "_creator",
          "type": "address"
        },
        {
          "internalType": "address",
          "name": "_oracleAddress",
          "type": "address"
        },
        {
          "internalType": "uint8",
          "name": "_oracleType",
          "type": "uint8"
        },
        {
          "internalType": "address",
          "name": "_factory",
          "type": "address"
        }
      ],
      "stateMutability": "nonpayable",
      "type": "constructor"
    },
    {
      "inputs": [],
      "name": "EnforcedPause",
      "type": "error"
    },
    {
      "inputs": [],
      "name": "ExpectedPause",
      "type": "error"
    },
    {
      "inputs": [],
      "name": "ReentrancyGuardReentrantCall",
      "type": "error"
    },
    {
      "anonymous": false,
      "inputs": [
        {
          "indexed": true,
          "internalType": "address",
          "name": "user",
          "type": "address"
        },
        {
          "indexed": true,
          "internalType": "uint256",
          "name": "outcome",
          "type": "uint256"
        },
        {
          "indexed": false,
          "internalType": "uint256",
          "name": "amount",
          "type": "uint256"
        },
        {
          "indexed": false,
          "internalType": "uint256",
          "name": "timestamp",
          "type": "uint256"
        }
      ],
      "name": "BetPlaced",
      "type": "event"
    },
    {
      "anonymous": false,
      "inputs": [
        {
          "indexed": false,
          "internalType": "uint256",
          "name": "timestamp",
          "type": "uint256"
        },
        {
          "indexed": false,
          "internalType": "string",
          "name": "reason",
          "type": "string"
        }
      ],
      "name": "MarketCancelled",
      "type": "event"
    },
    {
      "anonymous": false,
      "inputs": [
        {
          "indexed": true,
          "internalType": "address",
          "name": "disputer",
          "type": "address"
        },
        {
          "indexed": false,
          "internalType": "uint256",
          "name": "timestamp",
          "type": "uint256"
        },
        {
          "indexed": false,
          "internalType": "string",
          "name": "reason",
          "type": "string"
        }
      ],
      "name": "MarketDisputed",
      "type": "event"
    },
    {
      "anonymous": false,
      "inputs": [
        {
          "indexed": true,
          "internalType": "uint256",
          "name": "winningOutcome",
          "type": "uint256"
        },
        {
          "indexed": false,
          "internalType": "uint256",
          "name": "timestamp",
          "type": "uint256"
        },
        {
          "indexed": false,
          "internalType": "string",
          "name": "resolution",
          "type": "string"
        }
      ],
      "name": "MarketResolved",
      "type": "event"
    },
    {
      "anonymous": false,
      "inputs": [
        {
          "indexed": false,
          "internalType": "address",
          "name": "account",
          "type": "address"
        }
      ],
      "name": "Paused",
      "type": "event"
    },
    {
      "anonymous": false,
      "inputs": [
        {
          "indexed": true,
          "internalType": "address",
          "name": "user",
          "type": "address"
        },
        {
          "indexed": false,
          "internalType": "uint256",
          "name": "amount",
          "type": "uint256"
        },
        {
          "indexed": false,
          "internalType": "uint256",
          "name": "timestamp",
          "type": "uint256"
        }
      ],
      "name": "RewardClaimed",
      "type": "event"
    },
    {
      "anonymous": false,
      "inputs": [
        {
          "indexed": false,
          "internalType": "address",
          "name": "account",
          "type": "address"
        }
      ],
      "name": "Unpaused",
      "type": "event"
    },
    {
      "inputs": [
        {
          "internalType": "address",
          "name": "_user",
          "type": "address"
        }
      ],
      "name": "calculateUserReward",
      "outputs": [
        {
          "internalType": "uint256",
          "name": "",
          "type": "uint256"
        }
      ],
      "stateMutability": "view",
      "type": "function"
    },
    {
      "inputs": [
        {
          "internalType": "string",
          "name": "_reason",
          "type": "string"
        }
      ],
      "name": "cancelMarket",
      "outputs": [],
      "stateMutability": "nonpayable",
      "type": "function"
    },
    {
      "inputs": [],
      "name": "claimReward",
      "outputs": [],
      "stateMutability": "nonpayable",
      "type": "function"
    },
    {
      "inputs": [],
      "name": "creator",
      "outputs": [
        {
          "internalType": "address",
          "name": "",
          "type": "address"
        }
      ],
      "stateMutability": "view",
      "type": "function"
    },
    {
      "inputs": [],
      "name": "description",
      "outputs": [
        {
          "internalType": "string",
          "name": "",
          "type": "string"
        }
      ],
      "stateMutability": "view",
      "type": "function"
    },
    {
      "inputs": [
        {
          "internalType": "string",
          "name": "_reason",
          "type": "string"
        }
      ],
      "name": "disputeMarket",
      "outputs": [],
      "stateMutability": "payable",
      "type": "function"
    },
    {
      "inputs": [],
      "name": "expiryTime",
      "outputs": [
        {
          "internalType": "uint256",
          "name": "",
          "type": "uint256"
        }
      ],
      "stateMutability": "view",
      "type": "function"
    },
    {
      "inputs": [],
      "name": "factory",
      "outputs": [
        {
          "internalType": "address",
          "name": "",
          "type": "address"
        }
      ],
      "stateMutability": "view",
      "type": "function"
    },
    {
      "inputs": [],
      "name": "getMarketInfo",
      "outputs": [
        {
          "internalType": "string",
          "name": "_title",
          "type": "string"
        },
        {
          "internalType": "string",
          "name": "_description",
          "type": "string"
        },
        {
          "internalType": "uint256",
          "name": "_totalVolume",
          "type": "uint256"
        },
        {
          "internalType": "uint256",
          "name": "_expiryTime",
          "type": "uint256"
        },
        {
          "internalType": "enum PredictionMarket.MarketStatus",
          "name": "_status",
          "type": "uint8"
        },
        {
          "internalType": "uint256",
          "name": "_participantCount",
          "type": "uint256"
        },
        {
          "internalType": "uint256",
          "name": "_outcomeCount",
          "type": "uint256"
        }
      ],
      "stateMutability": "view",
      "type": "function"
    },
    {
      "inputs": [],
      "name": "getOdds",
      "outputs": [
        {
          "internalType": "uint256[]",
          "name": "",
          "type": "uint256[]"
        }
      ],
      "stateMutability": "view",
      "type": "function"
    },
    {
      "inputs": [],
      "name": "getOutcomes",
      "outputs": [
        {
          "components": [
            {
              "internalType": "string",
              "name": "name",
              "type": "string"
            },
            {
              "internalType": "uint256",
              "name": "totalStaked",
              "type": "uint256"
            },
            {
              "internalType": "uint256",
              "name": "betCount",
              "type": "uint256"
            }
          ],
          "internalType": "struct PredictionMarket.Outcome[]",
          "name": "",
          "type": "tuple[]"
        }
      ],
      "stateMutability": "view",
      "type": "function"
    },
    {
      "inputs": [],
      "name": "getParticipants",
      "outputs": [
        {
          "internalType": "address[]",
          "name": "",
          "type": "address[]"
        }
      ],
      "stateMutability": "view",
      "type": "function"
    },
    {
      "inputs": [
        {
          "internalType": "address",
          "name": "_user",
          "type": "address"
        }
      ],
      "name": "getUserBets",
      "outputs": [
        {
          "components": [
            {
              "internalType": "uint256",
              "name": "amount",
              "type": "uint256"
            },
            {
              "internalType": "uint256",
              "name": "outcome",
              "type": "uint256"
            },
            {
              "internalType": "uint256",
              "name": "timestamp",
              "type": "uint256"
            },
            {
              "internalType": "bool",
              "name": "claimed",
              "type": "bool"
            }
          ],
          "internalType": "struct PredictionMarket.Bet[]",
          "name": "",
          "type": "tuple[]"
        }
      ],
      "stateMutability": "view",
      "type": "function"
    },
    {
      "inputs": [
        {
          "internalType": "address",
          "name": "",
          "type": "address"
        }
      ],
      "name": "hasParticipated",
      "outputs": [
        {
          "internalType": "bool",
          "name": "",
          "type": "bool"
        }
      ],
      "stateMutability": "view",
      "type": "function"
    },
    {
      "inputs": [
        {
          "internalType": "address",
          "name": "_user",
          "type": "address"
        }
      ],
      "name": "hasUnclaimedRewards",
      "outputs": [
        {
          "internalType": "bool",
          "name": "",
          "type": "bool"
        }
      ],
      "stateMutability": "view",
      "type": "function"
    },
    {
      "inputs": [],
      "name": "oracleAddress",
      "outputs": [
        {
          "internalType": "address",
          "name": "",
          "type": "address"
        }
      ],
      "stateMutability": "view",
      "type": "function"
    },
    {
      "inputs": [],
      "name": "oracleType",
      "outputs": [
        {
          "internalType": "enum PredictionMarket.OracleType",
          "name": "",
          "type": "uint8"
        }
      ],
      "stateMutability": "view",
      "type": "function"
    },
    {
      "inputs": [
        {
          "internalType": "uint256",
          "name": "",
          "type": "uint256"
        }
      ],
      "name": "outcomeStaked",
      "outputs": [
        {
          "internalType": "uint256",
          "name": "",
          "type": "uint256"
        }
      ],
      "stateMutability": "view",
      "type": "function"
    },
    {
      "inputs": [
        {
          "internalType": "uint256",
          "name": "",
          "type": "uint256"
        }
      ],
      "name": "outcomes",
      "outputs": [
        {
          "internalType": "string",
          "name": "name",
          "type": "string"
        },
        {
          "internalType": "uint256",
          "name": "totalStaked",
          "type": "uint256"
        },
        {
          "internalType": "uint256",
          "name": "betCount",
          "type": "uint256"
        }
      ],
      "stateMutability": "view",
      "type": "function"
    },
    {
      "inputs": [
        {
          "internalType": "uint256",
          "name": "",
          "type": "uint256"
        }
      ],
      "name": "participants",
      "outputs": [
        {
          "internalType": "address",
          "name": "",
          "type": "address"
        }
      ],
      "stateMutability": "view",
      "type": "function"
    },
    {
      "inputs": [],
      "name": "pause",
      "outputs": [],
      "stateMutability": "nonpayable",
      "type": "function"
    },
    {
      "inputs": [],
      "name": "paused",
      "outputs": [
        {
          "internalType": "bool",
          "name": "",
          "type": "bool"
        }
      ],
      "stateMutability": "view",
      "type": "function"
    },
    {
      "inputs": [
        {
          "internalType": "uint256",
          "name": "_outcome",
          "type": "uint256"
        }
      ],
      "name": "placeBet",
      "outputs": [],
      "stateMutability": "payable",
      "type": "function"
    },
    {
      "inputs": [],
      "name": "platformFeeRate",
      "outputs": [
        {
          "internalType": "uint256",
          "name": "",
          "type": "uint256"
        }
      ],
      "stateMutability": "view",
      "type": "function"
    },
    {
      "inputs": [],
      "name": "resolutionTime",
      "outputs": [
        {
          "internalType": "uint256",
          "name": "",
          "type": "uint256"
        }
      ],
      "stateMutability": "view",
      "type": "function"
    },
    {
      "inputs": [
        {
          "internalType": "uint256",
          "name": "_winningOutcome",
          "type": "uint256"
        },
        {
          "internalType": "string",
          "name": "_resolution",
          "type": "string"
        }
      ],
      "name": "resolveMarket",
      "outputs": [],
      "stateMutability": "nonpayable",
      "type": "function"
    },
    {
      "inputs": [],
      "name": "status",
      "outputs": [
        {
          "internalType": "enum PredictionMarket.MarketStatus",
          "name": "",
          "type": "uint8"
        }
      ],
      "stateMutability": "view",
      "type": "function"
    },
    {
      "inputs": [],
      "name": "title",
      "outputs": [
        {
          "internalType": "string",
          "name": "",
          "type": "string"
        }
      ],
      "stateMutability": "view",
      "type": "function"
    },
    {
      "inputs": [],
      "name": "totalVolume",
      "outputs": [
        {
          "internalType": "uint256",
          "name": "",
          "type": "uint256"
        }
      ],
      "stateMutability": "view",
      "type": "function"
    },
    {
      "inputs": [],
      "name": "unpause",
      "outputs": [],
      "stateMutability": "nonpayable",
      "type": "function"
    },
    {
      "inputs": [
        {
          "internalType": "address",
          "name": "",
          "type": "address"
        },
        {
          "internalType": "uint256",
          "name": "",
          "type": "uint256"
        }
      ],
      "name": "userBets",
      "outputs": [
        {
          "internalType": "uint256",
          "name": "amount",
          "type": "uint256"
        },
        {
          "internalType": "uint256",
          "name": "outcome",
          "type": "uint256"
        },
        {
          "internalType": "uint256",
          "name": "timestamp",
          "type": "uint256"
        },
        {
          "internalType": "bool",
          "name": "claimed",
          "type": "bool"
        }
      ],
      "stateMutability": "view",
      "type": "function"
    },
    {
      "inputs": [
        {
          "internalType": "address",
          "name": "",
          "type": "address"
        }
      ],
      "name": "userTotalStaked",
      "outputs": [
        {
          "internalType": "uint256",
          "name": "",
          "type": "uint256"
        }
      ],
      "stateMutability": "view",
      "type": "function"
    },
    {
      "inputs": [],
      "name": "winningOutcome",
      "outputs": [
        {
          "internalType": "uint256",
          "name": "",
          "type": "uint256"
        }
      ],
      "stateMutability": "view",
      "type": "function"
    }
  ],
  "bytecode": "0x60806040523480156200001157600080fd5b506040516200280e3803806200280e8339810160408190526200003491620003ff565b6001600055855160021115620000915760405162461bcd60e51b815260206004820152601860248201527f4e656564206174206c656173742032206f7574636f6d6573000000000000000060448201526064015b60405180910390fd5b428511620000e25760405162461bcd60e51b815260206004820152601860248201527f457870697279206d75737420626520696e206675747572650000000000000000604482015260640162000088565b6002620000f0898262000574565b506003620000ff888262000574565b506005859055600680546001600160a01b038087166001600160a01b031992831617909255600880549286169290911691909117905560ff821660028111156200014d576200014d62000640565b6008805460ff60a01b1916600160a01b83600281111562000172576200017262000640565b0217905550600780546001600160a01b0319166001600160a01b0383161790556008805460ff60a81b1916905560fa600c5560005b8651811015620002415760046040518060600160405280898481518110620001d357620001d362000656565b60209081029190910181015182526000828201819052604090920182905283546001810185559382529020815191926003020190819062000215908262000574565b50602082015160018201556040909101516002909101558062000238816200066c565b915050620001a7565b50505050505050505062000694565b634e487b7160e01b600052604160045260246000fd5b604051601f8201601f191681016001600160401b038111828210171562000291576200029162000250565b604052919050565b600082601f830112620002ab57600080fd5b81516001600160401b03811115620002c757620002c762000250565b6020620002dd601f8301601f1916820162000266565b8281528582848701011115620002f257600080fd5b60005b8381101562000312578581018301518282018401528201620002f5565b506000928101909101919091529392505050565b600082601f8301126200033857600080fd5b815160206001600160401b038083111562000357576200035762000250565b8260051b6200036883820162000266565b93845285810183019383810190888611156200038357600080fd5b84880192505b85831015620003c457825184811115620003a35760008081fd5b620003b38a87838c010162000299565b835250918401919084019062000389565b98975050505050505050565b80516001600160a01b0381168114620003e857600080fd5b919050565b805160ff81168114620003e857600080fd5b600080600080600080600080610100898b0312156200041d57600080fd5b88516001600160401b03808211156200043557600080fd5b620004438c838d0162000299565b995060208b01519150808211156200045a57600080fd5b620004688c838d0162000299565b985060408b01519150808211156200047f57600080fd5b506200048e8b828c0162000326565b96505060608901519450620004a660808a01620003d0565b9350620004b660a08a01620003d0565b9250620004c660c08a01620003ed565b9150620004d660e08a01620003d0565b90509295985092959890939650565b600181811c90821680620004fa57607f821691505b6020821081036200051b57634e487b7160e01b600052602260045260246000fd5b50919050565b601f8211156200056f57600081815260208120601f850160051c810160208610156200054a5750805b601f850160051c820191505b818110156200056b5782815560010162000556565b5050505b505050565b81516001600160401b0381111562000590576200059062000250565b620005a881620005a18454620004e5565b8462000521565b602080601f831160018114620005e05760008415620005c75750858301515b600019600386901b1c1916600185901b1785556200056b565b600085815260208120601f198616915b828110156200061157888601518255948401946001909101908401620005f0565b5085821015620006305787850151600019600388901b60f8161c191681555b5050505050600190811b01905550565b634e487b7160e01b600052602160045260246000fd5b634e487b7160e01b600052603260045260246000fd5b6000600182016200068d57634e487b7160e01b600052601160045260246000fd5b5060010190565b61216a80620006a46000396000f3fe6080604052600436106101ee5760003560e01c8063719de1ef1161010d578063a89ae4ba116100a0578063c75bb7241161006f578063c75bb724146105c5578063cf2b9f48146105e5578063eeca08f014610605578063eed2a1471461061b578063f3e41e901461064a57600080fd5b8063a89ae4ba14610540578063b4fb3ee314610560578063b88a802f14610590578063c45a0155146105a557600080fd5b80638456cb59116100dc5780638456cb59146104ec57806387abac111461050157806399bc0aea146105145780639b34ae031461052a57600080fd5b8063719de1ef146104485780637284e416146104755780638029c0711461048a5780638068aa68146104aa57600080fd5b80633d3db8eb116101855780635aa68ac0116101545780635aa68ac0146103cc5780635c975abb146103ee5780635f81a57c1461041257806364ff1cb31461042857600080fd5b80633d3db8eb146103515780633f4ba83a146103735780634a79d50c146103885780634c5be574146103aa57600080fd5b806320fdfc9b116101c157806320fdfc9b146102a157806323341a05146102dc5780632d56657d1461030457806335c1d3491461033157600080fd5b806302d05d3f146101f35780630d623e101461023057806310fe7c481461025e578063200d2ed214610273575b600080fd5b3480156101ff57600080fd5b50600654610213906001600160a01b031681565b6040516001600160a01b0390911681526020015b60405180910390f35b34801561023c57600080fd5b5060085461025190600160a01b900460ff1681565b6040516102279190611bf6565b61027161026c366004611c10565b610660565b005b34801561027f57600080fd5b5060085461029490600160a81b900460ff1681565b6040516102279190611c3d565b3480156102ad57600080fd5b506102ce6102bc366004611c10565b600f6020526000908152604090205481565b604051908152602001610227565b3480156102e857600080fd5b506102f1610988565b6040516102279796959493929190611c97565b34801561031057600080fd5b5061032461031f366004611d09565b610ae8565b6040516102279190611d2b565b34801561033d57600080fd5b5061021361034c366004611c10565b610b84565b34801561035d57600080fd5b50610366610bae565b6040516102279190611d91565b34801561037f57600080fd5b50610271610cb3565b34801561039457600080fd5b5061039d610d1b565b6040516102279190611e12565b3480156103b657600080fd5b506103bf610da9565b6040516102279190611e25565b3480156103d857600080fd5b506103e1610ecc565b6040516102279190611e69565b3480156103fa57600080fd5b5060015460ff165b6040519015158152602001610227565b34801561041e57600080fd5b506102ce60095481565b34801561043457600080fd5b50610271610443366004611f4d565b610f2e565b34801561045457600080fd5b506102ce610463366004611d09565b600e6020526000908152604090205481565b34801561048157600080fd5b5061039d611113565b34801561049657600080fd5b506104026104a5366004611d09565b611120565b3480156104b657600080fd5b506104ca6104c5366004611f82565b611161565b6040805194855260208501939093529183015215156060820152608001610227565b3480156104f857600080fd5b506102716111aa565b61027161050f366004611f4d565b611210565b34801561052057600080fd5b506102ce60055481565b34801561053657600080fd5b506102ce600a5481565b34801561054c57600080fd5b50600854610213906001600160a01b031681565b34801561056c57600080fd5b5061040261057b366004611d09565b60116020526000908152604090205460ff1681565b34801561059c57600080fd5b50610271611375565b3480156105b157600080fd5b50600754610213906001600160a01b031681565b3480156105d157600080fd5b506102716105e0366004611fac565b611719565b3480156105f157600080fd5b506102ce610600366004611d09565b6118b1565b34801561061157600080fd5b506102ce600c5481565b34801561062757600080fd5b5061063b610636366004611c10565b611a20565b60405161022793929190611ff3565b34801561065657600080fd5b506102ce600b5481565b610668611ae2565b6000600854600160a81b900460ff16600381111561068857610688611be0565b146106ae5760405162461bcd60e51b81526004016106a590612018565b60405180910390fd5b60055442106106f05760405162461bcd60e51b815260206004820152600e60248201526d13585c9ad95d08195e1c1a5c995960921b60448201526064016106a5565b6106f8611b0c565b600454811061073b5760405162461bcd60e51b815260206004820152600f60248201526e496e76616c6964206f7574636f6d6560881b60448201526064016106a5565b6000341161078b5760405162461bcd60e51b815260206004820152601b60248201527f42657420616d6f756e74206d75737420626520706f736974697665000000000060448201526064016106a5565b336000908152600d602090815260408083208151608081018352348082528185018781524294830194855260608301878152845460018082018755958952969097209251600496870290930192835551928201929092559151600283015592516003909101805460ff191691151591909117905580548390811061081157610811612043565b90600052602060002090600302016001016000828254610831919061206f565b9091555050600480548290811061084a5761084a612043565b60009182526020822060026003909202010180549161086883612082565b90915550506000818152600f60205260408120805434929061088b90849061206f565b9091555050336000908152600e6020526040812080543492906108af90849061206f565b9250508190555034600960008282546108c8919061206f565b90915550503360009081526011602052604090205460ff1661093f576010805460018181019092557f1b6847dc741a1b0cd08d278845f9d819d87b734759afb55fe2de5cb82a9ae6720180546001600160a01b031916339081179091556000908152601160205260409020805460ff191690911790555b60408051348152426020820152829133917f7363e6581df4db69463222156be4a09656528b9f1302890fa4c0b60819b69fc6910160405180910390a36109856001600055565b50565b606080600080600080600060026003600954600554600860159054906101000a900460ff166010805490506004805490508680546109c59061209b565b80601f01602080910402602001604051908101604052809291908181526020018280546109f19061209b565b8015610a3e5780601f10610a1357610100808354040283529160200191610a3e565b820191906000526020600020905b815481529060010190602001808311610a2157829003601f168201915b50505050509650858054610a519061209b565b80601f0160208091040260200160405190810160405280929190818152602001828054610a7d9061209b565b8015610aca5780601f10610a9f57610100808354040283529160200191610aca565b820191906000526020600020905b815481529060010190602001808311610aad57829003601f168201915b50505050509550965096509650965096509650965090919293949596565b6001600160a01b0381166000908152600d60209081526040808320805482518185028101850190935280835260609492939192909184015b82821015610b79576000848152602090819020604080516080810182526004860290920180548352600180820154848601526002820154928401929092526003015460ff16151560608301529083529092019101610b20565b505050509050919050565b60108181548110610b9457600080fd5b6000918252602090912001546001600160a01b0316905081565b60606004805480602002602001604051908101604052809291908181526020016000905b82821015610caa5783829060005260206000209060030201604051806060016040529081600082018054610c059061209b565b80601f0160208091040260200160405190810160405280929190818152602001828054610c319061209b565b8015610c7e5780601f10610c5357610100808354040283529160200191610c7e565b820191906000526020600020905b815481529060010190602001808311610c6157829003601f168201915b505050505081526020016001820154815260200160028201548152505081526020019060010190610bd2565b50505050905090565b6006546001600160a01b0316331480610cd657506007546001600160a01b031633145b610d115760405162461bcd60e51b815260206004820152600c60248201526b155b985d5d1a1bdc9a5e995960a21b60448201526064016106a5565b610d19611b30565b565b60028054610d289061209b565b80601f0160208091040260200160405190810160405280929190818152602001828054610d549061209b565b8015610da15780601f10610d7657610100808354040283529160200191610da1565b820191906000526020600020905b815481529060010190602001808311610d8457829003601f168201915b505050505081565b60045460609060009067ffffffffffffffff811115610dca57610dca611eaa565b604051908082528060200260200182016040528015610df3578160200160208202803683370190505b509050600954600003610e515760005b600454811015610e4b57600454610e1c906127106120cf565b828281518110610e2e57610e2e612043565b602090810291909101015280610e4381612082565b915050610e03565b50919050565b60005b600454811015610e4b5760095460048281548110610e7457610e74612043565b906000526020600020906003020160010154612710610e9391906120f1565b610e9d91906120cf565b828281518110610eaf57610eaf612043565b602090810291909101015280610ec481612082565b915050610e54565b60606010805480602002602001604051908101604052809291908181526020018280548015610f2457602002820191906000526020600020905b81546001600160a01b03168152600190910190602001808311610f06575b5050505050905090565b6007546001600160a01b03163314610f7f5760405162461bcd60e51b815260206004820152601460248201527313db9b1e48199858dd1bdc9e48185b1b1bddd95960621b60448201526064016106a5565b6000600854600160a81b900460ff166003811115610f9f57610f9f611be0565b14610fbc5760405162461bcd60e51b81526004016106a590612018565b6008805460ff60a81b1916600360a81b17905560005b6010548110156110d657600060108281548110610ff157610ff1612043565b60009182526020808320909101546001600160a01b0316808352600e90915260409091205490915080156110c1576001600160a01b0382166000818152600e60205260408082208290555190919083908381818185875af1925050503d8060008114611079576040519150601f19603f3d011682016040523d82523d6000602084013e61107e565b606091505b50509050806110bf5760405162461bcd60e51b815260206004820152600d60248201526c1499599d5b990819985a5b1959609a1b60448201526064016106a5565b505b505080806110ce90612082565b915050610fd2565b507f4c4561c5b0048424071c1115e9f1e325486e21c21333d968f21097b7b72d12ad4282604051611108929190612108565b60405180910390a150565b60038054610d289061209b565b60006001600854600160a81b900460ff16600381111561114257611142611be0565b1461114f57506000919050565b600061115a836118b1565b1192915050565b600d602052816000526040600020818154811061117d57600080fd5b60009182526020909120600490910201805460018201546002830154600390930154919450925060ff1684565b6006546001600160a01b03163314806111cd57506007546001600160a01b031633145b6112085760405162461bcd60e51b815260206004820152600c60248201526b155b985d5d1a1bdc9a5e995960a21b60448201526064016106a5565b610d19611b82565b6001600854600160a81b900460ff16600381111561123057611230611be0565b146112735760405162461bcd60e51b815260206004820152601360248201527213585c9ad95d081b9bdd081c995cdbdb1d9959606a1b60448201526064016106a5565b600b546112839062093a8061206f565b4211156112cb5760405162461bcd60e51b8152602060048201526016602482015275111a5cdc1d5d19481c195c9a5bd908195e1c1a5c995960521b60448201526064016106a5565b67016345785d8a00003410156113235760405162461bcd60e51b815260206004820152601960248201527f496e73756666696369656e74206469737075746520626f6e640000000000000060448201526064016106a5565b6008805460ff60a81b1916600160a91b17905560405133907fa552416225d3047eceaa265d9762310e2fdd111aaf18a172236982ae9fadfe279061136a9042908590612108565b60405180910390a250565b61137d611ae2565b6001600854600160a81b900460ff16600381111561139d5761139d611be0565b146113e05760405162461bcd60e51b815260206004820152601360248201527213585c9ad95d081b9bdd081c995cdbdb1d9959606a1b60448201526064016106a5565b336000908152600d602052604090205461142c5760405162461bcd60e51b815260206004820152600d60248201526c139bc818995d1cc8199bdd5b99609a1b60448201526064016106a5565b6000611437336118b1565b90506000811161147f5760405162461bcd60e51b81526020600482015260136024820152724e6f207265776172647320746f20636c61696d60681b60448201526064016106a5565b60005b336000908152600d602052604090205481101561157057600a54336000908152600d602052604090208054839081106114bd576114bd612043565b9060005260206000209060040201600101541480156115115750336000908152600d602052604090208054829081106114f8576114f8612043565b600091825260209091206003600490920201015460ff16155b1561155e57336000908152600d602052604090208054600191908390811061153b5761153b612043565b60009182526020909120600490910201600301805460ff19169115159190911790555b8061156881612082565b915050611482565b506000612710600c548361158491906120f1565b61158e91906120cf565b9050600061159c8284612121565b604051909150600090339083908381818185875af1925050503d80600081146115e1576040519150601f19603f3d011682016040523d82523d6000602084013e6115e6565b606091505b50509050806116305760405162461bcd60e51b815260206004820152601660248201527514995dd85c99081d1c985b9cd9995c8819985a5b195960521b60448201526064016106a5565b82156116d1576007546040516000916001600160a01b03169085908381818185875af1925050503d8060008114611683576040519150601f19603f3d011682016040523d82523d6000602084013e611688565b606091505b50509050806116cf5760405162461bcd60e51b8152602060048201526013602482015272119959481d1c985b9cd9995c8819985a5b1959606a1b60448201526064016106a5565b505b6040805183815242602082015233917ff01da32686223933d8a18a391060918c7f11a3648639edd87ae013e2e2731743910160405180910390a250505050610d196001600055565b6008546001600160a01b031633146117695760405162461bcd60e51b815260206004820152601360248201527213db9b1e481bdc9858db1948185b1b1bddd959606a1b60448201526064016106a5565b611771611ae2565b6000600854600160a81b900460ff16600381111561179157611791611be0565b146117ae5760405162461bcd60e51b81526004016106a590612018565b6005544210156117f95760405162461bcd60e51b815260206004820152601660248201527513585c9ad95d081b9bdd08195e1c1a5c9959081e595d60521b60448201526064016106a5565b600454821061184a5760405162461bcd60e51b815260206004820152601760248201527f496e76616c69642077696e6e696e67206f7574636f6d6500000000000000000060448201526064016106a5565b6008805460ff60a81b1916600160a81b179055600a82905542600b81905560405183917f230e0c4260efa5ac59d08aaabf3711693fe4f1df54fcb28cc4981a800e5863069161189b91908590612108565b60405180910390a26118ad6001600055565b5050565b60006001600854600160a81b900460ff1660038111156118d3576118d3611be0565b146118e057506000919050565b6000805b6001600160a01b0384166000908152600d60205260409020548110156119b0576001600160a01b0384166000908152600d6020526040812080548390811061192e5761192e612043565b60009182526020918290206040805160808101825260049093029091018054835260018101549383018490526002810154918301919091526003015460ff1615156060820152600a5490925014801561198957508060600151155b1561199d57805161199a908461206f565b92505b50806119a881612082565b9150506118e4565b50806000036119c25750600092915050565b60006004600a54815481106119d9576119d9612043565b9060005260206000209060030201600101549050806000036119ff575060009392505050565b8060095483611a0e91906120f1565b611a1891906120cf565b949350505050565b60048181548110611a3057600080fd5b9060005260206000209060030201600091509050806000018054611a539061209b565b80601f0160208091040260200160405190810160405280929190818152602001828054611a7f9061209b565b8015611acc5780601f10611aa157610100808354040283529160200191611acc565b820191906000526020600020905b815481529060010190602001808311611aaf57829003601f168201915b5050505050908060010154908060020154905083565b600260005403611b0557604051633ee5aeb560e01b815260040160405180910390fd5b6002600055565b60015460ff1615610d195760405163d93c066560e01b815260040160405180910390fd5b611b38611bbd565b6001805460ff191690557f5db9ee0a495bf2e6ff9c91a7834c1ba4fdd244a5e8aa4e537bd38aeae4b073aa335b6040516001600160a01b03909116815260200160405180910390a1565b611b8a611b0c565b6001805460ff1916811790557f62e78cea01bee320cd4e420270b5ea74000d11b0c9f74754ebdbfc544b05a25833611b65565b60015460ff16610d1957604051638dfc202b60e01b815260040160405180910390fd5b634e487b7160e01b600052602160045260246000fd5b6020810160038310611c0a57611c0a611be0565b91905290565b600060208284031215611c2257600080fd5b5035919050565b60048110611c3957611c39611be0565b9052565b60208101611c4b8284611c29565b92915050565b6000815180845260005b81811015611c7757602081850181015186830182015201611c5b565b506000602082860101526020601f19601f83011685010191505092915050565b60e081526000611caa60e083018a611c51565b8281036020840152611cbc818a611c51565b915050866040830152856060830152611cd86080830186611c29565b60a082019390935260c0015295945050505050565b80356001600160a01b0381168114611d0457600080fd5b919050565b600060208284031215611d1b57600080fd5b611d2482611ced565b9392505050565b602080825282518282018190526000919060409081850190868401855b82811015611d84578151805185528681015187860152858101518686015260609081015115159085015260809093019290850190600101611d48565b5091979650505050505050565b60006020808301818452808551808352604092508286019150828160051b87010184880160005b83811015611e0457603f19898403018552815160608151818652611dde82870182611c51565b838b0151878c015292890151958901959095525094870194925090860190600101611db8565b509098975050505050505050565b602081526000611d246020830184611c51565b6020808252825182820181905260009190848201906040850190845b81811015611e5d57835183529284019291840191600101611e41565b50909695505050505050565b6020808252825182820181905260009190848201906040850190845b81811015611e5d5783516001600160a01b031683529284019291840191600101611e85565b634e487b7160e01b600052604160045260246000fd5b600082601f830112611ed157600080fd5b813567ffffffffffffffff80821115611eec57611eec611eaa565b604051601f8301601f19908116603f01168101908282118183101715611f1457611f14611eaa565b81604052838152866020858801011115611f2d57600080fd5b836020870160208301376000602085830101528094505050505092915050565b600060208284031215611f5f57600080fd5b813567ffffffffffffffff811115611f7657600080fd5b611a1884828501611ec0565b60008060408385031215611f9557600080fd5b611f9e83611ced565b946020939093013593505050565b60008060408385031215611fbf57600080fd5b82359150602083013567ffffffffffffffff811115611fdd57600080fd5b611fe985828601611ec0565b9150509250929050565b6060815260006120066060830186611c51565b60208301949094525060400152919050565b6020808252601190820152704d61726b6574206e6f742061637469766560781b604082015260600190565b634e487b7160e01b600052603260045260246000fd5b634e487b7160e01b600052601160045260246000fd5b80820180821115611c4b57611c4b612059565b60006001820161209457612094612059565b5060010190565b600181811c908216806120af57607f821691505b602082108103610e4b57634e487b7160e01b600052602260045260246000fd5b6000826120ec57634e487b7160e01b600052601260045260246000fd5b500490565b8082028115828204841417611c4b57611c4b612059565b828152604060208201526000611a186040830184611c51565b81810381811115611c4b57611c4b61205956fea26469706673582212204b17e6cf223ce5987b7a05a3f7ff56cec4333e2fa54649571f4dea8c16d53e5764736f6c63430008140033",
  "linkReferences": {},
  "deployedLinkReferences": {}
}